{
	"contracts/Product.sol": {
		"Product": {
			"abi": [
				{
					"inputs": [
						{
							"internalType": "address",
							"name": "_oracleAddress",
							"type": "address"
						},
						{
							"internalType": "address",
							"name": "_DOA",
							"type": "address"
						},
						{
							"internalType": "address payable",
							"name": "_owner",
							"type": "address"
						}
					],
					"stateMutability": "nonpayable",
					"type": "constructor"
				},
				{
					"anonymous": false,
					"inputs": [
						{
							"indexed": false,
							"internalType": "bytes32",
							"name": "productID",
							"type": "bytes32"
						}
					],
					"name": "batchIdentifier",
					"type": "event"
				},
				{
					"anonymous": false,
					"inputs": [
						{
							"indexed": false,
							"internalType": "bool",
							"name": "result",
							"type": "bool"
						}
					],
					"name": "compareTemperatureResult",
					"type": "event"
				},
				{
					"inputs": [
						{
							"internalType": "bytes32",
							"name": "_batchID",
							"type": "bytes32"
						},
						{
							"internalType": "bytes32",
							"name": "_certificate",
							"type": "bytes32"
						},
						{
							"internalType": "bytes",
							"name": "_signature",
							"type": "bytes"
						}
					],
					"name": "addCertificate",
					"outputs": [],
					"stateMutability": "nonpayable",
					"type": "function"
				},
				{
					"inputs": [
						{
							"internalType": "address",
							"name": "_producer",
							"type": "address"
						}
					],
					"name": "addProducer",
					"outputs": [],
					"stateMutability": "nonpayable",
					"type": "function"
				},
				{
					"inputs": [
						{
							"internalType": "bytes32",
							"name": "_data",
							"type": "bytes32"
						},
						{
							"internalType": "uint256",
							"name": "_temperature",
							"type": "uint256"
						},
						{
							"internalType": "string",
							"name": "_CID",
							"type": "string"
						}
					],
					"name": "addProduct",
					"outputs": [],
					"stateMutability": "nonpayable",
					"type": "function"
				},
				{
					"inputs": [],
					"name": "destroyContract",
					"outputs": [],
					"stateMutability": "nonpayable",
					"type": "function"
				},
				{
					"inputs": [],
					"name": "emergencyHalt",
					"outputs": [],
					"stateMutability": "nonpayable",
					"type": "function"
				},
				{
					"inputs": [
						{
							"internalType": "bytes32",
							"name": "_batchID",
							"type": "bytes32"
						}
					],
					"name": "getCertificate",
					"outputs": [
						{
							"internalType": "bytes32",
							"name": "",
							"type": "bytes32"
						},
						{
							"internalType": "bytes",
							"name": "",
							"type": "bytes"
						}
					],
					"stateMutability": "view",
					"type": "function"
				},
				{
					"inputs": [
						{
							"internalType": "bytes32",
							"name": "_batchID",
							"type": "bytes32"
						}
					],
					"name": "getDatabase",
					"outputs": [
						{
							"internalType": "string",
							"name": "",
							"type": "string"
						}
					],
					"stateMutability": "view",
					"type": "function"
				},
				{
					"inputs": [
						{
							"internalType": "address",
							"name": "_producer",
							"type": "address"
						}
					],
					"name": "getProducer",
					"outputs": [
						{
							"internalType": "bool",
							"name": "",
							"type": "bool"
						}
					],
					"stateMutability": "view",
					"type": "function"
				},
				{
					"inputs": [
						{
							"internalType": "bytes32",
							"name": "_batchID",
							"type": "bytes32"
						}
					],
					"name": "getProduct",
					"outputs": [
						{
							"internalType": "bytes32",
							"name": "",
							"type": "bytes32"
						},
						{
							"internalType": "address",
							"name": "",
							"type": "address"
						},
						{
							"internalType": "bool",
							"name": "",
							"type": "bool"
						}
					],
					"stateMutability": "view",
					"type": "function"
				},
				{
					"inputs": [
						{
							"internalType": "bytes32",
							"name": "_batchID",
							"type": "bytes32"
						}
					],
					"name": "getStatus",
					"outputs": [
						{
							"internalType": "bool",
							"name": "",
							"type": "bool"
						}
					],
					"stateMutability": "view",
					"type": "function"
				},
				{
					"inputs": [
						{
							"internalType": "bytes32",
							"name": "_batchID",
							"type": "bytes32"
						}
					],
					"name": "getTemperature",
					"outputs": [],
					"stateMutability": "nonpayable",
					"type": "function"
				},
				{
					"inputs": [
						{
							"internalType": "uint256",
							"name": "data",
							"type": "uint256"
						},
						{
							"internalType": "bytes32",
							"name": "batchId",
							"type": "bytes32"
						}
					],
					"name": "receiveDataFromOracle",
					"outputs": [
						{
							"internalType": "bool",
							"name": "",
							"type": "bool"
						}
					],
					"stateMutability": "nonpayable",
					"type": "function"
				},
				{
					"inputs": [],
					"name": "restartContract",
					"outputs": [],
					"stateMutability": "nonpayable",
					"type": "function"
				},
				{
					"inputs": [
						{
							"internalType": "bytes32",
							"name": "_batchID",
							"type": "bytes32"
						},
						{
							"internalType": "bytes32",
							"name": "_productHash",
							"type": "bytes32"
						},
						{
							"internalType": "address",
							"name": "_newOwner",
							"type": "address"
						}
					],
					"name": "updateOwner",
					"outputs": [],
					"stateMutability": "nonpayable",
					"type": "function"
				},
				{
					"inputs": [
						{
							"internalType": "bytes32",
							"name": "_batchID",
							"type": "bytes32"
						},
						{
							"internalType": "bool",
							"name": "_status",
							"type": "bool"
						}
					],
					"name": "updateStatus",
					"outputs": [],
					"stateMutability": "nonpayable",
					"type": "function"
				},
				{
					"inputs": [
						{
							"internalType": "bytes32",
							"name": "_batchID",
							"type": "bytes32"
						}
					],
					"name": "verifyCertificate",
					"outputs": [
						{
							"internalType": "bool",
							"name": "",
							"type": "bool"
						}
					],
					"stateMutability": "view",
					"type": "function"
				},
				{
					"inputs": [
						{
							"internalType": "bytes32",
							"name": "_batchID",
							"type": "bytes32"
						},
						{
							"internalType": "bytes32",
							"name": "_offchainHash",
							"type": "bytes32"
						}
					],
					"name": "verifyProductHash",
					"outputs": [
						{
							"internalType": "bool",
							"name": "",
							"type": "bool"
						}
					],
					"stateMutability": "view",
					"type": "function"
				}
			],
			"devdoc": {
				"kind": "dev",
				"methods": {
					"addCertificate(bytes32,bytes32,bytes)": {
						"details": "only the producer of the product can call ",
						"params": {
							"_batchID": "unique identifier of the batch ",
							"_certificate": "certificate certifying product batch",
							"_signature": "signature of the certificate issuer *"
						}
					},
					"addProducer(address)": {
						"details": "only contract owner can call ",
						"params": {
							"_producer": "batch producer address *"
						}
					},
					"addProduct(bytes32,uint256,string)": {
						"details": "only registered producer can call ",
						"params": {
							"_CID": "unique identifier of the off-chain storage*",
							"_data": "product data hash ",
							"_temperature": "stores required temperature"
						}
					},
					"destroyContract()": {
						"details": "only the contract owner / deployer can call*"
					},
					"emergencyHalt()": {
						"details": "only the contract owner / deployer can call*"
					},
					"getCertificate(bytes32)": {
						"details": "anyone can call function ",
						"params": {
							"_batchID": "unique batch ID to get the product "
						},
						"returns": {
							"_0": "bytes32 batch certificate on-chain",
							"_1": "bytes array of the issuer signature*"
						}
					},
					"getDatabase(bytes32)": {
						"details": "anyone can call function ",
						"params": {
							"_batchID": "unique batch ID to get the product "
						},
						"returns": {
							"_0": "string unique IPFS storage identifier (CID)*"
						}
					},
					"getProducer(address)": {
						"details": "anyone can call function ",
						"params": {
							"_producer": "batch producer address "
						},
						"returns": {
							"_0": "bool true if address is in mapping *"
						}
					},
					"getProduct(bytes32)": {
						"details": "anyone can call function ",
						"params": {
							"_batchID": "unique batch ID to get the product "
						},
						"returns": {
							"_0": "bytes32 product hash stored on-chain ",
							"_1": "address of the current owner of the batch *"
						}
					},
					"getStatus(bytes32)": {
						"details": "anyone can call function ",
						"params": {
							"_batchID": "unique batch ID to get the product "
						},
						"returns": {
							"_0": "bool reads batch status *"
						}
					},
					"restartContract()": {
						"details": "only the contract owner / deployer can call*"
					},
					"updateOwner(bytes32,bytes32,address)": {
						"details": "only the current owner of the product can call ",
						"params": {
							"_batchID": "unique identifier of the batch ",
							"_newOwner": "address of a new batch owner *",
							"_productHash": "hash of the product to verify"
						}
					},
					"updateStatus(bytes32,bool)": {
						"details": "only batch current owner can call ",
						"params": {
							"_batchID": "unique identifier of the batch ",
							"_status": "new status of the batch *"
						}
					},
					"verifyCertificate(bytes32)": {
						"details": "anyone can call function ",
						"params": {
							"_batchID": "unique batch ID to get the product "
						},
						"returns": {
							"_0": "bool if the issuer is registered with DOA, then          certificate is valid, otherwise returns false *"
						}
					},
					"verifyProductHash(bytes32,bytes32)": {
						"details": "anyone can call ",
						"params": {
							"_batchID": "unique identifier of the batch ",
							"_offchainHash": "certificate certifying product batch"
						},
						"returns": {
							"_0": "bool if the hash stored on-chain is the same as newly computed hash,         then product infromation is correct and has not been modified *"
						}
					}
				},
				"version": 1
			},
			"evm": {
				"assembly": "    /* \"contracts/Product.sol\":115:13950  contract Product is TemperatureOracleClient {... */\n  mstore(0x40, 0x80)\n    /* \"contracts/Product.sol\":1428:1595  constructor(address _oracleAddress, address _DOA, address payable _owner) TemperatureOracleClient(_oracleAddress) {... */\n  callvalue\n  dup1\n  iszero\n  tag_1\n  jumpi\n  0x00\n  dup1\n  revert\ntag_1:\n  pop\n  mload(0x40)\n  sub(codesize, bytecodeSize)\n  dup1\n  bytecodeSize\n  dup4\n  codecopy\n  dup2\n  dup2\n  add\n  0x40\n  mstore\n  dup2\n  add\n  swap1\n  tag_2\n  swap2\n  swap1\n  tag_3\n  jump\t// in\ntag_2:\n    /* \"contracts/Product.sol\":1526:1540  _oracleAddress */\n  dup3\n    /* \"contracts/OracleClient.sol\":293:306  oracleAddress */\n  dup1\n    /* \"contracts/OracleClient.sol\":276:290  _oracleAddress */\n  0x00\n  dup1\n    /* \"contracts/OracleClient.sol\":276:306  _oracleAddress = oracleAddress */\n  0x0100\n  exp\n  dup2\n  sload\n  dup2\n  0xffffffffffffffffffffffffffffffffffffffff\n  mul\n  not\n  and\n  swap1\n  dup4\n  0xffffffffffffffffffffffffffffffffffffffff\n  and\n  mul\n  or\n  swap1\n  sstore\n  pop\n    /* \"contracts/OracleClient.sol\":231:313  constructor(address oracleAddress) {... */\n  pop\n    /* \"contracts/Product.sol\":1558:1562  _DOA */\n  dup2\n    /* \"contracts/Product.sol\":1552:1555  DOA */\n  0x02\n  0x00\n    /* \"contracts/Product.sol\":1552:1562  DOA = _DOA */\n  0x0100\n  exp\n  dup2\n  sload\n  dup2\n  0xffffffffffffffffffffffffffffffffffffffff\n  mul\n  not\n  and\n  swap1\n  dup4\n  0xffffffffffffffffffffffffffffffffffffffff\n  and\n  mul\n  or\n  swap1\n  sstore\n  pop\n    /* \"contracts/Product.sol\":1581:1587  _owner */\n  dup1\n    /* \"contracts/Product.sol\":1573:1578  owner */\n  0x01\n  0x00\n    /* \"contracts/Product.sol\":1573:1587  owner = _owner */\n  0x0100\n  exp\n  dup2\n  sload\n  dup2\n  0xffffffffffffffffffffffffffffffffffffffff\n  mul\n  not\n  and\n  swap1\n  dup4\n  0xffffffffffffffffffffffffffffffffffffffff\n  and\n  mul\n  or\n  swap1\n  sstore\n  pop\n    /* \"contracts/Product.sol\":1428:1595  constructor(address _oracleAddress, address _DOA, address payable _owner) TemperatureOracleClient(_oracleAddress) {... */\n  pop\n  pop\n  pop\n    /* \"contracts/Product.sol\":115:13950  contract Product is TemperatureOracleClient {... */\n  jump(tag_8)\n    /* \"#utility.yul\":7:150   */\ntag_10:\n    /* \"#utility.yul\":64:69   */\n  0x00\n    /* \"#utility.yul\":95:101   */\n  dup2\n    /* \"#utility.yul\":89:102   */\n  mload\n    /* \"#utility.yul\":80:102   */\n  swap1\n  pop\n    /* \"#utility.yul\":111:144   */\n  tag_12\n    /* \"#utility.yul\":138:143   */\n  dup2\n    /* \"#utility.yul\":111:144   */\n  tag_13\n  jump\t// in\ntag_12:\n    /* \"#utility.yul\":7:150   */\n  swap3\n  swap2\n  pop\n  pop\n  jump\t// out\n    /* \"#utility.yul\":156:315   */\ntag_14:\n    /* \"#utility.yul\":221:226   */\n  0x00\n    /* \"#utility.yul\":252:258   */\n  dup2\n    /* \"#utility.yul\":246:259   */\n  mload\n    /* \"#utility.yul\":237:259   */\n  swap1\n  pop\n    /* \"#utility.yul\":268:309   */\n  tag_16\n    /* \"#utility.yul\":303:308   */\n  dup2\n    /* \"#utility.yul\":268:309   */\n  tag_17\n  jump\t// in\ntag_16:\n    /* \"#utility.yul\":156:315   */\n  swap3\n  swap2\n  pop\n  pop\n  jump\t// out\n    /* \"#utility.yul\":321:1000   */\ntag_3:\n    /* \"#utility.yul\":417:423   */\n  0x00\n    /* \"#utility.yul\":425:431   */\n  dup1\n    /* \"#utility.yul\":433:439   */\n  0x00\n    /* \"#utility.yul\":482:484   */\n  0x60\n    /* \"#utility.yul\":470:479   */\n  dup5\n    /* \"#utility.yul\":461:468   */\n  dup7\n    /* \"#utility.yul\":457:480   */\n  sub\n    /* \"#utility.yul\":453:485   */\n  slt\n    /* \"#utility.yul\":450:569   */\n  iszero\n  tag_19\n  jumpi\n    /* \"#utility.yul\":488:567   */\n  tag_20\n  tag_21\n  jump\t// in\ntag_20:\n    /* \"#utility.yul\":450:569   */\ntag_19:\n    /* \"#utility.yul\":608:609   */\n  0x00\n    /* \"#utility.yul\":633:697   */\n  tag_22\n    /* \"#utility.yul\":689:696   */\n  dup7\n    /* \"#utility.yul\":680:686   */\n  dup3\n    /* \"#utility.yul\":669:678   */\n  dup8\n    /* \"#utility.yul\":665:687   */\n  add\n    /* \"#utility.yul\":633:697   */\n  tag_10\n  jump\t// in\ntag_22:\n    /* \"#utility.yul\":623:697   */\n  swap4\n  pop\n    /* \"#utility.yul\":579:707   */\n  pop\n    /* \"#utility.yul\":746:748   */\n  0x20\n    /* \"#utility.yul\":772:836   */\n  tag_23\n    /* \"#utility.yul\":828:835   */\n  dup7\n    /* \"#utility.yul\":819:825   */\n  dup3\n    /* \"#utility.yul\":808:817   */\n  dup8\n    /* \"#utility.yul\":804:826   */\n  add\n    /* \"#utility.yul\":772:836   */\n  tag_10\n  jump\t// in\ntag_23:\n    /* \"#utility.yul\":762:836   */\n  swap3\n  pop\n    /* \"#utility.yul\":717:846   */\n  pop\n    /* \"#utility.yul\":885:887   */\n  0x40\n    /* \"#utility.yul\":911:983   */\n  tag_24\n    /* \"#utility.yul\":975:982   */\n  dup7\n    /* \"#utility.yul\":966:972   */\n  dup3\n    /* \"#utility.yul\":955:964   */\n  dup8\n    /* \"#utility.yul\":951:973   */\n  add\n    /* \"#utility.yul\":911:983   */\n  tag_14\n  jump\t// in\ntag_24:\n    /* \"#utility.yul\":901:983   */\n  swap2\n  pop\n    /* \"#utility.yul\":856:993   */\n  pop\n    /* \"#utility.yul\":321:1000   */\n  swap3\n  pop\n  swap3\n  pop\n  swap3\n  jump\t// out\n    /* \"#utility.yul\":1087:1183   */\ntag_27:\n    /* \"#utility.yul\":1124:1131   */\n  0x00\n    /* \"#utility.yul\":1153:1177   */\n  tag_29\n    /* \"#utility.yul\":1171:1176   */\n  dup3\n    /* \"#utility.yul\":1153:1177   */\n  tag_30\n  jump\t// in\ntag_29:\n    /* \"#utility.yul\":1142:1177   */\n  swap1\n  pop\n    /* \"#utility.yul\":1087:1183   */\n  swap2\n  swap1\n  pop\n  jump\t// out\n    /* \"#utility.yul\":1189:1293   */\ntag_31:\n    /* \"#utility.yul\":1234:1241   */\n  0x00\n    /* \"#utility.yul\":1263:1287   */\n  tag_33\n    /* \"#utility.yul\":1281:1286   */\n  dup3\n    /* \"#utility.yul\":1263:1287   */\n  tag_30\n  jump\t// in\ntag_33:\n    /* \"#utility.yul\":1252:1287   */\n  swap1\n  pop\n    /* \"#utility.yul\":1189:1293   */\n  swap2\n  swap1\n  pop\n  jump\t// out\n    /* \"#utility.yul\":1299:1425   */\ntag_30:\n    /* \"#utility.yul\":1336:1343   */\n  0x00\n    /* \"#utility.yul\":1376:1418   */\n  0xffffffffffffffffffffffffffffffffffffffff\n    /* \"#utility.yul\":1369:1374   */\n  dup3\n    /* \"#utility.yul\":1365:1419   */\n  and\n    /* \"#utility.yul\":1354:1419   */\n  swap1\n  pop\n    /* \"#utility.yul\":1299:1425   */\n  swap2\n  swap1\n  pop\n  jump\t// out\n    /* \"#utility.yul\":1554:1671   */\ntag_21:\n    /* \"#utility.yul\":1663:1664   */\n  0x00\n    /* \"#utility.yul\":1660:1661   */\n  dup1\n    /* \"#utility.yul\":1653:1665   */\n  revert\n    /* \"#utility.yul\":1677:1799   */\ntag_13:\n    /* \"#utility.yul\":1750:1774   */\n  tag_39\n    /* \"#utility.yul\":1768:1773   */\n  dup2\n    /* \"#utility.yul\":1750:1774   */\n  tag_27\n  jump\t// in\ntag_39:\n    /* \"#utility.yul\":1743:1748   */\n  dup2\n    /* \"#utility.yul\":1740:1775   */\n  eq\n    /* \"#utility.yul\":1730:1793   */\n  tag_40\n  jumpi\n    /* \"#utility.yul\":1789:1790   */\n  0x00\n    /* \"#utility.yul\":1786:1787   */\n  dup1\n    /* \"#utility.yul\":1779:1791   */\n  revert\n    /* \"#utility.yul\":1730:1793   */\ntag_40:\n    /* \"#utility.yul\":1677:1799   */\n  pop\n  jump\t// out\n    /* \"#utility.yul\":1805:1943   */\ntag_17:\n    /* \"#utility.yul\":1886:1918   */\n  tag_42\n    /* \"#utility.yul\":1912:1917   */\n  dup2\n    /* \"#utility.yul\":1886:1918   */\n  tag_31\n  jump\t// in\ntag_42:\n    /* \"#utility.yul\":1879:1884   */\n  dup2\n    /* \"#utility.yul\":1876:1919   */\n  eq\n    /* \"#utility.yul\":1866:1937   */\n  tag_43\n  jumpi\n    /* \"#utility.yul\":1933:1934   */\n  0x00\n    /* \"#utility.yul\":1930:1931   */\n  dup1\n    /* \"#utility.yul\":1923:1935   */\n  revert\n    /* \"#utility.yul\":1866:1937   */\ntag_43:\n    /* \"#utility.yul\":1805:1943   */\n  pop\n  jump\t// out\n    /* \"contracts/Product.sol\":115:13950  contract Product is TemperatureOracleClient {... */\ntag_8:\n  dataSize(sub_0)\n  dup1\n  dataOffset(sub_0)\n  0x00\n  codecopy\n  0x00\n  return\nstop\n\nsub_0: assembly {\n        /* \"contracts/Product.sol\":115:13950  contract Product is TemperatureOracleClient {... */\n      mstore(0x40, 0x80)\n      callvalue\n      dup1\n      iszero\n      tag_1\n      jumpi\n      0x00\n      dup1\n      revert\n    tag_1:\n      pop\n      jumpi(tag_2, lt(calldatasize, 0x04))\n      shr(0xe0, calldataload(0x00))\n      dup1\n      0x850c1768\n      gt\n      tag_20\n      jumpi\n      dup1\n      0xb83ce919\n      gt\n      tag_21\n      jumpi\n      dup1\n      0xb83ce919\n      eq\n      tag_15\n      jumpi\n      dup1\n      0xbfc9554e\n      eq\n      tag_16\n      jumpi\n      dup1\n      0xddf80166\n      eq\n      tag_17\n      jumpi\n      dup1\n      0xe58603a9\n      eq\n      tag_18\n      jumpi\n      dup1\n      0xf333fe08\n      eq\n      tag_19\n      jumpi\n      jump(tag_2)\n    tag_21:\n      dup1\n      0x850c1768\n      eq\n      tag_11\n      jumpi\n      dup1\n      0x8ec394d1\n      eq\n      tag_12\n      jumpi\n      dup1\n      0xa9213874\n      eq\n      tag_13\n      jumpi\n      dup1\n      0xaab147b2\n      eq\n      tag_14\n      jumpi\n      jump(tag_2)\n    tag_20:\n      dup1\n      0x51755334\n      gt\n      tag_22\n      jumpi\n      dup1\n      0x51755334\n      eq\n      tag_7\n      jumpi\n      dup1\n      0x5950c3fb\n      eq\n      tag_8\n      jumpi\n      dup1\n      0x5de28ae0\n      eq\n      tag_9\n      jumpi\n      dup1\n      0x62004e63\n      eq\n      tag_10\n      jumpi\n      jump(tag_2)\n    tag_22:\n      dup1\n      0x092a5cce\n      eq\n      tag_3\n      jumpi\n      dup1\n      0x24c45f68\n      eq\n      tag_4\n      jumpi\n      dup1\n      0x30a52d5b\n      eq\n      tag_5\n      jumpi\n      dup1\n      0x3a20e9df\n      eq\n      tag_6\n      jumpi\n    tag_2:\n      0x00\n      dup1\n      revert\n        /* \"contracts/Product.sol\":13434:13520  function destroyContract() public onlyDeployer() {... */\n    tag_3:\n      tag_23\n      tag_24\n      jump\t// in\n    tag_23:\n      stop\n        /* \"contracts/OracleClient.sol\":914:1208  function receiveDataFromOracle(uint256 data, bytes32 batchId)... */\n    tag_4:\n      tag_25\n      0x04\n      dup1\n      calldatasize\n      sub\n      dup2\n      add\n      swap1\n      tag_26\n      swap2\n      swap1\n      tag_27\n      jump\t// in\n    tag_26:\n      tag_28\n      jump\t// in\n    tag_25:\n      mload(0x40)\n      tag_29\n      swap2\n      swap1\n      tag_30\n      jump\t// in\n    tag_29:\n      mload(0x40)\n      dup1\n      swap2\n      sub\n      swap1\n      return\n        /* \"contracts/Product.sol\":13856:13947  function restartContract() public halt(true) onlyDeployer() {... */\n    tag_5:\n      tag_31\n      tag_32\n      jump\t// in\n    tag_31:\n      stop\n        /* \"contracts/Product.sol\":7482:7685  function getProduct(bytes32 _batchID) public view halt(false) returns(bytes32, address, bool) {... */\n    tag_6:\n      tag_33\n      0x04\n      dup1\n      calldatasize\n      sub\n      dup2\n      add\n      swap1\n      tag_34\n      swap2\n      swap1\n      tag_35\n      jump\t// in\n    tag_34:\n      tag_36\n      jump\t// in\n    tag_33:\n      mload(0x40)\n      tag_37\n      swap4\n      swap3\n      swap2\n      swap1\n      tag_38\n      jump\t// in\n    tag_37:\n      mload(0x40)\n      dup1\n      swap2\n      sub\n      swap1\n      return\n        /* \"contracts/Product.sol\":13649:13738  function emergencyHalt() public halt(false) onlyDeployer() {... */\n    tag_7:\n      tag_39\n      tag_40\n      jump\t// in\n    tag_39:\n      stop\n        /* \"contracts/Product.sol\":3336:3850  function addProduct(bytes32 _data, uint256 _temperature, string memory _CID) public halt(false) onlyProducer(msg.sender) {... */\n    tag_8:\n      tag_41\n      0x04\n      dup1\n      calldatasize\n      sub\n      dup2\n      add\n      swap1\n      tag_42\n      swap2\n      swap1\n      tag_43\n      jump\t// in\n    tag_42:\n      tag_44\n      jump\t// in\n    tag_41:\n      stop\n        /* \"contracts/Product.sol\":8730:8855  function getStatus(bytes32 _batchID) public view halt(false) returns(bool) {... */\n    tag_9:\n      tag_45\n      0x04\n      dup1\n      calldatasize\n      sub\n      dup2\n      add\n      swap1\n      tag_46\n      swap2\n      swap1\n      tag_35\n      jump\t// in\n    tag_46:\n      tag_47\n      jump\t// in\n    tag_45:\n      mload(0x40)\n      tag_48\n      swap2\n      swap1\n      tag_30\n      jump\t// in\n    tag_48:\n      mload(0x40)\n      dup1\n      swap2\n      sub\n      swap1\n      return\n        /* \"contracts/Product.sol\":8398:8527  function getDatabase(bytes32 _batchID) public view halt(false) returns(string memory) {... */\n    tag_10:\n      tag_49\n      0x04\n      dup1\n      calldatasize\n      sub\n      dup2\n      add\n      swap1\n      tag_50\n      swap2\n      swap1\n      tag_35\n      jump\t// in\n    tag_50:\n      tag_51\n      jump\t// in\n    tag_49:\n      mload(0x40)\n      tag_52\n      swap2\n      swap1\n      tag_53\n      jump\t// in\n    tag_52:\n      mload(0x40)\n      dup1\n      swap2\n      sub\n      swap1\n      return\n        /* \"contracts/Product.sol\":11014:11446  function verifyCertificate(bytes32 _batchID) public view halt(false) returns(bool) {... */\n    tag_11:\n      tag_54\n      0x04\n      dup1\n      calldatasize\n      sub\n      dup2\n      add\n      swap1\n      tag_55\n      swap2\n      swap1\n      tag_35\n      jump\t// in\n    tag_55:\n      tag_56\n      jump\t// in\n    tag_54:\n      mload(0x40)\n      tag_57\n      swap2\n      swap1\n      tag_30\n      jump\t// in\n    tag_57:\n      mload(0x40)\n      dup1\n      swap2\n      sub\n      swap1\n      return\n        /* \"contracts/Product.sol\":4293:4665  function addCertificate(bytes32 _batchID, bytes32 _certificate, bytes memory _signature) public halt(false) onlyOwner(msg.sender, _batchID) {... */\n    tag_12:\n      tag_58\n      0x04\n      dup1\n      calldatasize\n      sub\n      dup2\n      add\n      swap1\n      tag_59\n      swap2\n      swap1\n      tag_60\n      jump\t// in\n    tag_59:\n      tag_61\n      jump\t// in\n    tag_58:\n      stop\n        /* \"contracts/Product.sol\":6476:6688  function verifyProductHash(bytes32 _batchID, bytes32 _offchainHash) public halt(false) view returns(bool) {... */\n    tag_13:\n      tag_62\n      0x04\n      dup1\n      calldatasize\n      sub\n      dup2\n      add\n      swap1\n      tag_63\n      swap2\n      swap1\n      tag_64\n      jump\t// in\n    tag_63:\n      tag_65\n      jump\t// in\n    tag_62:\n      mload(0x40)\n      tag_66\n      swap2\n      swap1\n      tag_30\n      jump\t// in\n    tag_66:\n      mload(0x40)\n      dup1\n      swap2\n      sub\n      swap1\n      return\n        /* \"contracts/Product.sol\":7062:7185  function getProducer(address _producer) public view halt(false) returns(bool) {... */\n    tag_14:\n      tag_67\n      0x04\n      dup1\n      calldatasize\n      sub\n      dup2\n      add\n      swap1\n      tag_68\n      swap2\n      swap1\n      tag_69\n      jump\t// in\n    tag_68:\n      tag_70\n      jump\t// in\n    tag_67:\n      mload(0x40)\n      tag_71\n      swap2\n      swap1\n      tag_30\n      jump\t// in\n    tag_71:\n      mload(0x40)\n      dup1\n      swap2\n      sub\n      swap1\n      return\n        /* \"contracts/Product.sol\":5127:5506  function updateOwner(bytes32 _batchID, bytes32 _productHash, address _newOwner) public halt(false) onlyOwner(msg.sender, _batchID) {... */\n    tag_15:\n      tag_72\n      0x04\n      dup1\n      calldatasize\n      sub\n      dup2\n      add\n      swap1\n      tag_73\n      swap2\n      swap1\n      tag_74\n      jump\t// in\n    tag_73:\n      tag_75\n      jump\t// in\n    tag_72:\n      stop\n        /* \"contracts/Product.sol\":9101:9205  function getTemperature(bytes32 _batchID) public {... */\n    tag_16:\n      tag_76\n      0x04\n      dup1\n      calldatasize\n      sub\n      dup2\n      add\n      swap1\n      tag_77\n      swap2\n      swap1\n      tag_35\n      jump\t// in\n    tag_77:\n      tag_78\n      jump\t// in\n    tag_76:\n      stop\n        /* \"contracts/Product.sol\":2870:2989  function addProducer(address _producer) public halt(false) onlyDeployer() {... */\n    tag_17:\n      tag_79\n      0x04\n      dup1\n      calldatasize\n      sub\n      dup2\n      add\n      swap1\n      tag_80\n      swap2\n      swap1\n      tag_69\n      jump\t// in\n    tag_80:\n      tag_81\n      jump\t// in\n    tag_79:\n      stop\n        /* \"contracts/Product.sol\":5801:5959  function updateStatus(bytes32 _batchID, bool _status) public halt(false) onlyOwner(msg.sender, _batchID) {... */\n    tag_18:\n      tag_82\n      0x04\n      dup1\n      calldatasize\n      sub\n      dup2\n      add\n      swap1\n      tag_83\n      swap2\n      swap1\n      tag_84\n      jump\t// in\n    tag_83:\n      tag_85\n      jump\t// in\n    tag_82:\n      stop\n        /* \"contracts/Product.sol\":7973:8157  function getCertificate(bytes32 _batchID) public view halt(false) returns(bytes32, bytes memory) {... */\n    tag_19:\n      tag_86\n      0x04\n      dup1\n      calldatasize\n      sub\n      dup2\n      add\n      swap1\n      tag_87\n      swap2\n      swap1\n      tag_35\n      jump\t// in\n    tag_87:\n      tag_88\n      jump\t// in\n    tag_86:\n      mload(0x40)\n      tag_89\n      swap3\n      swap2\n      swap1\n      tag_90\n      jump\t// in\n    tag_89:\n      mload(0x40)\n      dup1\n      swap2\n      sub\n      swap1\n      return\n        /* \"contracts/Product.sol\":13434:13520  function destroyContract() public onlyDeployer() {... */\n    tag_24:\n        /* \"contracts/Product.sol\":2234:2244  msg.sender */\n      caller\n        /* \"contracts/Product.sol\":2225:2244  owner == msg.sender */\n      0xffffffffffffffffffffffffffffffffffffffff\n      and\n        /* \"contracts/Product.sol\":2225:2230  owner */\n      0x01\n      0x00\n      swap1\n      sload\n      swap1\n      0x0100\n      exp\n      swap1\n      div\n      0xffffffffffffffffffffffffffffffffffffffff\n      and\n        /* \"contracts/Product.sol\":2225:2244  owner == msg.sender */\n      0xffffffffffffffffffffffffffffffffffffffff\n      and\n      eq\n        /* \"contracts/Product.sol\":2217:2291  require(owner == msg.sender, \"only contract owner can call this function\") */\n      tag_92\n      jumpi\n      mload(0x40)\n      0x08c379a000000000000000000000000000000000000000000000000000000000\n      dup2\n      mstore\n      0x04\n      add\n      tag_93\n      swap1\n      tag_94\n      jump\t// in\n    tag_93:\n      mload(0x40)\n      dup1\n      swap2\n      sub\n      swap1\n      revert\n    tag_92:\n        /* \"contracts/Product.sol\":13506:13511  owner */\n      0x01\n      0x00\n      swap1\n      sload\n      swap1\n      0x0100\n      exp\n      swap1\n      div\n      0xffffffffffffffffffffffffffffffffffffffff\n      and\n        /* \"contracts/Product.sol\":13493:13512  selfdestruct(owner) */\n      0xffffffffffffffffffffffffffffffffffffffff\n      and\n      selfdestruct\n        /* \"contracts/OracleClient.sol\":914:1208  function receiveDataFromOracle(uint256 data, bytes32 batchId)... */\n    tag_28:\n        /* \"contracts/OracleClient.sol\":1009:1013  bool */\n      0x00\n        /* \"contracts/OracleClient.sol\":455:469  _oracleAddress */\n      dup1\n      0x00\n      swap1\n      sload\n      swap1\n      0x0100\n      exp\n      swap1\n      div\n      0xffffffffffffffffffffffffffffffffffffffff\n      and\n        /* \"contracts/OracleClient.sol\":441:469  msg.sender == _oracleAddress */\n      0xffffffffffffffffffffffffffffffffffffffff\n      and\n        /* \"contracts/OracleClient.sol\":441:451  msg.sender */\n      caller\n        /* \"contracts/OracleClient.sol\":441:469  msg.sender == _oracleAddress */\n      0xffffffffffffffffffffffffffffffffffffffff\n      and\n      eq\n        /* \"contracts/OracleClient.sol\":433:513  require(msg.sender == _oracleAddress, 'data must come from the oracle contract') */\n      tag_97\n      jumpi\n      mload(0x40)\n      0x08c379a000000000000000000000000000000000000000000000000000000000\n      dup2\n      mstore\n      0x04\n      add\n      tag_98\n      swap1\n      tag_99\n      jump\t// in\n    tag_98:\n      mload(0x40)\n      dup1\n      swap2\n      sub\n      swap1\n      revert\n    tag_97:\n        /* \"contracts/OracleClient.sol\":1158:1201  receiveTemperatureFromOracle(batchId, data) */\n      tag_101\n        /* \"contracts/OracleClient.sol\":1187:1194  batchId */\n      dup3\n        /* \"contracts/OracleClient.sol\":1196:1200  data */\n      dup5\n        /* \"contracts/OracleClient.sol\":1158:1186  receiveTemperatureFromOracle */\n      tag_102\n        /* \"contracts/OracleClient.sol\":1158:1201  receiveTemperatureFromOracle(batchId, data) */\n      jump\t// in\n    tag_101:\n        /* \"contracts/OracleClient.sol\":1151:1201  return receiveTemperatureFromOracle(batchId, data) */\n      swap1\n      pop\n        /* \"contracts/OracleClient.sol\":914:1208  function receiveDataFromOracle(uint256 data, bytes32 batchId)... */\n      swap3\n      swap2\n      pop\n      pop\n      jump\t// out\n        /* \"contracts/Product.sol\":13856:13947  function restartContract() public halt(true) onlyDeployer() {... */\n    tag_32:\n        /* \"contracts/Product.sol\":13895:13899  true */\n      0x01\n        /* \"contracts/Product.sol\":1700:1706  _state */\n      dup1\n        /* \"contracts/Product.sol\":1690:1706  halted == _state */\n      iszero\n      iszero\n        /* \"contracts/Product.sol\":1690:1696  halted */\n      0x00\n      0x14\n      swap1\n      sload\n      swap1\n      0x0100\n      exp\n      swap1\n      div\n      0xff\n      and\n        /* \"contracts/Product.sol\":1690:1706  halted == _state */\n      iszero\n      iszero\n      eq\n        /* \"contracts/Product.sol\":1681:1724  require (halted == _state, \"contract halt\") */\n      tag_104\n      jumpi\n      mload(0x40)\n      0x08c379a000000000000000000000000000000000000000000000000000000000\n      dup2\n      mstore\n      0x04\n      add\n      tag_105\n      swap1\n      tag_106\n      jump\t// in\n    tag_105:\n      mload(0x40)\n      dup1\n      swap2\n      sub\n      swap1\n      revert\n    tag_104:\n        /* \"contracts/Product.sol\":2234:2244  msg.sender */\n      caller\n        /* \"contracts/Product.sol\":2225:2244  owner == msg.sender */\n      0xffffffffffffffffffffffffffffffffffffffff\n      and\n        /* \"contracts/Product.sol\":2225:2230  owner */\n      0x01\n      0x00\n      swap1\n      sload\n      swap1\n      0x0100\n      exp\n      swap1\n      div\n      0xffffffffffffffffffffffffffffffffffffffff\n      and\n        /* \"contracts/Product.sol\":2225:2244  owner == msg.sender */\n      0xffffffffffffffffffffffffffffffffffffffff\n      and\n      eq\n        /* \"contracts/Product.sol\":2217:2291  require(owner == msg.sender, \"only contract owner can call this function\") */\n      tag_108\n      jumpi\n      mload(0x40)\n      0x08c379a000000000000000000000000000000000000000000000000000000000\n      dup2\n      mstore\n      0x04\n      add\n      tag_109\n      swap1\n      tag_94\n      jump\t// in\n    tag_109:\n      mload(0x40)\n      dup1\n      swap2\n      sub\n      swap1\n      revert\n    tag_108:\n        /* \"contracts/Product.sol\":13935:13940  false */\n      0x00\n        /* \"contracts/Product.sol\":13926:13932  halted */\n      dup1\n      0x14\n        /* \"contracts/Product.sol\":13926:13940  halted = false */\n      0x0100\n      exp\n      dup2\n      sload\n      dup2\n      0xff\n      mul\n      not\n      and\n      swap1\n      dup4\n      iszero\n      iszero\n      mul\n      or\n      swap1\n      sstore\n      pop\n        /* \"contracts/Product.sol\":13856:13947  function restartContract() public halt(true) onlyDeployer() {... */\n      pop\n      jump\t// out\n        /* \"contracts/Product.sol\":7482:7685  function getProduct(bytes32 _batchID) public view halt(false) returns(bytes32, address, bool) {... */\n    tag_36:\n        /* \"contracts/Product.sol\":7552:7559  bytes32 */\n      0x00\n        /* \"contracts/Product.sol\":7561:7568  address */\n      dup1\n        /* \"contracts/Product.sol\":7570:7574  bool */\n      0x00\n        /* \"contracts/Product.sol\":7537:7542  false */\n      dup1\n        /* \"contracts/Product.sol\":1700:1706  _state */\n      dup1\n        /* \"contracts/Product.sol\":1690:1706  halted == _state */\n      iszero\n      iszero\n        /* \"contracts/Product.sol\":1690:1696  halted */\n      0x00\n      0x14\n      swap1\n      sload\n      swap1\n      0x0100\n      exp\n      swap1\n      div\n      0xff\n      and\n        /* \"contracts/Product.sol\":1690:1706  halted == _state */\n      iszero\n      iszero\n      eq\n        /* \"contracts/Product.sol\":1681:1724  require (halted == _state, \"contract halt\") */\n      tag_112\n      jumpi\n      mload(0x40)\n      0x08c379a000000000000000000000000000000000000000000000000000000000\n      dup2\n      mstore\n      0x04\n      add\n      tag_113\n      swap1\n      tag_106\n      jump\t// in\n    tag_113:\n      mload(0x40)\n      dup1\n      swap2\n      sub\n      swap1\n      revert\n    tag_112:\n        /* \"contracts/Product.sol\":7594:7602  products */\n      0x04\n        /* \"contracts/Product.sol\":7594:7612  products[_batchID] */\n      0x00\n        /* \"contracts/Product.sol\":7603:7611  _batchID */\n      dup7\n        /* \"contracts/Product.sol\":7594:7612  products[_batchID] */\n      dup2\n      mstore\n      0x20\n      add\n      swap1\n      dup2\n      mstore\n      0x20\n      add\n      0x00\n      keccak256\n        /* \"contracts/Product.sol\":7594:7624  products[_batchID].productHash */\n      0x00\n      add\n      sload\n        /* \"contracts/Product.sol\":7626:7634  products */\n      0x04\n        /* \"contracts/Product.sol\":7626:7644  products[_batchID] */\n      0x00\n        /* \"contracts/Product.sol\":7635:7643  _batchID */\n      dup8\n        /* \"contracts/Product.sol\":7626:7644  products[_batchID] */\n      dup2\n      mstore\n      0x20\n      add\n      swap1\n      dup2\n      mstore\n      0x20\n      add\n      0x00\n      keccak256\n        /* \"contracts/Product.sol\":7626:7650  products[_batchID].owner */\n      0x03\n      add\n      0x00\n      swap1\n      sload\n      swap1\n      0x0100\n      exp\n      swap1\n      div\n      0xffffffffffffffffffffffffffffffffffffffff\n      and\n        /* \"contracts/Product.sol\":7652:7660  products */\n      0x04\n        /* \"contracts/Product.sol\":7652:7670  products[_batchID] */\n      0x00\n        /* \"contracts/Product.sol\":7661:7669  _batchID */\n      dup9\n        /* \"contracts/Product.sol\":7652:7670  products[_batchID] */\n      dup2\n      mstore\n      0x20\n      add\n      swap1\n      dup2\n      mstore\n      0x20\n      add\n      0x00\n      keccak256\n        /* \"contracts/Product.sol\":7652:7677  products[_batchID].status */\n      0x06\n      add\n      0x00\n      swap1\n      sload\n      swap1\n      0x0100\n      exp\n      swap1\n      div\n      0xff\n      and\n        /* \"contracts/Product.sol\":7586:7678  return (products[_batchID].productHash, products[_batchID].owner, products[_batchID].status) */\n      swap4\n      pop\n      swap4\n      pop\n      swap4\n      pop\n        /* \"contracts/Product.sol\":7482:7685  function getProduct(bytes32 _batchID) public view halt(false) returns(bytes32, address, bool) {... */\n      pop\n      swap2\n      swap4\n      swap1\n      swap3\n      pop\n      jump\t// out\n        /* \"contracts/Product.sol\":13649:13738  function emergencyHalt() public halt(false) onlyDeployer() {... */\n    tag_40:\n        /* \"contracts/Product.sol\":13686:13691  false */\n      0x00\n        /* \"contracts/Product.sol\":1700:1706  _state */\n      dup1\n        /* \"contracts/Product.sol\":1690:1706  halted == _state */\n      iszero\n      iszero\n        /* \"contracts/Product.sol\":1690:1696  halted */\n      0x00\n      0x14\n      swap1\n      sload\n      swap1\n      0x0100\n      exp\n      swap1\n      div\n      0xff\n      and\n        /* \"contracts/Product.sol\":1690:1706  halted == _state */\n      iszero\n      iszero\n      eq\n        /* \"contracts/Product.sol\":1681:1724  require (halted == _state, \"contract halt\") */\n      tag_116\n      jumpi\n      mload(0x40)\n      0x08c379a000000000000000000000000000000000000000000000000000000000\n      dup2\n      mstore\n      0x04\n      add\n      tag_117\n      swap1\n      tag_106\n      jump\t// in\n    tag_117:\n      mload(0x40)\n      dup1\n      swap2\n      sub\n      swap1\n      revert\n    tag_116:\n        /* \"contracts/Product.sol\":2234:2244  msg.sender */\n      caller\n        /* \"contracts/Product.sol\":2225:2244  owner == msg.sender */\n      0xffffffffffffffffffffffffffffffffffffffff\n      and\n        /* \"contracts/Product.sol\":2225:2230  owner */\n      0x01\n      0x00\n      swap1\n      sload\n      swap1\n      0x0100\n      exp\n      swap1\n      div\n      0xffffffffffffffffffffffffffffffffffffffff\n      and\n        /* \"contracts/Product.sol\":2225:2244  owner == msg.sender */\n      0xffffffffffffffffffffffffffffffffffffffff\n      and\n      eq\n        /* \"contracts/Product.sol\":2217:2291  require(owner == msg.sender, \"only contract owner can call this function\") */\n      tag_119\n      jumpi\n      mload(0x40)\n      0x08c379a000000000000000000000000000000000000000000000000000000000\n      dup2\n      mstore\n      0x04\n      add\n      tag_120\n      swap1\n      tag_94\n      jump\t// in\n    tag_120:\n      mload(0x40)\n      dup1\n      swap2\n      sub\n      swap1\n      revert\n    tag_119:\n        /* \"contracts/Product.sol\":13727:13731  true */\n      0x01\n        /* \"contracts/Product.sol\":13718:13724  halted */\n      0x00\n      0x14\n        /* \"contracts/Product.sol\":13718:13731  halted = true */\n      0x0100\n      exp\n      dup2\n      sload\n      dup2\n      0xff\n      mul\n      not\n      and\n      swap1\n      dup4\n      iszero\n      iszero\n      mul\n      or\n      swap1\n      sstore\n      pop\n        /* \"contracts/Product.sol\":13649:13738  function emergencyHalt() public halt(false) onlyDeployer() {... */\n      pop\n      jump\t// out\n        /* \"contracts/Product.sol\":3336:3850  function addProduct(bytes32 _data, uint256 _temperature, string memory _CID) public halt(false) onlyProducer(msg.sender) {... */\n    tag_44:\n        /* \"contracts/Product.sol\":3425:3430  false */\n      0x00\n        /* \"contracts/Product.sol\":1700:1706  _state */\n      dup1\n        /* \"contracts/Product.sol\":1690:1706  halted == _state */\n      iszero\n      iszero\n        /* \"contracts/Product.sol\":1690:1696  halted */\n      0x00\n      0x14\n      swap1\n      sload\n      swap1\n      0x0100\n      exp\n      swap1\n      div\n      0xff\n      and\n        /* \"contracts/Product.sol\":1690:1706  halted == _state */\n      iszero\n      iszero\n      eq\n        /* \"contracts/Product.sol\":1681:1724  require (halted == _state, \"contract halt\") */\n      tag_123\n      jumpi\n      mload(0x40)\n      0x08c379a000000000000000000000000000000000000000000000000000000000\n      dup2\n      mstore\n      0x04\n      add\n      tag_124\n      swap1\n      tag_106\n      jump\t// in\n    tag_124:\n      mload(0x40)\n      dup1\n      swap2\n      sub\n      swap1\n      revert\n    tag_123:\n        /* \"contracts/Product.sol\":3445:3455  msg.sender */\n      caller\n        /* \"contracts/Product.sol\":2074:2078  true */\n      0x01\n        /* \"contracts/Product.sol\":2051:2078  producers[_address] == true */\n      iszero\n      iszero\n        /* \"contracts/Product.sol\":2051:2060  producers */\n      0x06\n        /* \"contracts/Product.sol\":2051:2070  producers[_address] */\n      0x00\n        /* \"contracts/Product.sol\":2061:2069  _address */\n      dup4\n        /* \"contracts/Product.sol\":2051:2070  producers[_address] */\n      0xffffffffffffffffffffffffffffffffffffffff\n      and\n      0xffffffffffffffffffffffffffffffffffffffff\n      and\n      dup2\n      mstore\n      0x20\n      add\n      swap1\n      dup2\n      mstore\n      0x20\n      add\n      0x00\n      keccak256\n      0x00\n      swap1\n      sload\n      swap1\n      0x0100\n      exp\n      swap1\n      div\n      0xff\n      and\n        /* \"contracts/Product.sol\":2051:2078  producers[_address] == true */\n      iszero\n      iszero\n      eq\n        /* \"contracts/Product.sol\":2043:2130  require(producers[_address] == true, \"only authorised producer can call this function\") */\n      tag_126\n      jumpi\n      mload(0x40)\n      0x08c379a000000000000000000000000000000000000000000000000000000000\n      dup2\n      mstore\n      0x04\n      add\n      tag_127\n      swap1\n      tag_128\n      jump\t// in\n    tag_127:\n      mload(0x40)\n      dup1\n      swap2\n      sub\n      swap1\n      revert\n    tag_126:\n        /* \"contracts/Product.sol\":3467:3482  bytes32 batchID */\n      0x00\n        /* \"contracts/Product.sol\":3520:3525  _data */\n      dup6\n        /* \"contracts/Product.sol\":3503:3526  abi.encodePacked(_data) */\n      add(0x20, mload(0x40))\n      tag_130\n      swap2\n      swap1\n      tag_131\n      jump\t// in\n    tag_130:\n      mload(0x40)\n      0x20\n      dup2\n      dup4\n      sub\n      sub\n      dup2\n      mstore\n      swap1\n      0x40\n      mstore\n        /* \"contracts/Product.sol\":3493:3527  keccak256(abi.encodePacked(_data)) */\n      dup1\n      mload\n      swap1\n      0x20\n      add\n      keccak256\n        /* \"contracts/Product.sol\":3467:3528  bytes32 batchID = bytes32(keccak256(abi.encodePacked(_data))) */\n      swap1\n      pop\n        /* \"contracts/Product.sol\":3571:3576  _data */\n      dup6\n        /* \"contracts/Product.sol\":3539:3547  products */\n      0x04\n        /* \"contracts/Product.sol\":3539:3556  products[batchID] */\n      0x00\n        /* \"contracts/Product.sol\":3548:3555  batchID */\n      dup4\n        /* \"contracts/Product.sol\":3539:3556  products[batchID] */\n      dup2\n      mstore\n      0x20\n      add\n      swap1\n      dup2\n      mstore\n      0x20\n      add\n      0x00\n      keccak256\n        /* \"contracts/Product.sol\":3539:3568  products[batchID].productHash */\n      0x00\n      add\n        /* \"contracts/Product.sol\":3539:3576  products[batchID].productHash = _data */\n      dup2\n      swap1\n      sstore\n      pop\n        /* \"contracts/Product.sol\":3613:3623  msg.sender */\n      caller\n        /* \"contracts/Product.sol\":3587:3595  products */\n      0x04\n        /* \"contracts/Product.sol\":3587:3604  products[batchID] */\n      0x00\n        /* \"contracts/Product.sol\":3596:3603  batchID */\n      dup4\n        /* \"contracts/Product.sol\":3587:3604  products[batchID] */\n      dup2\n      mstore\n      0x20\n      add\n      swap1\n      dup2\n      mstore\n      0x20\n      add\n      0x00\n      keccak256\n        /* \"contracts/Product.sol\":3587:3610  products[batchID].owner */\n      0x03\n      add\n      0x00\n        /* \"contracts/Product.sol\":3587:3623  products[batchID].owner = msg.sender */\n      0x0100\n      exp\n      dup2\n      sload\n      dup2\n      0xffffffffffffffffffffffffffffffffffffffff\n      mul\n      not\n      and\n      swap1\n      dup4\n      0xffffffffffffffffffffffffffffffffffffffff\n      and\n      mul\n      or\n      swap1\n      sstore\n      pop\n        /* \"contracts/Product.sol\":3663:3673  msg.sender */\n      caller\n        /* \"contracts/Product.sol\":3634:3642  products */\n      0x04\n        /* \"contracts/Product.sol\":3634:3651  products[batchID] */\n      0x00\n        /* \"contracts/Product.sol\":3643:3650  batchID */\n      dup4\n        /* \"contracts/Product.sol\":3634:3651  products[batchID] */\n      dup2\n      mstore\n      0x20\n      add\n      swap1\n      dup2\n      mstore\n      0x20\n      add\n      0x00\n      keccak256\n        /* \"contracts/Product.sol\":3634:3660  products[batchID].producer */\n      0x04\n      add\n      0x00\n        /* \"contracts/Product.sol\":3634:3673  products[batchID].producer = msg.sender */\n      0x0100\n      exp\n      dup2\n      sload\n      dup2\n      0xffffffffffffffffffffffffffffffffffffffff\n      mul\n      not\n      and\n      swap1\n      dup4\n      0xffffffffffffffffffffffffffffffffffffffff\n      and\n      mul\n      or\n      swap1\n      sstore\n      pop\n        /* \"contracts/Product.sol\":3715:3727  _temperature */\n      dup5\n        /* \"contracts/Product.sol\":3683:3691  products */\n      0x04\n        /* \"contracts/Product.sol\":3683:3700  products[batchID] */\n      0x00\n        /* \"contracts/Product.sol\":3692:3699  batchID */\n      dup4\n        /* \"contracts/Product.sol\":3683:3700  products[batchID] */\n      dup2\n      mstore\n      0x20\n      add\n      swap1\n      dup2\n      mstore\n      0x20\n      add\n      0x00\n      keccak256\n        /* \"contracts/Product.sol\":3683:3712  products[batchID].temperature */\n      0x05\n      add\n        /* \"contracts/Product.sol\":3683:3727  products[batchID].temperature = _temperature */\n      dup2\n      swap1\n      sstore\n      pop\n        /* \"contracts/Product.sol\":3765:3769  true */\n      0x01\n        /* \"contracts/Product.sol\":3738:3746  products */\n      0x04\n        /* \"contracts/Product.sol\":3738:3755  products[batchID] */\n      0x00\n        /* \"contracts/Product.sol\":3747:3754  batchID */\n      dup4\n        /* \"contracts/Product.sol\":3738:3755  products[batchID] */\n      dup2\n      mstore\n      0x20\n      add\n      swap1\n      dup2\n      mstore\n      0x20\n      add\n      0x00\n      keccak256\n        /* \"contracts/Product.sol\":3738:3762  products[batchID].status */\n      0x06\n      add\n      0x00\n        /* \"contracts/Product.sol\":3738:3769  products[batchID].status = true */\n      0x0100\n      exp\n      dup2\n      sload\n      dup2\n      0xff\n      mul\n      not\n      and\n      swap1\n      dup4\n      iszero\n      iszero\n      mul\n      or\n      swap1\n      sstore\n      pop\n        /* \"contracts/Product.sol\":3799:3803  _CID */\n      dup4\n        /* \"contracts/Product.sol\":3779:3787  database */\n      0x05\n        /* \"contracts/Product.sol\":3779:3796  database[batchID] */\n      0x00\n        /* \"contracts/Product.sol\":3788:3795  batchID */\n      dup4\n        /* \"contracts/Product.sol\":3779:3796  database[batchID] */\n      dup2\n      mstore\n      0x20\n      add\n      swap1\n      dup2\n      mstore\n      0x20\n      add\n      0x00\n      keccak256\n        /* \"contracts/Product.sol\":3779:3803  database[batchID] = _CID */\n      swap1\n      dup1\n      mload\n      swap1\n      0x20\n      add\n      swap1\n      tag_132\n      swap3\n      swap2\n      swap1\n      tag_133\n      jump\t// in\n    tag_132:\n      pop\n        /* \"contracts/Product.sol\":3819:3843  batchIdentifier(batchID) */\n      0xeb12ab352ec0628425cb2d83290a1d034ed2d60ba8d5caf7462e7526ce18d38e\n        /* \"contracts/Product.sol\":3835:3842  batchID */\n      dup2\n        /* \"contracts/Product.sol\":3819:3843  batchIdentifier(batchID) */\n      mload(0x40)\n      tag_134\n      swap2\n      swap1\n      tag_135\n      jump\t// in\n    tag_134:\n      mload(0x40)\n      dup1\n      swap2\n      sub\n      swap1\n      log1\n        /* \"contracts/Product.sol\":3457:3850  {... */\n      pop\n        /* \"contracts/Product.sol\":1726:1727  _ */\n      pop\n        /* \"contracts/Product.sol\":3336:3850  function addProduct(bytes32 _data, uint256 _temperature, string memory _CID) public halt(false) onlyProducer(msg.sender) {... */\n      pop\n      pop\n      pop\n      pop\n      jump\t// out\n        /* \"contracts/Product.sol\":8730:8855  function getStatus(bytes32 _batchID) public view halt(false) returns(bool) {... */\n    tag_47:\n        /* \"contracts/Product.sol\":8799:8803  bool */\n      0x00\n        /* \"contracts/Product.sol\":8784:8789  false */\n      dup1\n        /* \"contracts/Product.sol\":1700:1706  _state */\n      dup1\n        /* \"contracts/Product.sol\":1690:1706  halted == _state */\n      iszero\n      iszero\n        /* \"contracts/Product.sol\":1690:1696  halted */\n      0x00\n      0x14\n      swap1\n      sload\n      swap1\n      0x0100\n      exp\n      swap1\n      div\n      0xff\n      and\n        /* \"contracts/Product.sol\":1690:1706  halted == _state */\n      iszero\n      iszero\n      eq\n        /* \"contracts/Product.sol\":1681:1724  require (halted == _state, \"contract halt\") */\n      tag_137\n      jumpi\n      mload(0x40)\n      0x08c379a000000000000000000000000000000000000000000000000000000000\n      dup2\n      mstore\n      0x04\n      add\n      tag_138\n      swap1\n      tag_106\n      jump\t// in\n    tag_138:\n      mload(0x40)\n      dup1\n      swap2\n      sub\n      swap1\n      revert\n    tag_137:\n        /* \"contracts/Product.sol\":8822:8830  products */\n      0x04\n        /* \"contracts/Product.sol\":8822:8840  products[_batchID] */\n      0x00\n        /* \"contracts/Product.sol\":8831:8839  _batchID */\n      dup5\n        /* \"contracts/Product.sol\":8822:8840  products[_batchID] */\n      dup2\n      mstore\n      0x20\n      add\n      swap1\n      dup2\n      mstore\n      0x20\n      add\n      0x00\n      keccak256\n        /* \"contracts/Product.sol\":8822:8847  products[_batchID].status */\n      0x06\n      add\n      0x00\n      swap1\n      sload\n      swap1\n      0x0100\n      exp\n      swap1\n      div\n      0xff\n      and\n        /* \"contracts/Product.sol\":8815:8847  return products[_batchID].status */\n      swap2\n      pop\n        /* \"contracts/Product.sol\":8730:8855  function getStatus(bytes32 _batchID) public view halt(false) returns(bool) {... */\n      pop\n      swap2\n      swap1\n      pop\n      jump\t// out\n        /* \"contracts/Product.sol\":8398:8527  function getDatabase(bytes32 _batchID) public view halt(false) returns(string memory) {... */\n    tag_51:\n        /* \"contracts/Product.sol\":8469:8482  string memory */\n      0x60\n        /* \"contracts/Product.sol\":8454:8459  false */\n      0x00\n        /* \"contracts/Product.sol\":1700:1706  _state */\n      dup1\n        /* \"contracts/Product.sol\":1690:1706  halted == _state */\n      iszero\n      iszero\n        /* \"contracts/Product.sol\":1690:1696  halted */\n      0x00\n      0x14\n      swap1\n      sload\n      swap1\n      0x0100\n      exp\n      swap1\n      div\n      0xff\n      and\n        /* \"contracts/Product.sol\":1690:1706  halted == _state */\n      iszero\n      iszero\n      eq\n        /* \"contracts/Product.sol\":1681:1724  require (halted == _state, \"contract halt\") */\n      tag_141\n      jumpi\n      mload(0x40)\n      0x08c379a000000000000000000000000000000000000000000000000000000000\n      dup2\n      mstore\n      0x04\n      add\n      tag_142\n      swap1\n      tag_106\n      jump\t// in\n    tag_142:\n      mload(0x40)\n      dup1\n      swap2\n      sub\n      swap1\n      revert\n    tag_141:\n        /* \"contracts/Product.sol\":8501:8509  database */\n      0x05\n        /* \"contracts/Product.sol\":8501:8519  database[_batchID] */\n      0x00\n        /* \"contracts/Product.sol\":8510:8518  _batchID */\n      dup5\n        /* \"contracts/Product.sol\":8501:8519  database[_batchID] */\n      dup2\n      mstore\n      0x20\n      add\n      swap1\n      dup2\n      mstore\n      0x20\n      add\n      0x00\n      keccak256\n        /* \"contracts/Product.sol\":8494:8519  return database[_batchID] */\n      dup1\n      sload\n      tag_144\n      swap1\n      tag_145\n      jump\t// in\n    tag_144:\n      dup1\n      0x1f\n      add\n      0x20\n      dup1\n      swap2\n      div\n      mul\n      0x20\n      add\n      mload(0x40)\n      swap1\n      dup2\n      add\n      0x40\n      mstore\n      dup1\n      swap3\n      swap2\n      swap1\n      dup2\n      dup2\n      mstore\n      0x20\n      add\n      dup3\n      dup1\n      sload\n      tag_146\n      swap1\n      tag_145\n      jump\t// in\n    tag_146:\n      dup1\n      iszero\n      tag_147\n      jumpi\n      dup1\n      0x1f\n      lt\n      tag_148\n      jumpi\n      0x0100\n      dup1\n      dup4\n      sload\n      div\n      mul\n      dup4\n      mstore\n      swap2\n      0x20\n      add\n      swap2\n      jump(tag_147)\n    tag_148:\n      dup3\n      add\n      swap2\n      swap1\n      0x00\n      mstore\n      keccak256(0x00, 0x20)\n      swap1\n    tag_149:\n      dup2\n      sload\n      dup2\n      mstore\n      swap1\n      0x01\n      add\n      swap1\n      0x20\n      add\n      dup1\n      dup4\n      gt\n      tag_149\n      jumpi\n      dup3\n      swap1\n      sub\n      0x1f\n      and\n      dup3\n      add\n      swap2\n    tag_147:\n      pop\n      pop\n      pop\n      pop\n      pop\n      swap2\n      pop\n        /* \"contracts/Product.sol\":8398:8527  function getDatabase(bytes32 _batchID) public view halt(false) returns(string memory) {... */\n      pop\n      swap2\n      swap1\n      pop\n      jump\t// out\n        /* \"contracts/Product.sol\":11014:11446  function verifyCertificate(bytes32 _batchID) public view halt(false) returns(bool) {... */\n    tag_56:\n        /* \"contracts/Product.sol\":11091:11095  bool */\n      0x00\n        /* \"contracts/Product.sol\":11076:11081  false */\n      dup1\n        /* \"contracts/Product.sol\":1700:1706  _state */\n      dup1\n        /* \"contracts/Product.sol\":1690:1706  halted == _state */\n      iszero\n      iszero\n        /* \"contracts/Product.sol\":1690:1696  halted */\n      0x00\n      0x14\n      swap1\n      sload\n      swap1\n      0x0100\n      exp\n      swap1\n      div\n      0xff\n      and\n        /* \"contracts/Product.sol\":1690:1706  halted == _state */\n      iszero\n      iszero\n      eq\n        /* \"contracts/Product.sol\":1681:1724  require (halted == _state, \"contract halt\") */\n      tag_151\n      jumpi\n      mload(0x40)\n      0x08c379a000000000000000000000000000000000000000000000000000000000\n      dup2\n      mstore\n      0x04\n      add\n      tag_152\n      swap1\n      tag_106\n      jump\t// in\n    tag_152:\n      mload(0x40)\n      dup1\n      swap2\n      sub\n      swap1\n      revert\n    tag_151:\n        /* \"contracts/Product.sol\":11107:11126  bytes32 certificate */\n      0x00\n        /* \"contracts/Product.sol\":11129:11137  products */\n      0x04\n        /* \"contracts/Product.sol\":11129:11147  products[_batchID] */\n      0x00\n        /* \"contracts/Product.sol\":11138:11146  _batchID */\n      dup6\n        /* \"contracts/Product.sol\":11129:11147  products[_batchID] */\n      dup2\n      mstore\n      0x20\n      add\n      swap1\n      dup2\n      mstore\n      0x20\n      add\n      0x00\n      keccak256\n        /* \"contracts/Product.sol\":11129:11159  products[_batchID].certificate */\n      0x01\n      add\n      sload\n        /* \"contracts/Product.sol\":11107:11159  bytes32 certificate = products[_batchID].certificate */\n      swap1\n      pop\n        /* \"contracts/Product.sol\":11170:11192  bytes memory signature */\n      0x00\n        /* \"contracts/Product.sol\":11195:11203  products */\n      0x04\n        /* \"contracts/Product.sol\":11195:11213  products[_batchID] */\n      0x00\n        /* \"contracts/Product.sol\":11204:11212  _batchID */\n      dup7\n        /* \"contracts/Product.sol\":11195:11213  products[_batchID] */\n      dup2\n      mstore\n      0x20\n      add\n      swap1\n      dup2\n      mstore\n      0x20\n      add\n      0x00\n      keccak256\n        /* \"contracts/Product.sol\":11195:11223  products[_batchID].signature */\n      0x02\n      add\n        /* \"contracts/Product.sol\":11170:11223  bytes memory signature = products[_batchID].signature */\n      dup1\n      sload\n      tag_154\n      swap1\n      tag_145\n      jump\t// in\n    tag_154:\n      dup1\n      0x1f\n      add\n      0x20\n      dup1\n      swap2\n      div\n      mul\n      0x20\n      add\n      mload(0x40)\n      swap1\n      dup2\n      add\n      0x40\n      mstore\n      dup1\n      swap3\n      swap2\n      swap1\n      dup2\n      dup2\n      mstore\n      0x20\n      add\n      dup3\n      dup1\n      sload\n      tag_155\n      swap1\n      tag_145\n      jump\t// in\n    tag_155:\n      dup1\n      iszero\n      tag_156\n      jumpi\n      dup1\n      0x1f\n      lt\n      tag_157\n      jumpi\n      0x0100\n      dup1\n      dup4\n      sload\n      div\n      mul\n      dup4\n      mstore\n      swap2\n      0x20\n      add\n      swap2\n      jump(tag_156)\n    tag_157:\n      dup3\n      add\n      swap2\n      swap1\n      0x00\n      mstore\n      keccak256(0x00, 0x20)\n      swap1\n    tag_158:\n      dup2\n      sload\n      dup2\n      mstore\n      swap1\n      0x01\n      add\n      swap1\n      0x20\n      add\n      dup1\n      dup4\n      gt\n      tag_158\n      jumpi\n      dup3\n      swap1\n      sub\n      0x1f\n      and\n      dup3\n      add\n      swap2\n    tag_156:\n      pop\n      pop\n      pop\n      pop\n      pop\n      swap1\n      pop\n        /* \"contracts/Product.sol\":11302:11316  address issuer */\n      0x00\n        /* \"contracts/Product.sol\":11319:11356  recoverIssuer(certificate, signature) */\n      tag_159\n        /* \"contracts/Product.sol\":11333:11344  certificate */\n      dup4\n        /* \"contracts/Product.sol\":11346:11355  signature */\n      dup4\n        /* \"contracts/Product.sol\":11319:11332  recoverIssuer */\n      tag_160\n        /* \"contracts/Product.sol\":11319:11356  recoverIssuer(certificate, signature) */\n      jump\t// in\n    tag_159:\n        /* \"contracts/Product.sol\":11302:11356  address issuer = recoverIssuer(certificate, signature) */\n      swap1\n      pop\n        /* \"contracts/Product.sol\":11395:11399  true */\n      0x01\n        /* \"contracts/Product.sol\":11371:11399  verifyIssuer(issuer) == true */\n      iszero\n      iszero\n        /* \"contracts/Product.sol\":11371:11391  verifyIssuer(issuer) */\n      tag_161\n        /* \"contracts/Product.sol\":11384:11390  issuer */\n      dup3\n        /* \"contracts/Product.sol\":11371:11383  verifyIssuer */\n      tag_162\n        /* \"contracts/Product.sol\":11371:11391  verifyIssuer(issuer) */\n      jump\t// in\n    tag_161:\n        /* \"contracts/Product.sol\":11371:11399  verifyIssuer(issuer) == true */\n      iszero\n      iszero\n      eq\n        /* \"contracts/Product.sol\":11367:11417  if (verifyIssuer(issuer) == true) { return true; } */\n      iszero\n      tag_163\n      jumpi\n        /* \"contracts/Product.sol\":11410:11414  true */\n      0x01\n        /* \"contracts/Product.sol\":11403:11414  return true */\n      swap5\n      pop\n      pop\n      pop\n      pop\n      jump(tag_153)\n        /* \"contracts/Product.sol\":11367:11417  if (verifyIssuer(issuer) == true) { return true; } */\n    tag_163:\n        /* \"contracts/Product.sol\":11433:11438  false */\n      0x00\n        /* \"contracts/Product.sol\":11426:11438  return false */\n      swap5\n      pop\n      pop\n      pop\n      pop\n        /* \"contracts/Product.sol\":1726:1727  _ */\n    tag_153:\n        /* \"contracts/Product.sol\":11014:11446  function verifyCertificate(bytes32 _batchID) public view halt(false) returns(bool) {... */\n      pop\n      swap2\n      swap1\n      pop\n      jump\t// out\n        /* \"contracts/Product.sol\":4293:4665  function addCertificate(bytes32 _batchID, bytes32 _certificate, bytes memory _signature) public halt(false) onlyOwner(msg.sender, _batchID) {... */\n    tag_61:\n        /* \"contracts/Product.sol\":4394:4399  false */\n      0x00\n        /* \"contracts/Product.sol\":1700:1706  _state */\n      dup1\n        /* \"contracts/Product.sol\":1690:1706  halted == _state */\n      iszero\n      iszero\n        /* \"contracts/Product.sol\":1690:1696  halted */\n      0x00\n      0x14\n      swap1\n      sload\n      swap1\n      0x0100\n      exp\n      swap1\n      div\n      0xff\n      and\n        /* \"contracts/Product.sol\":1690:1706  halted == _state */\n      iszero\n      iszero\n      eq\n        /* \"contracts/Product.sol\":1681:1724  require (halted == _state, \"contract halt\") */\n      tag_165\n      jumpi\n      mload(0x40)\n      0x08c379a000000000000000000000000000000000000000000000000000000000\n      dup2\n      mstore\n      0x04\n      add\n      tag_166\n      swap1\n      tag_106\n      jump\t// in\n    tag_166:\n      mload(0x40)\n      dup1\n      swap2\n      sub\n      swap1\n      revert\n    tag_165:\n        /* \"contracts/Product.sol\":4411:4421  msg.sender */\n      caller\n        /* \"contracts/Product.sol\":4423:4431  _batchID */\n      dup5\n        /* \"contracts/Product.sol\":1886:1896  msg.sender */\n      caller\n        /* \"contracts/Product.sol\":1858:1896  products[_batchID].owner == msg.sender */\n      0xffffffffffffffffffffffffffffffffffffffff\n      and\n        /* \"contracts/Product.sol\":1858:1866  products */\n      0x04\n        /* \"contracts/Product.sol\":1858:1876  products[_batchID] */\n      0x00\n        /* \"contracts/Product.sol\":1867:1875  _batchID */\n      dup4\n        /* \"contracts/Product.sol\":1858:1876  products[_batchID] */\n      dup2\n      mstore\n      0x20\n      add\n      swap1\n      dup2\n      mstore\n      0x20\n      add\n      0x00\n      keccak256\n        /* \"contracts/Product.sol\":1858:1882  products[_batchID].owner */\n      0x03\n      add\n      0x00\n      swap1\n      sload\n      swap1\n      0x0100\n      exp\n      swap1\n      div\n      0xffffffffffffffffffffffffffffffffffffffff\n      and\n        /* \"contracts/Product.sol\":1858:1896  products[_batchID].owner == msg.sender */\n      0xffffffffffffffffffffffffffffffffffffffff\n      and\n      eq\n        /* \"contracts/Product.sol\":1850:1934  require(products[_batchID].owner == msg.sender, \"only owner can call this function\") */\n      tag_168\n      jumpi\n      mload(0x40)\n      0x08c379a000000000000000000000000000000000000000000000000000000000\n      dup2\n      mstore\n      0x04\n      add\n      tag_169\n      swap1\n      tag_170\n      jump\t// in\n    tag_169:\n      mload(0x40)\n      dup1\n      swap2\n      sub\n      swap1\n      revert\n    tag_168:\n        /* \"contracts/Product.sol\":4482:4490  products */\n      0x04\n        /* \"contracts/Product.sol\":4482:4500  products[_batchID] */\n      0x00\n        /* \"contracts/Product.sol\":4491:4499  _batchID */\n      dup8\n        /* \"contracts/Product.sol\":4482:4500  products[_batchID] */\n      dup2\n      mstore\n      0x20\n      add\n      swap1\n      dup2\n      mstore\n      0x20\n      add\n      0x00\n      keccak256\n        /* \"contracts/Product.sol\":4482:4506  products[_batchID].owner */\n      0x03\n      add\n      0x00\n      swap1\n      sload\n      swap1\n      0x0100\n      exp\n      swap1\n      div\n      0xffffffffffffffffffffffffffffffffffffffff\n      and\n        /* \"contracts/Product.sol\":4451:4506  products[_batchID].producer == products[_batchID].owner */\n      0xffffffffffffffffffffffffffffffffffffffff\n      and\n        /* \"contracts/Product.sol\":4451:4459  products */\n      0x04\n        /* \"contracts/Product.sol\":4451:4469  products[_batchID] */\n      0x00\n        /* \"contracts/Product.sol\":4460:4468  _batchID */\n      dup9\n        /* \"contracts/Product.sol\":4451:4469  products[_batchID] */\n      dup2\n      mstore\n      0x20\n      add\n      swap1\n      dup2\n      mstore\n      0x20\n      add\n      0x00\n      keccak256\n        /* \"contracts/Product.sol\":4451:4478  products[_batchID].producer */\n      0x04\n      add\n      0x00\n      swap1\n      sload\n      swap1\n      0x0100\n      exp\n      swap1\n      div\n      0xffffffffffffffffffffffffffffffffffffffff\n      and\n        /* \"contracts/Product.sol\":4451:4506  products[_batchID].producer == products[_batchID].owner */\n      0xffffffffffffffffffffffffffffffffffffffff\n      and\n      eq\n        /* \"contracts/Product.sol\":4443:4549  require(products[_batchID].producer == products[_batchID].owner, \"producer of the batch is not the owner\") */\n      tag_172\n      jumpi\n      mload(0x40)\n      0x08c379a000000000000000000000000000000000000000000000000000000000\n      dup2\n      mstore\n      0x04\n      add\n      tag_173\n      swap1\n      tag_174\n      jump\t// in\n    tag_173:\n      mload(0x40)\n      dup1\n      swap2\n      sub\n      swap1\n      revert\n    tag_172:\n        /* \"contracts/Product.sol\":4593:4605  _certificate */\n      dup5\n        /* \"contracts/Product.sol\":4560:4568  products */\n      0x04\n        /* \"contracts/Product.sol\":4560:4578  products[_batchID] */\n      0x00\n        /* \"contracts/Product.sol\":4569:4577  _batchID */\n      dup9\n        /* \"contracts/Product.sol\":4560:4578  products[_batchID] */\n      dup2\n      mstore\n      0x20\n      add\n      swap1\n      dup2\n      mstore\n      0x20\n      add\n      0x00\n      keccak256\n        /* \"contracts/Product.sol\":4560:4590  products[_batchID].certificate */\n      0x01\n      add\n        /* \"contracts/Product.sol\":4560:4605  products[_batchID].certificate = _certificate */\n      dup2\n      swap1\n      sstore\n      pop\n        /* \"contracts/Product.sol\":4647:4657  _signature */\n      dup4\n        /* \"contracts/Product.sol\":4616:4624  products */\n      0x04\n        /* \"contracts/Product.sol\":4616:4634  products[_batchID] */\n      0x00\n        /* \"contracts/Product.sol\":4625:4633  _batchID */\n      dup9\n        /* \"contracts/Product.sol\":4616:4634  products[_batchID] */\n      dup2\n      mstore\n      0x20\n      add\n      swap1\n      dup2\n      mstore\n      0x20\n      add\n      0x00\n      keccak256\n        /* \"contracts/Product.sol\":4616:4644  products[_batchID].signature */\n      0x02\n      add\n        /* \"contracts/Product.sol\":4616:4657  products[_batchID].signature = _signature */\n      swap1\n      dup1\n      mload\n      swap1\n      0x20\n      add\n      swap1\n      tag_175\n      swap3\n      swap2\n      swap1\n      tag_176\n      jump\t// in\n    tag_175:\n      pop\n        /* \"contracts/Product.sol\":1726:1727  _ */\n      pop\n      pop\n        /* \"contracts/Product.sol\":4293:4665  function addCertificate(bytes32 _batchID, bytes32 _certificate, bytes memory _signature) public halt(false) onlyOwner(msg.sender, _batchID) {... */\n      pop\n      pop\n      pop\n      pop\n      jump\t// out\n        /* \"contracts/Product.sol\":6476:6688  function verifyProductHash(bytes32 _batchID, bytes32 _offchainHash) public halt(false) view returns(bool) {... */\n    tag_65:\n        /* \"contracts/Product.sol\":6576:6580  bool */\n      0x00\n        /* \"contracts/Product.sol\":6556:6561  false */\n      dup1\n        /* \"contracts/Product.sol\":1700:1706  _state */\n      dup1\n        /* \"contracts/Product.sol\":1690:1706  halted == _state */\n      iszero\n      iszero\n        /* \"contracts/Product.sol\":1690:1696  halted */\n      0x00\n      0x14\n      swap1\n      sload\n      swap1\n      0x0100\n      exp\n      swap1\n      div\n      0xff\n      and\n        /* \"contracts/Product.sol\":1690:1706  halted == _state */\n      iszero\n      iszero\n      eq\n        /* \"contracts/Product.sol\":1681:1724  require (halted == _state, \"contract halt\") */\n      tag_178\n      jumpi\n      mload(0x40)\n      0x08c379a000000000000000000000000000000000000000000000000000000000\n      dup2\n      mstore\n      0x04\n      add\n      tag_179\n      swap1\n      tag_106\n      jump\t// in\n    tag_179:\n      mload(0x40)\n      dup1\n      swap2\n      sub\n      swap1\n      revert\n    tag_178:\n        /* \"contracts/Product.sol\":6630:6643  _offchainHash */\n      dup3\n        /* \"contracts/Product.sol\":6596:6604  products */\n      0x04\n        /* \"contracts/Product.sol\":6596:6614  products[_batchID] */\n      0x00\n        /* \"contracts/Product.sol\":6605:6613  _batchID */\n      dup7\n        /* \"contracts/Product.sol\":6596:6614  products[_batchID] */\n      dup2\n      mstore\n      0x20\n      add\n      swap1\n      dup2\n      mstore\n      0x20\n      add\n      0x00\n      keccak256\n        /* \"contracts/Product.sol\":6596:6626  products[_batchID].productHash */\n      0x00\n      add\n      sload\n        /* \"contracts/Product.sol\":6596:6643  products[_batchID].productHash == _offchainHash */\n      eq\n        /* \"contracts/Product.sol\":6592:6660  if (products[_batchID].productHash == _offchainHash) { return true;} */\n      iszero\n      tag_181\n      jumpi\n        /* \"contracts/Product.sol\":6654:6658  true */\n      0x01\n        /* \"contracts/Product.sol\":6647:6658  return true */\n      swap2\n      pop\n      jump(tag_180)\n        /* \"contracts/Product.sol\":6592:6660  if (products[_batchID].productHash == _offchainHash) { return true;} */\n    tag_181:\n        /* \"contracts/Product.sol\":6676:6681  false */\n      0x00\n        /* \"contracts/Product.sol\":6669:6681  return false */\n      swap2\n      pop\n        /* \"contracts/Product.sol\":1726:1727  _ */\n    tag_180:\n        /* \"contracts/Product.sol\":6476:6688  function verifyProductHash(bytes32 _batchID, bytes32 _offchainHash) public halt(false) view returns(bool) {... */\n      pop\n      swap3\n      swap2\n      pop\n      pop\n      jump\t// out\n        /* \"contracts/Product.sol\":7062:7185  function getProducer(address _producer) public view halt(false) returns(bool) {... */\n    tag_70:\n        /* \"contracts/Product.sol\":7134:7138  bool */\n      0x00\n        /* \"contracts/Product.sol\":7119:7124  false */\n      dup1\n        /* \"contracts/Product.sol\":1700:1706  _state */\n      dup1\n        /* \"contracts/Product.sol\":1690:1706  halted == _state */\n      iszero\n      iszero\n        /* \"contracts/Product.sol\":1690:1696  halted */\n      0x00\n      0x14\n      swap1\n      sload\n      swap1\n      0x0100\n      exp\n      swap1\n      div\n      0xff\n      and\n        /* \"contracts/Product.sol\":1690:1706  halted == _state */\n      iszero\n      iszero\n      eq\n        /* \"contracts/Product.sol\":1681:1724  require (halted == _state, \"contract halt\") */\n      tag_183\n      jumpi\n      mload(0x40)\n      0x08c379a000000000000000000000000000000000000000000000000000000000\n      dup2\n      mstore\n      0x04\n      add\n      tag_184\n      swap1\n      tag_106\n      jump\t// in\n    tag_184:\n      mload(0x40)\n      dup1\n      swap2\n      sub\n      swap1\n      revert\n    tag_183:\n        /* \"contracts/Product.sol\":7157:7166  producers */\n      0x06\n        /* \"contracts/Product.sol\":7157:7177  producers[_producer] */\n      0x00\n        /* \"contracts/Product.sol\":7167:7176  _producer */\n      dup5\n        /* \"contracts/Product.sol\":7157:7177  producers[_producer] */\n      0xffffffffffffffffffffffffffffffffffffffff\n      and\n      0xffffffffffffffffffffffffffffffffffffffff\n      and\n      dup2\n      mstore\n      0x20\n      add\n      swap1\n      dup2\n      mstore\n      0x20\n      add\n      0x00\n      keccak256\n      0x00\n      swap1\n      sload\n      swap1\n      0x0100\n      exp\n      swap1\n      div\n      0xff\n      and\n        /* \"contracts/Product.sol\":7150:7177  return producers[_producer] */\n      swap2\n      pop\n        /* \"contracts/Product.sol\":7062:7185  function getProducer(address _producer) public view halt(false) returns(bool) {... */\n      pop\n      swap2\n      swap1\n      pop\n      jump\t// out\n        /* \"contracts/Product.sol\":5127:5506  function updateOwner(bytes32 _batchID, bytes32 _productHash, address _newOwner) public halt(false) onlyOwner(msg.sender, _batchID) {... */\n    tag_75:\n        /* \"contracts/Product.sol\":5219:5224  false */\n      0x00\n        /* \"contracts/Product.sol\":1700:1706  _state */\n      dup1\n        /* \"contracts/Product.sol\":1690:1706  halted == _state */\n      iszero\n      iszero\n        /* \"contracts/Product.sol\":1690:1696  halted */\n      0x00\n      0x14\n      swap1\n      sload\n      swap1\n      0x0100\n      exp\n      swap1\n      div\n      0xff\n      and\n        /* \"contracts/Product.sol\":1690:1706  halted == _state */\n      iszero\n      iszero\n      eq\n        /* \"contracts/Product.sol\":1681:1724  require (halted == _state, \"contract halt\") */\n      tag_187\n      jumpi\n      mload(0x40)\n      0x08c379a000000000000000000000000000000000000000000000000000000000\n      dup2\n      mstore\n      0x04\n      add\n      tag_188\n      swap1\n      tag_106\n      jump\t// in\n    tag_188:\n      mload(0x40)\n      dup1\n      swap2\n      sub\n      swap1\n      revert\n    tag_187:\n        /* \"contracts/Product.sol\":5236:5246  msg.sender */\n      caller\n        /* \"contracts/Product.sol\":5248:5256  _batchID */\n      dup5\n        /* \"contracts/Product.sol\":1886:1896  msg.sender */\n      caller\n        /* \"contracts/Product.sol\":1858:1896  products[_batchID].owner == msg.sender */\n      0xffffffffffffffffffffffffffffffffffffffff\n      and\n        /* \"contracts/Product.sol\":1858:1866  products */\n      0x04\n        /* \"contracts/Product.sol\":1858:1876  products[_batchID] */\n      0x00\n        /* \"contracts/Product.sol\":1867:1875  _batchID */\n      dup4\n        /* \"contracts/Product.sol\":1858:1876  products[_batchID] */\n      dup2\n      mstore\n      0x20\n      add\n      swap1\n      dup2\n      mstore\n      0x20\n      add\n      0x00\n      keccak256\n        /* \"contracts/Product.sol\":1858:1882  products[_batchID].owner */\n      0x03\n      add\n      0x00\n      swap1\n      sload\n      swap1\n      0x0100\n      exp\n      swap1\n      div\n      0xffffffffffffffffffffffffffffffffffffffff\n      and\n        /* \"contracts/Product.sol\":1858:1896  products[_batchID].owner == msg.sender */\n      0xffffffffffffffffffffffffffffffffffffffff\n      and\n      eq\n        /* \"contracts/Product.sol\":1850:1934  require(products[_batchID].owner == msg.sender, \"only owner can call this function\") */\n      tag_190\n      jumpi\n      mload(0x40)\n      0x08c379a000000000000000000000000000000000000000000000000000000000\n      dup2\n      mstore\n      0x04\n      add\n      tag_191\n      swap1\n      tag_170\n      jump\t// in\n    tag_191:\n      mload(0x40)\n      dup1\n      swap2\n      sub\n      swap1\n      revert\n    tag_190:\n        /* \"contracts/Product.sol\":5321:5325  true */\n      0x01\n        /* \"contracts/Product.sol\":5276:5325  verifyProductHash(_batchID, _productHash) == true */\n      iszero\n      iszero\n        /* \"contracts/Product.sol\":5276:5317  verifyProductHash(_batchID, _productHash) */\n      tag_193\n        /* \"contracts/Product.sol\":5294:5302  _batchID */\n      dup8\n        /* \"contracts/Product.sol\":5304:5316  _productHash */\n      dup8\n        /* \"contracts/Product.sol\":5276:5293  verifyProductHash */\n      tag_65\n        /* \"contracts/Product.sol\":5276:5317  verifyProductHash(_batchID, _productHash) */\n      jump\t// in\n    tag_193:\n        /* \"contracts/Product.sol\":5276:5325  verifyProductHash(_batchID, _productHash) == true */\n      iszero\n      iszero\n      eq\n        /* \"contracts/Product.sol\":5268:5362  require(verifyProductHash(_batchID, _productHash) == true, \"product hash verification failed\") */\n      tag_194\n      jumpi\n      mload(0x40)\n      0x08c379a000000000000000000000000000000000000000000000000000000000\n      dup2\n      mstore\n      0x04\n      add\n      tag_195\n      swap1\n      tag_196\n      jump\t// in\n    tag_195:\n      mload(0x40)\n      dup1\n      swap2\n      sub\n      swap1\n      revert\n    tag_194:\n        /* \"contracts/Product.sol\":5412:5416  true */\n      0x01\n        /* \"contracts/Product.sol\":5381:5416  verifyCertificate(_batchID) == true */\n      iszero\n      iszero\n        /* \"contracts/Product.sol\":5381:5408  verifyCertificate(_batchID) */\n      tag_197\n        /* \"contracts/Product.sol\":5399:5407  _batchID */\n      dup8\n        /* \"contracts/Product.sol\":5381:5398  verifyCertificate */\n      tag_56\n        /* \"contracts/Product.sol\":5381:5408  verifyCertificate(_batchID) */\n      jump\t// in\n    tag_197:\n        /* \"contracts/Product.sol\":5381:5416  verifyCertificate(_batchID) == true */\n      iszero\n      iszero\n      eq\n        /* \"contracts/Product.sol\":5373:5452  require(verifyCertificate(_batchID) == true, \"certificate verification failed\") */\n      tag_198\n      jumpi\n      mload(0x40)\n      0x08c379a000000000000000000000000000000000000000000000000000000000\n      dup2\n      mstore\n      0x04\n      add\n      tag_199\n      swap1\n      tag_200\n      jump\t// in\n    tag_199:\n      mload(0x40)\n      dup1\n      swap2\n      sub\n      swap1\n      revert\n    tag_198:\n        /* \"contracts/Product.sol\":5489:5498  _newOwner */\n      dup4\n        /* \"contracts/Product.sol\":5462:5470  products */\n      0x04\n        /* \"contracts/Product.sol\":5462:5480  products[_batchID] */\n      0x00\n        /* \"contracts/Product.sol\":5471:5479  _batchID */\n      dup9\n        /* \"contracts/Product.sol\":5462:5480  products[_batchID] */\n      dup2\n      mstore\n      0x20\n      add\n      swap1\n      dup2\n      mstore\n      0x20\n      add\n      0x00\n      keccak256\n        /* \"contracts/Product.sol\":5462:5486  products[_batchID].owner */\n      0x03\n      add\n      0x00\n        /* \"contracts/Product.sol\":5462:5498  products[_batchID].owner = _newOwner */\n      0x0100\n      exp\n      dup2\n      sload\n      dup2\n      0xffffffffffffffffffffffffffffffffffffffff\n      mul\n      not\n      and\n      swap1\n      dup4\n      0xffffffffffffffffffffffffffffffffffffffff\n      and\n      mul\n      or\n      swap1\n      sstore\n      pop\n        /* \"contracts/Product.sol\":1726:1727  _ */\n      pop\n      pop\n        /* \"contracts/Product.sol\":5127:5506  function updateOwner(bytes32 _batchID, bytes32 _productHash, address _newOwner) public halt(false) onlyOwner(msg.sender, _batchID) {... */\n      pop\n      pop\n      pop\n      pop\n      jump\t// out\n        /* \"contracts/Product.sol\":9101:9205  function getTemperature(bytes32 _batchID) public {... */\n    tag_78:\n        /* \"contracts/Product.sol\":9160:9198  requestTemperatureFromOracle(_batchID) */\n      tag_202\n        /* \"contracts/Product.sol\":9189:9197  _batchID */\n      dup2\n        /* \"contracts/Product.sol\":9160:9188  requestTemperatureFromOracle */\n      tag_203\n        /* \"contracts/Product.sol\":9160:9198  requestTemperatureFromOracle(_batchID) */\n      jump\t// in\n    tag_202:\n        /* \"contracts/Product.sol\":9101:9205  function getTemperature(bytes32 _batchID) public {... */\n      pop\n      jump\t// out\n        /* \"contracts/Product.sol\":2870:2989  function addProducer(address _producer) public halt(false) onlyDeployer() {... */\n    tag_81:\n        /* \"contracts/Product.sol\":2922:2927  false */\n      0x00\n        /* \"contracts/Product.sol\":1700:1706  _state */\n      dup1\n        /* \"contracts/Product.sol\":1690:1706  halted == _state */\n      iszero\n      iszero\n        /* \"contracts/Product.sol\":1690:1696  halted */\n      0x00\n      0x14\n      swap1\n      sload\n      swap1\n      0x0100\n      exp\n      swap1\n      div\n      0xff\n      and\n        /* \"contracts/Product.sol\":1690:1706  halted == _state */\n      iszero\n      iszero\n      eq\n        /* \"contracts/Product.sol\":1681:1724  require (halted == _state, \"contract halt\") */\n      tag_205\n      jumpi\n      mload(0x40)\n      0x08c379a000000000000000000000000000000000000000000000000000000000\n      dup2\n      mstore\n      0x04\n      add\n      tag_206\n      swap1\n      tag_106\n      jump\t// in\n    tag_206:\n      mload(0x40)\n      dup1\n      swap2\n      sub\n      swap1\n      revert\n    tag_205:\n        /* \"contracts/Product.sol\":2234:2244  msg.sender */\n      caller\n        /* \"contracts/Product.sol\":2225:2244  owner == msg.sender */\n      0xffffffffffffffffffffffffffffffffffffffff\n      and\n        /* \"contracts/Product.sol\":2225:2230  owner */\n      0x01\n      0x00\n      swap1\n      sload\n      swap1\n      0x0100\n      exp\n      swap1\n      div\n      0xffffffffffffffffffffffffffffffffffffffff\n      and\n        /* \"contracts/Product.sol\":2225:2244  owner == msg.sender */\n      0xffffffffffffffffffffffffffffffffffffffff\n      and\n      eq\n        /* \"contracts/Product.sol\":2217:2291  require(owner == msg.sender, \"only contract owner can call this function\") */\n      tag_208\n      jumpi\n      mload(0x40)\n      0x08c379a000000000000000000000000000000000000000000000000000000000\n      dup2\n      mstore\n      0x04\n      add\n      tag_209\n      swap1\n      tag_94\n      jump\t// in\n    tag_209:\n      mload(0x40)\n      dup1\n      swap2\n      sub\n      swap1\n      revert\n    tag_208:\n        /* \"contracts/Product.sol\":2977:2981  true */\n      0x01\n        /* \"contracts/Product.sol\":2954:2963  producers */\n      0x06\n        /* \"contracts/Product.sol\":2954:2974  producers[_producer] */\n      0x00\n        /* \"contracts/Product.sol\":2964:2973  _producer */\n      dup5\n        /* \"contracts/Product.sol\":2954:2974  producers[_producer] */\n      0xffffffffffffffffffffffffffffffffffffffff\n      and\n      0xffffffffffffffffffffffffffffffffffffffff\n      and\n      dup2\n      mstore\n      0x20\n      add\n      swap1\n      dup2\n      mstore\n      0x20\n      add\n      0x00\n      keccak256\n      0x00\n        /* \"contracts/Product.sol\":2954:2981  producers[_producer] = true */\n      0x0100\n      exp\n      dup2\n      sload\n      dup2\n      0xff\n      mul\n      not\n      and\n      swap1\n      dup4\n      iszero\n      iszero\n      mul\n      or\n      swap1\n      sstore\n      pop\n        /* \"contracts/Product.sol\":2870:2989  function addProducer(address _producer) public halt(false) onlyDeployer() {... */\n      pop\n      pop\n      jump\t// out\n        /* \"contracts/Product.sol\":5801:5959  function updateStatus(bytes32 _batchID, bool _status) public halt(false) onlyOwner(msg.sender, _batchID) {... */\n    tag_85:\n        /* \"contracts/Product.sol\":5867:5872  false */\n      0x00\n        /* \"contracts/Product.sol\":1700:1706  _state */\n      dup1\n        /* \"contracts/Product.sol\":1690:1706  halted == _state */\n      iszero\n      iszero\n        /* \"contracts/Product.sol\":1690:1696  halted */\n      0x00\n      0x14\n      swap1\n      sload\n      swap1\n      0x0100\n      exp\n      swap1\n      div\n      0xff\n      and\n        /* \"contracts/Product.sol\":1690:1706  halted == _state */\n      iszero\n      iszero\n      eq\n        /* \"contracts/Product.sol\":1681:1724  require (halted == _state, \"contract halt\") */\n      tag_212\n      jumpi\n      mload(0x40)\n      0x08c379a000000000000000000000000000000000000000000000000000000000\n      dup2\n      mstore\n      0x04\n      add\n      tag_213\n      swap1\n      tag_106\n      jump\t// in\n    tag_213:\n      mload(0x40)\n      dup1\n      swap2\n      sub\n      swap1\n      revert\n    tag_212:\n        /* \"contracts/Product.sol\":5884:5894  msg.sender */\n      caller\n        /* \"contracts/Product.sol\":5896:5904  _batchID */\n      dup4\n        /* \"contracts/Product.sol\":1886:1896  msg.sender */\n      caller\n        /* \"contracts/Product.sol\":1858:1896  products[_batchID].owner == msg.sender */\n      0xffffffffffffffffffffffffffffffffffffffff\n      and\n        /* \"contracts/Product.sol\":1858:1866  products */\n      0x04\n        /* \"contracts/Product.sol\":1858:1876  products[_batchID] */\n      0x00\n        /* \"contracts/Product.sol\":1867:1875  _batchID */\n      dup4\n        /* \"contracts/Product.sol\":1858:1876  products[_batchID] */\n      dup2\n      mstore\n      0x20\n      add\n      swap1\n      dup2\n      mstore\n      0x20\n      add\n      0x00\n      keccak256\n        /* \"contracts/Product.sol\":1858:1882  products[_batchID].owner */\n      0x03\n      add\n      0x00\n      swap1\n      sload\n      swap1\n      0x0100\n      exp\n      swap1\n      div\n      0xffffffffffffffffffffffffffffffffffffffff\n      and\n        /* \"contracts/Product.sol\":1858:1896  products[_batchID].owner == msg.sender */\n      0xffffffffffffffffffffffffffffffffffffffff\n      and\n      eq\n        /* \"contracts/Product.sol\":1850:1934  require(products[_batchID].owner == msg.sender, \"only owner can call this function\") */\n      tag_215\n      jumpi\n      mload(0x40)\n      0x08c379a000000000000000000000000000000000000000000000000000000000\n      dup2\n      mstore\n      0x04\n      add\n      tag_216\n      swap1\n      tag_170\n      jump\t// in\n    tag_216:\n      mload(0x40)\n      dup1\n      swap2\n      sub\n      swap1\n      revert\n    tag_215:\n        /* \"contracts/Product.sol\":5944:5951  _status */\n      dup4\n        /* \"contracts/Product.sol\":5916:5924  products */\n      0x04\n        /* \"contracts/Product.sol\":5916:5934  products[_batchID] */\n      0x00\n        /* \"contracts/Product.sol\":5925:5933  _batchID */\n      dup8\n        /* \"contracts/Product.sol\":5916:5934  products[_batchID] */\n      dup2\n      mstore\n      0x20\n      add\n      swap1\n      dup2\n      mstore\n      0x20\n      add\n      0x00\n      keccak256\n        /* \"contracts/Product.sol\":5916:5941  products[_batchID].status */\n      0x06\n      add\n      0x00\n        /* \"contracts/Product.sol\":5916:5951  products[_batchID].status = _status */\n      0x0100\n      exp\n      dup2\n      sload\n      dup2\n      0xff\n      mul\n      not\n      and\n      swap1\n      dup4\n      iszero\n      iszero\n      mul\n      or\n      swap1\n      sstore\n      pop\n        /* \"contracts/Product.sol\":1726:1727  _ */\n      pop\n      pop\n        /* \"contracts/Product.sol\":5801:5959  function updateStatus(bytes32 _batchID, bool _status) public halt(false) onlyOwner(msg.sender, _batchID) {... */\n      pop\n      pop\n      pop\n      jump\t// out\n        /* \"contracts/Product.sol\":7973:8157  function getCertificate(bytes32 _batchID) public view halt(false) returns(bytes32, bytes memory) {... */\n    tag_88:\n        /* \"contracts/Product.sol\":8047:8054  bytes32 */\n      0x00\n        /* \"contracts/Product.sol\":8056:8068  bytes memory */\n      0x60\n        /* \"contracts/Product.sol\":8032:8037  false */\n      0x00\n        /* \"contracts/Product.sol\":1700:1706  _state */\n      dup1\n        /* \"contracts/Product.sol\":1690:1706  halted == _state */\n      iszero\n      iszero\n        /* \"contracts/Product.sol\":1690:1696  halted */\n      0x00\n      0x14\n      swap1\n      sload\n      swap1\n      0x0100\n      exp\n      swap1\n      div\n      0xff\n      and\n        /* \"contracts/Product.sol\":1690:1706  halted == _state */\n      iszero\n      iszero\n      eq\n        /* \"contracts/Product.sol\":1681:1724  require (halted == _state, \"contract halt\") */\n      tag_219\n      jumpi\n      mload(0x40)\n      0x08c379a000000000000000000000000000000000000000000000000000000000\n      dup2\n      mstore\n      0x04\n      add\n      tag_220\n      swap1\n      tag_106\n      jump\t// in\n    tag_220:\n      mload(0x40)\n      dup1\n      swap2\n      sub\n      swap1\n      revert\n    tag_219:\n        /* \"contracts/Product.sol\":8088:8096  products */\n      0x04\n        /* \"contracts/Product.sol\":8088:8106  products[_batchID] */\n      0x00\n        /* \"contracts/Product.sol\":8097:8105  _batchID */\n      dup6\n        /* \"contracts/Product.sol\":8088:8106  products[_batchID] */\n      dup2\n      mstore\n      0x20\n      add\n      swap1\n      dup2\n      mstore\n      0x20\n      add\n      0x00\n      keccak256\n        /* \"contracts/Product.sol\":8088:8118  products[_batchID].certificate */\n      0x01\n      add\n      sload\n        /* \"contracts/Product.sol\":8120:8128  products */\n      0x04\n        /* \"contracts/Product.sol\":8120:8138  products[_batchID] */\n      0x00\n        /* \"contracts/Product.sol\":8129:8137  _batchID */\n      dup7\n        /* \"contracts/Product.sol\":8120:8138  products[_batchID] */\n      dup2\n      mstore\n      0x20\n      add\n      swap1\n      dup2\n      mstore\n      0x20\n      add\n      0x00\n      keccak256\n        /* \"contracts/Product.sol\":8120:8148  products[_batchID].signature */\n      0x02\n      add\n        /* \"contracts/Product.sol\":8080:8149  return (products[_batchID].certificate, products[_batchID].signature) */\n      dup1\n      dup1\n      sload\n      tag_222\n      swap1\n      tag_145\n      jump\t// in\n    tag_222:\n      dup1\n      0x1f\n      add\n      0x20\n      dup1\n      swap2\n      div\n      mul\n      0x20\n      add\n      mload(0x40)\n      swap1\n      dup2\n      add\n      0x40\n      mstore\n      dup1\n      swap3\n      swap2\n      swap1\n      dup2\n      dup2\n      mstore\n      0x20\n      add\n      dup3\n      dup1\n      sload\n      tag_223\n      swap1\n      tag_145\n      jump\t// in\n    tag_223:\n      dup1\n      iszero\n      tag_224\n      jumpi\n      dup1\n      0x1f\n      lt\n      tag_225\n      jumpi\n      0x0100\n      dup1\n      dup4\n      sload\n      div\n      mul\n      dup4\n      mstore\n      swap2\n      0x20\n      add\n      swap2\n      jump(tag_224)\n    tag_225:\n      dup3\n      add\n      swap2\n      swap1\n      0x00\n      mstore\n      keccak256(0x00, 0x20)\n      swap1\n    tag_226:\n      dup2\n      sload\n      dup2\n      mstore\n      swap1\n      0x01\n      add\n      swap1\n      0x20\n      add\n      dup1\n      dup4\n      gt\n      tag_226\n      jumpi\n      dup3\n      swap1\n      sub\n      0x1f\n      and\n      dup3\n      add\n      swap2\n    tag_224:\n      pop\n      pop\n      pop\n      pop\n      pop\n      swap1\n      pop\n      swap3\n      pop\n      swap3\n      pop\n        /* \"contracts/Product.sol\":7973:8157  function getCertificate(bytes32 _batchID) public view halt(false) returns(bytes32, bytes memory) {... */\n      pop\n      swap2\n      pop\n      swap2\n      jump\t// out\n        /* \"contracts/Product.sol\":9252:9500  function receiveTemperatureFromOracle(bytes32 _batchID, uint256 _recvdTemp) internal override returns(bool) {... */\n    tag_102:\n        /* \"contracts/Product.sol\":9354:9358  bool */\n      0x00\n        /* \"contracts/Product.sol\":9453:9493  compareTemperature(_batchID, _recvdTemp) */\n      tag_228\n        /* \"contracts/Product.sol\":9472:9480  _batchID */\n      dup4\n        /* \"contracts/Product.sol\":9482:9492  _recvdTemp */\n      dup4\n        /* \"contracts/Product.sol\":9453:9471  compareTemperature */\n      tag_229\n        /* \"contracts/Product.sol\":9453:9493  compareTemperature(_batchID, _recvdTemp) */\n      jump\t// in\n    tag_228:\n        /* \"contracts/Product.sol\":9446:9493  return compareTemperature(_batchID, _recvdTemp) */\n      swap1\n      pop\n        /* \"contracts/Product.sol\":9252:9500  function receiveTemperatureFromOracle(bytes32 _batchID, uint256 _recvdTemp) internal override returns(bool) {... */\n      swap3\n      swap2\n      pop\n      pop\n      jump\t// out\n        /* \"contracts/Product.sol\":12632:13217  function recoverIssuer(bytes32 _hash, bytes memory _sig) internal pure returns(address) {... */\n    tag_160:\n        /* \"contracts/Product.sol\":12711:12718  address */\n      0x00\n        /* \"contracts/Product.sol\":12730:12739  bytes32 r */\n      dup1\n        /* \"contracts/Product.sol\":12741:12750  bytes32 s */\n      0x00\n        /* \"contracts/Product.sol\":12752:12759  uint8 v */\n      dup1\n        /* \"contracts/Product.sol\":12825:12827  65 */\n      0x41\n        /* \"contracts/Product.sol\":12810:12814  _sig */\n      dup6\n        /* \"contracts/Product.sol\":12810:12821  _sig.length */\n      mload\n        /* \"contracts/Product.sol\":12810:12827  _sig.length != 65 */\n      eq\n        /* \"contracts/Product.sol\":12806:12853  if (_sig.length != 65) { return (address(0)); } */\n      tag_231\n      jumpi\n        /* \"contracts/Product.sol\":12847:12848  0 */\n      0x00\n        /* \"contracts/Product.sol\":12831:12850  return (address(0)) */\n      swap4\n      pop\n      pop\n      pop\n      pop\n      jump(tag_230)\n        /* \"contracts/Product.sol\":12806:12853  if (_sig.length != 65) { return (address(0)); } */\n    tag_231:\n        /* \"contracts/Product.sol\":12906:12908  32 */\n      0x20\n        /* \"contracts/Product.sol\":12900:12904  _sig */\n      dup6\n        /* \"contracts/Product.sol\":12896:12909  add(_sig, 32) */\n      add\n        /* \"contracts/Product.sol\":12890:12910  mload(add(_sig, 32)) */\n      mload\n        /* \"contracts/Product.sol\":12885:12910  r := mload(add(_sig, 32)) */\n      swap3\n      pop\n        /* \"contracts/Product.sol\":12944:12946  64 */\n      0x40\n        /* \"contracts/Product.sol\":12938:12942  _sig */\n      dup6\n        /* \"contracts/Product.sol\":12934:12947  add(_sig, 64) */\n      add\n        /* \"contracts/Product.sol\":12928:12948  mload(add(_sig, 64)) */\n      mload\n        /* \"contracts/Product.sol\":12923:12948  s := mload(add(_sig, 64)) */\n      swap2\n      pop\n        /* \"contracts/Product.sol\":12990:12992  96 */\n      0x60\n        /* \"contracts/Product.sol\":12984:12988  _sig */\n      dup6\n        /* \"contracts/Product.sol\":12980:12993  add(_sig, 96) */\n      add\n        /* \"contracts/Product.sol\":12974:12994  mload(add(_sig, 96)) */\n      mload\n        /* \"contracts/Product.sol\":12971:12972  0 */\n      0x00\n        /* \"contracts/Product.sol\":12966:12995  byte(0, mload(add(_sig, 96))) */\n      byte\n        /* \"contracts/Product.sol\":12961:12995  v := byte(0, mload(add(_sig, 96))) */\n      swap1\n      pop\n        /* \"contracts/Product.sol\":13022:13024  27 */\n      0x1b\n        /* \"contracts/Product.sol\":13018:13019  v */\n      dup2\n        /* \"contracts/Product.sol\":13018:13024  v < 27 */\n      0xff\n      and\n      lt\n        /* \"contracts/Product.sol\":13014:13038  if (v < 27) { v += 27; } */\n      iszero\n      tag_232\n      jumpi\n        /* \"contracts/Product.sol\":13033:13035  27 */\n      0x1b\n        /* \"contracts/Product.sol\":13028:13035  v += 27 */\n      dup2\n      tag_233\n      swap2\n      swap1\n      tag_234\n      jump\t// in\n    tag_233:\n      swap1\n      pop\n        /* \"contracts/Product.sol\":13014:13038  if (v < 27) { v += 27; } */\n    tag_232:\n        /* \"contracts/Product.sol\":13120:13122  27 */\n      0x1b\n        /* \"contracts/Product.sol\":13115:13116  v */\n      dup2\n        /* \"contracts/Product.sol\":13115:13122  v != 27 */\n      0xff\n      and\n      eq\n      iszero\n        /* \"contracts/Product.sol\":13115:13133  v != 27 && v != 28 */\n      dup1\n      iszero\n      tag_235\n      jumpi\n      pop\n        /* \"contracts/Product.sol\":13131:13133  28 */\n      0x1c\n        /* \"contracts/Product.sol\":13126:13127  v */\n      dup2\n        /* \"contracts/Product.sol\":13126:13133  v != 28 */\n      0xff\n      and\n      eq\n      iszero\n        /* \"contracts/Product.sol\":13115:13133  v != 27 && v != 28 */\n    tag_235:\n        /* \"contracts/Product.sol\":13111:13211  if (v != 27 && v != 28) { return (address(0)); } ... */\n      iszero\n      tag_236\n      jumpi\n        /* \"contracts/Product.sol\":13153:13154  0 */\n      0x00\n        /* \"contracts/Product.sol\":13137:13156  return (address(0)) */\n      swap4\n      pop\n      pop\n      pop\n      pop\n      jump(tag_230)\n        /* \"contracts/Product.sol\":13111:13211  if (v != 27 && v != 28) { return (address(0)); } ... */\n    tag_236:\n        /* \"contracts/Product.sol\":13183:13208  ecrecover(_hash, v, r, s) */\n      0x01\n        /* \"contracts/Product.sol\":13193:13198  _hash */\n      dup7\n        /* \"contracts/Product.sol\":13200:13201  v */\n      dup3\n        /* \"contracts/Product.sol\":13203:13204  r */\n      dup6\n        /* \"contracts/Product.sol\":13206:13207  s */\n      dup6\n        /* \"contracts/Product.sol\":13183:13208  ecrecover(_hash, v, r, s) */\n      mload(0x40)\n      0x00\n      dup2\n      mstore\n      0x20\n      add\n      0x40\n      mstore\n      mload(0x40)\n      tag_238\n      swap5\n      swap4\n      swap3\n      swap2\n      swap1\n      tag_239\n      jump\t// in\n    tag_238:\n      0x20\n      mload(0x40)\n      0x20\n      dup2\n      sub\n      swap1\n      dup1\n      dup5\n      sub\n      swap1\n      dup6\n      gas\n      staticcall\n      iszero\n      dup1\n      iszero\n      tag_241\n      jumpi\n      returndatasize\n      0x00\n      dup1\n      returndatacopy\n      revert(0x00, returndatasize)\n    tag_241:\n      pop\n      pop\n      pop\n      mload(sub(mload(0x40), 0x20))\n        /* \"contracts/Product.sol\":13176:13208  return ecrecover(_hash, v, r, s) */\n      swap4\n      pop\n      pop\n      pop\n      pop\n        /* \"contracts/Product.sol\":12632:13217  function recoverIssuer(bytes32 _hash, bytes memory _sig) internal pure returns(address) {... */\n    tag_230:\n      swap3\n      swap2\n      pop\n      pop\n      jump\t// out\n        /* \"contracts/Product.sol\":11874:12060  function verifyIssuer(address _issuer) internal view returns(bool) {... */\n    tag_162:\n        /* \"contracts/Product.sol\":11935:11939  bool */\n      0x00\n        /* \"contracts/Product.sol\":11951:11977  AuthorityRegistry registry */\n      dup1\n        /* \"contracts/Product.sol\":11998:12001  DOA */\n      0x02\n      0x00\n      swap1\n      sload\n      swap1\n      0x0100\n      exp\n      swap1\n      div\n      0xffffffffffffffffffffffffffffffffffffffff\n      and\n        /* \"contracts/Product.sol\":11951:12002  AuthorityRegistry registry = AuthorityRegistry(DOA) */\n      swap1\n      pop\n        /* \"contracts/Product.sol\":12021:12029  registry */\n      dup1\n        /* \"contracts/Product.sol\":12021:12044  registry.checkPublicKey */\n      0xffffffffffffffffffffffffffffffffffffffff\n      and\n      0x6af92956\n        /* \"contracts/Product.sol\":12045:12052  _issuer */\n      dup5\n        /* \"contracts/Product.sol\":12021:12053  registry.checkPublicKey(_issuer) */\n      mload(0x40)\n      dup3\n      0xffffffff\n      and\n      0xe0\n      shl\n      dup2\n      mstore\n      0x04\n      add\n      tag_243\n      swap2\n      swap1\n      tag_244\n      jump\t// in\n    tag_243:\n      0x20\n      mload(0x40)\n      dup1\n      dup4\n      sub\n      dup2\n      dup7\n      dup1\n      extcodesize\n      iszero\n      dup1\n      iszero\n      tag_245\n      jumpi\n      0x00\n      dup1\n      revert\n    tag_245:\n      pop\n      gas\n      staticcall\n      iszero\n      dup1\n      iszero\n      tag_247\n      jumpi\n      returndatasize\n      0x00\n      dup1\n      returndatacopy\n      revert(0x00, returndatasize)\n    tag_247:\n      pop\n      pop\n      pop\n      pop\n      mload(0x40)\n      returndatasize\n      not(0x1f)\n      0x1f\n      dup3\n      add\n      and\n      dup3\n      add\n      dup1\n      0x40\n      mstore\n      pop\n      dup2\n      add\n      swap1\n      tag_248\n      swap2\n      swap1\n      tag_249\n      jump\t// in\n    tag_248:\n        /* \"contracts/Product.sol\":12014:12053  return registry.checkPublicKey(_issuer) */\n      swap2\n      pop\n      pop\n        /* \"contracts/Product.sol\":11874:12060  function verifyIssuer(address _issuer) internal view returns(bool) {... */\n      swap2\n      swap1\n      pop\n      jump\t// out\n        /* \"contracts/OracleClient.sol\":670:859  function requestTemperatureFromOracle(bytes32 batchId) internal ... */\n    tag_203:\n        /* \"contracts/OracleClient.sol\":816:830  _oracleAddress */\n      0x00\n      dup1\n      sload\n      swap1\n      0x0100\n      exp\n      swap1\n      div\n      0xffffffffffffffffffffffffffffffffffffffff\n      and\n        /* \"contracts/OracleClient.sol\":800:843  OracleInterface(_oracleAddress).requestData */\n      0xffffffffffffffffffffffffffffffffffffffff\n      and\n      0x3661346b\n        /* \"contracts/OracleClient.sol\":844:851  batchId */\n      dup3\n        /* \"contracts/OracleClient.sol\":800:852  OracleInterface(_oracleAddress).requestData(batchId) */\n      mload(0x40)\n      dup3\n      0xffffffff\n      and\n      0xe0\n      shl\n      dup2\n      mstore\n      0x04\n      add\n      tag_251\n      swap2\n      swap1\n      tag_135\n      jump\t// in\n    tag_251:\n      0x00\n      mload(0x40)\n      dup1\n      dup4\n      sub\n      dup2\n      0x00\n      dup8\n      dup1\n      extcodesize\n      iszero\n      dup1\n      iszero\n      tag_252\n      jumpi\n      0x00\n      dup1\n      revert\n    tag_252:\n      pop\n      gas\n      call\n      iszero\n      dup1\n      iszero\n      tag_254\n      jumpi\n      returndatasize\n      0x00\n      dup1\n      returndatacopy\n      revert(0x00, returndatasize)\n    tag_254:\n      pop\n      pop\n      pop\n      pop\n        /* \"contracts/OracleClient.sol\":670:859  function requestTemperatureFromOracle(bytes32 batchId) internal ... */\n      pop\n      jump\t// out\n        /* \"contracts/Product.sol\":10126:10467  function compareTemperature(bytes32 _batchID, uint256 _newTemperature) private halt(false) returns(bool) {... */\n    tag_229:\n        /* \"contracts/Product.sol\":10225:10229  bool */\n      0x00\n        /* \"contracts/Product.sol\":10210:10215  false */\n      dup1\n        /* \"contracts/Product.sol\":1700:1706  _state */\n      dup1\n        /* \"contracts/Product.sol\":1690:1706  halted == _state */\n      iszero\n      iszero\n        /* \"contracts/Product.sol\":1690:1696  halted */\n      0x00\n      0x14\n      swap1\n      sload\n      swap1\n      0x0100\n      exp\n      swap1\n      div\n      0xff\n      and\n        /* \"contracts/Product.sol\":1690:1706  halted == _state */\n      iszero\n      iszero\n      eq\n        /* \"contracts/Product.sol\":1681:1724  require (halted == _state, \"contract halt\") */\n      tag_256\n      jumpi\n      mload(0x40)\n      0x08c379a000000000000000000000000000000000000000000000000000000000\n      dup2\n      mstore\n      0x04\n      add\n      tag_257\n      swap1\n      tag_106\n      jump\t// in\n    tag_257:\n      mload(0x40)\n      dup1\n      swap2\n      sub\n      swap1\n      revert\n    tag_256:\n        /* \"contracts/Product.sol\":10263:10271  products */\n      0x04\n        /* \"contracts/Product.sol\":10263:10281  products[_batchID] */\n      0x00\n        /* \"contracts/Product.sol\":10272:10280  _batchID */\n      dup6\n        /* \"contracts/Product.sol\":10263:10281  products[_batchID] */\n      dup2\n      mstore\n      0x20\n      add\n      swap1\n      dup2\n      mstore\n      0x20\n      add\n      0x00\n      keccak256\n        /* \"contracts/Product.sol\":10263:10293  products[_batchID].temperature */\n      0x05\n      add\n      sload\n        /* \"contracts/Product.sol\":10245:10260  _newTemperature */\n      dup4\n        /* \"contracts/Product.sol\":10245:10293  _newTemperature > products[_batchID].temperature */\n      gt\n        /* \"contracts/Product.sol\":10241:10353  if (_newTemperature > products[_batchID].temperature) {... */\n      iszero\n      tag_259\n      jumpi\n        /* \"contracts/Product.sol\":10337:10342  false */\n      0x00\n        /* \"contracts/Product.sol\":10309:10317  products */\n      0x04\n        /* \"contracts/Product.sol\":10309:10327  products[_batchID] */\n      0x00\n        /* \"contracts/Product.sol\":10318:10326  _batchID */\n      dup7\n        /* \"contracts/Product.sol\":10309:10327  products[_batchID] */\n      dup2\n      mstore\n      0x20\n      add\n      swap1\n      dup2\n      mstore\n      0x20\n      add\n      0x00\n      keccak256\n        /* \"contracts/Product.sol\":10309:10334  products[_batchID].status */\n      0x06\n      add\n      0x00\n        /* \"contracts/Product.sol\":10309:10342  products[_batchID].status = false */\n      0x0100\n      exp\n      dup2\n      sload\n      dup2\n      0xff\n      mul\n      not\n      and\n      swap1\n      dup4\n      iszero\n      iszero\n      mul\n      or\n      swap1\n      sstore\n      pop\n        /* \"contracts/Product.sol\":10241:10353  if (_newTemperature > products[_batchID].temperature) {... */\n    tag_259:\n        /* \"contracts/Product.sol\":10367:10418  compareTemperatureResult(products[_batchID].status) */\n      0x8fadd6f505628cd2c13e5786c730c9d6e57eb96632e17ff196ad26f99cec6152\n        /* \"contracts/Product.sol\":10392:10400  products */\n      0x04\n        /* \"contracts/Product.sol\":10392:10410  products[_batchID] */\n      0x00\n        /* \"contracts/Product.sol\":10401:10409  _batchID */\n      dup7\n        /* \"contracts/Product.sol\":10392:10410  products[_batchID] */\n      dup2\n      mstore\n      0x20\n      add\n      swap1\n      dup2\n      mstore\n      0x20\n      add\n      0x00\n      keccak256\n        /* \"contracts/Product.sol\":10392:10417  products[_batchID].status */\n      0x06\n      add\n      0x00\n      swap1\n      sload\n      swap1\n      0x0100\n      exp\n      swap1\n      div\n      0xff\n      and\n        /* \"contracts/Product.sol\":10367:10418  compareTemperatureResult(products[_batchID].status) */\n      mload(0x40)\n      tag_260\n      swap2\n      swap1\n      tag_30\n      jump\t// in\n    tag_260:\n      mload(0x40)\n      dup1\n      swap2\n      sub\n      swap1\n      log1\n        /* \"contracts/Product.sol\":10435:10443  products */\n      0x04\n        /* \"contracts/Product.sol\":10435:10453  products[_batchID] */\n      0x00\n        /* \"contracts/Product.sol\":10444:10452  _batchID */\n      dup6\n        /* \"contracts/Product.sol\":10435:10453  products[_batchID] */\n      dup2\n      mstore\n      0x20\n      add\n      swap1\n      dup2\n      mstore\n      0x20\n      add\n      0x00\n      keccak256\n        /* \"contracts/Product.sol\":10435:10460  products[_batchID].status */\n      0x06\n      add\n      0x00\n      swap1\n      sload\n      swap1\n      0x0100\n      exp\n      swap1\n      div\n      0xff\n      and\n        /* \"contracts/Product.sol\":10428:10460  return products[_batchID].status */\n      swap2\n      pop\n        /* \"contracts/Product.sol\":10126:10467  function compareTemperature(bytes32 _batchID, uint256 _newTemperature) private halt(false) returns(bool) {... */\n      pop\n      swap3\n      swap2\n      pop\n      pop\n      jump\t// out\n    tag_133:\n      dup3\n      dup1\n      sload\n      tag_261\n      swap1\n      tag_145\n      jump\t// in\n    tag_261:\n      swap1\n      0x00\n      mstore\n      keccak256(0x00, 0x20)\n      swap1\n      0x1f\n      add\n      0x20\n      swap1\n      div\n      dup2\n      add\n      swap3\n      dup3\n      tag_263\n      jumpi\n      0x00\n      dup6\n      sstore\n      jump(tag_262)\n    tag_263:\n      dup3\n      0x1f\n      lt\n      tag_264\n      jumpi\n      dup1\n      mload\n      not(0xff)\n      and\n      dup4\n      dup1\n      add\n      or\n      dup6\n      sstore\n      jump(tag_262)\n    tag_264:\n      dup3\n      dup1\n      add\n      0x01\n      add\n      dup6\n      sstore\n      dup3\n      iszero\n      tag_262\n      jumpi\n      swap2\n      dup3\n      add\n    tag_265:\n      dup3\n      dup2\n      gt\n      iszero\n      tag_266\n      jumpi\n      dup3\n      mload\n      dup3\n      sstore\n      swap2\n      0x20\n      add\n      swap2\n      swap1\n      0x01\n      add\n      swap1\n      jump(tag_265)\n    tag_266:\n    tag_262:\n      pop\n      swap1\n      pop\n      tag_267\n      swap2\n      swap1\n      tag_268\n      jump\t// in\n    tag_267:\n      pop\n      swap1\n      jump\t// out\n    tag_176:\n      dup3\n      dup1\n      sload\n      tag_269\n      swap1\n      tag_145\n      jump\t// in\n    tag_269:\n      swap1\n      0x00\n      mstore\n      keccak256(0x00, 0x20)\n      swap1\n      0x1f\n      add\n      0x20\n      swap1\n      div\n      dup2\n      add\n      swap3\n      dup3\n      tag_271\n      jumpi\n      0x00\n      dup6\n      sstore\n      jump(tag_270)\n    tag_271:\n      dup3\n      0x1f\n      lt\n      tag_272\n      jumpi\n      dup1\n      mload\n      not(0xff)\n      and\n      dup4\n      dup1\n      add\n      or\n      dup6\n      sstore\n      jump(tag_270)\n    tag_272:\n      dup3\n      dup1\n      add\n      0x01\n      add\n      dup6\n      sstore\n      dup3\n      iszero\n      tag_270\n      jumpi\n      swap2\n      dup3\n      add\n    tag_273:\n      dup3\n      dup2\n      gt\n      iszero\n      tag_274\n      jumpi\n      dup3\n      mload\n      dup3\n      sstore\n      swap2\n      0x20\n      add\n      swap2\n      swap1\n      0x01\n      add\n      swap1\n      jump(tag_273)\n    tag_274:\n    tag_270:\n      pop\n      swap1\n      pop\n      tag_275\n      swap2\n      swap1\n      tag_268\n      jump\t// in\n    tag_275:\n      pop\n      swap1\n      jump\t// out\n    tag_268:\n    tag_276:\n      dup1\n      dup3\n      gt\n      iszero\n      tag_277\n      jumpi\n      0x00\n      dup2\n      0x00\n      swap1\n      sstore\n      pop\n      0x01\n      add\n      jump(tag_276)\n    tag_277:\n      pop\n      swap1\n      jump\t// out\n        /* \"#utility.yul\":7:417   */\n    tag_279:\n        /* \"#utility.yul\":84:89   */\n      0x00\n        /* \"#utility.yul\":109:174   */\n      tag_281\n        /* \"#utility.yul\":125:173   */\n      tag_282\n        /* \"#utility.yul\":166:172   */\n      dup5\n        /* \"#utility.yul\":125:173   */\n      tag_283\n      jump\t// in\n    tag_282:\n        /* \"#utility.yul\":109:174   */\n      tag_284\n      jump\t// in\n    tag_281:\n        /* \"#utility.yul\":100:174   */\n      swap1\n      pop\n        /* \"#utility.yul\":197:203   */\n      dup3\n        /* \"#utility.yul\":190:195   */\n      dup2\n        /* \"#utility.yul\":183:204   */\n      mstore\n        /* \"#utility.yul\":235:239   */\n      0x20\n        /* \"#utility.yul\":228:233   */\n      dup2\n        /* \"#utility.yul\":224:240   */\n      add\n        /* \"#utility.yul\":273:276   */\n      dup5\n        /* \"#utility.yul\":264:270   */\n      dup5\n        /* \"#utility.yul\":259:262   */\n      dup5\n        /* \"#utility.yul\":255:271   */\n      add\n        /* \"#utility.yul\":252:277   */\n      gt\n        /* \"#utility.yul\":249:361   */\n      iszero\n      tag_285\n      jumpi\n        /* \"#utility.yul\":280:359   */\n      tag_286\n      tag_287\n      jump\t// in\n    tag_286:\n        /* \"#utility.yul\":249:361   */\n    tag_285:\n        /* \"#utility.yul\":370:411   */\n      tag_288\n        /* \"#utility.yul\":404:410   */\n      dup5\n        /* \"#utility.yul\":399:402   */\n      dup3\n        /* \"#utility.yul\":394:397   */\n      dup6\n        /* \"#utility.yul\":370:411   */\n      tag_289\n      jump\t// in\n    tag_288:\n        /* \"#utility.yul\":90:417   */\n      pop\n        /* \"#utility.yul\":7:417   */\n      swap4\n      swap3\n      pop\n      pop\n      pop\n      jump\t// out\n        /* \"#utility.yul\":423:835   */\n    tag_290:\n        /* \"#utility.yul\":501:506   */\n      0x00\n        /* \"#utility.yul\":526:592   */\n      tag_292\n        /* \"#utility.yul\":542:591   */\n      tag_293\n        /* \"#utility.yul\":584:590   */\n      dup5\n        /* \"#utility.yul\":542:591   */\n      tag_294\n      jump\t// in\n    tag_293:\n        /* \"#utility.yul\":526:592   */\n      tag_284\n      jump\t// in\n    tag_292:\n        /* \"#utility.yul\":517:592   */\n      swap1\n      pop\n        /* \"#utility.yul\":615:621   */\n      dup3\n        /* \"#utility.yul\":608:613   */\n      dup2\n        /* \"#utility.yul\":601:622   */\n      mstore\n        /* \"#utility.yul\":653:657   */\n      0x20\n        /* \"#utility.yul\":646:651   */\n      dup2\n        /* \"#utility.yul\":642:658   */\n      add\n        /* \"#utility.yul\":691:694   */\n      dup5\n        /* \"#utility.yul\":682:688   */\n      dup5\n        /* \"#utility.yul\":677:680   */\n      dup5\n        /* \"#utility.yul\":673:689   */\n      add\n        /* \"#utility.yul\":670:695   */\n      gt\n        /* \"#utility.yul\":667:779   */\n      iszero\n      tag_295\n      jumpi\n        /* \"#utility.yul\":698:777   */\n      tag_296\n      tag_287\n      jump\t// in\n    tag_296:\n        /* \"#utility.yul\":667:779   */\n    tag_295:\n        /* \"#utility.yul\":788:829   */\n      tag_297\n        /* \"#utility.yul\":822:828   */\n      dup5\n        /* \"#utility.yul\":817:820   */\n      dup3\n        /* \"#utility.yul\":812:815   */\n      dup6\n        /* \"#utility.yul\":788:829   */\n      tag_289\n      jump\t// in\n    tag_297:\n        /* \"#utility.yul\":507:835   */\n      pop\n        /* \"#utility.yul\":423:835   */\n      swap4\n      swap3\n      pop\n      pop\n      pop\n      jump\t// out\n        /* \"#utility.yul\":841:980   */\n    tag_298:\n        /* \"#utility.yul\":887:892   */\n      0x00\n        /* \"#utility.yul\":925:931   */\n      dup2\n        /* \"#utility.yul\":912:932   */\n      calldataload\n        /* \"#utility.yul\":903:932   */\n      swap1\n      pop\n        /* \"#utility.yul\":941:974   */\n      tag_300\n        /* \"#utility.yul\":968:973   */\n      dup2\n        /* \"#utility.yul\":941:974   */\n      tag_301\n      jump\t// in\n    tag_300:\n        /* \"#utility.yul\":841:980   */\n      swap3\n      swap2\n      pop\n      pop\n      jump\t// out\n        /* \"#utility.yul\":986:1119   */\n    tag_302:\n        /* \"#utility.yul\":1029:1034   */\n      0x00\n        /* \"#utility.yul\":1067:1073   */\n      dup2\n        /* \"#utility.yul\":1054:1074   */\n      calldataload\n        /* \"#utility.yul\":1045:1074   */\n      swap1\n      pop\n        /* \"#utility.yul\":1083:1113   */\n      tag_304\n        /* \"#utility.yul\":1107:1112   */\n      dup2\n        /* \"#utility.yul\":1083:1113   */\n      tag_305\n      jump\t// in\n    tag_304:\n        /* \"#utility.yul\":986:1119   */\n      swap3\n      swap2\n      pop\n      pop\n      jump\t// out\n        /* \"#utility.yul\":1125:1262   */\n    tag_306:\n        /* \"#utility.yul\":1179:1184   */\n      0x00\n        /* \"#utility.yul\":1210:1216   */\n      dup2\n        /* \"#utility.yul\":1204:1217   */\n      mload\n        /* \"#utility.yul\":1195:1217   */\n      swap1\n      pop\n        /* \"#utility.yul\":1226:1256   */\n      tag_308\n        /* \"#utility.yul\":1250:1255   */\n      dup2\n        /* \"#utility.yul\":1226:1256   */\n      tag_305\n      jump\t// in\n    tag_308:\n        /* \"#utility.yul\":1125:1262   */\n      swap3\n      swap2\n      pop\n      pop\n      jump\t// out\n        /* \"#utility.yul\":1268:1407   */\n    tag_309:\n        /* \"#utility.yul\":1314:1319   */\n      0x00\n        /* \"#utility.yul\":1352:1358   */\n      dup2\n        /* \"#utility.yul\":1339:1359   */\n      calldataload\n        /* \"#utility.yul\":1330:1359   */\n      swap1\n      pop\n        /* \"#utility.yul\":1368:1401   */\n      tag_311\n        /* \"#utility.yul\":1395:1400   */\n      dup2\n        /* \"#utility.yul\":1368:1401   */\n      tag_312\n      jump\t// in\n    tag_311:\n        /* \"#utility.yul\":1268:1407   */\n      swap3\n      swap2\n      pop\n      pop\n      jump\t// out\n        /* \"#utility.yul\":1426:1764   */\n    tag_313:\n        /* \"#utility.yul\":1481:1486   */\n      0x00\n        /* \"#utility.yul\":1530:1533   */\n      dup3\n        /* \"#utility.yul\":1523:1527   */\n      0x1f\n        /* \"#utility.yul\":1515:1521   */\n      dup4\n        /* \"#utility.yul\":1511:1528   */\n      add\n        /* \"#utility.yul\":1507:1534   */\n      slt\n        /* \"#utility.yul\":1497:1619   */\n      tag_315\n      jumpi\n        /* \"#utility.yul\":1538:1617   */\n      tag_316\n      tag_317\n      jump\t// in\n    tag_316:\n        /* \"#utility.yul\":1497:1619   */\n    tag_315:\n        /* \"#utility.yul\":1655:1661   */\n      dup2\n        /* \"#utility.yul\":1642:1662   */\n      calldataload\n        /* \"#utility.yul\":1680:1758   */\n      tag_318\n        /* \"#utility.yul\":1754:1757   */\n      dup5\n        /* \"#utility.yul\":1746:1752   */\n      dup3\n        /* \"#utility.yul\":1739:1743   */\n      0x20\n        /* \"#utility.yul\":1731:1737   */\n      dup7\n        /* \"#utility.yul\":1727:1744   */\n      add\n        /* \"#utility.yul\":1680:1758   */\n      tag_279\n      jump\t// in\n    tag_318:\n        /* \"#utility.yul\":1671:1758   */\n      swap2\n      pop\n        /* \"#utility.yul\":1487:1764   */\n      pop\n        /* \"#utility.yul\":1426:1764   */\n      swap3\n      swap2\n      pop\n      pop\n      jump\t// out\n        /* \"#utility.yul\":1784:2124   */\n    tag_319:\n        /* \"#utility.yul\":1840:1845   */\n      0x00\n        /* \"#utility.yul\":1889:1892   */\n      dup3\n        /* \"#utility.yul\":1882:1886   */\n      0x1f\n        /* \"#utility.yul\":1874:1880   */\n      dup4\n        /* \"#utility.yul\":1870:1887   */\n      add\n        /* \"#utility.yul\":1866:1893   */\n      slt\n        /* \"#utility.yul\":1856:1978   */\n      tag_321\n      jumpi\n        /* \"#utility.yul\":1897:1976   */\n      tag_322\n      tag_317\n      jump\t// in\n    tag_322:\n        /* \"#utility.yul\":1856:1978   */\n    tag_321:\n        /* \"#utility.yul\":2014:2020   */\n      dup2\n        /* \"#utility.yul\":2001:2021   */\n      calldataload\n        /* \"#utility.yul\":2039:2118   */\n      tag_323\n        /* \"#utility.yul\":2114:2117   */\n      dup5\n        /* \"#utility.yul\":2106:2112   */\n      dup3\n        /* \"#utility.yul\":2099:2103   */\n      0x20\n        /* \"#utility.yul\":2091:2097   */\n      dup7\n        /* \"#utility.yul\":2087:2104   */\n      add\n        /* \"#utility.yul\":2039:2118   */\n      tag_290\n      jump\t// in\n    tag_323:\n        /* \"#utility.yul\":2030:2118   */\n      swap2\n      pop\n        /* \"#utility.yul\":1846:2124   */\n      pop\n        /* \"#utility.yul\":1784:2124   */\n      swap3\n      swap2\n      pop\n      pop\n      jump\t// out\n        /* \"#utility.yul\":2130:2269   */\n    tag_324:\n        /* \"#utility.yul\":2176:2181   */\n      0x00\n        /* \"#utility.yul\":2214:2220   */\n      dup2\n        /* \"#utility.yul\":2201:2221   */\n      calldataload\n        /* \"#utility.yul\":2192:2221   */\n      swap1\n      pop\n        /* \"#utility.yul\":2230:2263   */\n      tag_326\n        /* \"#utility.yul\":2257:2262   */\n      dup2\n        /* \"#utility.yul\":2230:2263   */\n      tag_327\n      jump\t// in\n    tag_326:\n        /* \"#utility.yul\":2130:2269   */\n      swap3\n      swap2\n      pop\n      pop\n      jump\t// out\n        /* \"#utility.yul\":2275:2604   */\n    tag_69:\n        /* \"#utility.yul\":2334:2340   */\n      0x00\n        /* \"#utility.yul\":2383:2385   */\n      0x20\n        /* \"#utility.yul\":2371:2380   */\n      dup3\n        /* \"#utility.yul\":2362:2369   */\n      dup5\n        /* \"#utility.yul\":2358:2381   */\n      sub\n        /* \"#utility.yul\":2354:2386   */\n      slt\n        /* \"#utility.yul\":2351:2470   */\n      iszero\n      tag_329\n      jumpi\n        /* \"#utility.yul\":2389:2468   */\n      tag_330\n      tag_331\n      jump\t// in\n    tag_330:\n        /* \"#utility.yul\":2351:2470   */\n    tag_329:\n        /* \"#utility.yul\":2509:2510   */\n      0x00\n        /* \"#utility.yul\":2534:2587   */\n      tag_332\n        /* \"#utility.yul\":2579:2586   */\n      dup5\n        /* \"#utility.yul\":2570:2576   */\n      dup3\n        /* \"#utility.yul\":2559:2568   */\n      dup6\n        /* \"#utility.yul\":2555:2577   */\n      add\n        /* \"#utility.yul\":2534:2587   */\n      tag_298\n      jump\t// in\n    tag_332:\n        /* \"#utility.yul\":2524:2587   */\n      swap2\n      pop\n        /* \"#utility.yul\":2480:2597   */\n      pop\n        /* \"#utility.yul\":2275:2604   */\n      swap3\n      swap2\n      pop\n      pop\n      jump\t// out\n        /* \"#utility.yul\":2610:2955   */\n    tag_249:\n        /* \"#utility.yul\":2677:2683   */\n      0x00\n        /* \"#utility.yul\":2726:2728   */\n      0x20\n        /* \"#utility.yul\":2714:2723   */\n      dup3\n        /* \"#utility.yul\":2705:2712   */\n      dup5\n        /* \"#utility.yul\":2701:2724   */\n      sub\n        /* \"#utility.yul\":2697:2729   */\n      slt\n        /* \"#utility.yul\":2694:2813   */\n      iszero\n      tag_334\n      jumpi\n        /* \"#utility.yul\":2732:2811   */\n      tag_335\n      tag_331\n      jump\t// in\n    tag_335:\n        /* \"#utility.yul\":2694:2813   */\n    tag_334:\n        /* \"#utility.yul\":2852:2853   */\n      0x00\n        /* \"#utility.yul\":2877:2938   */\n      tag_336\n        /* \"#utility.yul\":2930:2937   */\n      dup5\n        /* \"#utility.yul\":2921:2927   */\n      dup3\n        /* \"#utility.yul\":2910:2919   */\n      dup6\n        /* \"#utility.yul\":2906:2928   */\n      add\n        /* \"#utility.yul\":2877:2938   */\n      tag_306\n      jump\t// in\n    tag_336:\n        /* \"#utility.yul\":2867:2938   */\n      swap2\n      pop\n        /* \"#utility.yul\":2823:2948   */\n      pop\n        /* \"#utility.yul\":2610:2955   */\n      swap3\n      swap2\n      pop\n      pop\n      jump\t// out\n        /* \"#utility.yul\":2961:3290   */\n    tag_35:\n        /* \"#utility.yul\":3020:3026   */\n      0x00\n        /* \"#utility.yul\":3069:3071   */\n      0x20\n        /* \"#utility.yul\":3057:3066   */\n      dup3\n        /* \"#utility.yul\":3048:3055   */\n      dup5\n        /* \"#utility.yul\":3044:3067   */\n      sub\n        /* \"#utility.yul\":3040:3072   */\n      slt\n        /* \"#utility.yul\":3037:3156   */\n      iszero\n      tag_338\n      jumpi\n        /* \"#utility.yul\":3075:3154   */\n      tag_339\n      tag_331\n      jump\t// in\n    tag_339:\n        /* \"#utility.yul\":3037:3156   */\n    tag_338:\n        /* \"#utility.yul\":3195:3196   */\n      0x00\n        /* \"#utility.yul\":3220:3273   */\n      tag_340\n        /* \"#utility.yul\":3265:3272   */\n      dup5\n        /* \"#utility.yul\":3256:3262   */\n      dup3\n        /* \"#utility.yul\":3245:3254   */\n      dup6\n        /* \"#utility.yul\":3241:3263   */\n      add\n        /* \"#utility.yul\":3220:3273   */\n      tag_309\n      jump\t// in\n    tag_340:\n        /* \"#utility.yul\":3210:3273   */\n      swap2\n      pop\n        /* \"#utility.yul\":3166:3283   */\n      pop\n        /* \"#utility.yul\":2961:3290   */\n      swap3\n      swap2\n      pop\n      pop\n      jump\t// out\n        /* \"#utility.yul\":3296:3764   */\n    tag_84:\n        /* \"#utility.yul\":3361:3367   */\n      0x00\n        /* \"#utility.yul\":3369:3375   */\n      dup1\n        /* \"#utility.yul\":3418:3420   */\n      0x40\n        /* \"#utility.yul\":3406:3415   */\n      dup4\n        /* \"#utility.yul\":3397:3404   */\n      dup6\n        /* \"#utility.yul\":3393:3416   */\n      sub\n        /* \"#utility.yul\":3389:3421   */\n      slt\n        /* \"#utility.yul\":3386:3505   */\n      iszero\n      tag_342\n      jumpi\n        /* \"#utility.yul\":3424:3503   */\n      tag_343\n      tag_331\n      jump\t// in\n    tag_343:\n        /* \"#utility.yul\":3386:3505   */\n    tag_342:\n        /* \"#utility.yul\":3544:3545   */\n      0x00\n        /* \"#utility.yul\":3569:3622   */\n      tag_344\n        /* \"#utility.yul\":3614:3621   */\n      dup6\n        /* \"#utility.yul\":3605:3611   */\n      dup3\n        /* \"#utility.yul\":3594:3603   */\n      dup7\n        /* \"#utility.yul\":3590:3612   */\n      add\n        /* \"#utility.yul\":3569:3622   */\n      tag_309\n      jump\t// in\n    tag_344:\n        /* \"#utility.yul\":3559:3622   */\n      swap3\n      pop\n        /* \"#utility.yul\":3515:3632   */\n      pop\n        /* \"#utility.yul\":3671:3673   */\n      0x20\n        /* \"#utility.yul\":3697:3747   */\n      tag_345\n        /* \"#utility.yul\":3739:3746   */\n      dup6\n        /* \"#utility.yul\":3730:3736   */\n      dup3\n        /* \"#utility.yul\":3719:3728   */\n      dup7\n        /* \"#utility.yul\":3715:3737   */\n      add\n        /* \"#utility.yul\":3697:3747   */\n      tag_302\n      jump\t// in\n    tag_345:\n        /* \"#utility.yul\":3687:3747   */\n      swap2\n      pop\n        /* \"#utility.yul\":3642:3757   */\n      pop\n        /* \"#utility.yul\":3296:3764   */\n      swap3\n      pop\n      swap3\n      swap1\n      pop\n      jump\t// out\n        /* \"#utility.yul\":3770:4244   */\n    tag_64:\n        /* \"#utility.yul\":3838:3844   */\n      0x00\n        /* \"#utility.yul\":3846:3852   */\n      dup1\n        /* \"#utility.yul\":3895:3897   */\n      0x40\n        /* \"#utility.yul\":3883:3892   */\n      dup4\n        /* \"#utility.yul\":3874:3881   */\n      dup6\n        /* \"#utility.yul\":3870:3893   */\n      sub\n        /* \"#utility.yul\":3866:3898   */\n      slt\n        /* \"#utility.yul\":3863:3982   */\n      iszero\n      tag_347\n      jumpi\n        /* \"#utility.yul\":3901:3980   */\n      tag_348\n      tag_331\n      jump\t// in\n    tag_348:\n        /* \"#utility.yul\":3863:3982   */\n    tag_347:\n        /* \"#utility.yul\":4021:4022   */\n      0x00\n        /* \"#utility.yul\":4046:4099   */\n      tag_349\n        /* \"#utility.yul\":4091:4098   */\n      dup6\n        /* \"#utility.yul\":4082:4088   */\n      dup3\n        /* \"#utility.yul\":4071:4080   */\n      dup7\n        /* \"#utility.yul\":4067:4089   */\n      add\n        /* \"#utility.yul\":4046:4099   */\n      tag_309\n      jump\t// in\n    tag_349:\n        /* \"#utility.yul\":4036:4099   */\n      swap3\n      pop\n        /* \"#utility.yul\":3992:4109   */\n      pop\n        /* \"#utility.yul\":4148:4150   */\n      0x20\n        /* \"#utility.yul\":4174:4227   */\n      tag_350\n        /* \"#utility.yul\":4219:4226   */\n      dup6\n        /* \"#utility.yul\":4210:4216   */\n      dup3\n        /* \"#utility.yul\":4199:4208   */\n      dup7\n        /* \"#utility.yul\":4195:4217   */\n      add\n        /* \"#utility.yul\":4174:4227   */\n      tag_309\n      jump\t// in\n    tag_350:\n        /* \"#utility.yul\":4164:4227   */\n      swap2\n      pop\n        /* \"#utility.yul\":4119:4237   */\n      pop\n        /* \"#utility.yul\":3770:4244   */\n      swap3\n      pop\n      swap3\n      swap1\n      pop\n      jump\t// out\n        /* \"#utility.yul\":4250:4869   */\n    tag_74:\n        /* \"#utility.yul\":4327:4333   */\n      0x00\n        /* \"#utility.yul\":4335:4341   */\n      dup1\n        /* \"#utility.yul\":4343:4349   */\n      0x00\n        /* \"#utility.yul\":4392:4394   */\n      0x60\n        /* \"#utility.yul\":4380:4389   */\n      dup5\n        /* \"#utility.yul\":4371:4378   */\n      dup7\n        /* \"#utility.yul\":4367:4390   */\n      sub\n        /* \"#utility.yul\":4363:4395   */\n      slt\n        /* \"#utility.yul\":4360:4479   */\n      iszero\n      tag_352\n      jumpi\n        /* \"#utility.yul\":4398:4477   */\n      tag_353\n      tag_331\n      jump\t// in\n    tag_353:\n        /* \"#utility.yul\":4360:4479   */\n    tag_352:\n        /* \"#utility.yul\":4518:4519   */\n      0x00\n        /* \"#utility.yul\":4543:4596   */\n      tag_354\n        /* \"#utility.yul\":4588:4595   */\n      dup7\n        /* \"#utility.yul\":4579:4585   */\n      dup3\n        /* \"#utility.yul\":4568:4577   */\n      dup8\n        /* \"#utility.yul\":4564:4586   */\n      add\n        /* \"#utility.yul\":4543:4596   */\n      tag_309\n      jump\t// in\n    tag_354:\n        /* \"#utility.yul\":4533:4596   */\n      swap4\n      pop\n        /* \"#utility.yul\":4489:4606   */\n      pop\n        /* \"#utility.yul\":4645:4647   */\n      0x20\n        /* \"#utility.yul\":4671:4724   */\n      tag_355\n        /* \"#utility.yul\":4716:4723   */\n      dup7\n        /* \"#utility.yul\":4707:4713   */\n      dup3\n        /* \"#utility.yul\":4696:4705   */\n      dup8\n        /* \"#utility.yul\":4692:4714   */\n      add\n        /* \"#utility.yul\":4671:4724   */\n      tag_309\n      jump\t// in\n    tag_355:\n        /* \"#utility.yul\":4661:4724   */\n      swap3\n      pop\n        /* \"#utility.yul\":4616:4734   */\n      pop\n        /* \"#utility.yul\":4773:4775   */\n      0x40\n        /* \"#utility.yul\":4799:4852   */\n      tag_356\n        /* \"#utility.yul\":4844:4851   */\n      dup7\n        /* \"#utility.yul\":4835:4841   */\n      dup3\n        /* \"#utility.yul\":4824:4833   */\n      dup8\n        /* \"#utility.yul\":4820:4842   */\n      add\n        /* \"#utility.yul\":4799:4852   */\n      tag_298\n      jump\t// in\n    tag_356:\n        /* \"#utility.yul\":4789:4852   */\n      swap2\n      pop\n        /* \"#utility.yul\":4744:4862   */\n      pop\n        /* \"#utility.yul\":4250:4869   */\n      swap3\n      pop\n      swap3\n      pop\n      swap3\n      jump\t// out\n        /* \"#utility.yul\":4875:5672   */\n    tag_60:\n        /* \"#utility.yul\":4961:4967   */\n      0x00\n        /* \"#utility.yul\":4969:4975   */\n      dup1\n        /* \"#utility.yul\":4977:4983   */\n      0x00\n        /* \"#utility.yul\":5026:5028   */\n      0x60\n        /* \"#utility.yul\":5014:5023   */\n      dup5\n        /* \"#utility.yul\":5005:5012   */\n      dup7\n        /* \"#utility.yul\":5001:5024   */\n      sub\n        /* \"#utility.yul\":4997:5029   */\n      slt\n        /* \"#utility.yul\":4994:5113   */\n      iszero\n      tag_358\n      jumpi\n        /* \"#utility.yul\":5032:5111   */\n      tag_359\n      tag_331\n      jump\t// in\n    tag_359:\n        /* \"#utility.yul\":4994:5113   */\n    tag_358:\n        /* \"#utility.yul\":5152:5153   */\n      0x00\n        /* \"#utility.yul\":5177:5230   */\n      tag_360\n        /* \"#utility.yul\":5222:5229   */\n      dup7\n        /* \"#utility.yul\":5213:5219   */\n      dup3\n        /* \"#utility.yul\":5202:5211   */\n      dup8\n        /* \"#utility.yul\":5198:5220   */\n      add\n        /* \"#utility.yul\":5177:5230   */\n      tag_309\n      jump\t// in\n    tag_360:\n        /* \"#utility.yul\":5167:5230   */\n      swap4\n      pop\n        /* \"#utility.yul\":5123:5240   */\n      pop\n        /* \"#utility.yul\":5279:5281   */\n      0x20\n        /* \"#utility.yul\":5305:5358   */\n      tag_361\n        /* \"#utility.yul\":5350:5357   */\n      dup7\n        /* \"#utility.yul\":5341:5347   */\n      dup3\n        /* \"#utility.yul\":5330:5339   */\n      dup8\n        /* \"#utility.yul\":5326:5348   */\n      add\n        /* \"#utility.yul\":5305:5358   */\n      tag_309\n      jump\t// in\n    tag_361:\n        /* \"#utility.yul\":5295:5358   */\n      swap3\n      pop\n        /* \"#utility.yul\":5250:5368   */\n      pop\n        /* \"#utility.yul\":5435:5437   */\n      0x40\n        /* \"#utility.yul\":5424:5433   */\n      dup5\n        /* \"#utility.yul\":5420:5438   */\n      add\n        /* \"#utility.yul\":5407:5439   */\n      calldataload\n        /* \"#utility.yul\":5466:5484   */\n      0xffffffffffffffff\n        /* \"#utility.yul\":5458:5464   */\n      dup2\n        /* \"#utility.yul\":5455:5485   */\n      gt\n        /* \"#utility.yul\":5452:5569   */\n      iszero\n      tag_362\n      jumpi\n        /* \"#utility.yul\":5488:5567   */\n      tag_363\n      tag_364\n      jump\t// in\n    tag_363:\n        /* \"#utility.yul\":5452:5569   */\n    tag_362:\n        /* \"#utility.yul\":5593:5655   */\n      tag_365\n        /* \"#utility.yul\":5647:5654   */\n      dup7\n        /* \"#utility.yul\":5638:5644   */\n      dup3\n        /* \"#utility.yul\":5627:5636   */\n      dup8\n        /* \"#utility.yul\":5623:5645   */\n      add\n        /* \"#utility.yul\":5593:5655   */\n      tag_313\n      jump\t// in\n    tag_365:\n        /* \"#utility.yul\":5583:5655   */\n      swap2\n      pop\n        /* \"#utility.yul\":5378:5665   */\n      pop\n        /* \"#utility.yul\":4875:5672   */\n      swap3\n      pop\n      swap3\n      pop\n      swap3\n      jump\t// out\n        /* \"#utility.yul\":5678:6477   */\n    tag_43:\n        /* \"#utility.yul\":5765:5771   */\n      0x00\n        /* \"#utility.yul\":5773:5779   */\n      dup1\n        /* \"#utility.yul\":5781:5787   */\n      0x00\n        /* \"#utility.yul\":5830:5832   */\n      0x60\n        /* \"#utility.yul\":5818:5827   */\n      dup5\n        /* \"#utility.yul\":5809:5816   */\n      dup7\n        /* \"#utility.yul\":5805:5828   */\n      sub\n        /* \"#utility.yul\":5801:5833   */\n      slt\n        /* \"#utility.yul\":5798:5917   */\n      iszero\n      tag_367\n      jumpi\n        /* \"#utility.yul\":5836:5915   */\n      tag_368\n      tag_331\n      jump\t// in\n    tag_368:\n        /* \"#utility.yul\":5798:5917   */\n    tag_367:\n        /* \"#utility.yul\":5956:5957   */\n      0x00\n        /* \"#utility.yul\":5981:6034   */\n      tag_369\n        /* \"#utility.yul\":6026:6033   */\n      dup7\n        /* \"#utility.yul\":6017:6023   */\n      dup3\n        /* \"#utility.yul\":6006:6015   */\n      dup8\n        /* \"#utility.yul\":6002:6024   */\n      add\n        /* \"#utility.yul\":5981:6034   */\n      tag_309\n      jump\t// in\n    tag_369:\n        /* \"#utility.yul\":5971:6034   */\n      swap4\n      pop\n        /* \"#utility.yul\":5927:6044   */\n      pop\n        /* \"#utility.yul\":6083:6085   */\n      0x20\n        /* \"#utility.yul\":6109:6162   */\n      tag_370\n        /* \"#utility.yul\":6154:6161   */\n      dup7\n        /* \"#utility.yul\":6145:6151   */\n      dup3\n        /* \"#utility.yul\":6134:6143   */\n      dup8\n        /* \"#utility.yul\":6130:6152   */\n      add\n        /* \"#utility.yul\":6109:6162   */\n      tag_324\n      jump\t// in\n    tag_370:\n        /* \"#utility.yul\":6099:6162   */\n      swap3\n      pop\n        /* \"#utility.yul\":6054:6172   */\n      pop\n        /* \"#utility.yul\":6239:6241   */\n      0x40\n        /* \"#utility.yul\":6228:6237   */\n      dup5\n        /* \"#utility.yul\":6224:6242   */\n      add\n        /* \"#utility.yul\":6211:6243   */\n      calldataload\n        /* \"#utility.yul\":6270:6288   */\n      0xffffffffffffffff\n        /* \"#utility.yul\":6262:6268   */\n      dup2\n        /* \"#utility.yul\":6259:6289   */\n      gt\n        /* \"#utility.yul\":6256:6373   */\n      iszero\n      tag_371\n      jumpi\n        /* \"#utility.yul\":6292:6371   */\n      tag_372\n      tag_364\n      jump\t// in\n    tag_372:\n        /* \"#utility.yul\":6256:6373   */\n    tag_371:\n        /* \"#utility.yul\":6397:6460   */\n      tag_373\n        /* \"#utility.yul\":6452:6459   */\n      dup7\n        /* \"#utility.yul\":6443:6449   */\n      dup3\n        /* \"#utility.yul\":6432:6441   */\n      dup8\n        /* \"#utility.yul\":6428:6450   */\n      add\n        /* \"#utility.yul\":6397:6460   */\n      tag_319\n      jump\t// in\n    tag_373:\n        /* \"#utility.yul\":6387:6460   */\n      swap2\n      pop\n        /* \"#utility.yul\":6182:6470   */\n      pop\n        /* \"#utility.yul\":5678:6477   */\n      swap3\n      pop\n      swap3\n      pop\n      swap3\n      jump\t// out\n        /* \"#utility.yul\":6483:6957   */\n    tag_27:\n        /* \"#utility.yul\":6551:6557   */\n      0x00\n        /* \"#utility.yul\":6559:6565   */\n      dup1\n        /* \"#utility.yul\":6608:6610   */\n      0x40\n        /* \"#utility.yul\":6596:6605   */\n      dup4\n        /* \"#utility.yul\":6587:6594   */\n      dup6\n        /* \"#utility.yul\":6583:6606   */\n      sub\n        /* \"#utility.yul\":6579:6611   */\n      slt\n        /* \"#utility.yul\":6576:6695   */\n      iszero\n      tag_375\n      jumpi\n        /* \"#utility.yul\":6614:6693   */\n      tag_376\n      tag_331\n      jump\t// in\n    tag_376:\n        /* \"#utility.yul\":6576:6695   */\n    tag_375:\n        /* \"#utility.yul\":6734:6735   */\n      0x00\n        /* \"#utility.yul\":6759:6812   */\n      tag_377\n        /* \"#utility.yul\":6804:6811   */\n      dup6\n        /* \"#utility.yul\":6795:6801   */\n      dup3\n        /* \"#utility.yul\":6784:6793   */\n      dup7\n        /* \"#utility.yul\":6780:6802   */\n      add\n        /* \"#utility.yul\":6759:6812   */\n      tag_324\n      jump\t// in\n    tag_377:\n        /* \"#utility.yul\":6749:6812   */\n      swap3\n      pop\n        /* \"#utility.yul\":6705:6822   */\n      pop\n        /* \"#utility.yul\":6861:6863   */\n      0x20\n        /* \"#utility.yul\":6887:6940   */\n      tag_378\n        /* \"#utility.yul\":6932:6939   */\n      dup6\n        /* \"#utility.yul\":6923:6929   */\n      dup3\n        /* \"#utility.yul\":6912:6921   */\n      dup7\n        /* \"#utility.yul\":6908:6930   */\n      add\n        /* \"#utility.yul\":6887:6940   */\n      tag_309\n      jump\t// in\n    tag_378:\n        /* \"#utility.yul\":6877:6940   */\n      swap2\n      pop\n        /* \"#utility.yul\":6832:6950   */\n      pop\n        /* \"#utility.yul\":6483:6957   */\n      swap3\n      pop\n      swap3\n      swap1\n      pop\n      jump\t// out\n        /* \"#utility.yul\":6963:7081   */\n    tag_379:\n        /* \"#utility.yul\":7050:7074   */\n      tag_381\n        /* \"#utility.yul\":7068:7073   */\n      dup2\n        /* \"#utility.yul\":7050:7074   */\n      tag_382\n      jump\t// in\n    tag_381:\n        /* \"#utility.yul\":7045:7048   */\n      dup3\n        /* \"#utility.yul\":7038:7075   */\n      mstore\n        /* \"#utility.yul\":6963:7081   */\n      pop\n      pop\n      jump\t// out\n        /* \"#utility.yul\":7087:7196   */\n    tag_383:\n        /* \"#utility.yul\":7168:7189   */\n      tag_385\n        /* \"#utility.yul\":7183:7188   */\n      dup2\n        /* \"#utility.yul\":7168:7189   */\n      tag_386\n      jump\t// in\n    tag_385:\n        /* \"#utility.yul\":7163:7166   */\n      dup3\n        /* \"#utility.yul\":7156:7190   */\n      mstore\n        /* \"#utility.yul\":7087:7196   */\n      pop\n      pop\n      jump\t// out\n        /* \"#utility.yul\":7202:7320   */\n    tag_387:\n        /* \"#utility.yul\":7289:7313   */\n      tag_389\n        /* \"#utility.yul\":7307:7312   */\n      dup2\n        /* \"#utility.yul\":7289:7313   */\n      tag_390\n      jump\t// in\n    tag_389:\n        /* \"#utility.yul\":7284:7287   */\n      dup3\n        /* \"#utility.yul\":7277:7314   */\n      mstore\n        /* \"#utility.yul\":7202:7320   */\n      pop\n      pop\n      jump\t// out\n        /* \"#utility.yul\":7326:7483   */\n    tag_391:\n        /* \"#utility.yul\":7431:7476   */\n      tag_393\n        /* \"#utility.yul\":7451:7475   */\n      tag_394\n        /* \"#utility.yul\":7469:7474   */\n      dup3\n        /* \"#utility.yul\":7451:7475   */\n      tag_390\n      jump\t// in\n    tag_394:\n        /* \"#utility.yul\":7431:7476   */\n      tag_395\n      jump\t// in\n    tag_393:\n        /* \"#utility.yul\":7426:7429   */\n      dup3\n        /* \"#utility.yul\":7419:7477   */\n      mstore\n        /* \"#utility.yul\":7326:7483   */\n      pop\n      pop\n      jump\t// out\n        /* \"#utility.yul\":7489:7849   */\n    tag_396:\n        /* \"#utility.yul\":7575:7578   */\n      0x00\n        /* \"#utility.yul\":7603:7641   */\n      tag_398\n        /* \"#utility.yul\":7635:7640   */\n      dup3\n        /* \"#utility.yul\":7603:7641   */\n      tag_399\n      jump\t// in\n    tag_398:\n        /* \"#utility.yul\":7657:7727   */\n      tag_400\n        /* \"#utility.yul\":7720:7726   */\n      dup2\n        /* \"#utility.yul\":7715:7718   */\n      dup6\n        /* \"#utility.yul\":7657:7727   */\n      tag_401\n      jump\t// in\n    tag_400:\n        /* \"#utility.yul\":7650:7727   */\n      swap4\n      pop\n        /* \"#utility.yul\":7736:7788   */\n      tag_402\n        /* \"#utility.yul\":7781:7787   */\n      dup2\n        /* \"#utility.yul\":7776:7779   */\n      dup6\n        /* \"#utility.yul\":7769:7773   */\n      0x20\n        /* \"#utility.yul\":7762:7767   */\n      dup7\n        /* \"#utility.yul\":7758:7774   */\n      add\n        /* \"#utility.yul\":7736:7788   */\n      tag_403\n      jump\t// in\n    tag_402:\n        /* \"#utility.yul\":7813:7842   */\n      tag_404\n        /* \"#utility.yul\":7835:7841   */\n      dup2\n        /* \"#utility.yul\":7813:7842   */\n      tag_405\n      jump\t// in\n    tag_404:\n        /* \"#utility.yul\":7808:7811   */\n      dup5\n        /* \"#utility.yul\":7804:7843   */\n      add\n        /* \"#utility.yul\":7797:7843   */\n      swap2\n      pop\n        /* \"#utility.yul\":7579:7849   */\n      pop\n        /* \"#utility.yul\":7489:7849   */\n      swap3\n      swap2\n      pop\n      pop\n      jump\t// out\n        /* \"#utility.yul\":7855:8219   */\n    tag_406:\n        /* \"#utility.yul\":7943:7946   */\n      0x00\n        /* \"#utility.yul\":7971:8010   */\n      tag_408\n        /* \"#utility.yul\":8004:8009   */\n      dup3\n        /* \"#utility.yul\":7971:8010   */\n      tag_409\n      jump\t// in\n    tag_408:\n        /* \"#utility.yul\":8026:8097   */\n      tag_410\n        /* \"#utility.yul\":8090:8096   */\n      dup2\n        /* \"#utility.yul\":8085:8088   */\n      dup6\n        /* \"#utility.yul\":8026:8097   */\n      tag_411\n      jump\t// in\n    tag_410:\n        /* \"#utility.yul\":8019:8097   */\n      swap4\n      pop\n        /* \"#utility.yul\":8106:8158   */\n      tag_412\n        /* \"#utility.yul\":8151:8157   */\n      dup2\n        /* \"#utility.yul\":8146:8149   */\n      dup6\n        /* \"#utility.yul\":8139:8143   */\n      0x20\n        /* \"#utility.yul\":8132:8137   */\n      dup7\n        /* \"#utility.yul\":8128:8144   */\n      add\n        /* \"#utility.yul\":8106:8158   */\n      tag_403\n      jump\t// in\n    tag_412:\n        /* \"#utility.yul\":8183:8212   */\n      tag_413\n        /* \"#utility.yul\":8205:8211   */\n      dup2\n        /* \"#utility.yul\":8183:8212   */\n      tag_405\n      jump\t// in\n    tag_413:\n        /* \"#utility.yul\":8178:8181   */\n      dup5\n        /* \"#utility.yul\":8174:8213   */\n      add\n        /* \"#utility.yul\":8167:8213   */\n      swap2\n      pop\n        /* \"#utility.yul\":7947:8219   */\n      pop\n        /* \"#utility.yul\":7855:8219   */\n      swap3\n      swap2\n      pop\n      pop\n      jump\t// out\n        /* \"#utility.yul\":8225:8591   */\n    tag_414:\n        /* \"#utility.yul\":8367:8370   */\n      0x00\n        /* \"#utility.yul\":8388:8455   */\n      tag_416\n        /* \"#utility.yul\":8452:8454   */\n      0x21\n        /* \"#utility.yul\":8447:8450   */\n      dup4\n        /* \"#utility.yul\":8388:8455   */\n      tag_411\n      jump\t// in\n    tag_416:\n        /* \"#utility.yul\":8381:8455   */\n      swap2\n      pop\n        /* \"#utility.yul\":8464:8557   */\n      tag_417\n        /* \"#utility.yul\":8553:8556   */\n      dup3\n        /* \"#utility.yul\":8464:8557   */\n      tag_418\n      jump\t// in\n    tag_417:\n        /* \"#utility.yul\":8582:8584   */\n      0x40\n        /* \"#utility.yul\":8577:8580   */\n      dup3\n        /* \"#utility.yul\":8573:8585   */\n      add\n        /* \"#utility.yul\":8566:8585   */\n      swap1\n      pop\n        /* \"#utility.yul\":8225:8591   */\n      swap2\n      swap1\n      pop\n      jump\t// out\n        /* \"#utility.yul\":8597:8963   */\n    tag_419:\n        /* \"#utility.yul\":8739:8742   */\n      0x00\n        /* \"#utility.yul\":8760:8827   */\n      tag_421\n        /* \"#utility.yul\":8824:8826   */\n      0x20\n        /* \"#utility.yul\":8819:8822   */\n      dup4\n        /* \"#utility.yul\":8760:8827   */\n      tag_411\n      jump\t// in\n    tag_421:\n        /* \"#utility.yul\":8753:8827   */\n      swap2\n      pop\n        /* \"#utility.yul\":8836:8929   */\n      tag_422\n        /* \"#utility.yul\":8925:8928   */\n      dup3\n        /* \"#utility.yul\":8836:8929   */\n      tag_423\n      jump\t// in\n    tag_422:\n        /* \"#utility.yul\":8954:8956   */\n      0x20\n        /* \"#utility.yul\":8949:8952   */\n      dup3\n        /* \"#utility.yul\":8945:8957   */\n      add\n        /* \"#utility.yul\":8938:8957   */\n      swap1\n      pop\n        /* \"#utility.yul\":8597:8963   */\n      swap2\n      swap1\n      pop\n      jump\t// out\n        /* \"#utility.yul\":8969:9335   */\n    tag_424:\n        /* \"#utility.yul\":9111:9114   */\n      0x00\n        /* \"#utility.yul\":9132:9199   */\n      tag_426\n        /* \"#utility.yul\":9196:9198   */\n      0x0d\n        /* \"#utility.yul\":9191:9194   */\n      dup4\n        /* \"#utility.yul\":9132:9199   */\n      tag_411\n      jump\t// in\n    tag_426:\n        /* \"#utility.yul\":9125:9199   */\n      swap2\n      pop\n        /* \"#utility.yul\":9208:9301   */\n      tag_427\n        /* \"#utility.yul\":9297:9300   */\n      dup3\n        /* \"#utility.yul\":9208:9301   */\n      tag_428\n      jump\t// in\n    tag_427:\n        /* \"#utility.yul\":9326:9328   */\n      0x20\n        /* \"#utility.yul\":9321:9324   */\n      dup3\n        /* \"#utility.yul\":9317:9329   */\n      add\n        /* \"#utility.yul\":9310:9329   */\n      swap1\n      pop\n        /* \"#utility.yul\":8969:9335   */\n      swap2\n      swap1\n      pop\n      jump\t// out\n        /* \"#utility.yul\":9341:9707   */\n    tag_429:\n        /* \"#utility.yul\":9483:9486   */\n      0x00\n        /* \"#utility.yul\":9504:9571   */\n      tag_431\n        /* \"#utility.yul\":9568:9570   */\n      0x2a\n        /* \"#utility.yul\":9563:9566   */\n      dup4\n        /* \"#utility.yul\":9504:9571   */\n      tag_411\n      jump\t// in\n    tag_431:\n        /* \"#utility.yul\":9497:9571   */\n      swap2\n      pop\n        /* \"#utility.yul\":9580:9673   */\n      tag_432\n        /* \"#utility.yul\":9669:9672   */\n      dup3\n        /* \"#utility.yul\":9580:9673   */\n      tag_433\n      jump\t// in\n    tag_432:\n        /* \"#utility.yul\":9698:9700   */\n      0x40\n        /* \"#utility.yul\":9693:9696   */\n      dup3\n        /* \"#utility.yul\":9689:9701   */\n      add\n        /* \"#utility.yul\":9682:9701   */\n      swap1\n      pop\n        /* \"#utility.yul\":9341:9707   */\n      swap2\n      swap1\n      pop\n      jump\t// out\n        /* \"#utility.yul\":9713:10079   */\n    tag_434:\n        /* \"#utility.yul\":9855:9858   */\n      0x00\n        /* \"#utility.yul\":9876:9943   */\n      tag_436\n        /* \"#utility.yul\":9940:9942   */\n      0x1f\n        /* \"#utility.yul\":9935:9938   */\n      dup4\n        /* \"#utility.yul\":9876:9943   */\n      tag_411\n      jump\t// in\n    tag_436:\n        /* \"#utility.yul\":9869:9943   */\n      swap2\n      pop\n        /* \"#utility.yul\":9952:10045   */\n      tag_437\n        /* \"#utility.yul\":10041:10044   */\n      dup3\n        /* \"#utility.yul\":9952:10045   */\n      tag_438\n      jump\t// in\n    tag_437:\n        /* \"#utility.yul\":10070:10072   */\n      0x20\n        /* \"#utility.yul\":10065:10068   */\n      dup3\n        /* \"#utility.yul\":10061:10073   */\n      add\n        /* \"#utility.yul\":10054:10073   */\n      swap1\n      pop\n        /* \"#utility.yul\":9713:10079   */\n      swap2\n      swap1\n      pop\n      jump\t// out\n        /* \"#utility.yul\":10085:10451   */\n    tag_439:\n        /* \"#utility.yul\":10227:10230   */\n      0x00\n        /* \"#utility.yul\":10248:10315   */\n      tag_441\n        /* \"#utility.yul\":10312:10314   */\n      0x27\n        /* \"#utility.yul\":10307:10310   */\n      dup4\n        /* \"#utility.yul\":10248:10315   */\n      tag_411\n      jump\t// in\n    tag_441:\n        /* \"#utility.yul\":10241:10315   */\n      swap2\n      pop\n        /* \"#utility.yul\":10324:10417   */\n      tag_442\n        /* \"#utility.yul\":10413:10416   */\n      dup3\n        /* \"#utility.yul\":10324:10417   */\n      tag_443\n      jump\t// in\n    tag_442:\n        /* \"#utility.yul\":10442:10444   */\n      0x40\n        /* \"#utility.yul\":10437:10440   */\n      dup3\n        /* \"#utility.yul\":10433:10445   */\n      add\n        /* \"#utility.yul\":10426:10445   */\n      swap1\n      pop\n        /* \"#utility.yul\":10085:10451   */\n      swap2\n      swap1\n      pop\n      jump\t// out\n        /* \"#utility.yul\":10457:10823   */\n    tag_444:\n        /* \"#utility.yul\":10599:10602   */\n      0x00\n        /* \"#utility.yul\":10620:10687   */\n      tag_446\n        /* \"#utility.yul\":10684:10686   */\n      0x2f\n        /* \"#utility.yul\":10679:10682   */\n      dup4\n        /* \"#utility.yul\":10620:10687   */\n      tag_411\n      jump\t// in\n    tag_446:\n        /* \"#utility.yul\":10613:10687   */\n      swap2\n      pop\n        /* \"#utility.yul\":10696:10789   */\n      tag_447\n        /* \"#utility.yul\":10785:10788   */\n      dup3\n        /* \"#utility.yul\":10696:10789   */\n      tag_448\n      jump\t// in\n    tag_447:\n        /* \"#utility.yul\":10814:10816   */\n      0x40\n        /* \"#utility.yul\":10809:10812   */\n      dup3\n        /* \"#utility.yul\":10805:10817   */\n      add\n        /* \"#utility.yul\":10798:10817   */\n      swap1\n      pop\n        /* \"#utility.yul\":10457:10823   */\n      swap2\n      swap1\n      pop\n      jump\t// out\n        /* \"#utility.yul\":10829:11195   */\n    tag_449:\n        /* \"#utility.yul\":10971:10974   */\n      0x00\n        /* \"#utility.yul\":10992:11059   */\n      tag_451\n        /* \"#utility.yul\":11056:11058   */\n      0x26\n        /* \"#utility.yul\":11051:11054   */\n      dup4\n        /* \"#utility.yul\":10992:11059   */\n      tag_411\n      jump\t// in\n    tag_451:\n        /* \"#utility.yul\":10985:11059   */\n      swap2\n      pop\n        /* \"#utility.yul\":11068:11161   */\n      tag_452\n        /* \"#utility.yul\":11157:11160   */\n      dup3\n        /* \"#utility.yul\":11068:11161   */\n      tag_453\n      jump\t// in\n    tag_452:\n        /* \"#utility.yul\":11186:11188   */\n      0x40\n        /* \"#utility.yul\":11181:11184   */\n      dup3\n        /* \"#utility.yul\":11177:11189   */\n      add\n        /* \"#utility.yul\":11170:11189   */\n      swap1\n      pop\n        /* \"#utility.yul\":10829:11195   */\n      swap2\n      swap1\n      pop\n      jump\t// out\n        /* \"#utility.yul\":11201:11313   */\n    tag_454:\n        /* \"#utility.yul\":11284:11306   */\n      tag_456\n        /* \"#utility.yul\":11300:11305   */\n      dup2\n        /* \"#utility.yul\":11284:11306   */\n      tag_457\n      jump\t// in\n    tag_456:\n        /* \"#utility.yul\":11279:11282   */\n      dup3\n        /* \"#utility.yul\":11272:11307   */\n      mstore\n        /* \"#utility.yul\":11201:11313   */\n      pop\n      pop\n      jump\t// out\n        /* \"#utility.yul\":11319:11575   */\n    tag_131:\n        /* \"#utility.yul\":11431:11434   */\n      0x00\n        /* \"#utility.yul\":11446:11521   */\n      tag_459\n        /* \"#utility.yul\":11517:11520   */\n      dup3\n        /* \"#utility.yul\":11508:11514   */\n      dup5\n        /* \"#utility.yul\":11446:11521   */\n      tag_391\n      jump\t// in\n    tag_459:\n        /* \"#utility.yul\":11546:11548   */\n      0x20\n        /* \"#utility.yul\":11541:11544   */\n      dup3\n        /* \"#utility.yul\":11537:11549   */\n      add\n        /* \"#utility.yul\":11530:11549   */\n      swap2\n      pop\n        /* \"#utility.yul\":11566:11569   */\n      dup2\n        /* \"#utility.yul\":11559:11569   */\n      swap1\n      pop\n        /* \"#utility.yul\":11319:11575   */\n      swap3\n      swap2\n      pop\n      pop\n      jump\t// out\n        /* \"#utility.yul\":11581:11803   */\n    tag_244:\n        /* \"#utility.yul\":11674:11678   */\n      0x00\n        /* \"#utility.yul\":11712:11714   */\n      0x20\n        /* \"#utility.yul\":11701:11710   */\n      dup3\n        /* \"#utility.yul\":11697:11715   */\n      add\n        /* \"#utility.yul\":11689:11715   */\n      swap1\n      pop\n        /* \"#utility.yul\":11725:11796   */\n      tag_461\n        /* \"#utility.yul\":11793:11794   */\n      0x00\n        /* \"#utility.yul\":11782:11791   */\n      dup4\n        /* \"#utility.yul\":11778:11795   */\n      add\n        /* \"#utility.yul\":11769:11775   */\n      dup5\n        /* \"#utility.yul\":11725:11796   */\n      tag_379\n      jump\t// in\n    tag_461:\n        /* \"#utility.yul\":11581:11803   */\n      swap3\n      swap2\n      pop\n      pop\n      jump\t// out\n        /* \"#utility.yul\":11809:12019   */\n    tag_30:\n        /* \"#utility.yul\":11896:11900   */\n      0x00\n        /* \"#utility.yul\":11934:11936   */\n      0x20\n        /* \"#utility.yul\":11923:11932   */\n      dup3\n        /* \"#utility.yul\":11919:11937   */\n      add\n        /* \"#utility.yul\":11911:11937   */\n      swap1\n      pop\n        /* \"#utility.yul\":11947:12012   */\n      tag_463\n        /* \"#utility.yul\":12009:12010   */\n      0x00\n        /* \"#utility.yul\":11998:12007   */\n      dup4\n        /* \"#utility.yul\":11994:12011   */\n      add\n        /* \"#utility.yul\":11985:11991   */\n      dup5\n        /* \"#utility.yul\":11947:12012   */\n      tag_383\n      jump\t// in\n    tag_463:\n        /* \"#utility.yul\":11809:12019   */\n      swap3\n      swap2\n      pop\n      pop\n      jump\t// out\n        /* \"#utility.yul\":12025:12247   */\n    tag_135:\n        /* \"#utility.yul\":12118:12122   */\n      0x00\n        /* \"#utility.yul\":12156:12158   */\n      0x20\n        /* \"#utility.yul\":12145:12154   */\n      dup3\n        /* \"#utility.yul\":12141:12159   */\n      add\n        /* \"#utility.yul\":12133:12159   */\n      swap1\n      pop\n        /* \"#utility.yul\":12169:12240   */\n      tag_465\n        /* \"#utility.yul\":12237:12238   */\n      0x00\n        /* \"#utility.yul\":12226:12235   */\n      dup4\n        /* \"#utility.yul\":12222:12239   */\n      add\n        /* \"#utility.yul\":12213:12219   */\n      dup5\n        /* \"#utility.yul\":12169:12240   */\n      tag_387\n      jump\t// in\n    tag_465:\n        /* \"#utility.yul\":12025:12247   */\n      swap3\n      swap2\n      pop\n      pop\n      jump\t// out\n        /* \"#utility.yul\":12253:12683   */\n    tag_38:\n        /* \"#utility.yul\":12396:12400   */\n      0x00\n        /* \"#utility.yul\":12434:12436   */\n      0x60\n        /* \"#utility.yul\":12423:12432   */\n      dup3\n        /* \"#utility.yul\":12419:12437   */\n      add\n        /* \"#utility.yul\":12411:12437   */\n      swap1\n      pop\n        /* \"#utility.yul\":12447:12518   */\n      tag_467\n        /* \"#utility.yul\":12515:12516   */\n      0x00\n        /* \"#utility.yul\":12504:12513   */\n      dup4\n        /* \"#utility.yul\":12500:12517   */\n      add\n        /* \"#utility.yul\":12491:12497   */\n      dup7\n        /* \"#utility.yul\":12447:12518   */\n      tag_387\n      jump\t// in\n    tag_467:\n        /* \"#utility.yul\":12528:12600   */\n      tag_468\n        /* \"#utility.yul\":12596:12598   */\n      0x20\n        /* \"#utility.yul\":12585:12594   */\n      dup4\n        /* \"#utility.yul\":12581:12599   */\n      add\n        /* \"#utility.yul\":12572:12578   */\n      dup6\n        /* \"#utility.yul\":12528:12600   */\n      tag_379\n      jump\t// in\n    tag_468:\n        /* \"#utility.yul\":12610:12676   */\n      tag_469\n        /* \"#utility.yul\":12672:12674   */\n      0x40\n        /* \"#utility.yul\":12661:12670   */\n      dup4\n        /* \"#utility.yul\":12657:12675   */\n      add\n        /* \"#utility.yul\":12648:12654   */\n      dup5\n        /* \"#utility.yul\":12610:12676   */\n      tag_383\n      jump\t// in\n    tag_469:\n        /* \"#utility.yul\":12253:12683   */\n      swap5\n      swap4\n      pop\n      pop\n      pop\n      pop\n      jump\t// out\n        /* \"#utility.yul\":12689:13108   */\n    tag_90:\n        /* \"#utility.yul\":12828:12832   */\n      0x00\n        /* \"#utility.yul\":12866:12868   */\n      0x40\n        /* \"#utility.yul\":12855:12864   */\n      dup3\n        /* \"#utility.yul\":12851:12869   */\n      add\n        /* \"#utility.yul\":12843:12869   */\n      swap1\n      pop\n        /* \"#utility.yul\":12879:12950   */\n      tag_471\n        /* \"#utility.yul\":12947:12948   */\n      0x00\n        /* \"#utility.yul\":12936:12945   */\n      dup4\n        /* \"#utility.yul\":12932:12949   */\n      add\n        /* \"#utility.yul\":12923:12929   */\n      dup6\n        /* \"#utility.yul\":12879:12950   */\n      tag_387\n      jump\t// in\n    tag_471:\n        /* \"#utility.yul\":12997:13006   */\n      dup2\n        /* \"#utility.yul\":12991:12995   */\n      dup2\n        /* \"#utility.yul\":12987:13007   */\n      sub\n        /* \"#utility.yul\":12982:12984   */\n      0x20\n        /* \"#utility.yul\":12971:12980   */\n      dup4\n        /* \"#utility.yul\":12967:12985   */\n      add\n        /* \"#utility.yul\":12960:13008   */\n      mstore\n        /* \"#utility.yul\":13025:13101   */\n      tag_472\n        /* \"#utility.yul\":13096:13100   */\n      dup2\n        /* \"#utility.yul\":13087:13093   */\n      dup5\n        /* \"#utility.yul\":13025:13101   */\n      tag_396\n      jump\t// in\n    tag_472:\n        /* \"#utility.yul\":13017:13101   */\n      swap1\n      pop\n        /* \"#utility.yul\":12689:13108   */\n      swap4\n      swap3\n      pop\n      pop\n      pop\n      jump\t// out\n        /* \"#utility.yul\":13114:13659   */\n    tag_239:\n        /* \"#utility.yul\":13287:13291   */\n      0x00\n        /* \"#utility.yul\":13325:13328   */\n      0x80\n        /* \"#utility.yul\":13314:13323   */\n      dup3\n        /* \"#utility.yul\":13310:13329   */\n      add\n        /* \"#utility.yul\":13302:13329   */\n      swap1\n      pop\n        /* \"#utility.yul\":13339:13410   */\n      tag_474\n        /* \"#utility.yul\":13407:13408   */\n      0x00\n        /* \"#utility.yul\":13396:13405   */\n      dup4\n        /* \"#utility.yul\":13392:13409   */\n      add\n        /* \"#utility.yul\":13383:13389   */\n      dup8\n        /* \"#utility.yul\":13339:13410   */\n      tag_387\n      jump\t// in\n    tag_474:\n        /* \"#utility.yul\":13420:13488   */\n      tag_475\n        /* \"#utility.yul\":13484:13486   */\n      0x20\n        /* \"#utility.yul\":13473:13482   */\n      dup4\n        /* \"#utility.yul\":13469:13487   */\n      add\n        /* \"#utility.yul\":13460:13466   */\n      dup7\n        /* \"#utility.yul\":13420:13488   */\n      tag_454\n      jump\t// in\n    tag_475:\n        /* \"#utility.yul\":13498:13570   */\n      tag_476\n        /* \"#utility.yul\":13566:13568   */\n      0x40\n        /* \"#utility.yul\":13555:13564   */\n      dup4\n        /* \"#utility.yul\":13551:13569   */\n      add\n        /* \"#utility.yul\":13542:13548   */\n      dup6\n        /* \"#utility.yul\":13498:13570   */\n      tag_387\n      jump\t// in\n    tag_476:\n        /* \"#utility.yul\":13580:13652   */\n      tag_477\n        /* \"#utility.yul\":13648:13650   */\n      0x60\n        /* \"#utility.yul\":13637:13646   */\n      dup4\n        /* \"#utility.yul\":13633:13651   */\n      add\n        /* \"#utility.yul\":13624:13630   */\n      dup5\n        /* \"#utility.yul\":13580:13652   */\n      tag_387\n      jump\t// in\n    tag_477:\n        /* \"#utility.yul\":13114:13659   */\n      swap6\n      swap5\n      pop\n      pop\n      pop\n      pop\n      pop\n      jump\t// out\n        /* \"#utility.yul\":13665:13978   */\n    tag_53:\n        /* \"#utility.yul\":13778:13782   */\n      0x00\n        /* \"#utility.yul\":13816:13818   */\n      0x20\n        /* \"#utility.yul\":13805:13814   */\n      dup3\n        /* \"#utility.yul\":13801:13819   */\n      add\n        /* \"#utility.yul\":13793:13819   */\n      swap1\n      pop\n        /* \"#utility.yul\":13865:13874   */\n      dup2\n        /* \"#utility.yul\":13859:13863   */\n      dup2\n        /* \"#utility.yul\":13855:13875   */\n      sub\n        /* \"#utility.yul\":13851:13852   */\n      0x00\n        /* \"#utility.yul\":13840:13849   */\n      dup4\n        /* \"#utility.yul\":13836:13853   */\n      add\n        /* \"#utility.yul\":13829:13876   */\n      mstore\n        /* \"#utility.yul\":13893:13971   */\n      tag_479\n        /* \"#utility.yul\":13966:13970   */\n      dup2\n        /* \"#utility.yul\":13957:13963   */\n      dup5\n        /* \"#utility.yul\":13893:13971   */\n      tag_406\n      jump\t// in\n    tag_479:\n        /* \"#utility.yul\":13885:13971   */\n      swap1\n      pop\n        /* \"#utility.yul\":13665:13978   */\n      swap3\n      swap2\n      pop\n      pop\n      jump\t// out\n        /* \"#utility.yul\":13984:14403   */\n    tag_170:\n        /* \"#utility.yul\":14150:14154   */\n      0x00\n        /* \"#utility.yul\":14188:14190   */\n      0x20\n        /* \"#utility.yul\":14177:14186   */\n      dup3\n        /* \"#utility.yul\":14173:14191   */\n      add\n        /* \"#utility.yul\":14165:14191   */\n      swap1\n      pop\n        /* \"#utility.yul\":14237:14246   */\n      dup2\n        /* \"#utility.yul\":14231:14235   */\n      dup2\n        /* \"#utility.yul\":14227:14247   */\n      sub\n        /* \"#utility.yul\":14223:14224   */\n      0x00\n        /* \"#utility.yul\":14212:14221   */\n      dup4\n        /* \"#utility.yul\":14208:14225   */\n      add\n        /* \"#utility.yul\":14201:14248   */\n      mstore\n        /* \"#utility.yul\":14265:14396   */\n      tag_481\n        /* \"#utility.yul\":14391:14395   */\n      dup2\n        /* \"#utility.yul\":14265:14396   */\n      tag_414\n      jump\t// in\n    tag_481:\n        /* \"#utility.yul\":14257:14396   */\n      swap1\n      pop\n        /* \"#utility.yul\":13984:14403   */\n      swap2\n      swap1\n      pop\n      jump\t// out\n        /* \"#utility.yul\":14409:14828   */\n    tag_196:\n        /* \"#utility.yul\":14575:14579   */\n      0x00\n        /* \"#utility.yul\":14613:14615   */\n      0x20\n        /* \"#utility.yul\":14602:14611   */\n      dup3\n        /* \"#utility.yul\":14598:14616   */\n      add\n        /* \"#utility.yul\":14590:14616   */\n      swap1\n      pop\n        /* \"#utility.yul\":14662:14671   */\n      dup2\n        /* \"#utility.yul\":14656:14660   */\n      dup2\n        /* \"#utility.yul\":14652:14672   */\n      sub\n        /* \"#utility.yul\":14648:14649   */\n      0x00\n        /* \"#utility.yul\":14637:14646   */\n      dup4\n        /* \"#utility.yul\":14633:14650   */\n      add\n        /* \"#utility.yul\":14626:14673   */\n      mstore\n        /* \"#utility.yul\":14690:14821   */\n      tag_483\n        /* \"#utility.yul\":14816:14820   */\n      dup2\n        /* \"#utility.yul\":14690:14821   */\n      tag_419\n      jump\t// in\n    tag_483:\n        /* \"#utility.yul\":14682:14821   */\n      swap1\n      pop\n        /* \"#utility.yul\":14409:14828   */\n      swap2\n      swap1\n      pop\n      jump\t// out\n        /* \"#utility.yul\":14834:15253   */\n    tag_106:\n        /* \"#utility.yul\":15000:15004   */\n      0x00\n        /* \"#utility.yul\":15038:15040   */\n      0x20\n        /* \"#utility.yul\":15027:15036   */\n      dup3\n        /* \"#utility.yul\":15023:15041   */\n      add\n        /* \"#utility.yul\":15015:15041   */\n      swap1\n      pop\n        /* \"#utility.yul\":15087:15096   */\n      dup2\n        /* \"#utility.yul\":15081:15085   */\n      dup2\n        /* \"#utility.yul\":15077:15097   */\n      sub\n        /* \"#utility.yul\":15073:15074   */\n      0x00\n        /* \"#utility.yul\":15062:15071   */\n      dup4\n        /* \"#utility.yul\":15058:15075   */\n      add\n        /* \"#utility.yul\":15051:15098   */\n      mstore\n        /* \"#utility.yul\":15115:15246   */\n      tag_485\n        /* \"#utility.yul\":15241:15245   */\n      dup2\n        /* \"#utility.yul\":15115:15246   */\n      tag_424\n      jump\t// in\n    tag_485:\n        /* \"#utility.yul\":15107:15246   */\n      swap1\n      pop\n        /* \"#utility.yul\":14834:15253   */\n      swap2\n      swap1\n      pop\n      jump\t// out\n        /* \"#utility.yul\":15259:15678   */\n    tag_94:\n        /* \"#utility.yul\":15425:15429   */\n      0x00\n        /* \"#utility.yul\":15463:15465   */\n      0x20\n        /* \"#utility.yul\":15452:15461   */\n      dup3\n        /* \"#utility.yul\":15448:15466   */\n      add\n        /* \"#utility.yul\":15440:15466   */\n      swap1\n      pop\n        /* \"#utility.yul\":15512:15521   */\n      dup2\n        /* \"#utility.yul\":15506:15510   */\n      dup2\n        /* \"#utility.yul\":15502:15522   */\n      sub\n        /* \"#utility.yul\":15498:15499   */\n      0x00\n        /* \"#utility.yul\":15487:15496   */\n      dup4\n        /* \"#utility.yul\":15483:15500   */\n      add\n        /* \"#utility.yul\":15476:15523   */\n      mstore\n        /* \"#utility.yul\":15540:15671   */\n      tag_487\n        /* \"#utility.yul\":15666:15670   */\n      dup2\n        /* \"#utility.yul\":15540:15671   */\n      tag_429\n      jump\t// in\n    tag_487:\n        /* \"#utility.yul\":15532:15671   */\n      swap1\n      pop\n        /* \"#utility.yul\":15259:15678   */\n      swap2\n      swap1\n      pop\n      jump\t// out\n        /* \"#utility.yul\":15684:16103   */\n    tag_200:\n        /* \"#utility.yul\":15850:15854   */\n      0x00\n        /* \"#utility.yul\":15888:15890   */\n      0x20\n        /* \"#utility.yul\":15877:15886   */\n      dup3\n        /* \"#utility.yul\":15873:15891   */\n      add\n        /* \"#utility.yul\":15865:15891   */\n      swap1\n      pop\n        /* \"#utility.yul\":15937:15946   */\n      dup2\n        /* \"#utility.yul\":15931:15935   */\n      dup2\n        /* \"#utility.yul\":15927:15947   */\n      sub\n        /* \"#utility.yul\":15923:15924   */\n      0x00\n        /* \"#utility.yul\":15912:15921   */\n      dup4\n        /* \"#utility.yul\":15908:15925   */\n      add\n        /* \"#utility.yul\":15901:15948   */\n      mstore\n        /* \"#utility.yul\":15965:16096   */\n      tag_489\n        /* \"#utility.yul\":16091:16095   */\n      dup2\n        /* \"#utility.yul\":15965:16096   */\n      tag_434\n      jump\t// in\n    tag_489:\n        /* \"#utility.yul\":15957:16096   */\n      swap1\n      pop\n        /* \"#utility.yul\":15684:16103   */\n      swap2\n      swap1\n      pop\n      jump\t// out\n        /* \"#utility.yul\":16109:16528   */\n    tag_99:\n        /* \"#utility.yul\":16275:16279   */\n      0x00\n        /* \"#utility.yul\":16313:16315   */\n      0x20\n        /* \"#utility.yul\":16302:16311   */\n      dup3\n        /* \"#utility.yul\":16298:16316   */\n      add\n        /* \"#utility.yul\":16290:16316   */\n      swap1\n      pop\n        /* \"#utility.yul\":16362:16371   */\n      dup2\n        /* \"#utility.yul\":16356:16360   */\n      dup2\n        /* \"#utility.yul\":16352:16372   */\n      sub\n        /* \"#utility.yul\":16348:16349   */\n      0x00\n        /* \"#utility.yul\":16337:16346   */\n      dup4\n        /* \"#utility.yul\":16333:16350   */\n      add\n        /* \"#utility.yul\":16326:16373   */\n      mstore\n        /* \"#utility.yul\":16390:16521   */\n      tag_491\n        /* \"#utility.yul\":16516:16520   */\n      dup2\n        /* \"#utility.yul\":16390:16521   */\n      tag_439\n      jump\t// in\n    tag_491:\n        /* \"#utility.yul\":16382:16521   */\n      swap1\n      pop\n        /* \"#utility.yul\":16109:16528   */\n      swap2\n      swap1\n      pop\n      jump\t// out\n        /* \"#utility.yul\":16534:16953   */\n    tag_128:\n        /* \"#utility.yul\":16700:16704   */\n      0x00\n        /* \"#utility.yul\":16738:16740   */\n      0x20\n        /* \"#utility.yul\":16727:16736   */\n      dup3\n        /* \"#utility.yul\":16723:16741   */\n      add\n        /* \"#utility.yul\":16715:16741   */\n      swap1\n      pop\n        /* \"#utility.yul\":16787:16796   */\n      dup2\n        /* \"#utility.yul\":16781:16785   */\n      dup2\n        /* \"#utility.yul\":16777:16797   */\n      sub\n        /* \"#utility.yul\":16773:16774   */\n      0x00\n        /* \"#utility.yul\":16762:16771   */\n      dup4\n        /* \"#utility.yul\":16758:16775   */\n      add\n        /* \"#utility.yul\":16751:16798   */\n      mstore\n        /* \"#utility.yul\":16815:16946   */\n      tag_493\n        /* \"#utility.yul\":16941:16945   */\n      dup2\n        /* \"#utility.yul\":16815:16946   */\n      tag_444\n      jump\t// in\n    tag_493:\n        /* \"#utility.yul\":16807:16946   */\n      swap1\n      pop\n        /* \"#utility.yul\":16534:16953   */\n      swap2\n      swap1\n      pop\n      jump\t// out\n        /* \"#utility.yul\":16959:17378   */\n    tag_174:\n        /* \"#utility.yul\":17125:17129   */\n      0x00\n        /* \"#utility.yul\":17163:17165   */\n      0x20\n        /* \"#utility.yul\":17152:17161   */\n      dup3\n        /* \"#utility.yul\":17148:17166   */\n      add\n        /* \"#utility.yul\":17140:17166   */\n      swap1\n      pop\n        /* \"#utility.yul\":17212:17221   */\n      dup2\n        /* \"#utility.yul\":17206:17210   */\n      dup2\n        /* \"#utility.yul\":17202:17222   */\n      sub\n        /* \"#utility.yul\":17198:17199   */\n      0x00\n        /* \"#utility.yul\":17187:17196   */\n      dup4\n        /* \"#utility.yul\":17183:17200   */\n      add\n        /* \"#utility.yul\":17176:17223   */\n      mstore\n        /* \"#utility.yul\":17240:17371   */\n      tag_495\n        /* \"#utility.yul\":17366:17370   */\n      dup2\n        /* \"#utility.yul\":17240:17371   */\n      tag_449\n      jump\t// in\n    tag_495:\n        /* \"#utility.yul\":17232:17371   */\n      swap1\n      pop\n        /* \"#utility.yul\":16959:17378   */\n      swap2\n      swap1\n      pop\n      jump\t// out\n        /* \"#utility.yul\":17384:17513   */\n    tag_284:\n        /* \"#utility.yul\":17418:17424   */\n      0x00\n        /* \"#utility.yul\":17445:17465   */\n      tag_497\n      tag_498\n      jump\t// in\n    tag_497:\n        /* \"#utility.yul\":17435:17465   */\n      swap1\n      pop\n        /* \"#utility.yul\":17474:17507   */\n      tag_499\n        /* \"#utility.yul\":17502:17506   */\n      dup3\n        /* \"#utility.yul\":17494:17500   */\n      dup3\n        /* \"#utility.yul\":17474:17507   */\n      tag_500\n      jump\t// in\n    tag_499:\n        /* \"#utility.yul\":17384:17513   */\n      swap2\n      swap1\n      pop\n      jump\t// out\n        /* \"#utility.yul\":17519:17594   */\n    tag_498:\n        /* \"#utility.yul\":17552:17558   */\n      0x00\n        /* \"#utility.yul\":17585:17587   */\n      0x40\n        /* \"#utility.yul\":17579:17588   */\n      mload\n        /* \"#utility.yul\":17569:17588   */\n      swap1\n      pop\n        /* \"#utility.yul\":17519:17594   */\n      swap1\n      jump\t// out\n        /* \"#utility.yul\":17600:17907   */\n    tag_283:\n        /* \"#utility.yul\":17661:17665   */\n      0x00\n        /* \"#utility.yul\":17751:17769   */\n      0xffffffffffffffff\n        /* \"#utility.yul\":17743:17749   */\n      dup3\n        /* \"#utility.yul\":17740:17770   */\n      gt\n        /* \"#utility.yul\":17737:17793   */\n      iszero\n      tag_503\n      jumpi\n        /* \"#utility.yul\":17773:17791   */\n      tag_504\n      tag_505\n      jump\t// in\n    tag_504:\n        /* \"#utility.yul\":17737:17793   */\n    tag_503:\n        /* \"#utility.yul\":17811:17840   */\n      tag_506\n        /* \"#utility.yul\":17833:17839   */\n      dup3\n        /* \"#utility.yul\":17811:17840   */\n      tag_405\n      jump\t// in\n    tag_506:\n        /* \"#utility.yul\":17803:17840   */\n      swap1\n      pop\n        /* \"#utility.yul\":17895:17899   */\n      0x20\n        /* \"#utility.yul\":17889:17893   */\n      dup2\n        /* \"#utility.yul\":17885:17900   */\n      add\n        /* \"#utility.yul\":17877:17900   */\n      swap1\n      pop\n        /* \"#utility.yul\":17600:17907   */\n      swap2\n      swap1\n      pop\n      jump\t// out\n        /* \"#utility.yul\":17913:18221   */\n    tag_294:\n        /* \"#utility.yul\":17975:17979   */\n      0x00\n        /* \"#utility.yul\":18065:18083   */\n      0xffffffffffffffff\n        /* \"#utility.yul\":18057:18063   */\n      dup3\n        /* \"#utility.yul\":18054:18084   */\n      gt\n        /* \"#utility.yul\":18051:18107   */\n      iszero\n      tag_508\n      jumpi\n        /* \"#utility.yul\":18087:18105   */\n      tag_509\n      tag_505\n      jump\t// in\n    tag_509:\n        /* \"#utility.yul\":18051:18107   */\n    tag_508:\n        /* \"#utility.yul\":18125:18154   */\n      tag_510\n        /* \"#utility.yul\":18147:18153   */\n      dup3\n        /* \"#utility.yul\":18125:18154   */\n      tag_405\n      jump\t// in\n    tag_510:\n        /* \"#utility.yul\":18117:18154   */\n      swap1\n      pop\n        /* \"#utility.yul\":18209:18213   */\n      0x20\n        /* \"#utility.yul\":18203:18207   */\n      dup2\n        /* \"#utility.yul\":18199:18214   */\n      add\n        /* \"#utility.yul\":18191:18214   */\n      swap1\n      pop\n        /* \"#utility.yul\":17913:18221   */\n      swap2\n      swap1\n      pop\n      jump\t// out\n        /* \"#utility.yul\":18227:18325   */\n    tag_399:\n        /* \"#utility.yul\":18278:18284   */\n      0x00\n        /* \"#utility.yul\":18312:18317   */\n      dup2\n        /* \"#utility.yul\":18306:18318   */\n      mload\n        /* \"#utility.yul\":18296:18318   */\n      swap1\n      pop\n        /* \"#utility.yul\":18227:18325   */\n      swap2\n      swap1\n      pop\n      jump\t// out\n        /* \"#utility.yul\":18331:18430   */\n    tag_409:\n        /* \"#utility.yul\":18383:18389   */\n      0x00\n        /* \"#utility.yul\":18417:18422   */\n      dup2\n        /* \"#utility.yul\":18411:18423   */\n      mload\n        /* \"#utility.yul\":18401:18423   */\n      swap1\n      pop\n        /* \"#utility.yul\":18331:18430   */\n      swap2\n      swap1\n      pop\n      jump\t// out\n        /* \"#utility.yul\":18436:18604   */\n    tag_401:\n        /* \"#utility.yul\":18519:18530   */\n      0x00\n        /* \"#utility.yul\":18553:18559   */\n      dup3\n        /* \"#utility.yul\":18548:18551   */\n      dup3\n        /* \"#utility.yul\":18541:18560   */\n      mstore\n        /* \"#utility.yul\":18593:18597   */\n      0x20\n        /* \"#utility.yul\":18588:18591   */\n      dup3\n        /* \"#utility.yul\":18584:18598   */\n      add\n        /* \"#utility.yul\":18569:18598   */\n      swap1\n      pop\n        /* \"#utility.yul\":18436:18604   */\n      swap3\n      swap2\n      pop\n      pop\n      jump\t// out\n        /* \"#utility.yul\":18610:18779   */\n    tag_411:\n        /* \"#utility.yul\":18694:18705   */\n      0x00\n        /* \"#utility.yul\":18728:18734   */\n      dup3\n        /* \"#utility.yul\":18723:18726   */\n      dup3\n        /* \"#utility.yul\":18716:18735   */\n      mstore\n        /* \"#utility.yul\":18768:18772   */\n      0x20\n        /* \"#utility.yul\":18763:18766   */\n      dup3\n        /* \"#utility.yul\":18759:18773   */\n      add\n        /* \"#utility.yul\":18744:18773   */\n      swap1\n      pop\n        /* \"#utility.yul\":18610:18779   */\n      swap3\n      swap2\n      pop\n      pop\n      jump\t// out\n        /* \"#utility.yul\":18785:19022   */\n    tag_234:\n        /* \"#utility.yul\":18823:18826   */\n      0x00\n        /* \"#utility.yul\":18842:18860   */\n      tag_516\n        /* \"#utility.yul\":18858:18859   */\n      dup3\n        /* \"#utility.yul\":18842:18860   */\n      tag_457\n      jump\t// in\n    tag_516:\n        /* \"#utility.yul\":18837:18860   */\n      swap2\n      pop\n        /* \"#utility.yul\":18874:18892   */\n      tag_517\n        /* \"#utility.yul\":18890:18891   */\n      dup4\n        /* \"#utility.yul\":18874:18892   */\n      tag_457\n      jump\t// in\n    tag_517:\n        /* \"#utility.yul\":18869:18892   */\n      swap3\n      pop\n        /* \"#utility.yul\":18964:18965   */\n      dup3\n        /* \"#utility.yul\":18958:18962   */\n      0xff\n        /* \"#utility.yul\":18954:18966   */\n      sub\n        /* \"#utility.yul\":18951:18952   */\n      dup3\n        /* \"#utility.yul\":18948:18967   */\n      gt\n        /* \"#utility.yul\":18945:18990   */\n      iszero\n      tag_518\n      jumpi\n        /* \"#utility.yul\":18970:18988   */\n      tag_519\n      tag_520\n      jump\t// in\n    tag_519:\n        /* \"#utility.yul\":18945:18990   */\n    tag_518:\n        /* \"#utility.yul\":19014:19015   */\n      dup3\n        /* \"#utility.yul\":19011:19012   */\n      dup3\n        /* \"#utility.yul\":19007:19016   */\n      add\n        /* \"#utility.yul\":19000:19016   */\n      swap1\n      pop\n        /* \"#utility.yul\":18785:19022   */\n      swap3\n      swap2\n      pop\n      pop\n      jump\t// out\n        /* \"#utility.yul\":19028:19124   */\n    tag_382:\n        /* \"#utility.yul\":19065:19072   */\n      0x00\n        /* \"#utility.yul\":19094:19118   */\n      tag_522\n        /* \"#utility.yul\":19112:19117   */\n      dup3\n        /* \"#utility.yul\":19094:19118   */\n      tag_523\n      jump\t// in\n    tag_522:\n        /* \"#utility.yul\":19083:19118   */\n      swap1\n      pop\n        /* \"#utility.yul\":19028:19124   */\n      swap2\n      swap1\n      pop\n      jump\t// out\n        /* \"#utility.yul\":19130:19220   */\n    tag_386:\n        /* \"#utility.yul\":19164:19171   */\n      0x00\n        /* \"#utility.yul\":19207:19212   */\n      dup2\n        /* \"#utility.yul\":19200:19213   */\n      iszero\n        /* \"#utility.yul\":19193:19214   */\n      iszero\n        /* \"#utility.yul\":19182:19214   */\n      swap1\n      pop\n        /* \"#utility.yul\":19130:19220   */\n      swap2\n      swap1\n      pop\n      jump\t// out\n        /* \"#utility.yul\":19226:19303   */\n    tag_390:\n        /* \"#utility.yul\":19263:19270   */\n      0x00\n        /* \"#utility.yul\":19292:19297   */\n      dup2\n        /* \"#utility.yul\":19281:19297   */\n      swap1\n      pop\n        /* \"#utility.yul\":19226:19303   */\n      swap2\n      swap1\n      pop\n      jump\t// out\n        /* \"#utility.yul\":19309:19435   */\n    tag_523:\n        /* \"#utility.yul\":19346:19353   */\n      0x00\n        /* \"#utility.yul\":19386:19428   */\n      0xffffffffffffffffffffffffffffffffffffffff\n        /* \"#utility.yul\":19379:19384   */\n      dup3\n        /* \"#utility.yul\":19375:19429   */\n      and\n        /* \"#utility.yul\":19364:19429   */\n      swap1\n      pop\n        /* \"#utility.yul\":19309:19435   */\n      swap2\n      swap1\n      pop\n      jump\t// out\n        /* \"#utility.yul\":19441:19518   */\n    tag_527:\n        /* \"#utility.yul\":19478:19485   */\n      0x00\n        /* \"#utility.yul\":19507:19512   */\n      dup2\n        /* \"#utility.yul\":19496:19512   */\n      swap1\n      pop\n        /* \"#utility.yul\":19441:19518   */\n      swap2\n      swap1\n      pop\n      jump\t// out\n        /* \"#utility.yul\":19524:19610   */\n    tag_457:\n        /* \"#utility.yul\":19559:19566   */\n      0x00\n        /* \"#utility.yul\":19599:19603   */\n      0xff\n        /* \"#utility.yul\":19592:19597   */\n      dup3\n        /* \"#utility.yul\":19588:19604   */\n      and\n        /* \"#utility.yul\":19577:19604   */\n      swap1\n      pop\n        /* \"#utility.yul\":19524:19610   */\n      swap2\n      swap1\n      pop\n      jump\t// out\n        /* \"#utility.yul\":19616:19770   */\n    tag_289:\n        /* \"#utility.yul\":19700:19706   */\n      dup3\n        /* \"#utility.yul\":19695:19698   */\n      dup2\n        /* \"#utility.yul\":19690:19693   */\n      dup4\n        /* \"#utility.yul\":19677:19707   */\n      calldatacopy\n        /* \"#utility.yul\":19762:19763   */\n      0x00\n        /* \"#utility.yul\":19753:19759   */\n      dup4\n        /* \"#utility.yul\":19748:19751   */\n      dup4\n        /* \"#utility.yul\":19744:19760   */\n      add\n        /* \"#utility.yul\":19737:19764   */\n      mstore\n        /* \"#utility.yul\":19616:19770   */\n      pop\n      pop\n      pop\n      jump\t// out\n        /* \"#utility.yul\":19776:20083   */\n    tag_403:\n        /* \"#utility.yul\":19844:19845   */\n      0x00\n        /* \"#utility.yul\":19854:19967   */\n    tag_532:\n        /* \"#utility.yul\":19868:19874   */\n      dup4\n        /* \"#utility.yul\":19865:19866   */\n      dup2\n        /* \"#utility.yul\":19862:19875   */\n      lt\n        /* \"#utility.yul\":19854:19967   */\n      iszero\n      tag_534\n      jumpi\n        /* \"#utility.yul\":19953:19954   */\n      dup1\n        /* \"#utility.yul\":19948:19951   */\n      dup3\n        /* \"#utility.yul\":19944:19955   */\n      add\n        /* \"#utility.yul\":19938:19956   */\n      mload\n        /* \"#utility.yul\":19934:19935   */\n      dup2\n        /* \"#utility.yul\":19929:19932   */\n      dup5\n        /* \"#utility.yul\":19925:19936   */\n      add\n        /* \"#utility.yul\":19918:19957   */\n      mstore\n        /* \"#utility.yul\":19890:19892   */\n      0x20\n        /* \"#utility.yul\":19887:19888   */\n      dup2\n        /* \"#utility.yul\":19883:19893   */\n      add\n        /* \"#utility.yul\":19878:19893   */\n      swap1\n      pop\n        /* \"#utility.yul\":19854:19967   */\n      jump(tag_532)\n    tag_534:\n        /* \"#utility.yul\":19985:19991   */\n      dup4\n        /* \"#utility.yul\":19982:19983   */\n      dup2\n        /* \"#utility.yul\":19979:19992   */\n      gt\n        /* \"#utility.yul\":19976:20077   */\n      iszero\n      tag_535\n      jumpi\n        /* \"#utility.yul\":20065:20066   */\n      0x00\n        /* \"#utility.yul\":20056:20062   */\n      dup5\n        /* \"#utility.yul\":20051:20054   */\n      dup5\n        /* \"#utility.yul\":20047:20063   */\n      add\n        /* \"#utility.yul\":20040:20067   */\n      mstore\n        /* \"#utility.yul\":19976:20077   */\n    tag_535:\n        /* \"#utility.yul\":19825:20083   */\n      pop\n        /* \"#utility.yul\":19776:20083   */\n      pop\n      pop\n      pop\n      jump\t// out\n        /* \"#utility.yul\":20089:20409   */\n    tag_145:\n        /* \"#utility.yul\":20133:20139   */\n      0x00\n        /* \"#utility.yul\":20170:20171   */\n      0x02\n        /* \"#utility.yul\":20164:20168   */\n      dup3\n        /* \"#utility.yul\":20160:20172   */\n      div\n        /* \"#utility.yul\":20150:20172   */\n      swap1\n      pop\n        /* \"#utility.yul\":20217:20218   */\n      0x01\n        /* \"#utility.yul\":20211:20215   */\n      dup3\n        /* \"#utility.yul\":20207:20219   */\n      and\n        /* \"#utility.yul\":20238:20256   */\n      dup1\n        /* \"#utility.yul\":20228:20309   */\n      tag_537\n      jumpi\n        /* \"#utility.yul\":20294:20298   */\n      0x7f\n        /* \"#utility.yul\":20286:20292   */\n      dup3\n        /* \"#utility.yul\":20282:20299   */\n      and\n        /* \"#utility.yul\":20272:20299   */\n      swap2\n      pop\n        /* \"#utility.yul\":20228:20309   */\n    tag_537:\n        /* \"#utility.yul\":20356:20358   */\n      0x20\n        /* \"#utility.yul\":20348:20354   */\n      dup3\n        /* \"#utility.yul\":20345:20359   */\n      lt\n        /* \"#utility.yul\":20325:20343   */\n      dup2\n        /* \"#utility.yul\":20322:20360   */\n      eq\n        /* \"#utility.yul\":20319:20403   */\n      iszero\n      tag_538\n      jumpi\n        /* \"#utility.yul\":20375:20393   */\n      tag_539\n      tag_540\n      jump\t// in\n    tag_539:\n        /* \"#utility.yul\":20319:20403   */\n    tag_538:\n        /* \"#utility.yul\":20140:20409   */\n      pop\n        /* \"#utility.yul\":20089:20409   */\n      swap2\n      swap1\n      pop\n      jump\t// out\n        /* \"#utility.yul\":20415:20696   */\n    tag_500:\n        /* \"#utility.yul\":20498:20525   */\n      tag_542\n        /* \"#utility.yul\":20520:20524   */\n      dup3\n        /* \"#utility.yul\":20498:20525   */\n      tag_405\n      jump\t// in\n    tag_542:\n        /* \"#utility.yul\":20490:20496   */\n      dup2\n        /* \"#utility.yul\":20486:20526   */\n      add\n        /* \"#utility.yul\":20628:20634   */\n      dup2\n        /* \"#utility.yul\":20616:20626   */\n      dup2\n        /* \"#utility.yul\":20613:20635   */\n      lt\n        /* \"#utility.yul\":20592:20610   */\n      0xffffffffffffffff\n        /* \"#utility.yul\":20580:20590   */\n      dup3\n        /* \"#utility.yul\":20577:20611   */\n      gt\n        /* \"#utility.yul\":20574:20636   */\n      or\n        /* \"#utility.yul\":20571:20659   */\n      iszero\n      tag_543\n      jumpi\n        /* \"#utility.yul\":20639:20657   */\n      tag_544\n      tag_505\n      jump\t// in\n    tag_544:\n        /* \"#utility.yul\":20571:20659   */\n    tag_543:\n        /* \"#utility.yul\":20679:20689   */\n      dup1\n        /* \"#utility.yul\":20675:20677   */\n      0x40\n        /* \"#utility.yul\":20668:20690   */\n      mstore\n        /* \"#utility.yul\":20458:20696   */\n      pop\n        /* \"#utility.yul\":20415:20696   */\n      pop\n      pop\n      jump\t// out\n        /* \"#utility.yul\":20702:20781   */\n    tag_395:\n        /* \"#utility.yul\":20741:20748   */\n      0x00\n        /* \"#utility.yul\":20770:20775   */\n      dup2\n        /* \"#utility.yul\":20759:20775   */\n      swap1\n      pop\n        /* \"#utility.yul\":20702:20781   */\n      swap2\n      swap1\n      pop\n      jump\t// out\n        /* \"#utility.yul\":20787:20967   */\n    tag_520:\n        /* \"#utility.yul\":20835:20912   */\n      0x4e487b7100000000000000000000000000000000000000000000000000000000\n        /* \"#utility.yul\":20832:20833   */\n      0x00\n        /* \"#utility.yul\":20825:20913   */\n      mstore\n        /* \"#utility.yul\":20932:20936   */\n      0x11\n        /* \"#utility.yul\":20929:20930   */\n      0x04\n        /* \"#utility.yul\":20922:20937   */\n      mstore\n        /* \"#utility.yul\":20956:20960   */\n      0x24\n        /* \"#utility.yul\":20953:20954   */\n      0x00\n        /* \"#utility.yul\":20946:20961   */\n      revert\n        /* \"#utility.yul\":20973:21153   */\n    tag_540:\n        /* \"#utility.yul\":21021:21098   */\n      0x4e487b7100000000000000000000000000000000000000000000000000000000\n        /* \"#utility.yul\":21018:21019   */\n      0x00\n        /* \"#utility.yul\":21011:21099   */\n      mstore\n        /* \"#utility.yul\":21118:21122   */\n      0x22\n        /* \"#utility.yul\":21115:21116   */\n      0x04\n        /* \"#utility.yul\":21108:21123   */\n      mstore\n        /* \"#utility.yul\":21142:21146   */\n      0x24\n        /* \"#utility.yul\":21139:21140   */\n      0x00\n        /* \"#utility.yul\":21132:21147   */\n      revert\n        /* \"#utility.yul\":21159:21339   */\n    tag_505:\n        /* \"#utility.yul\":21207:21284   */\n      0x4e487b7100000000000000000000000000000000000000000000000000000000\n        /* \"#utility.yul\":21204:21205   */\n      0x00\n        /* \"#utility.yul\":21197:21285   */\n      mstore\n        /* \"#utility.yul\":21304:21308   */\n      0x41\n        /* \"#utility.yul\":21301:21302   */\n      0x04\n        /* \"#utility.yul\":21294:21309   */\n      mstore\n        /* \"#utility.yul\":21328:21332   */\n      0x24\n        /* \"#utility.yul\":21325:21326   */\n      0x00\n        /* \"#utility.yul\":21318:21333   */\n      revert\n        /* \"#utility.yul\":21345:21462   */\n    tag_317:\n        /* \"#utility.yul\":21454:21455   */\n      0x00\n        /* \"#utility.yul\":21451:21452   */\n      dup1\n        /* \"#utility.yul\":21444:21456   */\n      revert\n        /* \"#utility.yul\":21468:21585   */\n    tag_287:\n        /* \"#utility.yul\":21577:21578   */\n      0x00\n        /* \"#utility.yul\":21574:21575   */\n      dup1\n        /* \"#utility.yul\":21567:21579   */\n      revert\n        /* \"#utility.yul\":21591:21708   */\n    tag_364:\n        /* \"#utility.yul\":21700:21701   */\n      0x00\n        /* \"#utility.yul\":21697:21698   */\n      dup1\n        /* \"#utility.yul\":21690:21702   */\n      revert\n        /* \"#utility.yul\":21714:21831   */\n    tag_331:\n        /* \"#utility.yul\":21823:21824   */\n      0x00\n        /* \"#utility.yul\":21820:21821   */\n      dup1\n        /* \"#utility.yul\":21813:21825   */\n      revert\n        /* \"#utility.yul\":21837:21939   */\n    tag_405:\n        /* \"#utility.yul\":21878:21884   */\n      0x00\n        /* \"#utility.yul\":21929:21931   */\n      0x1f\n        /* \"#utility.yul\":21925:21932   */\n      not\n        /* \"#utility.yul\":21920:21922   */\n      0x1f\n        /* \"#utility.yul\":21913:21918   */\n      dup4\n        /* \"#utility.yul\":21909:21923   */\n      add\n        /* \"#utility.yul\":21905:21933   */\n      and\n        /* \"#utility.yul\":21895:21933   */\n      swap1\n      pop\n        /* \"#utility.yul\":21837:21939   */\n      swap2\n      swap1\n      pop\n      jump\t// out\n        /* \"#utility.yul\":21945:22165   */\n    tag_418:\n        /* \"#utility.yul\":22085:22119   */\n      0x6f6e6c79206f776e65722063616e2063616c6c20746869732066756e6374696f\n        /* \"#utility.yul\":22081:22082   */\n      0x00\n        /* \"#utility.yul\":22073:22079   */\n      dup3\n        /* \"#utility.yul\":22069:22083   */\n      add\n        /* \"#utility.yul\":22062:22120   */\n      mstore\n        /* \"#utility.yul\":22154:22157   */\n      0x6e00000000000000000000000000000000000000000000000000000000000000\n        /* \"#utility.yul\":22149:22151   */\n      0x20\n        /* \"#utility.yul\":22141:22147   */\n      dup3\n        /* \"#utility.yul\":22137:22152   */\n      add\n        /* \"#utility.yul\":22130:22158   */\n      mstore\n        /* \"#utility.yul\":21945:22165   */\n      pop\n      jump\t// out\n        /* \"#utility.yul\":22171:22353   */\n    tag_423:\n        /* \"#utility.yul\":22311:22345   */\n      0x70726f64756374206861736820766572696669636174696f6e206661696c6564\n        /* \"#utility.yul\":22307:22308   */\n      0x00\n        /* \"#utility.yul\":22299:22305   */\n      dup3\n        /* \"#utility.yul\":22295:22309   */\n      add\n        /* \"#utility.yul\":22288:22346   */\n      mstore\n        /* \"#utility.yul\":22171:22353   */\n      pop\n      jump\t// out\n        /* \"#utility.yul\":22359:22522   */\n    tag_428:\n        /* \"#utility.yul\":22499:22514   */\n      0x636f6e74726163742068616c7400000000000000000000000000000000000000\n        /* \"#utility.yul\":22495:22496   */\n      0x00\n        /* \"#utility.yul\":22487:22493   */\n      dup3\n        /* \"#utility.yul\":22483:22497   */\n      add\n        /* \"#utility.yul\":22476:22515   */\n      mstore\n        /* \"#utility.yul\":22359:22522   */\n      pop\n      jump\t// out\n        /* \"#utility.yul\":22528:22757   */\n    tag_433:\n        /* \"#utility.yul\":22668:22702   */\n      0x6f6e6c7920636f6e7472616374206f776e65722063616e2063616c6c20746869\n        /* \"#utility.yul\":22664:22665   */\n      0x00\n        /* \"#utility.yul\":22656:22662   */\n      dup3\n        /* \"#utility.yul\":22652:22666   */\n      add\n        /* \"#utility.yul\":22645:22703   */\n      mstore\n        /* \"#utility.yul\":22737:22749   */\n      0x732066756e6374696f6e00000000000000000000000000000000000000000000\n        /* \"#utility.yul\":22732:22734   */\n      0x20\n        /* \"#utility.yul\":22724:22730   */\n      dup3\n        /* \"#utility.yul\":22720:22735   */\n      add\n        /* \"#utility.yul\":22713:22750   */\n      mstore\n        /* \"#utility.yul\":22528:22757   */\n      pop\n      jump\t// out\n        /* \"#utility.yul\":22763:22944   */\n    tag_438:\n        /* \"#utility.yul\":22903:22936   */\n      0x636572746966696361746520766572696669636174696f6e206661696c656400\n        /* \"#utility.yul\":22899:22900   */\n      0x00\n        /* \"#utility.yul\":22891:22897   */\n      dup3\n        /* \"#utility.yul\":22887:22901   */\n      add\n        /* \"#utility.yul\":22880:22937   */\n      mstore\n        /* \"#utility.yul\":22763:22944   */\n      pop\n      jump\t// out\n        /* \"#utility.yul\":22950:23176   */\n    tag_443:\n        /* \"#utility.yul\":23090:23124   */\n      0x64617461206d75737420636f6d652066726f6d20746865206f7261636c652063\n        /* \"#utility.yul\":23086:23087   */\n      0x00\n        /* \"#utility.yul\":23078:23084   */\n      dup3\n        /* \"#utility.yul\":23074:23088   */\n      add\n        /* \"#utility.yul\":23067:23125   */\n      mstore\n        /* \"#utility.yul\":23159:23168   */\n      0x6f6e747261637400000000000000000000000000000000000000000000000000\n        /* \"#utility.yul\":23154:23156   */\n      0x20\n        /* \"#utility.yul\":23146:23152   */\n      dup3\n        /* \"#utility.yul\":23142:23157   */\n      add\n        /* \"#utility.yul\":23135:23169   */\n      mstore\n        /* \"#utility.yul\":22950:23176   */\n      pop\n      jump\t// out\n        /* \"#utility.yul\":23182:23416   */\n    tag_448:\n        /* \"#utility.yul\":23322:23356   */\n      0x6f6e6c7920617574686f72697365642070726f64756365722063616e2063616c\n        /* \"#utility.yul\":23318:23319   */\n      0x00\n        /* \"#utility.yul\":23310:23316   */\n      dup3\n        /* \"#utility.yul\":23306:23320   */\n      add\n        /* \"#utility.yul\":23299:23357   */\n      mstore\n        /* \"#utility.yul\":23391:23408   */\n      0x6c20746869732066756e6374696f6e0000000000000000000000000000000000\n        /* \"#utility.yul\":23386:23388   */\n      0x20\n        /* \"#utility.yul\":23378:23384   */\n      dup3\n        /* \"#utility.yul\":23374:23389   */\n      add\n        /* \"#utility.yul\":23367:23409   */\n      mstore\n        /* \"#utility.yul\":23182:23416   */\n      pop\n      jump\t// out\n        /* \"#utility.yul\":23422:23647   */\n    tag_453:\n        /* \"#utility.yul\":23562:23596   */\n      0x70726f6475636572206f6620746865206261746368206973206e6f7420746865\n        /* \"#utility.yul\":23558:23559   */\n      0x00\n        /* \"#utility.yul\":23550:23556   */\n      dup3\n        /* \"#utility.yul\":23546:23560   */\n      add\n        /* \"#utility.yul\":23539:23597   */\n      mstore\n        /* \"#utility.yul\":23631:23639   */\n      0x206f776e65720000000000000000000000000000000000000000000000000000\n        /* \"#utility.yul\":23626:23628   */\n      0x20\n        /* \"#utility.yul\":23618:23624   */\n      dup3\n        /* \"#utility.yul\":23614:23629   */\n      add\n        /* \"#utility.yul\":23607:23640   */\n      mstore\n        /* \"#utility.yul\":23422:23647   */\n      pop\n      jump\t// out\n        /* \"#utility.yul\":23653:23775   */\n    tag_301:\n        /* \"#utility.yul\":23726:23750   */\n      tag_563\n        /* \"#utility.yul\":23744:23749   */\n      dup2\n        /* \"#utility.yul\":23726:23750   */\n      tag_382\n      jump\t// in\n    tag_563:\n        /* \"#utility.yul\":23719:23724   */\n      dup2\n        /* \"#utility.yul\":23716:23751   */\n      eq\n        /* \"#utility.yul\":23706:23769   */\n      tag_564\n      jumpi\n        /* \"#utility.yul\":23765:23766   */\n      0x00\n        /* \"#utility.yul\":23762:23763   */\n      dup1\n        /* \"#utility.yul\":23755:23767   */\n      revert\n        /* \"#utility.yul\":23706:23769   */\n    tag_564:\n        /* \"#utility.yul\":23653:23775   */\n      pop\n      jump\t// out\n        /* \"#utility.yul\":23781:23897   */\n    tag_305:\n        /* \"#utility.yul\":23851:23872   */\n      tag_566\n        /* \"#utility.yul\":23866:23871   */\n      dup2\n        /* \"#utility.yul\":23851:23872   */\n      tag_386\n      jump\t// in\n    tag_566:\n        /* \"#utility.yul\":23844:23849   */\n      dup2\n        /* \"#utility.yul\":23841:23873   */\n      eq\n        /* \"#utility.yul\":23831:23891   */\n      tag_567\n      jumpi\n        /* \"#utility.yul\":23887:23888   */\n      0x00\n        /* \"#utility.yul\":23884:23885   */\n      dup1\n        /* \"#utility.yul\":23877:23889   */\n      revert\n        /* \"#utility.yul\":23831:23891   */\n    tag_567:\n        /* \"#utility.yul\":23781:23897   */\n      pop\n      jump\t// out\n        /* \"#utility.yul\":23903:24025   */\n    tag_312:\n        /* \"#utility.yul\":23976:24000   */\n      tag_569\n        /* \"#utility.yul\":23994:23999   */\n      dup2\n        /* \"#utility.yul\":23976:24000   */\n      tag_390\n      jump\t// in\n    tag_569:\n        /* \"#utility.yul\":23969:23974   */\n      dup2\n        /* \"#utility.yul\":23966:24001   */\n      eq\n        /* \"#utility.yul\":23956:24019   */\n      tag_570\n      jumpi\n        /* \"#utility.yul\":24015:24016   */\n      0x00\n        /* \"#utility.yul\":24012:24013   */\n      dup1\n        /* \"#utility.yul\":24005:24017   */\n      revert\n        /* \"#utility.yul\":23956:24019   */\n    tag_570:\n        /* \"#utility.yul\":23903:24025   */\n      pop\n      jump\t// out\n        /* \"#utility.yul\":24031:24153   */\n    tag_327:\n        /* \"#utility.yul\":24104:24128   */\n      tag_572\n        /* \"#utility.yul\":24122:24127   */\n      dup2\n        /* \"#utility.yul\":24104:24128   */\n      tag_527\n      jump\t// in\n    tag_572:\n        /* \"#utility.yul\":24097:24102   */\n      dup2\n        /* \"#utility.yul\":24094:24129   */\n      eq\n        /* \"#utility.yul\":24084:24147   */\n      tag_573\n      jumpi\n        /* \"#utility.yul\":24143:24144   */\n      0x00\n        /* \"#utility.yul\":24140:24141   */\n      dup1\n        /* \"#utility.yul\":24133:24145   */\n      revert\n        /* \"#utility.yul\":24084:24147   */\n    tag_573:\n        /* \"#utility.yul\":24031:24153   */\n      pop\n      jump\t// out\n\n    auxdata: 0xa2646970667358221220d688c1625ed99f1a3cd2541da785fd9e152d4eeab8e182f413c55818f78ecae564736f6c63430008070033\n}\n",
				"bytecode": {
					"linkReferences": {},
					"object": "60806040523480156200001157600080fd5b50604051620029c9380380620029c9833981810160405281019062000037919062000132565b82806000806101000a81548173ffffffffffffffffffffffffffffffffffffffff021916908373ffffffffffffffffffffffffffffffffffffffff1602179055505081600260006101000a81548173ffffffffffffffffffffffffffffffffffffffff021916908373ffffffffffffffffffffffffffffffffffffffff16021790555080600160006101000a81548173ffffffffffffffffffffffffffffffffffffffff021916908373ffffffffffffffffffffffffffffffffffffffff1602179055505050506200020f565b6000815190506200011581620001db565b92915050565b6000815190506200012c81620001f5565b92915050565b6000806000606084860312156200014e576200014d620001d6565b5b60006200015e8682870162000104565b9350506020620001718682870162000104565b925050604062000184868287016200011b565b9150509250925092565b60006200019b82620001b6565b9050919050565b6000620001af82620001b6565b9050919050565b600073ffffffffffffffffffffffffffffffffffffffff82169050919050565b600080fd5b620001e6816200018e565b8114620001f257600080fd5b50565b6200020081620001a2565b81146200020c57600080fd5b50565b6127aa806200021f6000396000f3fe608060405234801561001057600080fd5b506004361061010b5760003560e01c8063850c1768116100a2578063b83ce91911610071578063b83ce919146102b8578063bfc9554e146102d4578063ddf80166146102f0578063e58603a91461030c578063f333fe08146103285761010b565b8063850c17681461020c5780638ec394d11461023c578063a921387414610258578063aab147b2146102885761010b565b806351755334116100de57806351755334146101865780635950c3fb146101905780635de28ae0146101ac57806362004e63146101dc5761010b565b8063092a5cce1461011057806324c45f681461011a57806330a52d5b1461014a5780633a20e9df14610154575b600080fd5b610118610359565b005b610134600480360381019061012f9190611e05565b610424565b6040516101419190612058565b60405180910390f35b6101526104c7565b005b61016e60048036038101906101699190611c27565b6105cb565b60405161017d9392919061208e565b60405180910390f35b61018e6106a6565b005b6101aa60048036038101906101a59190611d96565b6107ab565b005b6101c660048036038101906101c19190611c27565b610a37565b6040516101d39190612058565b60405180910390f35b6101f660048036038101906101f19190611c27565b610abb565b604051610203919061213a565b60405180910390f35b61022660048036038101906102219190611c27565b610bb8565b6040516102339190612058565b60405180910390f35b61025660048036038101906102519190611d27565b610d0b565b005b610272600480360381019061026d9190611c94565b610f30565b60405161027f9190612058565b60405180910390f35b6102a2600480360381019061029d9190611bcd565b610fbb565b6040516102af9190612058565b60405180910390f35b6102d260048036038101906102cd9190611cd4565b611068565b005b6102ee60048036038101906102e99190611c27565b611261565b005b61030a60048036038101906103059190611bcd565b61126d565b005b61032660048036038101906103219190611c54565b6113b0565b005b610342600480360381019061033d9190611c27565b6114e2565b6040516103509291906120c5565b60405180910390f35b3373ffffffffffffffffffffffffffffffffffffffff16600160009054906101000a900473ffffffffffffffffffffffffffffffffffffffff1673ffffffffffffffffffffffffffffffffffffffff16146103e9576040517f08c379a00000000000000000000000000000000000000000000000000000000081526004016103e0906121bc565b60405180910390fd5b600160009054906101000a900473ffffffffffffffffffffffffffffffffffffffff1673ffffffffffffffffffffffffffffffffffffffff16ff5b60008060009054906101000a900473ffffffffffffffffffffffffffffffffffffffff1673ffffffffffffffffffffffffffffffffffffffff163373ffffffffffffffffffffffffffffffffffffffff16146104b5576040517f08c379a00000000000000000000000000000000000000000000000000000000081526004016104ac906121fc565b60405180910390fd5b6104bf8284611600565b905092915050565b6001801515600060149054906101000a900460ff1615151461051e576040517f08c379a00000000000000000000000000000000000000000000000000000000081526004016105159061219c565b60405180910390fd5b3373ffffffffffffffffffffffffffffffffffffffff16600160009054906101000a900473ffffffffffffffffffffffffffffffffffffffff1673ffffffffffffffffffffffffffffffffffffffff16146105ae576040517f08c379a00000000000000000000000000000000000000000000000000000000081526004016105a5906121bc565b60405180910390fd5b60008060146101000a81548160ff02191690831515021790555050565b600080600080801515600060149054906101000a900460ff16151514610626576040517f08c379a000000000000000000000000000000000000000000000000000000000815260040161061d9061219c565b60405180910390fd5b60046000868152602001908152602001600020600001546004600087815260200190815260200160002060030160009054906101000a900473ffffffffffffffffffffffffffffffffffffffff166004600088815260200190815260200160002060060160009054906101000a900460ff16935093509350509193909250565b6000801515600060149054906101000a900460ff161515146106fd576040517f08c379a00000000000000000000000000000000000000000000000000000000081526004016106f49061219c565b60405180910390fd5b3373ffffffffffffffffffffffffffffffffffffffff16600160009054906101000a900473ffffffffffffffffffffffffffffffffffffffff1673ffffffffffffffffffffffffffffffffffffffff161461078d576040517f08c379a0000000000000000000000000000000000000000000000000000000008152600401610784906121bc565b60405180910390fd5b6001600060146101000a81548160ff02191690831515021790555050565b6000801515600060149054906101000a900460ff16151514610802576040517f08c379a00000000000000000000000000000000000000000000000000000000081526004016107f99061219c565b60405180910390fd5b3360011515600660008373ffffffffffffffffffffffffffffffffffffffff1673ffffffffffffffffffffffffffffffffffffffff16815260200190815260200160002060009054906101000a900460ff16151514610896576040517f08c379a000000000000000000000000000000000000000000000000000000000815260040161088d9061221c565b60405180910390fd5b6000856040516020016108a99190612022565b604051602081830303815290604052805190602001209050856004600083815260200190815260200160002060000181905550336004600083815260200190815260200160002060030160006101000a81548173ffffffffffffffffffffffffffffffffffffffff021916908373ffffffffffffffffffffffffffffffffffffffff160217905550336004600083815260200190815260200160002060040160006101000a81548173ffffffffffffffffffffffffffffffffffffffff021916908373ffffffffffffffffffffffffffffffffffffffff16021790555084600460008381526020019081526020016000206005018190555060016004600083815260200190815260200160002060060160006101000a81548160ff021916908315150217905550836005600083815260200190815260200160002090805190602001906109f792919061195b565b507feb12ab352ec0628425cb2d83290a1d034ed2d60ba8d5caf7462e7526ce18d38e81604051610a279190612073565b60405180910390a1505050505050565b600080801515600060149054906101000a900460ff16151514610a8f576040517f08c379a0000000000000000000000000000000000000000000000000000000008152600401610a869061219c565b60405180910390fd5b6004600084815260200190815260200160002060060160009054906101000a900460ff16915050919050565b60606000801515600060149054906101000a900460ff16151514610b14576040517f08c379a0000000000000000000000000000000000000000000000000000000008152600401610b0b9061219c565b60405180910390fd5b600560008481526020019081526020016000208054610b32906123f3565b80601f0160208091040260200160405190810160405280929190818152602001828054610b5e906123f3565b8015610bab5780601f10610b8057610100808354040283529160200191610bab565b820191906000526020600020905b815481529060010190602001808311610b8e57829003601f168201915b5050505050915050919050565b600080801515600060149054906101000a900460ff16151514610c10576040517f08c379a0000000000000000000000000000000000000000000000000000000008152600401610c079061219c565b60405180910390fd5b6000600460008581526020019081526020016000206001015490506000600460008681526020019081526020016000206002018054610c4e906123f3565b80601f0160208091040260200160405190810160405280929190818152602001828054610c7a906123f3565b8015610cc75780601f10610c9c57610100808354040283529160200191610cc7565b820191906000526020600020905b815481529060010190602001808311610caa57829003601f168201915b505050505090506000610cda8383611614565b905060011515610ce9826116e7565b15151415610cfd5760019450505050610d05565b600094505050505b50919050565b6000801515600060149054906101000a900460ff16151514610d62576040517f08c379a0000000000000000000000000000000000000000000000000000000008152600401610d599061219c565b60405180910390fd5b33843373ffffffffffffffffffffffffffffffffffffffff166004600083815260200190815260200160002060030160009054906101000a900473ffffffffffffffffffffffffffffffffffffffff1673ffffffffffffffffffffffffffffffffffffffff1614610e08576040517f08c379a0000000000000000000000000000000000000000000000000000000008152600401610dff9061215c565b60405180910390fd5b6004600087815260200190815260200160002060030160009054906101000a900473ffffffffffffffffffffffffffffffffffffffff1673ffffffffffffffffffffffffffffffffffffffff166004600088815260200190815260200160002060040160009054906101000a900473ffffffffffffffffffffffffffffffffffffffff1673ffffffffffffffffffffffffffffffffffffffff1614610ee2576040517f08c379a0000000000000000000000000000000000000000000000000000000008152600401610ed99061223c565b60405180910390fd5b84600460008881526020019081526020016000206001018190555083600460008881526020019081526020016000206002019080519060200190610f279291906119e1565b50505050505050565b600080801515600060149054906101000a900460ff16151514610f88576040517f08c379a0000000000000000000000000000000000000000000000000000000008152600401610f7f9061219c565b60405180910390fd5b8260046000868152602001908152602001600020600001541415610faf5760019150610fb4565b600091505b5092915050565b600080801515600060149054906101000a900460ff16151514611013576040517f08c379a000000000000000000000000000000000000000000000000000000000815260040161100a9061219c565b60405180910390fd5b600660008473ffffffffffffffffffffffffffffffffffffffff1673ffffffffffffffffffffffffffffffffffffffff16815260200190815260200160002060009054906101000a900460ff16915050919050565b6000801515600060149054906101000a900460ff161515146110bf576040517f08c379a00000000000000000000000000000000000000000000000000000000081526004016110b69061219c565b60405180910390fd5b33843373ffffffffffffffffffffffffffffffffffffffff166004600083815260200190815260200160002060030160009054906101000a900473ffffffffffffffffffffffffffffffffffffffff1673ffffffffffffffffffffffffffffffffffffffff1614611165576040517f08c379a000000000000000000000000000000000000000000000000000000000815260040161115c9061215c565b60405180910390fd5b600115156111738787610f30565b1515146111b5576040517f08c379a00000000000000000000000000000000000000000000000000000000081526004016111ac9061217c565b60405180910390fd5b600115156111c287610bb8565b151514611204576040517f08c379a00000000000000000000000000000000000000000000000000000000081526004016111fb906121dc565b60405180910390fd5b836004600088815260200190815260200160002060030160006101000a81548173ffffffffffffffffffffffffffffffffffffffff021916908373ffffffffffffffffffffffffffffffffffffffff160217905550505050505050565b61126a816117a0565b50565b6000801515600060149054906101000a900460ff161515146112c4576040517f08c379a00000000000000000000000000000000000000000000000000000000081526004016112bb9061219c565b60405180910390fd5b3373ffffffffffffffffffffffffffffffffffffffff16600160009054906101000a900473ffffffffffffffffffffffffffffffffffffffff1673ffffffffffffffffffffffffffffffffffffffff1614611354576040517f08c379a000000000000000000000000000000000000000000000000000000000815260040161134b906121bc565b60405180910390fd5b6001600660008473ffffffffffffffffffffffffffffffffffffffff1673ffffffffffffffffffffffffffffffffffffffff16815260200190815260200160002060006101000a81548160ff0219169083151502179055505050565b6000801515600060149054906101000a900460ff16151514611407576040517f08c379a00000000000000000000000000000000000000000000000000000000081526004016113fe9061219c565b60405180910390fd5b33833373ffffffffffffffffffffffffffffffffffffffff166004600083815260200190815260200160002060030160009054906101000a900473ffffffffffffffffffffffffffffffffffffffff1673ffffffffffffffffffffffffffffffffffffffff16146114ad576040517f08c379a00000000000000000000000000000000000000000000000000000000081526004016114a49061215c565b60405180910390fd5b836004600087815260200190815260200160002060060160006101000a81548160ff0219169083151502179055505050505050565b600060606000801515600060149054906101000a900460ff1615151461153d576040517f08c379a00000000000000000000000000000000000000000000000000000000081526004016115349061219c565b60405180910390fd5b600460008581526020019081526020016000206001015460046000868152602001908152602001600020600201808054611576906123f3565b80601f01602080910402602001604051908101604052809291908181526020018280546115a2906123f3565b80156115ef5780601f106115c4576101008083540402835291602001916115ef565b820191906000526020600020905b8154815290600101906020018083116115d257829003601f168201915b505050505090509250925050915091565b600061160c838361182e565b905092915050565b600080600080604185511461162f57600093505050506116e1565b6020850151925060408501519150606085015160001a9050601b8160ff16101561166357601b81611660919061231b565b90505b601b8160ff161415801561167b5750601c8160ff1614155b1561168c57600093505050506116e1565b600186828585604051600081526020016040526040516116af94939291906120f5565b6020604051602081039080840390855afa1580156116d1573d6000803e3d6000fd5b5050506020604051035193505050505b92915050565b600080600260009054906101000a900473ffffffffffffffffffffffffffffffffffffffff1690508073ffffffffffffffffffffffffffffffffffffffff16636af92956846040518263ffffffff1660e01b8152600401611748919061203d565b60206040518083038186803b15801561176057600080fd5b505afa158015611774573d6000803e3d6000fd5b505050506040513d601f19601f820116820180604052508101906117989190611bfa565b915050919050565b60008054906101000a900473ffffffffffffffffffffffffffffffffffffffff1673ffffffffffffffffffffffffffffffffffffffff16633661346b826040518263ffffffff1660e01b81526004016117f99190612073565b600060405180830381600087803b15801561181357600080fd5b505af1158015611827573d6000803e3d6000fd5b5050505050565b600080801515600060149054906101000a900460ff16151514611886576040517f08c379a000000000000000000000000000000000000000000000000000000000815260040161187d9061219c565b60405180910390fd5b60046000858152602001908152602001600020600501548311156118d45760006004600086815260200190815260200160002060060160006101000a81548160ff0219169083151502179055505b7f8fadd6f505628cd2c13e5786c730c9d6e57eb96632e17ff196ad26f99cec61526004600086815260200190815260200160002060060160009054906101000a900460ff166040516119269190612058565b60405180910390a16004600085815260200190815260200160002060060160009054906101000a900460ff1691505092915050565b828054611967906123f3565b90600052602060002090601f01602090048101928261198957600085556119d0565b82601f106119a257805160ff19168380011785556119d0565b828001600101855582156119d0579182015b828111156119cf5782518255916020019190600101906119b4565b5b5090506119dd9190611a67565b5090565b8280546119ed906123f3565b90600052602060002090601f016020900481019282611a0f5760008555611a56565b82601f10611a2857805160ff1916838001178555611a56565b82800160010185558215611a56579182015b82811115611a55578251825591602001919060010190611a3a565b5b509050611a639190611a67565b5090565b5b80821115611a80576000816000905550600101611a68565b5090565b6000611a97611a9284612281565b61225c565b905082815260208101848484011115611ab357611ab26124f2565b5b611abe8482856123b1565b509392505050565b6000611ad9611ad4846122b2565b61225c565b905082815260208101848484011115611af557611af46124f2565b5b611b008482856123b1565b509392505050565b600081359050611b1781612718565b92915050565b600081359050611b2c8161272f565b92915050565b600081519050611b418161272f565b92915050565b600081359050611b5681612746565b92915050565b600082601f830112611b7157611b706124ed565b5b8135611b81848260208601611a84565b91505092915050565b600082601f830112611b9f57611b9e6124ed565b5b8135611baf848260208601611ac6565b91505092915050565b600081359050611bc78161275d565b92915050565b600060208284031215611be357611be26124fc565b5b6000611bf184828501611b08565b91505092915050565b600060208284031215611c1057611c0f6124fc565b5b6000611c1e84828501611b32565b91505092915050565b600060208284031215611c3d57611c3c6124fc565b5b6000611c4b84828501611b47565b91505092915050565b60008060408385031215611c6b57611c6a6124fc565b5b6000611c7985828601611b47565b9250506020611c8a85828601611b1d565b9150509250929050565b60008060408385031215611cab57611caa6124fc565b5b6000611cb985828601611b47565b9250506020611cca85828601611b47565b9150509250929050565b600080600060608486031215611ced57611cec6124fc565b5b6000611cfb86828701611b47565b9350506020611d0c86828701611b47565b9250506040611d1d86828701611b08565b9150509250925092565b600080600060608486031215611d4057611d3f6124fc565b5b6000611d4e86828701611b47565b9350506020611d5f86828701611b47565b925050604084013567ffffffffffffffff811115611d8057611d7f6124f7565b5b611d8c86828701611b5c565b9150509250925092565b600080600060608486031215611daf57611dae6124fc565b5b6000611dbd86828701611b47565b9350506020611dce86828701611bb8565b925050604084013567ffffffffffffffff811115611def57611dee6124f7565b5b611dfb86828701611b8a565b9150509250925092565b60008060408385031215611e1c57611e1b6124fc565b5b6000611e2a85828601611bb8565b9250506020611e3b85828601611b47565b9150509250929050565b611e4e81612352565b82525050565b611e5d81612364565b82525050565b611e6c81612370565b82525050565b611e83611e7e82612370565b612456565b82525050565b6000611e94826122e3565b611e9e81856122f9565b9350611eae8185602086016123c0565b611eb781612501565b840191505092915050565b6000611ecd826122ee565b611ed7818561230a565b9350611ee78185602086016123c0565b611ef081612501565b840191505092915050565b6000611f0860218361230a565b9150611f1382612512565b604082019050919050565b6000611f2b60208361230a565b9150611f3682612561565b602082019050919050565b6000611f4e600d8361230a565b9150611f598261258a565b602082019050919050565b6000611f71602a8361230a565b9150611f7c826125b3565b604082019050919050565b6000611f94601f8361230a565b9150611f9f82612602565b602082019050919050565b6000611fb760278361230a565b9150611fc28261262b565b604082019050919050565b6000611fda602f8361230a565b9150611fe58261267a565b604082019050919050565b6000611ffd60268361230a565b9150612008826126c9565b604082019050919050565b61201c816123a4565b82525050565b600061202e8284611e72565b60208201915081905092915050565b60006020820190506120526000830184611e45565b92915050565b600060208201905061206d6000830184611e54565b92915050565b60006020820190506120886000830184611e63565b92915050565b60006060820190506120a36000830186611e63565b6120b06020830185611e45565b6120bd6040830184611e54565b949350505050565b60006040820190506120da6000830185611e63565b81810360208301526120ec8184611e89565b90509392505050565b600060808201905061210a6000830187611e63565b6121176020830186612013565b6121246040830185611e63565b6121316060830184611e63565b95945050505050565b600060208201905081810360008301526121548184611ec2565b905092915050565b6000602082019050818103600083015261217581611efb565b9050919050565b6000602082019050818103600083015261219581611f1e565b9050919050565b600060208201905081810360008301526121b581611f41565b9050919050565b600060208201905081810360008301526121d581611f64565b9050919050565b600060208201905081810360008301526121f581611f87565b9050919050565b6000602082019050818103600083015261221581611faa565b9050919050565b6000602082019050818103600083015261223581611fcd565b9050919050565b6000602082019050818103600083015261225581611ff0565b9050919050565b6000612266612277565b90506122728282612425565b919050565b6000604051905090565b600067ffffffffffffffff82111561229c5761229b6124be565b5b6122a582612501565b9050602081019050919050565b600067ffffffffffffffff8211156122cd576122cc6124be565b5b6122d682612501565b9050602081019050919050565b600081519050919050565b600081519050919050565b600082825260208201905092915050565b600082825260208201905092915050565b6000612326826123a4565b9150612331836123a4565b92508260ff0382111561234757612346612460565b5b828201905092915050565b600061235d8261237a565b9050919050565b60008115159050919050565b6000819050919050565b600073ffffffffffffffffffffffffffffffffffffffff82169050919050565b6000819050919050565b600060ff82169050919050565b82818337600083830152505050565b60005b838110156123de5780820151818401526020810190506123c3565b838111156123ed576000848401525b50505050565b6000600282049050600182168061240b57607f821691505b6020821081141561241f5761241e61248f565b5b50919050565b61242e82612501565b810181811067ffffffffffffffff8211171561244d5761244c6124be565b5b80604052505050565b6000819050919050565b7f4e487b7100000000000000000000000000000000000000000000000000000000600052601160045260246000fd5b7f4e487b7100000000000000000000000000000000000000000000000000000000600052602260045260246000fd5b7f4e487b7100000000000000000000000000000000000000000000000000000000600052604160045260246000fd5b600080fd5b600080fd5b600080fd5b600080fd5b6000601f19601f8301169050919050565b7f6f6e6c79206f776e65722063616e2063616c6c20746869732066756e6374696f60008201527f6e00000000000000000000000000000000000000000000000000000000000000602082015250565b7f70726f64756374206861736820766572696669636174696f6e206661696c6564600082015250565b7f636f6e74726163742068616c7400000000000000000000000000000000000000600082015250565b7f6f6e6c7920636f6e7472616374206f776e65722063616e2063616c6c2074686960008201527f732066756e6374696f6e00000000000000000000000000000000000000000000602082015250565b7f636572746966696361746520766572696669636174696f6e206661696c656400600082015250565b7f64617461206d75737420636f6d652066726f6d20746865206f7261636c65206360008201527f6f6e747261637400000000000000000000000000000000000000000000000000602082015250565b7f6f6e6c7920617574686f72697365642070726f64756365722063616e2063616c60008201527f6c20746869732066756e6374696f6e0000000000000000000000000000000000602082015250565b7f70726f6475636572206f6620746865206261746368206973206e6f742074686560008201527f206f776e65720000000000000000000000000000000000000000000000000000602082015250565b61272181612352565b811461272c57600080fd5b50565b61273881612364565b811461274357600080fd5b50565b61274f81612370565b811461275a57600080fd5b50565b6127668161239a565b811461277157600080fd5b5056fea2646970667358221220d688c1625ed99f1a3cd2541da785fd9e152d4eeab8e182f413c55818f78ecae564736f6c63430008070033",
					"opcodes": "PUSH1 0x80 PUSH1 0x40 MSTORE CALLVALUE DUP1 ISZERO PUSH3 0x11 JUMPI PUSH1 0x0 DUP1 REVERT JUMPDEST POP PUSH1 0x40 MLOAD PUSH3 0x29C9 CODESIZE SUB DUP1 PUSH3 0x29C9 DUP4 CODECOPY DUP2 DUP2 ADD PUSH1 0x40 MSTORE DUP2 ADD SWAP1 PUSH3 0x37 SWAP2 SWAP1 PUSH3 0x132 JUMP JUMPDEST DUP3 DUP1 PUSH1 0x0 DUP1 PUSH2 0x100 EXP DUP2 SLOAD DUP2 PUSH20 0xFFFFFFFFFFFFFFFFFFFFFFFFFFFFFFFFFFFFFFFF MUL NOT AND SWAP1 DUP4 PUSH20 0xFFFFFFFFFFFFFFFFFFFFFFFFFFFFFFFFFFFFFFFF AND MUL OR SWAP1 SSTORE POP POP DUP2 PUSH1 0x2 PUSH1 0x0 PUSH2 0x100 EXP DUP2 SLOAD DUP2 PUSH20 0xFFFFFFFFFFFFFFFFFFFFFFFFFFFFFFFFFFFFFFFF MUL NOT AND SWAP1 DUP4 PUSH20 0xFFFFFFFFFFFFFFFFFFFFFFFFFFFFFFFFFFFFFFFF AND MUL OR SWAP1 SSTORE POP DUP1 PUSH1 0x1 PUSH1 0x0 PUSH2 0x100 EXP DUP2 SLOAD DUP2 PUSH20 0xFFFFFFFFFFFFFFFFFFFFFFFFFFFFFFFFFFFFFFFF MUL NOT AND SWAP1 DUP4 PUSH20 0xFFFFFFFFFFFFFFFFFFFFFFFFFFFFFFFFFFFFFFFF AND MUL OR SWAP1 SSTORE POP POP POP POP PUSH3 0x20F JUMP JUMPDEST PUSH1 0x0 DUP2 MLOAD SWAP1 POP PUSH3 0x115 DUP2 PUSH3 0x1DB JUMP JUMPDEST SWAP3 SWAP2 POP POP JUMP JUMPDEST PUSH1 0x0 DUP2 MLOAD SWAP1 POP PUSH3 0x12C DUP2 PUSH3 0x1F5 JUMP JUMPDEST SWAP3 SWAP2 POP POP JUMP JUMPDEST PUSH1 0x0 DUP1 PUSH1 0x0 PUSH1 0x60 DUP5 DUP7 SUB SLT ISZERO PUSH3 0x14E JUMPI PUSH3 0x14D PUSH3 0x1D6 JUMP JUMPDEST JUMPDEST PUSH1 0x0 PUSH3 0x15E DUP7 DUP3 DUP8 ADD PUSH3 0x104 JUMP JUMPDEST SWAP4 POP POP PUSH1 0x20 PUSH3 0x171 DUP7 DUP3 DUP8 ADD PUSH3 0x104 JUMP JUMPDEST SWAP3 POP POP PUSH1 0x40 PUSH3 0x184 DUP7 DUP3 DUP8 ADD PUSH3 0x11B JUMP JUMPDEST SWAP2 POP POP SWAP3 POP SWAP3 POP SWAP3 JUMP JUMPDEST PUSH1 0x0 PUSH3 0x19B DUP3 PUSH3 0x1B6 JUMP JUMPDEST SWAP1 POP SWAP2 SWAP1 POP JUMP JUMPDEST PUSH1 0x0 PUSH3 0x1AF DUP3 PUSH3 0x1B6 JUMP JUMPDEST SWAP1 POP SWAP2 SWAP1 POP JUMP JUMPDEST PUSH1 0x0 PUSH20 0xFFFFFFFFFFFFFFFFFFFFFFFFFFFFFFFFFFFFFFFF DUP3 AND SWAP1 POP SWAP2 SWAP1 POP JUMP JUMPDEST PUSH1 0x0 DUP1 REVERT JUMPDEST PUSH3 0x1E6 DUP2 PUSH3 0x18E JUMP JUMPDEST DUP2 EQ PUSH3 0x1F2 JUMPI PUSH1 0x0 DUP1 REVERT JUMPDEST POP JUMP JUMPDEST PUSH3 0x200 DUP2 PUSH3 0x1A2 JUMP JUMPDEST DUP2 EQ PUSH3 0x20C JUMPI PUSH1 0x0 DUP1 REVERT JUMPDEST POP JUMP JUMPDEST PUSH2 0x27AA DUP1 PUSH3 0x21F PUSH1 0x0 CODECOPY PUSH1 0x0 RETURN INVALID PUSH1 0x80 PUSH1 0x40 MSTORE CALLVALUE DUP1 ISZERO PUSH2 0x10 JUMPI PUSH1 0x0 DUP1 REVERT JUMPDEST POP PUSH1 0x4 CALLDATASIZE LT PUSH2 0x10B JUMPI PUSH1 0x0 CALLDATALOAD PUSH1 0xE0 SHR DUP1 PUSH4 0x850C1768 GT PUSH2 0xA2 JUMPI DUP1 PUSH4 0xB83CE919 GT PUSH2 0x71 JUMPI DUP1 PUSH4 0xB83CE919 EQ PUSH2 0x2B8 JUMPI DUP1 PUSH4 0xBFC9554E EQ PUSH2 0x2D4 JUMPI DUP1 PUSH4 0xDDF80166 EQ PUSH2 0x2F0 JUMPI DUP1 PUSH4 0xE58603A9 EQ PUSH2 0x30C JUMPI DUP1 PUSH4 0xF333FE08 EQ PUSH2 0x328 JUMPI PUSH2 0x10B JUMP JUMPDEST DUP1 PUSH4 0x850C1768 EQ PUSH2 0x20C JUMPI DUP1 PUSH4 0x8EC394D1 EQ PUSH2 0x23C JUMPI DUP1 PUSH4 0xA9213874 EQ PUSH2 0x258 JUMPI DUP1 PUSH4 0xAAB147B2 EQ PUSH2 0x288 JUMPI PUSH2 0x10B JUMP JUMPDEST DUP1 PUSH4 0x51755334 GT PUSH2 0xDE JUMPI DUP1 PUSH4 0x51755334 EQ PUSH2 0x186 JUMPI DUP1 PUSH4 0x5950C3FB EQ PUSH2 0x190 JUMPI DUP1 PUSH4 0x5DE28AE0 EQ PUSH2 0x1AC JUMPI DUP1 PUSH4 0x62004E63 EQ PUSH2 0x1DC JUMPI PUSH2 0x10B JUMP JUMPDEST DUP1 PUSH4 0x92A5CCE EQ PUSH2 0x110 JUMPI DUP1 PUSH4 0x24C45F68 EQ PUSH2 0x11A JUMPI DUP1 PUSH4 0x30A52D5B EQ PUSH2 0x14A JUMPI DUP1 PUSH4 0x3A20E9DF EQ PUSH2 0x154 JUMPI JUMPDEST PUSH1 0x0 DUP1 REVERT JUMPDEST PUSH2 0x118 PUSH2 0x359 JUMP JUMPDEST STOP JUMPDEST PUSH2 0x134 PUSH1 0x4 DUP1 CALLDATASIZE SUB DUP2 ADD SWAP1 PUSH2 0x12F SWAP2 SWAP1 PUSH2 0x1E05 JUMP JUMPDEST PUSH2 0x424 JUMP JUMPDEST PUSH1 0x40 MLOAD PUSH2 0x141 SWAP2 SWAP1 PUSH2 0x2058 JUMP JUMPDEST PUSH1 0x40 MLOAD DUP1 SWAP2 SUB SWAP1 RETURN JUMPDEST PUSH2 0x152 PUSH2 0x4C7 JUMP JUMPDEST STOP JUMPDEST PUSH2 0x16E PUSH1 0x4 DUP1 CALLDATASIZE SUB DUP2 ADD SWAP1 PUSH2 0x169 SWAP2 SWAP1 PUSH2 0x1C27 JUMP JUMPDEST PUSH2 0x5CB JUMP JUMPDEST PUSH1 0x40 MLOAD PUSH2 0x17D SWAP4 SWAP3 SWAP2 SWAP1 PUSH2 0x208E JUMP JUMPDEST PUSH1 0x40 MLOAD DUP1 SWAP2 SUB SWAP1 RETURN JUMPDEST PUSH2 0x18E PUSH2 0x6A6 JUMP JUMPDEST STOP JUMPDEST PUSH2 0x1AA PUSH1 0x4 DUP1 CALLDATASIZE SUB DUP2 ADD SWAP1 PUSH2 0x1A5 SWAP2 SWAP1 PUSH2 0x1D96 JUMP JUMPDEST PUSH2 0x7AB JUMP JUMPDEST STOP JUMPDEST PUSH2 0x1C6 PUSH1 0x4 DUP1 CALLDATASIZE SUB DUP2 ADD SWAP1 PUSH2 0x1C1 SWAP2 SWAP1 PUSH2 0x1C27 JUMP JUMPDEST PUSH2 0xA37 JUMP JUMPDEST PUSH1 0x40 MLOAD PUSH2 0x1D3 SWAP2 SWAP1 PUSH2 0x2058 JUMP JUMPDEST PUSH1 0x40 MLOAD DUP1 SWAP2 SUB SWAP1 RETURN JUMPDEST PUSH2 0x1F6 PUSH1 0x4 DUP1 CALLDATASIZE SUB DUP2 ADD SWAP1 PUSH2 0x1F1 SWAP2 SWAP1 PUSH2 0x1C27 JUMP JUMPDEST PUSH2 0xABB JUMP JUMPDEST PUSH1 0x40 MLOAD PUSH2 0x203 SWAP2 SWAP1 PUSH2 0x213A JUMP JUMPDEST PUSH1 0x40 MLOAD DUP1 SWAP2 SUB SWAP1 RETURN JUMPDEST PUSH2 0x226 PUSH1 0x4 DUP1 CALLDATASIZE SUB DUP2 ADD SWAP1 PUSH2 0x221 SWAP2 SWAP1 PUSH2 0x1C27 JUMP JUMPDEST PUSH2 0xBB8 JUMP JUMPDEST PUSH1 0x40 MLOAD PUSH2 0x233 SWAP2 SWAP1 PUSH2 0x2058 JUMP JUMPDEST PUSH1 0x40 MLOAD DUP1 SWAP2 SUB SWAP1 RETURN JUMPDEST PUSH2 0x256 PUSH1 0x4 DUP1 CALLDATASIZE SUB DUP2 ADD SWAP1 PUSH2 0x251 SWAP2 SWAP1 PUSH2 0x1D27 JUMP JUMPDEST PUSH2 0xD0B JUMP JUMPDEST STOP JUMPDEST PUSH2 0x272 PUSH1 0x4 DUP1 CALLDATASIZE SUB DUP2 ADD SWAP1 PUSH2 0x26D SWAP2 SWAP1 PUSH2 0x1C94 JUMP JUMPDEST PUSH2 0xF30 JUMP JUMPDEST PUSH1 0x40 MLOAD PUSH2 0x27F SWAP2 SWAP1 PUSH2 0x2058 JUMP JUMPDEST PUSH1 0x40 MLOAD DUP1 SWAP2 SUB SWAP1 RETURN JUMPDEST PUSH2 0x2A2 PUSH1 0x4 DUP1 CALLDATASIZE SUB DUP2 ADD SWAP1 PUSH2 0x29D SWAP2 SWAP1 PUSH2 0x1BCD JUMP JUMPDEST PUSH2 0xFBB JUMP JUMPDEST PUSH1 0x40 MLOAD PUSH2 0x2AF SWAP2 SWAP1 PUSH2 0x2058 JUMP JUMPDEST PUSH1 0x40 MLOAD DUP1 SWAP2 SUB SWAP1 RETURN JUMPDEST PUSH2 0x2D2 PUSH1 0x4 DUP1 CALLDATASIZE SUB DUP2 ADD SWAP1 PUSH2 0x2CD SWAP2 SWAP1 PUSH2 0x1CD4 JUMP JUMPDEST PUSH2 0x1068 JUMP JUMPDEST STOP JUMPDEST PUSH2 0x2EE PUSH1 0x4 DUP1 CALLDATASIZE SUB DUP2 ADD SWAP1 PUSH2 0x2E9 SWAP2 SWAP1 PUSH2 0x1C27 JUMP JUMPDEST PUSH2 0x1261 JUMP JUMPDEST STOP JUMPDEST PUSH2 0x30A PUSH1 0x4 DUP1 CALLDATASIZE SUB DUP2 ADD SWAP1 PUSH2 0x305 SWAP2 SWAP1 PUSH2 0x1BCD JUMP JUMPDEST PUSH2 0x126D JUMP JUMPDEST STOP JUMPDEST PUSH2 0x326 PUSH1 0x4 DUP1 CALLDATASIZE SUB DUP2 ADD SWAP1 PUSH2 0x321 SWAP2 SWAP1 PUSH2 0x1C54 JUMP JUMPDEST PUSH2 0x13B0 JUMP JUMPDEST STOP JUMPDEST PUSH2 0x342 PUSH1 0x4 DUP1 CALLDATASIZE SUB DUP2 ADD SWAP1 PUSH2 0x33D SWAP2 SWAP1 PUSH2 0x1C27 JUMP JUMPDEST PUSH2 0x14E2 JUMP JUMPDEST PUSH1 0x40 MLOAD PUSH2 0x350 SWAP3 SWAP2 SWAP1 PUSH2 0x20C5 JUMP JUMPDEST PUSH1 0x40 MLOAD DUP1 SWAP2 SUB SWAP1 RETURN JUMPDEST CALLER PUSH20 0xFFFFFFFFFFFFFFFFFFFFFFFFFFFFFFFFFFFFFFFF AND PUSH1 0x1 PUSH1 0x0 SWAP1 SLOAD SWAP1 PUSH2 0x100 EXP SWAP1 DIV PUSH20 0xFFFFFFFFFFFFFFFFFFFFFFFFFFFFFFFFFFFFFFFF AND PUSH20 0xFFFFFFFFFFFFFFFFFFFFFFFFFFFFFFFFFFFFFFFF AND EQ PUSH2 0x3E9 JUMPI PUSH1 0x40 MLOAD PUSH32 0x8C379A000000000000000000000000000000000000000000000000000000000 DUP2 MSTORE PUSH1 0x4 ADD PUSH2 0x3E0 SWAP1 PUSH2 0x21BC JUMP JUMPDEST PUSH1 0x40 MLOAD DUP1 SWAP2 SUB SWAP1 REVERT JUMPDEST PUSH1 0x1 PUSH1 0x0 SWAP1 SLOAD SWAP1 PUSH2 0x100 EXP SWAP1 DIV PUSH20 0xFFFFFFFFFFFFFFFFFFFFFFFFFFFFFFFFFFFFFFFF AND PUSH20 0xFFFFFFFFFFFFFFFFFFFFFFFFFFFFFFFFFFFFFFFF AND SELFDESTRUCT JUMPDEST PUSH1 0x0 DUP1 PUSH1 0x0 SWAP1 SLOAD SWAP1 PUSH2 0x100 EXP SWAP1 DIV PUSH20 0xFFFFFFFFFFFFFFFFFFFFFFFFFFFFFFFFFFFFFFFF AND PUSH20 0xFFFFFFFFFFFFFFFFFFFFFFFFFFFFFFFFFFFFFFFF AND CALLER PUSH20 0xFFFFFFFFFFFFFFFFFFFFFFFFFFFFFFFFFFFFFFFF AND EQ PUSH2 0x4B5 JUMPI PUSH1 0x40 MLOAD PUSH32 0x8C379A000000000000000000000000000000000000000000000000000000000 DUP2 MSTORE PUSH1 0x4 ADD PUSH2 0x4AC SWAP1 PUSH2 0x21FC JUMP JUMPDEST PUSH1 0x40 MLOAD DUP1 SWAP2 SUB SWAP1 REVERT JUMPDEST PUSH2 0x4BF DUP3 DUP5 PUSH2 0x1600 JUMP JUMPDEST SWAP1 POP SWAP3 SWAP2 POP POP JUMP JUMPDEST PUSH1 0x1 DUP1 ISZERO ISZERO PUSH1 0x0 PUSH1 0x14 SWAP1 SLOAD SWAP1 PUSH2 0x100 EXP SWAP1 DIV PUSH1 0xFF AND ISZERO ISZERO EQ PUSH2 0x51E JUMPI PUSH1 0x40 MLOAD PUSH32 0x8C379A000000000000000000000000000000000000000000000000000000000 DUP2 MSTORE PUSH1 0x4 ADD PUSH2 0x515 SWAP1 PUSH2 0x219C JUMP JUMPDEST PUSH1 0x40 MLOAD DUP1 SWAP2 SUB SWAP1 REVERT JUMPDEST CALLER PUSH20 0xFFFFFFFFFFFFFFFFFFFFFFFFFFFFFFFFFFFFFFFF AND PUSH1 0x1 PUSH1 0x0 SWAP1 SLOAD SWAP1 PUSH2 0x100 EXP SWAP1 DIV PUSH20 0xFFFFFFFFFFFFFFFFFFFFFFFFFFFFFFFFFFFFFFFF AND PUSH20 0xFFFFFFFFFFFFFFFFFFFFFFFFFFFFFFFFFFFFFFFF AND EQ PUSH2 0x5AE JUMPI PUSH1 0x40 MLOAD PUSH32 0x8C379A000000000000000000000000000000000000000000000000000000000 DUP2 MSTORE PUSH1 0x4 ADD PUSH2 0x5A5 SWAP1 PUSH2 0x21BC JUMP JUMPDEST PUSH1 0x40 MLOAD DUP1 SWAP2 SUB SWAP1 REVERT JUMPDEST PUSH1 0x0 DUP1 PUSH1 0x14 PUSH2 0x100 EXP DUP2 SLOAD DUP2 PUSH1 0xFF MUL NOT AND SWAP1 DUP4 ISZERO ISZERO MUL OR SWAP1 SSTORE POP POP JUMP JUMPDEST PUSH1 0x0 DUP1 PUSH1 0x0 DUP1 DUP1 ISZERO ISZERO PUSH1 0x0 PUSH1 0x14 SWAP1 SLOAD SWAP1 PUSH2 0x100 EXP SWAP1 DIV PUSH1 0xFF AND ISZERO ISZERO EQ PUSH2 0x626 JUMPI PUSH1 0x40 MLOAD PUSH32 0x8C379A000000000000000000000000000000000000000000000000000000000 DUP2 MSTORE PUSH1 0x4 ADD PUSH2 0x61D SWAP1 PUSH2 0x219C JUMP JUMPDEST PUSH1 0x40 MLOAD DUP1 SWAP2 SUB SWAP1 REVERT JUMPDEST PUSH1 0x4 PUSH1 0x0 DUP7 DUP2 MSTORE PUSH1 0x20 ADD SWAP1 DUP2 MSTORE PUSH1 0x20 ADD PUSH1 0x0 KECCAK256 PUSH1 0x0 ADD SLOAD PUSH1 0x4 PUSH1 0x0 DUP8 DUP2 MSTORE PUSH1 0x20 ADD SWAP1 DUP2 MSTORE PUSH1 0x20 ADD PUSH1 0x0 KECCAK256 PUSH1 0x3 ADD PUSH1 0x0 SWAP1 SLOAD SWAP1 PUSH2 0x100 EXP SWAP1 DIV PUSH20 0xFFFFFFFFFFFFFFFFFFFFFFFFFFFFFFFFFFFFFFFF AND PUSH1 0x4 PUSH1 0x0 DUP9 DUP2 MSTORE PUSH1 0x20 ADD SWAP1 DUP2 MSTORE PUSH1 0x20 ADD PUSH1 0x0 KECCAK256 PUSH1 0x6 ADD PUSH1 0x0 SWAP1 SLOAD SWAP1 PUSH2 0x100 EXP SWAP1 DIV PUSH1 0xFF AND SWAP4 POP SWAP4 POP SWAP4 POP POP SWAP2 SWAP4 SWAP1 SWAP3 POP JUMP JUMPDEST PUSH1 0x0 DUP1 ISZERO ISZERO PUSH1 0x0 PUSH1 0x14 SWAP1 SLOAD SWAP1 PUSH2 0x100 EXP SWAP1 DIV PUSH1 0xFF AND ISZERO ISZERO EQ PUSH2 0x6FD JUMPI PUSH1 0x40 MLOAD PUSH32 0x8C379A000000000000000000000000000000000000000000000000000000000 DUP2 MSTORE PUSH1 0x4 ADD PUSH2 0x6F4 SWAP1 PUSH2 0x219C JUMP JUMPDEST PUSH1 0x40 MLOAD DUP1 SWAP2 SUB SWAP1 REVERT JUMPDEST CALLER PUSH20 0xFFFFFFFFFFFFFFFFFFFFFFFFFFFFFFFFFFFFFFFF AND PUSH1 0x1 PUSH1 0x0 SWAP1 SLOAD SWAP1 PUSH2 0x100 EXP SWAP1 DIV PUSH20 0xFFFFFFFFFFFFFFFFFFFFFFFFFFFFFFFFFFFFFFFF AND PUSH20 0xFFFFFFFFFFFFFFFFFFFFFFFFFFFFFFFFFFFFFFFF AND EQ PUSH2 0x78D JUMPI PUSH1 0x40 MLOAD PUSH32 0x8C379A000000000000000000000000000000000000000000000000000000000 DUP2 MSTORE PUSH1 0x4 ADD PUSH2 0x784 SWAP1 PUSH2 0x21BC JUMP JUMPDEST PUSH1 0x40 MLOAD DUP1 SWAP2 SUB SWAP1 REVERT JUMPDEST PUSH1 0x1 PUSH1 0x0 PUSH1 0x14 PUSH2 0x100 EXP DUP2 SLOAD DUP2 PUSH1 0xFF MUL NOT AND SWAP1 DUP4 ISZERO ISZERO MUL OR SWAP1 SSTORE POP POP JUMP JUMPDEST PUSH1 0x0 DUP1 ISZERO ISZERO PUSH1 0x0 PUSH1 0x14 SWAP1 SLOAD SWAP1 PUSH2 0x100 EXP SWAP1 DIV PUSH1 0xFF AND ISZERO ISZERO EQ PUSH2 0x802 JUMPI PUSH1 0x40 MLOAD PUSH32 0x8C379A000000000000000000000000000000000000000000000000000000000 DUP2 MSTORE PUSH1 0x4 ADD PUSH2 0x7F9 SWAP1 PUSH2 0x219C JUMP JUMPDEST PUSH1 0x40 MLOAD DUP1 SWAP2 SUB SWAP1 REVERT JUMPDEST CALLER PUSH1 0x1 ISZERO ISZERO PUSH1 0x6 PUSH1 0x0 DUP4 PUSH20 0xFFFFFFFFFFFFFFFFFFFFFFFFFFFFFFFFFFFFFFFF AND PUSH20 0xFFFFFFFFFFFFFFFFFFFFFFFFFFFFFFFFFFFFFFFF AND DUP2 MSTORE PUSH1 0x20 ADD SWAP1 DUP2 MSTORE PUSH1 0x20 ADD PUSH1 0x0 KECCAK256 PUSH1 0x0 SWAP1 SLOAD SWAP1 PUSH2 0x100 EXP SWAP1 DIV PUSH1 0xFF AND ISZERO ISZERO EQ PUSH2 0x896 JUMPI PUSH1 0x40 MLOAD PUSH32 0x8C379A000000000000000000000000000000000000000000000000000000000 DUP2 MSTORE PUSH1 0x4 ADD PUSH2 0x88D SWAP1 PUSH2 0x221C JUMP JUMPDEST PUSH1 0x40 MLOAD DUP1 SWAP2 SUB SWAP1 REVERT JUMPDEST PUSH1 0x0 DUP6 PUSH1 0x40 MLOAD PUSH1 0x20 ADD PUSH2 0x8A9 SWAP2 SWAP1 PUSH2 0x2022 JUMP JUMPDEST PUSH1 0x40 MLOAD PUSH1 0x20 DUP2 DUP4 SUB SUB DUP2 MSTORE SWAP1 PUSH1 0x40 MSTORE DUP1 MLOAD SWAP1 PUSH1 0x20 ADD KECCAK256 SWAP1 POP DUP6 PUSH1 0x4 PUSH1 0x0 DUP4 DUP2 MSTORE PUSH1 0x20 ADD SWAP1 DUP2 MSTORE PUSH1 0x20 ADD PUSH1 0x0 KECCAK256 PUSH1 0x0 ADD DUP2 SWAP1 SSTORE POP CALLER PUSH1 0x4 PUSH1 0x0 DUP4 DUP2 MSTORE PUSH1 0x20 ADD SWAP1 DUP2 MSTORE PUSH1 0x20 ADD PUSH1 0x0 KECCAK256 PUSH1 0x3 ADD PUSH1 0x0 PUSH2 0x100 EXP DUP2 SLOAD DUP2 PUSH20 0xFFFFFFFFFFFFFFFFFFFFFFFFFFFFFFFFFFFFFFFF MUL NOT AND SWAP1 DUP4 PUSH20 0xFFFFFFFFFFFFFFFFFFFFFFFFFFFFFFFFFFFFFFFF AND MUL OR SWAP1 SSTORE POP CALLER PUSH1 0x4 PUSH1 0x0 DUP4 DUP2 MSTORE PUSH1 0x20 ADD SWAP1 DUP2 MSTORE PUSH1 0x20 ADD PUSH1 0x0 KECCAK256 PUSH1 0x4 ADD PUSH1 0x0 PUSH2 0x100 EXP DUP2 SLOAD DUP2 PUSH20 0xFFFFFFFFFFFFFFFFFFFFFFFFFFFFFFFFFFFFFFFF MUL NOT AND SWAP1 DUP4 PUSH20 0xFFFFFFFFFFFFFFFFFFFFFFFFFFFFFFFFFFFFFFFF AND MUL OR SWAP1 SSTORE POP DUP5 PUSH1 0x4 PUSH1 0x0 DUP4 DUP2 MSTORE PUSH1 0x20 ADD SWAP1 DUP2 MSTORE PUSH1 0x20 ADD PUSH1 0x0 KECCAK256 PUSH1 0x5 ADD DUP2 SWAP1 SSTORE POP PUSH1 0x1 PUSH1 0x4 PUSH1 0x0 DUP4 DUP2 MSTORE PUSH1 0x20 ADD SWAP1 DUP2 MSTORE PUSH1 0x20 ADD PUSH1 0x0 KECCAK256 PUSH1 0x6 ADD PUSH1 0x0 PUSH2 0x100 EXP DUP2 SLOAD DUP2 PUSH1 0xFF MUL NOT AND SWAP1 DUP4 ISZERO ISZERO MUL OR SWAP1 SSTORE POP DUP4 PUSH1 0x5 PUSH1 0x0 DUP4 DUP2 MSTORE PUSH1 0x20 ADD SWAP1 DUP2 MSTORE PUSH1 0x20 ADD PUSH1 0x0 KECCAK256 SWAP1 DUP1 MLOAD SWAP1 PUSH1 0x20 ADD SWAP1 PUSH2 0x9F7 SWAP3 SWAP2 SWAP1 PUSH2 0x195B JUMP JUMPDEST POP PUSH32 0xEB12AB352EC0628425CB2D83290A1D034ED2D60BA8D5CAF7462E7526CE18D38E DUP2 PUSH1 0x40 MLOAD PUSH2 0xA27 SWAP2 SWAP1 PUSH2 0x2073 JUMP JUMPDEST PUSH1 0x40 MLOAD DUP1 SWAP2 SUB SWAP1 LOG1 POP POP POP POP POP POP JUMP JUMPDEST PUSH1 0x0 DUP1 DUP1 ISZERO ISZERO PUSH1 0x0 PUSH1 0x14 SWAP1 SLOAD SWAP1 PUSH2 0x100 EXP SWAP1 DIV PUSH1 0xFF AND ISZERO ISZERO EQ PUSH2 0xA8F JUMPI PUSH1 0x40 MLOAD PUSH32 0x8C379A000000000000000000000000000000000000000000000000000000000 DUP2 MSTORE PUSH1 0x4 ADD PUSH2 0xA86 SWAP1 PUSH2 0x219C JUMP JUMPDEST PUSH1 0x40 MLOAD DUP1 SWAP2 SUB SWAP1 REVERT JUMPDEST PUSH1 0x4 PUSH1 0x0 DUP5 DUP2 MSTORE PUSH1 0x20 ADD SWAP1 DUP2 MSTORE PUSH1 0x20 ADD PUSH1 0x0 KECCAK256 PUSH1 0x6 ADD PUSH1 0x0 SWAP1 SLOAD SWAP1 PUSH2 0x100 EXP SWAP1 DIV PUSH1 0xFF AND SWAP2 POP POP SWAP2 SWAP1 POP JUMP JUMPDEST PUSH1 0x60 PUSH1 0x0 DUP1 ISZERO ISZERO PUSH1 0x0 PUSH1 0x14 SWAP1 SLOAD SWAP1 PUSH2 0x100 EXP SWAP1 DIV PUSH1 0xFF AND ISZERO ISZERO EQ PUSH2 0xB14 JUMPI PUSH1 0x40 MLOAD PUSH32 0x8C379A000000000000000000000000000000000000000000000000000000000 DUP2 MSTORE PUSH1 0x4 ADD PUSH2 0xB0B SWAP1 PUSH2 0x219C JUMP JUMPDEST PUSH1 0x40 MLOAD DUP1 SWAP2 SUB SWAP1 REVERT JUMPDEST PUSH1 0x5 PUSH1 0x0 DUP5 DUP2 MSTORE PUSH1 0x20 ADD SWAP1 DUP2 MSTORE PUSH1 0x20 ADD PUSH1 0x0 KECCAK256 DUP1 SLOAD PUSH2 0xB32 SWAP1 PUSH2 0x23F3 JUMP JUMPDEST DUP1 PUSH1 0x1F ADD PUSH1 0x20 DUP1 SWAP2 DIV MUL PUSH1 0x20 ADD PUSH1 0x40 MLOAD SWAP1 DUP2 ADD PUSH1 0x40 MSTORE DUP1 SWAP3 SWAP2 SWAP1 DUP2 DUP2 MSTORE PUSH1 0x20 ADD DUP3 DUP1 SLOAD PUSH2 0xB5E SWAP1 PUSH2 0x23F3 JUMP JUMPDEST DUP1 ISZERO PUSH2 0xBAB JUMPI DUP1 PUSH1 0x1F LT PUSH2 0xB80 JUMPI PUSH2 0x100 DUP1 DUP4 SLOAD DIV MUL DUP4 MSTORE SWAP2 PUSH1 0x20 ADD SWAP2 PUSH2 0xBAB JUMP JUMPDEST DUP3 ADD SWAP2 SWAP1 PUSH1 0x0 MSTORE PUSH1 0x20 PUSH1 0x0 KECCAK256 SWAP1 JUMPDEST DUP2 SLOAD DUP2 MSTORE SWAP1 PUSH1 0x1 ADD SWAP1 PUSH1 0x20 ADD DUP1 DUP4 GT PUSH2 0xB8E JUMPI DUP3 SWAP1 SUB PUSH1 0x1F AND DUP3 ADD SWAP2 JUMPDEST POP POP POP POP POP SWAP2 POP POP SWAP2 SWAP1 POP JUMP JUMPDEST PUSH1 0x0 DUP1 DUP1 ISZERO ISZERO PUSH1 0x0 PUSH1 0x14 SWAP1 SLOAD SWAP1 PUSH2 0x100 EXP SWAP1 DIV PUSH1 0xFF AND ISZERO ISZERO EQ PUSH2 0xC10 JUMPI PUSH1 0x40 MLOAD PUSH32 0x8C379A000000000000000000000000000000000000000000000000000000000 DUP2 MSTORE PUSH1 0x4 ADD PUSH2 0xC07 SWAP1 PUSH2 0x219C JUMP JUMPDEST PUSH1 0x40 MLOAD DUP1 SWAP2 SUB SWAP1 REVERT JUMPDEST PUSH1 0x0 PUSH1 0x4 PUSH1 0x0 DUP6 DUP2 MSTORE PUSH1 0x20 ADD SWAP1 DUP2 MSTORE PUSH1 0x20 ADD PUSH1 0x0 KECCAK256 PUSH1 0x1 ADD SLOAD SWAP1 POP PUSH1 0x0 PUSH1 0x4 PUSH1 0x0 DUP7 DUP2 MSTORE PUSH1 0x20 ADD SWAP1 DUP2 MSTORE PUSH1 0x20 ADD PUSH1 0x0 KECCAK256 PUSH1 0x2 ADD DUP1 SLOAD PUSH2 0xC4E SWAP1 PUSH2 0x23F3 JUMP JUMPDEST DUP1 PUSH1 0x1F ADD PUSH1 0x20 DUP1 SWAP2 DIV MUL PUSH1 0x20 ADD PUSH1 0x40 MLOAD SWAP1 DUP2 ADD PUSH1 0x40 MSTORE DUP1 SWAP3 SWAP2 SWAP1 DUP2 DUP2 MSTORE PUSH1 0x20 ADD DUP3 DUP1 SLOAD PUSH2 0xC7A SWAP1 PUSH2 0x23F3 JUMP JUMPDEST DUP1 ISZERO PUSH2 0xCC7 JUMPI DUP1 PUSH1 0x1F LT PUSH2 0xC9C JUMPI PUSH2 0x100 DUP1 DUP4 SLOAD DIV MUL DUP4 MSTORE SWAP2 PUSH1 0x20 ADD SWAP2 PUSH2 0xCC7 JUMP JUMPDEST DUP3 ADD SWAP2 SWAP1 PUSH1 0x0 MSTORE PUSH1 0x20 PUSH1 0x0 KECCAK256 SWAP1 JUMPDEST DUP2 SLOAD DUP2 MSTORE SWAP1 PUSH1 0x1 ADD SWAP1 PUSH1 0x20 ADD DUP1 DUP4 GT PUSH2 0xCAA JUMPI DUP3 SWAP1 SUB PUSH1 0x1F AND DUP3 ADD SWAP2 JUMPDEST POP POP POP POP POP SWAP1 POP PUSH1 0x0 PUSH2 0xCDA DUP4 DUP4 PUSH2 0x1614 JUMP JUMPDEST SWAP1 POP PUSH1 0x1 ISZERO ISZERO PUSH2 0xCE9 DUP3 PUSH2 0x16E7 JUMP JUMPDEST ISZERO ISZERO EQ ISZERO PUSH2 0xCFD JUMPI PUSH1 0x1 SWAP5 POP POP POP POP PUSH2 0xD05 JUMP JUMPDEST PUSH1 0x0 SWAP5 POP POP POP POP JUMPDEST POP SWAP2 SWAP1 POP JUMP JUMPDEST PUSH1 0x0 DUP1 ISZERO ISZERO PUSH1 0x0 PUSH1 0x14 SWAP1 SLOAD SWAP1 PUSH2 0x100 EXP SWAP1 DIV PUSH1 0xFF AND ISZERO ISZERO EQ PUSH2 0xD62 JUMPI PUSH1 0x40 MLOAD PUSH32 0x8C379A000000000000000000000000000000000000000000000000000000000 DUP2 MSTORE PUSH1 0x4 ADD PUSH2 0xD59 SWAP1 PUSH2 0x219C JUMP JUMPDEST PUSH1 0x40 MLOAD DUP1 SWAP2 SUB SWAP1 REVERT JUMPDEST CALLER DUP5 CALLER PUSH20 0xFFFFFFFFFFFFFFFFFFFFFFFFFFFFFFFFFFFFFFFF AND PUSH1 0x4 PUSH1 0x0 DUP4 DUP2 MSTORE PUSH1 0x20 ADD SWAP1 DUP2 MSTORE PUSH1 0x20 ADD PUSH1 0x0 KECCAK256 PUSH1 0x3 ADD PUSH1 0x0 SWAP1 SLOAD SWAP1 PUSH2 0x100 EXP SWAP1 DIV PUSH20 0xFFFFFFFFFFFFFFFFFFFFFFFFFFFFFFFFFFFFFFFF AND PUSH20 0xFFFFFFFFFFFFFFFFFFFFFFFFFFFFFFFFFFFFFFFF AND EQ PUSH2 0xE08 JUMPI PUSH1 0x40 MLOAD PUSH32 0x8C379A000000000000000000000000000000000000000000000000000000000 DUP2 MSTORE PUSH1 0x4 ADD PUSH2 0xDFF SWAP1 PUSH2 0x215C JUMP JUMPDEST PUSH1 0x40 MLOAD DUP1 SWAP2 SUB SWAP1 REVERT JUMPDEST PUSH1 0x4 PUSH1 0x0 DUP8 DUP2 MSTORE PUSH1 0x20 ADD SWAP1 DUP2 MSTORE PUSH1 0x20 ADD PUSH1 0x0 KECCAK256 PUSH1 0x3 ADD PUSH1 0x0 SWAP1 SLOAD SWAP1 PUSH2 0x100 EXP SWAP1 DIV PUSH20 0xFFFFFFFFFFFFFFFFFFFFFFFFFFFFFFFFFFFFFFFF AND PUSH20 0xFFFFFFFFFFFFFFFFFFFFFFFFFFFFFFFFFFFFFFFF AND PUSH1 0x4 PUSH1 0x0 DUP9 DUP2 MSTORE PUSH1 0x20 ADD SWAP1 DUP2 MSTORE PUSH1 0x20 ADD PUSH1 0x0 KECCAK256 PUSH1 0x4 ADD PUSH1 0x0 SWAP1 SLOAD SWAP1 PUSH2 0x100 EXP SWAP1 DIV PUSH20 0xFFFFFFFFFFFFFFFFFFFFFFFFFFFFFFFFFFFFFFFF AND PUSH20 0xFFFFFFFFFFFFFFFFFFFFFFFFFFFFFFFFFFFFFFFF AND EQ PUSH2 0xEE2 JUMPI PUSH1 0x40 MLOAD PUSH32 0x8C379A000000000000000000000000000000000000000000000000000000000 DUP2 MSTORE PUSH1 0x4 ADD PUSH2 0xED9 SWAP1 PUSH2 0x223C JUMP JUMPDEST PUSH1 0x40 MLOAD DUP1 SWAP2 SUB SWAP1 REVERT JUMPDEST DUP5 PUSH1 0x4 PUSH1 0x0 DUP9 DUP2 MSTORE PUSH1 0x20 ADD SWAP1 DUP2 MSTORE PUSH1 0x20 ADD PUSH1 0x0 KECCAK256 PUSH1 0x1 ADD DUP2 SWAP1 SSTORE POP DUP4 PUSH1 0x4 PUSH1 0x0 DUP9 DUP2 MSTORE PUSH1 0x20 ADD SWAP1 DUP2 MSTORE PUSH1 0x20 ADD PUSH1 0x0 KECCAK256 PUSH1 0x2 ADD SWAP1 DUP1 MLOAD SWAP1 PUSH1 0x20 ADD SWAP1 PUSH2 0xF27 SWAP3 SWAP2 SWAP1 PUSH2 0x19E1 JUMP JUMPDEST POP POP POP POP POP POP POP JUMP JUMPDEST PUSH1 0x0 DUP1 DUP1 ISZERO ISZERO PUSH1 0x0 PUSH1 0x14 SWAP1 SLOAD SWAP1 PUSH2 0x100 EXP SWAP1 DIV PUSH1 0xFF AND ISZERO ISZERO EQ PUSH2 0xF88 JUMPI PUSH1 0x40 MLOAD PUSH32 0x8C379A000000000000000000000000000000000000000000000000000000000 DUP2 MSTORE PUSH1 0x4 ADD PUSH2 0xF7F SWAP1 PUSH2 0x219C JUMP JUMPDEST PUSH1 0x40 MLOAD DUP1 SWAP2 SUB SWAP1 REVERT JUMPDEST DUP3 PUSH1 0x4 PUSH1 0x0 DUP7 DUP2 MSTORE PUSH1 0x20 ADD SWAP1 DUP2 MSTORE PUSH1 0x20 ADD PUSH1 0x0 KECCAK256 PUSH1 0x0 ADD SLOAD EQ ISZERO PUSH2 0xFAF JUMPI PUSH1 0x1 SWAP2 POP PUSH2 0xFB4 JUMP JUMPDEST PUSH1 0x0 SWAP2 POP JUMPDEST POP SWAP3 SWAP2 POP POP JUMP JUMPDEST PUSH1 0x0 DUP1 DUP1 ISZERO ISZERO PUSH1 0x0 PUSH1 0x14 SWAP1 SLOAD SWAP1 PUSH2 0x100 EXP SWAP1 DIV PUSH1 0xFF AND ISZERO ISZERO EQ PUSH2 0x1013 JUMPI PUSH1 0x40 MLOAD PUSH32 0x8C379A000000000000000000000000000000000000000000000000000000000 DUP2 MSTORE PUSH1 0x4 ADD PUSH2 0x100A SWAP1 PUSH2 0x219C JUMP JUMPDEST PUSH1 0x40 MLOAD DUP1 SWAP2 SUB SWAP1 REVERT JUMPDEST PUSH1 0x6 PUSH1 0x0 DUP5 PUSH20 0xFFFFFFFFFFFFFFFFFFFFFFFFFFFFFFFFFFFFFFFF AND PUSH20 0xFFFFFFFFFFFFFFFFFFFFFFFFFFFFFFFFFFFFFFFF AND DUP2 MSTORE PUSH1 0x20 ADD SWAP1 DUP2 MSTORE PUSH1 0x20 ADD PUSH1 0x0 KECCAK256 PUSH1 0x0 SWAP1 SLOAD SWAP1 PUSH2 0x100 EXP SWAP1 DIV PUSH1 0xFF AND SWAP2 POP POP SWAP2 SWAP1 POP JUMP JUMPDEST PUSH1 0x0 DUP1 ISZERO ISZERO PUSH1 0x0 PUSH1 0x14 SWAP1 SLOAD SWAP1 PUSH2 0x100 EXP SWAP1 DIV PUSH1 0xFF AND ISZERO ISZERO EQ PUSH2 0x10BF JUMPI PUSH1 0x40 MLOAD PUSH32 0x8C379A000000000000000000000000000000000000000000000000000000000 DUP2 MSTORE PUSH1 0x4 ADD PUSH2 0x10B6 SWAP1 PUSH2 0x219C JUMP JUMPDEST PUSH1 0x40 MLOAD DUP1 SWAP2 SUB SWAP1 REVERT JUMPDEST CALLER DUP5 CALLER PUSH20 0xFFFFFFFFFFFFFFFFFFFFFFFFFFFFFFFFFFFFFFFF AND PUSH1 0x4 PUSH1 0x0 DUP4 DUP2 MSTORE PUSH1 0x20 ADD SWAP1 DUP2 MSTORE PUSH1 0x20 ADD PUSH1 0x0 KECCAK256 PUSH1 0x3 ADD PUSH1 0x0 SWAP1 SLOAD SWAP1 PUSH2 0x100 EXP SWAP1 DIV PUSH20 0xFFFFFFFFFFFFFFFFFFFFFFFFFFFFFFFFFFFFFFFF AND PUSH20 0xFFFFFFFFFFFFFFFFFFFFFFFFFFFFFFFFFFFFFFFF AND EQ PUSH2 0x1165 JUMPI PUSH1 0x40 MLOAD PUSH32 0x8C379A000000000000000000000000000000000000000000000000000000000 DUP2 MSTORE PUSH1 0x4 ADD PUSH2 0x115C SWAP1 PUSH2 0x215C JUMP JUMPDEST PUSH1 0x40 MLOAD DUP1 SWAP2 SUB SWAP1 REVERT JUMPDEST PUSH1 0x1 ISZERO ISZERO PUSH2 0x1173 DUP8 DUP8 PUSH2 0xF30 JUMP JUMPDEST ISZERO ISZERO EQ PUSH2 0x11B5 JUMPI PUSH1 0x40 MLOAD PUSH32 0x8C379A000000000000000000000000000000000000000000000000000000000 DUP2 MSTORE PUSH1 0x4 ADD PUSH2 0x11AC SWAP1 PUSH2 0x217C JUMP JUMPDEST PUSH1 0x40 MLOAD DUP1 SWAP2 SUB SWAP1 REVERT JUMPDEST PUSH1 0x1 ISZERO ISZERO PUSH2 0x11C2 DUP8 PUSH2 0xBB8 JUMP JUMPDEST ISZERO ISZERO EQ PUSH2 0x1204 JUMPI PUSH1 0x40 MLOAD PUSH32 0x8C379A000000000000000000000000000000000000000000000000000000000 DUP2 MSTORE PUSH1 0x4 ADD PUSH2 0x11FB SWAP1 PUSH2 0x21DC JUMP JUMPDEST PUSH1 0x40 MLOAD DUP1 SWAP2 SUB SWAP1 REVERT JUMPDEST DUP4 PUSH1 0x4 PUSH1 0x0 DUP9 DUP2 MSTORE PUSH1 0x20 ADD SWAP1 DUP2 MSTORE PUSH1 0x20 ADD PUSH1 0x0 KECCAK256 PUSH1 0x3 ADD PUSH1 0x0 PUSH2 0x100 EXP DUP2 SLOAD DUP2 PUSH20 0xFFFFFFFFFFFFFFFFFFFFFFFFFFFFFFFFFFFFFFFF MUL NOT AND SWAP1 DUP4 PUSH20 0xFFFFFFFFFFFFFFFFFFFFFFFFFFFFFFFFFFFFFFFF AND MUL OR SWAP1 SSTORE POP POP POP POP POP POP POP JUMP JUMPDEST PUSH2 0x126A DUP2 PUSH2 0x17A0 JUMP JUMPDEST POP JUMP JUMPDEST PUSH1 0x0 DUP1 ISZERO ISZERO PUSH1 0x0 PUSH1 0x14 SWAP1 SLOAD SWAP1 PUSH2 0x100 EXP SWAP1 DIV PUSH1 0xFF AND ISZERO ISZERO EQ PUSH2 0x12C4 JUMPI PUSH1 0x40 MLOAD PUSH32 0x8C379A000000000000000000000000000000000000000000000000000000000 DUP2 MSTORE PUSH1 0x4 ADD PUSH2 0x12BB SWAP1 PUSH2 0x219C JUMP JUMPDEST PUSH1 0x40 MLOAD DUP1 SWAP2 SUB SWAP1 REVERT JUMPDEST CALLER PUSH20 0xFFFFFFFFFFFFFFFFFFFFFFFFFFFFFFFFFFFFFFFF AND PUSH1 0x1 PUSH1 0x0 SWAP1 SLOAD SWAP1 PUSH2 0x100 EXP SWAP1 DIV PUSH20 0xFFFFFFFFFFFFFFFFFFFFFFFFFFFFFFFFFFFFFFFF AND PUSH20 0xFFFFFFFFFFFFFFFFFFFFFFFFFFFFFFFFFFFFFFFF AND EQ PUSH2 0x1354 JUMPI PUSH1 0x40 MLOAD PUSH32 0x8C379A000000000000000000000000000000000000000000000000000000000 DUP2 MSTORE PUSH1 0x4 ADD PUSH2 0x134B SWAP1 PUSH2 0x21BC JUMP JUMPDEST PUSH1 0x40 MLOAD DUP1 SWAP2 SUB SWAP1 REVERT JUMPDEST PUSH1 0x1 PUSH1 0x6 PUSH1 0x0 DUP5 PUSH20 0xFFFFFFFFFFFFFFFFFFFFFFFFFFFFFFFFFFFFFFFF AND PUSH20 0xFFFFFFFFFFFFFFFFFFFFFFFFFFFFFFFFFFFFFFFF AND DUP2 MSTORE PUSH1 0x20 ADD SWAP1 DUP2 MSTORE PUSH1 0x20 ADD PUSH1 0x0 KECCAK256 PUSH1 0x0 PUSH2 0x100 EXP DUP2 SLOAD DUP2 PUSH1 0xFF MUL NOT AND SWAP1 DUP4 ISZERO ISZERO MUL OR SWAP1 SSTORE POP POP POP JUMP JUMPDEST PUSH1 0x0 DUP1 ISZERO ISZERO PUSH1 0x0 PUSH1 0x14 SWAP1 SLOAD SWAP1 PUSH2 0x100 EXP SWAP1 DIV PUSH1 0xFF AND ISZERO ISZERO EQ PUSH2 0x1407 JUMPI PUSH1 0x40 MLOAD PUSH32 0x8C379A000000000000000000000000000000000000000000000000000000000 DUP2 MSTORE PUSH1 0x4 ADD PUSH2 0x13FE SWAP1 PUSH2 0x219C JUMP JUMPDEST PUSH1 0x40 MLOAD DUP1 SWAP2 SUB SWAP1 REVERT JUMPDEST CALLER DUP4 CALLER PUSH20 0xFFFFFFFFFFFFFFFFFFFFFFFFFFFFFFFFFFFFFFFF AND PUSH1 0x4 PUSH1 0x0 DUP4 DUP2 MSTORE PUSH1 0x20 ADD SWAP1 DUP2 MSTORE PUSH1 0x20 ADD PUSH1 0x0 KECCAK256 PUSH1 0x3 ADD PUSH1 0x0 SWAP1 SLOAD SWAP1 PUSH2 0x100 EXP SWAP1 DIV PUSH20 0xFFFFFFFFFFFFFFFFFFFFFFFFFFFFFFFFFFFFFFFF AND PUSH20 0xFFFFFFFFFFFFFFFFFFFFFFFFFFFFFFFFFFFFFFFF AND EQ PUSH2 0x14AD JUMPI PUSH1 0x40 MLOAD PUSH32 0x8C379A000000000000000000000000000000000000000000000000000000000 DUP2 MSTORE PUSH1 0x4 ADD PUSH2 0x14A4 SWAP1 PUSH2 0x215C JUMP JUMPDEST PUSH1 0x40 MLOAD DUP1 SWAP2 SUB SWAP1 REVERT JUMPDEST DUP4 PUSH1 0x4 PUSH1 0x0 DUP8 DUP2 MSTORE PUSH1 0x20 ADD SWAP1 DUP2 MSTORE PUSH1 0x20 ADD PUSH1 0x0 KECCAK256 PUSH1 0x6 ADD PUSH1 0x0 PUSH2 0x100 EXP DUP2 SLOAD DUP2 PUSH1 0xFF MUL NOT AND SWAP1 DUP4 ISZERO ISZERO MUL OR SWAP1 SSTORE POP POP POP POP POP POP JUMP JUMPDEST PUSH1 0x0 PUSH1 0x60 PUSH1 0x0 DUP1 ISZERO ISZERO PUSH1 0x0 PUSH1 0x14 SWAP1 SLOAD SWAP1 PUSH2 0x100 EXP SWAP1 DIV PUSH1 0xFF AND ISZERO ISZERO EQ PUSH2 0x153D JUMPI PUSH1 0x40 MLOAD PUSH32 0x8C379A000000000000000000000000000000000000000000000000000000000 DUP2 MSTORE PUSH1 0x4 ADD PUSH2 0x1534 SWAP1 PUSH2 0x219C JUMP JUMPDEST PUSH1 0x40 MLOAD DUP1 SWAP2 SUB SWAP1 REVERT JUMPDEST PUSH1 0x4 PUSH1 0x0 DUP6 DUP2 MSTORE PUSH1 0x20 ADD SWAP1 DUP2 MSTORE PUSH1 0x20 ADD PUSH1 0x0 KECCAK256 PUSH1 0x1 ADD SLOAD PUSH1 0x4 PUSH1 0x0 DUP7 DUP2 MSTORE PUSH1 0x20 ADD SWAP1 DUP2 MSTORE PUSH1 0x20 ADD PUSH1 0x0 KECCAK256 PUSH1 0x2 ADD DUP1 DUP1 SLOAD PUSH2 0x1576 SWAP1 PUSH2 0x23F3 JUMP JUMPDEST DUP1 PUSH1 0x1F ADD PUSH1 0x20 DUP1 SWAP2 DIV MUL PUSH1 0x20 ADD PUSH1 0x40 MLOAD SWAP1 DUP2 ADD PUSH1 0x40 MSTORE DUP1 SWAP3 SWAP2 SWAP1 DUP2 DUP2 MSTORE PUSH1 0x20 ADD DUP3 DUP1 SLOAD PUSH2 0x15A2 SWAP1 PUSH2 0x23F3 JUMP JUMPDEST DUP1 ISZERO PUSH2 0x15EF JUMPI DUP1 PUSH1 0x1F LT PUSH2 0x15C4 JUMPI PUSH2 0x100 DUP1 DUP4 SLOAD DIV MUL DUP4 MSTORE SWAP2 PUSH1 0x20 ADD SWAP2 PUSH2 0x15EF JUMP JUMPDEST DUP3 ADD SWAP2 SWAP1 PUSH1 0x0 MSTORE PUSH1 0x20 PUSH1 0x0 KECCAK256 SWAP1 JUMPDEST DUP2 SLOAD DUP2 MSTORE SWAP1 PUSH1 0x1 ADD SWAP1 PUSH1 0x20 ADD DUP1 DUP4 GT PUSH2 0x15D2 JUMPI DUP3 SWAP1 SUB PUSH1 0x1F AND DUP3 ADD SWAP2 JUMPDEST POP POP POP POP POP SWAP1 POP SWAP3 POP SWAP3 POP POP SWAP2 POP SWAP2 JUMP JUMPDEST PUSH1 0x0 PUSH2 0x160C DUP4 DUP4 PUSH2 0x182E JUMP JUMPDEST SWAP1 POP SWAP3 SWAP2 POP POP JUMP JUMPDEST PUSH1 0x0 DUP1 PUSH1 0x0 DUP1 PUSH1 0x41 DUP6 MLOAD EQ PUSH2 0x162F JUMPI PUSH1 0x0 SWAP4 POP POP POP POP PUSH2 0x16E1 JUMP JUMPDEST PUSH1 0x20 DUP6 ADD MLOAD SWAP3 POP PUSH1 0x40 DUP6 ADD MLOAD SWAP2 POP PUSH1 0x60 DUP6 ADD MLOAD PUSH1 0x0 BYTE SWAP1 POP PUSH1 0x1B DUP2 PUSH1 0xFF AND LT ISZERO PUSH2 0x1663 JUMPI PUSH1 0x1B DUP2 PUSH2 0x1660 SWAP2 SWAP1 PUSH2 0x231B JUMP JUMPDEST SWAP1 POP JUMPDEST PUSH1 0x1B DUP2 PUSH1 0xFF AND EQ ISZERO DUP1 ISZERO PUSH2 0x167B JUMPI POP PUSH1 0x1C DUP2 PUSH1 0xFF AND EQ ISZERO JUMPDEST ISZERO PUSH2 0x168C JUMPI PUSH1 0x0 SWAP4 POP POP POP POP PUSH2 0x16E1 JUMP JUMPDEST PUSH1 0x1 DUP7 DUP3 DUP6 DUP6 PUSH1 0x40 MLOAD PUSH1 0x0 DUP2 MSTORE PUSH1 0x20 ADD PUSH1 0x40 MSTORE PUSH1 0x40 MLOAD PUSH2 0x16AF SWAP5 SWAP4 SWAP3 SWAP2 SWAP1 PUSH2 0x20F5 JUMP JUMPDEST PUSH1 0x20 PUSH1 0x40 MLOAD PUSH1 0x20 DUP2 SUB SWAP1 DUP1 DUP5 SUB SWAP1 DUP6 GAS STATICCALL ISZERO DUP1 ISZERO PUSH2 0x16D1 JUMPI RETURNDATASIZE PUSH1 0x0 DUP1 RETURNDATACOPY RETURNDATASIZE PUSH1 0x0 REVERT JUMPDEST POP POP POP PUSH1 0x20 PUSH1 0x40 MLOAD SUB MLOAD SWAP4 POP POP POP POP JUMPDEST SWAP3 SWAP2 POP POP JUMP JUMPDEST PUSH1 0x0 DUP1 PUSH1 0x2 PUSH1 0x0 SWAP1 SLOAD SWAP1 PUSH2 0x100 EXP SWAP1 DIV PUSH20 0xFFFFFFFFFFFFFFFFFFFFFFFFFFFFFFFFFFFFFFFF AND SWAP1 POP DUP1 PUSH20 0xFFFFFFFFFFFFFFFFFFFFFFFFFFFFFFFFFFFFFFFF AND PUSH4 0x6AF92956 DUP5 PUSH1 0x40 MLOAD DUP3 PUSH4 0xFFFFFFFF AND PUSH1 0xE0 SHL DUP2 MSTORE PUSH1 0x4 ADD PUSH2 0x1748 SWAP2 SWAP1 PUSH2 0x203D JUMP JUMPDEST PUSH1 0x20 PUSH1 0x40 MLOAD DUP1 DUP4 SUB DUP2 DUP7 DUP1 EXTCODESIZE ISZERO DUP1 ISZERO PUSH2 0x1760 JUMPI PUSH1 0x0 DUP1 REVERT JUMPDEST POP GAS STATICCALL ISZERO DUP1 ISZERO PUSH2 0x1774 JUMPI RETURNDATASIZE PUSH1 0x0 DUP1 RETURNDATACOPY RETURNDATASIZE PUSH1 0x0 REVERT JUMPDEST POP POP POP POP PUSH1 0x40 MLOAD RETURNDATASIZE PUSH1 0x1F NOT PUSH1 0x1F DUP3 ADD AND DUP3 ADD DUP1 PUSH1 0x40 MSTORE POP DUP2 ADD SWAP1 PUSH2 0x1798 SWAP2 SWAP1 PUSH2 0x1BFA JUMP JUMPDEST SWAP2 POP POP SWAP2 SWAP1 POP JUMP JUMPDEST PUSH1 0x0 DUP1 SLOAD SWAP1 PUSH2 0x100 EXP SWAP1 DIV PUSH20 0xFFFFFFFFFFFFFFFFFFFFFFFFFFFFFFFFFFFFFFFF AND PUSH20 0xFFFFFFFFFFFFFFFFFFFFFFFFFFFFFFFFFFFFFFFF AND PUSH4 0x3661346B DUP3 PUSH1 0x40 MLOAD DUP3 PUSH4 0xFFFFFFFF AND PUSH1 0xE0 SHL DUP2 MSTORE PUSH1 0x4 ADD PUSH2 0x17F9 SWAP2 SWAP1 PUSH2 0x2073 JUMP JUMPDEST PUSH1 0x0 PUSH1 0x40 MLOAD DUP1 DUP4 SUB DUP2 PUSH1 0x0 DUP8 DUP1 EXTCODESIZE ISZERO DUP1 ISZERO PUSH2 0x1813 JUMPI PUSH1 0x0 DUP1 REVERT JUMPDEST POP GAS CALL ISZERO DUP1 ISZERO PUSH2 0x1827 JUMPI RETURNDATASIZE PUSH1 0x0 DUP1 RETURNDATACOPY RETURNDATASIZE PUSH1 0x0 REVERT JUMPDEST POP POP POP POP POP JUMP JUMPDEST PUSH1 0x0 DUP1 DUP1 ISZERO ISZERO PUSH1 0x0 PUSH1 0x14 SWAP1 SLOAD SWAP1 PUSH2 0x100 EXP SWAP1 DIV PUSH1 0xFF AND ISZERO ISZERO EQ PUSH2 0x1886 JUMPI PUSH1 0x40 MLOAD PUSH32 0x8C379A000000000000000000000000000000000000000000000000000000000 DUP2 MSTORE PUSH1 0x4 ADD PUSH2 0x187D SWAP1 PUSH2 0x219C JUMP JUMPDEST PUSH1 0x40 MLOAD DUP1 SWAP2 SUB SWAP1 REVERT JUMPDEST PUSH1 0x4 PUSH1 0x0 DUP6 DUP2 MSTORE PUSH1 0x20 ADD SWAP1 DUP2 MSTORE PUSH1 0x20 ADD PUSH1 0x0 KECCAK256 PUSH1 0x5 ADD SLOAD DUP4 GT ISZERO PUSH2 0x18D4 JUMPI PUSH1 0x0 PUSH1 0x4 PUSH1 0x0 DUP7 DUP2 MSTORE PUSH1 0x20 ADD SWAP1 DUP2 MSTORE PUSH1 0x20 ADD PUSH1 0x0 KECCAK256 PUSH1 0x6 ADD PUSH1 0x0 PUSH2 0x100 EXP DUP2 SLOAD DUP2 PUSH1 0xFF MUL NOT AND SWAP1 DUP4 ISZERO ISZERO MUL OR SWAP1 SSTORE POP JUMPDEST PUSH32 0x8FADD6F505628CD2C13E5786C730C9D6E57EB96632E17FF196AD26F99CEC6152 PUSH1 0x4 PUSH1 0x0 DUP7 DUP2 MSTORE PUSH1 0x20 ADD SWAP1 DUP2 MSTORE PUSH1 0x20 ADD PUSH1 0x0 KECCAK256 PUSH1 0x6 ADD PUSH1 0x0 SWAP1 SLOAD SWAP1 PUSH2 0x100 EXP SWAP1 DIV PUSH1 0xFF AND PUSH1 0x40 MLOAD PUSH2 0x1926 SWAP2 SWAP1 PUSH2 0x2058 JUMP JUMPDEST PUSH1 0x40 MLOAD DUP1 SWAP2 SUB SWAP1 LOG1 PUSH1 0x4 PUSH1 0x0 DUP6 DUP2 MSTORE PUSH1 0x20 ADD SWAP1 DUP2 MSTORE PUSH1 0x20 ADD PUSH1 0x0 KECCAK256 PUSH1 0x6 ADD PUSH1 0x0 SWAP1 SLOAD SWAP1 PUSH2 0x100 EXP SWAP1 DIV PUSH1 0xFF AND SWAP2 POP POP SWAP3 SWAP2 POP POP JUMP JUMPDEST DUP3 DUP1 SLOAD PUSH2 0x1967 SWAP1 PUSH2 0x23F3 JUMP JUMPDEST SWAP1 PUSH1 0x0 MSTORE PUSH1 0x20 PUSH1 0x0 KECCAK256 SWAP1 PUSH1 0x1F ADD PUSH1 0x20 SWAP1 DIV DUP2 ADD SWAP3 DUP3 PUSH2 0x1989 JUMPI PUSH1 0x0 DUP6 SSTORE PUSH2 0x19D0 JUMP JUMPDEST DUP3 PUSH1 0x1F LT PUSH2 0x19A2 JUMPI DUP1 MLOAD PUSH1 0xFF NOT AND DUP4 DUP1 ADD OR DUP6 SSTORE PUSH2 0x19D0 JUMP JUMPDEST DUP3 DUP1 ADD PUSH1 0x1 ADD DUP6 SSTORE DUP3 ISZERO PUSH2 0x19D0 JUMPI SWAP2 DUP3 ADD JUMPDEST DUP3 DUP2 GT ISZERO PUSH2 0x19CF JUMPI DUP3 MLOAD DUP3 SSTORE SWAP2 PUSH1 0x20 ADD SWAP2 SWAP1 PUSH1 0x1 ADD SWAP1 PUSH2 0x19B4 JUMP JUMPDEST JUMPDEST POP SWAP1 POP PUSH2 0x19DD SWAP2 SWAP1 PUSH2 0x1A67 JUMP JUMPDEST POP SWAP1 JUMP JUMPDEST DUP3 DUP1 SLOAD PUSH2 0x19ED SWAP1 PUSH2 0x23F3 JUMP JUMPDEST SWAP1 PUSH1 0x0 MSTORE PUSH1 0x20 PUSH1 0x0 KECCAK256 SWAP1 PUSH1 0x1F ADD PUSH1 0x20 SWAP1 DIV DUP2 ADD SWAP3 DUP3 PUSH2 0x1A0F JUMPI PUSH1 0x0 DUP6 SSTORE PUSH2 0x1A56 JUMP JUMPDEST DUP3 PUSH1 0x1F LT PUSH2 0x1A28 JUMPI DUP1 MLOAD PUSH1 0xFF NOT AND DUP4 DUP1 ADD OR DUP6 SSTORE PUSH2 0x1A56 JUMP JUMPDEST DUP3 DUP1 ADD PUSH1 0x1 ADD DUP6 SSTORE DUP3 ISZERO PUSH2 0x1A56 JUMPI SWAP2 DUP3 ADD JUMPDEST DUP3 DUP2 GT ISZERO PUSH2 0x1A55 JUMPI DUP3 MLOAD DUP3 SSTORE SWAP2 PUSH1 0x20 ADD SWAP2 SWAP1 PUSH1 0x1 ADD SWAP1 PUSH2 0x1A3A JUMP JUMPDEST JUMPDEST POP SWAP1 POP PUSH2 0x1A63 SWAP2 SWAP1 PUSH2 0x1A67 JUMP JUMPDEST POP SWAP1 JUMP JUMPDEST JUMPDEST DUP1 DUP3 GT ISZERO PUSH2 0x1A80 JUMPI PUSH1 0x0 DUP2 PUSH1 0x0 SWAP1 SSTORE POP PUSH1 0x1 ADD PUSH2 0x1A68 JUMP JUMPDEST POP SWAP1 JUMP JUMPDEST PUSH1 0x0 PUSH2 0x1A97 PUSH2 0x1A92 DUP5 PUSH2 0x2281 JUMP JUMPDEST PUSH2 0x225C JUMP JUMPDEST SWAP1 POP DUP3 DUP2 MSTORE PUSH1 0x20 DUP2 ADD DUP5 DUP5 DUP5 ADD GT ISZERO PUSH2 0x1AB3 JUMPI PUSH2 0x1AB2 PUSH2 0x24F2 JUMP JUMPDEST JUMPDEST PUSH2 0x1ABE DUP5 DUP3 DUP6 PUSH2 0x23B1 JUMP JUMPDEST POP SWAP4 SWAP3 POP POP POP JUMP JUMPDEST PUSH1 0x0 PUSH2 0x1AD9 PUSH2 0x1AD4 DUP5 PUSH2 0x22B2 JUMP JUMPDEST PUSH2 0x225C JUMP JUMPDEST SWAP1 POP DUP3 DUP2 MSTORE PUSH1 0x20 DUP2 ADD DUP5 DUP5 DUP5 ADD GT ISZERO PUSH2 0x1AF5 JUMPI PUSH2 0x1AF4 PUSH2 0x24F2 JUMP JUMPDEST JUMPDEST PUSH2 0x1B00 DUP5 DUP3 DUP6 PUSH2 0x23B1 JUMP JUMPDEST POP SWAP4 SWAP3 POP POP POP JUMP JUMPDEST PUSH1 0x0 DUP2 CALLDATALOAD SWAP1 POP PUSH2 0x1B17 DUP2 PUSH2 0x2718 JUMP JUMPDEST SWAP3 SWAP2 POP POP JUMP JUMPDEST PUSH1 0x0 DUP2 CALLDATALOAD SWAP1 POP PUSH2 0x1B2C DUP2 PUSH2 0x272F JUMP JUMPDEST SWAP3 SWAP2 POP POP JUMP JUMPDEST PUSH1 0x0 DUP2 MLOAD SWAP1 POP PUSH2 0x1B41 DUP2 PUSH2 0x272F JUMP JUMPDEST SWAP3 SWAP2 POP POP JUMP JUMPDEST PUSH1 0x0 DUP2 CALLDATALOAD SWAP1 POP PUSH2 0x1B56 DUP2 PUSH2 0x2746 JUMP JUMPDEST SWAP3 SWAP2 POP POP JUMP JUMPDEST PUSH1 0x0 DUP3 PUSH1 0x1F DUP4 ADD SLT PUSH2 0x1B71 JUMPI PUSH2 0x1B70 PUSH2 0x24ED JUMP JUMPDEST JUMPDEST DUP2 CALLDATALOAD PUSH2 0x1B81 DUP5 DUP3 PUSH1 0x20 DUP7 ADD PUSH2 0x1A84 JUMP JUMPDEST SWAP2 POP POP SWAP3 SWAP2 POP POP JUMP JUMPDEST PUSH1 0x0 DUP3 PUSH1 0x1F DUP4 ADD SLT PUSH2 0x1B9F JUMPI PUSH2 0x1B9E PUSH2 0x24ED JUMP JUMPDEST JUMPDEST DUP2 CALLDATALOAD PUSH2 0x1BAF DUP5 DUP3 PUSH1 0x20 DUP7 ADD PUSH2 0x1AC6 JUMP JUMPDEST SWAP2 POP POP SWAP3 SWAP2 POP POP JUMP JUMPDEST PUSH1 0x0 DUP2 CALLDATALOAD SWAP1 POP PUSH2 0x1BC7 DUP2 PUSH2 0x275D JUMP JUMPDEST SWAP3 SWAP2 POP POP JUMP JUMPDEST PUSH1 0x0 PUSH1 0x20 DUP3 DUP5 SUB SLT ISZERO PUSH2 0x1BE3 JUMPI PUSH2 0x1BE2 PUSH2 0x24FC JUMP JUMPDEST JUMPDEST PUSH1 0x0 PUSH2 0x1BF1 DUP5 DUP3 DUP6 ADD PUSH2 0x1B08 JUMP JUMPDEST SWAP2 POP POP SWAP3 SWAP2 POP POP JUMP JUMPDEST PUSH1 0x0 PUSH1 0x20 DUP3 DUP5 SUB SLT ISZERO PUSH2 0x1C10 JUMPI PUSH2 0x1C0F PUSH2 0x24FC JUMP JUMPDEST JUMPDEST PUSH1 0x0 PUSH2 0x1C1E DUP5 DUP3 DUP6 ADD PUSH2 0x1B32 JUMP JUMPDEST SWAP2 POP POP SWAP3 SWAP2 POP POP JUMP JUMPDEST PUSH1 0x0 PUSH1 0x20 DUP3 DUP5 SUB SLT ISZERO PUSH2 0x1C3D JUMPI PUSH2 0x1C3C PUSH2 0x24FC JUMP JUMPDEST JUMPDEST PUSH1 0x0 PUSH2 0x1C4B DUP5 DUP3 DUP6 ADD PUSH2 0x1B47 JUMP JUMPDEST SWAP2 POP POP SWAP3 SWAP2 POP POP JUMP JUMPDEST PUSH1 0x0 DUP1 PUSH1 0x40 DUP4 DUP6 SUB SLT ISZERO PUSH2 0x1C6B JUMPI PUSH2 0x1C6A PUSH2 0x24FC JUMP JUMPDEST JUMPDEST PUSH1 0x0 PUSH2 0x1C79 DUP6 DUP3 DUP7 ADD PUSH2 0x1B47 JUMP JUMPDEST SWAP3 POP POP PUSH1 0x20 PUSH2 0x1C8A DUP6 DUP3 DUP7 ADD PUSH2 0x1B1D JUMP JUMPDEST SWAP2 POP POP SWAP3 POP SWAP3 SWAP1 POP JUMP JUMPDEST PUSH1 0x0 DUP1 PUSH1 0x40 DUP4 DUP6 SUB SLT ISZERO PUSH2 0x1CAB JUMPI PUSH2 0x1CAA PUSH2 0x24FC JUMP JUMPDEST JUMPDEST PUSH1 0x0 PUSH2 0x1CB9 DUP6 DUP3 DUP7 ADD PUSH2 0x1B47 JUMP JUMPDEST SWAP3 POP POP PUSH1 0x20 PUSH2 0x1CCA DUP6 DUP3 DUP7 ADD PUSH2 0x1B47 JUMP JUMPDEST SWAP2 POP POP SWAP3 POP SWAP3 SWAP1 POP JUMP JUMPDEST PUSH1 0x0 DUP1 PUSH1 0x0 PUSH1 0x60 DUP5 DUP7 SUB SLT ISZERO PUSH2 0x1CED JUMPI PUSH2 0x1CEC PUSH2 0x24FC JUMP JUMPDEST JUMPDEST PUSH1 0x0 PUSH2 0x1CFB DUP7 DUP3 DUP8 ADD PUSH2 0x1B47 JUMP JUMPDEST SWAP4 POP POP PUSH1 0x20 PUSH2 0x1D0C DUP7 DUP3 DUP8 ADD PUSH2 0x1B47 JUMP JUMPDEST SWAP3 POP POP PUSH1 0x40 PUSH2 0x1D1D DUP7 DUP3 DUP8 ADD PUSH2 0x1B08 JUMP JUMPDEST SWAP2 POP POP SWAP3 POP SWAP3 POP SWAP3 JUMP JUMPDEST PUSH1 0x0 DUP1 PUSH1 0x0 PUSH1 0x60 DUP5 DUP7 SUB SLT ISZERO PUSH2 0x1D40 JUMPI PUSH2 0x1D3F PUSH2 0x24FC JUMP JUMPDEST JUMPDEST PUSH1 0x0 PUSH2 0x1D4E DUP7 DUP3 DUP8 ADD PUSH2 0x1B47 JUMP JUMPDEST SWAP4 POP POP PUSH1 0x20 PUSH2 0x1D5F DUP7 DUP3 DUP8 ADD PUSH2 0x1B47 JUMP JUMPDEST SWAP3 POP POP PUSH1 0x40 DUP5 ADD CALLDATALOAD PUSH8 0xFFFFFFFFFFFFFFFF DUP2 GT ISZERO PUSH2 0x1D80 JUMPI PUSH2 0x1D7F PUSH2 0x24F7 JUMP JUMPDEST JUMPDEST PUSH2 0x1D8C DUP7 DUP3 DUP8 ADD PUSH2 0x1B5C JUMP JUMPDEST SWAP2 POP POP SWAP3 POP SWAP3 POP SWAP3 JUMP JUMPDEST PUSH1 0x0 DUP1 PUSH1 0x0 PUSH1 0x60 DUP5 DUP7 SUB SLT ISZERO PUSH2 0x1DAF JUMPI PUSH2 0x1DAE PUSH2 0x24FC JUMP JUMPDEST JUMPDEST PUSH1 0x0 PUSH2 0x1DBD DUP7 DUP3 DUP8 ADD PUSH2 0x1B47 JUMP JUMPDEST SWAP4 POP POP PUSH1 0x20 PUSH2 0x1DCE DUP7 DUP3 DUP8 ADD PUSH2 0x1BB8 JUMP JUMPDEST SWAP3 POP POP PUSH1 0x40 DUP5 ADD CALLDATALOAD PUSH8 0xFFFFFFFFFFFFFFFF DUP2 GT ISZERO PUSH2 0x1DEF JUMPI PUSH2 0x1DEE PUSH2 0x24F7 JUMP JUMPDEST JUMPDEST PUSH2 0x1DFB DUP7 DUP3 DUP8 ADD PUSH2 0x1B8A JUMP JUMPDEST SWAP2 POP POP SWAP3 POP SWAP3 POP SWAP3 JUMP JUMPDEST PUSH1 0x0 DUP1 PUSH1 0x40 DUP4 DUP6 SUB SLT ISZERO PUSH2 0x1E1C JUMPI PUSH2 0x1E1B PUSH2 0x24FC JUMP JUMPDEST JUMPDEST PUSH1 0x0 PUSH2 0x1E2A DUP6 DUP3 DUP7 ADD PUSH2 0x1BB8 JUMP JUMPDEST SWAP3 POP POP PUSH1 0x20 PUSH2 0x1E3B DUP6 DUP3 DUP7 ADD PUSH2 0x1B47 JUMP JUMPDEST SWAP2 POP POP SWAP3 POP SWAP3 SWAP1 POP JUMP JUMPDEST PUSH2 0x1E4E DUP2 PUSH2 0x2352 JUMP JUMPDEST DUP3 MSTORE POP POP JUMP JUMPDEST PUSH2 0x1E5D DUP2 PUSH2 0x2364 JUMP JUMPDEST DUP3 MSTORE POP POP JUMP JUMPDEST PUSH2 0x1E6C DUP2 PUSH2 0x2370 JUMP JUMPDEST DUP3 MSTORE POP POP JUMP JUMPDEST PUSH2 0x1E83 PUSH2 0x1E7E DUP3 PUSH2 0x2370 JUMP JUMPDEST PUSH2 0x2456 JUMP JUMPDEST DUP3 MSTORE POP POP JUMP JUMPDEST PUSH1 0x0 PUSH2 0x1E94 DUP3 PUSH2 0x22E3 JUMP JUMPDEST PUSH2 0x1E9E DUP2 DUP6 PUSH2 0x22F9 JUMP JUMPDEST SWAP4 POP PUSH2 0x1EAE DUP2 DUP6 PUSH1 0x20 DUP7 ADD PUSH2 0x23C0 JUMP JUMPDEST PUSH2 0x1EB7 DUP2 PUSH2 0x2501 JUMP JUMPDEST DUP5 ADD SWAP2 POP POP SWAP3 SWAP2 POP POP JUMP JUMPDEST PUSH1 0x0 PUSH2 0x1ECD DUP3 PUSH2 0x22EE JUMP JUMPDEST PUSH2 0x1ED7 DUP2 DUP6 PUSH2 0x230A JUMP JUMPDEST SWAP4 POP PUSH2 0x1EE7 DUP2 DUP6 PUSH1 0x20 DUP7 ADD PUSH2 0x23C0 JUMP JUMPDEST PUSH2 0x1EF0 DUP2 PUSH2 0x2501 JUMP JUMPDEST DUP5 ADD SWAP2 POP POP SWAP3 SWAP2 POP POP JUMP JUMPDEST PUSH1 0x0 PUSH2 0x1F08 PUSH1 0x21 DUP4 PUSH2 0x230A JUMP JUMPDEST SWAP2 POP PUSH2 0x1F13 DUP3 PUSH2 0x2512 JUMP JUMPDEST PUSH1 0x40 DUP3 ADD SWAP1 POP SWAP2 SWAP1 POP JUMP JUMPDEST PUSH1 0x0 PUSH2 0x1F2B PUSH1 0x20 DUP4 PUSH2 0x230A JUMP JUMPDEST SWAP2 POP PUSH2 0x1F36 DUP3 PUSH2 0x2561 JUMP JUMPDEST PUSH1 0x20 DUP3 ADD SWAP1 POP SWAP2 SWAP1 POP JUMP JUMPDEST PUSH1 0x0 PUSH2 0x1F4E PUSH1 0xD DUP4 PUSH2 0x230A JUMP JUMPDEST SWAP2 POP PUSH2 0x1F59 DUP3 PUSH2 0x258A JUMP JUMPDEST PUSH1 0x20 DUP3 ADD SWAP1 POP SWAP2 SWAP1 POP JUMP JUMPDEST PUSH1 0x0 PUSH2 0x1F71 PUSH1 0x2A DUP4 PUSH2 0x230A JUMP JUMPDEST SWAP2 POP PUSH2 0x1F7C DUP3 PUSH2 0x25B3 JUMP JUMPDEST PUSH1 0x40 DUP3 ADD SWAP1 POP SWAP2 SWAP1 POP JUMP JUMPDEST PUSH1 0x0 PUSH2 0x1F94 PUSH1 0x1F DUP4 PUSH2 0x230A JUMP JUMPDEST SWAP2 POP PUSH2 0x1F9F DUP3 PUSH2 0x2602 JUMP JUMPDEST PUSH1 0x20 DUP3 ADD SWAP1 POP SWAP2 SWAP1 POP JUMP JUMPDEST PUSH1 0x0 PUSH2 0x1FB7 PUSH1 0x27 DUP4 PUSH2 0x230A JUMP JUMPDEST SWAP2 POP PUSH2 0x1FC2 DUP3 PUSH2 0x262B JUMP JUMPDEST PUSH1 0x40 DUP3 ADD SWAP1 POP SWAP2 SWAP1 POP JUMP JUMPDEST PUSH1 0x0 PUSH2 0x1FDA PUSH1 0x2F DUP4 PUSH2 0x230A JUMP JUMPDEST SWAP2 POP PUSH2 0x1FE5 DUP3 PUSH2 0x267A JUMP JUMPDEST PUSH1 0x40 DUP3 ADD SWAP1 POP SWAP2 SWAP1 POP JUMP JUMPDEST PUSH1 0x0 PUSH2 0x1FFD PUSH1 0x26 DUP4 PUSH2 0x230A JUMP JUMPDEST SWAP2 POP PUSH2 0x2008 DUP3 PUSH2 0x26C9 JUMP JUMPDEST PUSH1 0x40 DUP3 ADD SWAP1 POP SWAP2 SWAP1 POP JUMP JUMPDEST PUSH2 0x201C DUP2 PUSH2 0x23A4 JUMP JUMPDEST DUP3 MSTORE POP POP JUMP JUMPDEST PUSH1 0x0 PUSH2 0x202E DUP3 DUP5 PUSH2 0x1E72 JUMP JUMPDEST PUSH1 0x20 DUP3 ADD SWAP2 POP DUP2 SWAP1 POP SWAP3 SWAP2 POP POP JUMP JUMPDEST PUSH1 0x0 PUSH1 0x20 DUP3 ADD SWAP1 POP PUSH2 0x2052 PUSH1 0x0 DUP4 ADD DUP5 PUSH2 0x1E45 JUMP JUMPDEST SWAP3 SWAP2 POP POP JUMP JUMPDEST PUSH1 0x0 PUSH1 0x20 DUP3 ADD SWAP1 POP PUSH2 0x206D PUSH1 0x0 DUP4 ADD DUP5 PUSH2 0x1E54 JUMP JUMPDEST SWAP3 SWAP2 POP POP JUMP JUMPDEST PUSH1 0x0 PUSH1 0x20 DUP3 ADD SWAP1 POP PUSH2 0x2088 PUSH1 0x0 DUP4 ADD DUP5 PUSH2 0x1E63 JUMP JUMPDEST SWAP3 SWAP2 POP POP JUMP JUMPDEST PUSH1 0x0 PUSH1 0x60 DUP3 ADD SWAP1 POP PUSH2 0x20A3 PUSH1 0x0 DUP4 ADD DUP7 PUSH2 0x1E63 JUMP JUMPDEST PUSH2 0x20B0 PUSH1 0x20 DUP4 ADD DUP6 PUSH2 0x1E45 JUMP JUMPDEST PUSH2 0x20BD PUSH1 0x40 DUP4 ADD DUP5 PUSH2 0x1E54 JUMP JUMPDEST SWAP5 SWAP4 POP POP POP POP JUMP JUMPDEST PUSH1 0x0 PUSH1 0x40 DUP3 ADD SWAP1 POP PUSH2 0x20DA PUSH1 0x0 DUP4 ADD DUP6 PUSH2 0x1E63 JUMP JUMPDEST DUP2 DUP2 SUB PUSH1 0x20 DUP4 ADD MSTORE PUSH2 0x20EC DUP2 DUP5 PUSH2 0x1E89 JUMP JUMPDEST SWAP1 POP SWAP4 SWAP3 POP POP POP JUMP JUMPDEST PUSH1 0x0 PUSH1 0x80 DUP3 ADD SWAP1 POP PUSH2 0x210A PUSH1 0x0 DUP4 ADD DUP8 PUSH2 0x1E63 JUMP JUMPDEST PUSH2 0x2117 PUSH1 0x20 DUP4 ADD DUP7 PUSH2 0x2013 JUMP JUMPDEST PUSH2 0x2124 PUSH1 0x40 DUP4 ADD DUP6 PUSH2 0x1E63 JUMP JUMPDEST PUSH2 0x2131 PUSH1 0x60 DUP4 ADD DUP5 PUSH2 0x1E63 JUMP JUMPDEST SWAP6 SWAP5 POP POP POP POP POP JUMP JUMPDEST PUSH1 0x0 PUSH1 0x20 DUP3 ADD SWAP1 POP DUP2 DUP2 SUB PUSH1 0x0 DUP4 ADD MSTORE PUSH2 0x2154 DUP2 DUP5 PUSH2 0x1EC2 JUMP JUMPDEST SWAP1 POP SWAP3 SWAP2 POP POP JUMP JUMPDEST PUSH1 0x0 PUSH1 0x20 DUP3 ADD SWAP1 POP DUP2 DUP2 SUB PUSH1 0x0 DUP4 ADD MSTORE PUSH2 0x2175 DUP2 PUSH2 0x1EFB JUMP JUMPDEST SWAP1 POP SWAP2 SWAP1 POP JUMP JUMPDEST PUSH1 0x0 PUSH1 0x20 DUP3 ADD SWAP1 POP DUP2 DUP2 SUB PUSH1 0x0 DUP4 ADD MSTORE PUSH2 0x2195 DUP2 PUSH2 0x1F1E JUMP JUMPDEST SWAP1 POP SWAP2 SWAP1 POP JUMP JUMPDEST PUSH1 0x0 PUSH1 0x20 DUP3 ADD SWAP1 POP DUP2 DUP2 SUB PUSH1 0x0 DUP4 ADD MSTORE PUSH2 0x21B5 DUP2 PUSH2 0x1F41 JUMP JUMPDEST SWAP1 POP SWAP2 SWAP1 POP JUMP JUMPDEST PUSH1 0x0 PUSH1 0x20 DUP3 ADD SWAP1 POP DUP2 DUP2 SUB PUSH1 0x0 DUP4 ADD MSTORE PUSH2 0x21D5 DUP2 PUSH2 0x1F64 JUMP JUMPDEST SWAP1 POP SWAP2 SWAP1 POP JUMP JUMPDEST PUSH1 0x0 PUSH1 0x20 DUP3 ADD SWAP1 POP DUP2 DUP2 SUB PUSH1 0x0 DUP4 ADD MSTORE PUSH2 0x21F5 DUP2 PUSH2 0x1F87 JUMP JUMPDEST SWAP1 POP SWAP2 SWAP1 POP JUMP JUMPDEST PUSH1 0x0 PUSH1 0x20 DUP3 ADD SWAP1 POP DUP2 DUP2 SUB PUSH1 0x0 DUP4 ADD MSTORE PUSH2 0x2215 DUP2 PUSH2 0x1FAA JUMP JUMPDEST SWAP1 POP SWAP2 SWAP1 POP JUMP JUMPDEST PUSH1 0x0 PUSH1 0x20 DUP3 ADD SWAP1 POP DUP2 DUP2 SUB PUSH1 0x0 DUP4 ADD MSTORE PUSH2 0x2235 DUP2 PUSH2 0x1FCD JUMP JUMPDEST SWAP1 POP SWAP2 SWAP1 POP JUMP JUMPDEST PUSH1 0x0 PUSH1 0x20 DUP3 ADD SWAP1 POP DUP2 DUP2 SUB PUSH1 0x0 DUP4 ADD MSTORE PUSH2 0x2255 DUP2 PUSH2 0x1FF0 JUMP JUMPDEST SWAP1 POP SWAP2 SWAP1 POP JUMP JUMPDEST PUSH1 0x0 PUSH2 0x2266 PUSH2 0x2277 JUMP JUMPDEST SWAP1 POP PUSH2 0x2272 DUP3 DUP3 PUSH2 0x2425 JUMP JUMPDEST SWAP2 SWAP1 POP JUMP JUMPDEST PUSH1 0x0 PUSH1 0x40 MLOAD SWAP1 POP SWAP1 JUMP JUMPDEST PUSH1 0x0 PUSH8 0xFFFFFFFFFFFFFFFF DUP3 GT ISZERO PUSH2 0x229C JUMPI PUSH2 0x229B PUSH2 0x24BE JUMP JUMPDEST JUMPDEST PUSH2 0x22A5 DUP3 PUSH2 0x2501 JUMP JUMPDEST SWAP1 POP PUSH1 0x20 DUP2 ADD SWAP1 POP SWAP2 SWAP1 POP JUMP JUMPDEST PUSH1 0x0 PUSH8 0xFFFFFFFFFFFFFFFF DUP3 GT ISZERO PUSH2 0x22CD JUMPI PUSH2 0x22CC PUSH2 0x24BE JUMP JUMPDEST JUMPDEST PUSH2 0x22D6 DUP3 PUSH2 0x2501 JUMP JUMPDEST SWAP1 POP PUSH1 0x20 DUP2 ADD SWAP1 POP SWAP2 SWAP1 POP JUMP JUMPDEST PUSH1 0x0 DUP2 MLOAD SWAP1 POP SWAP2 SWAP1 POP JUMP JUMPDEST PUSH1 0x0 DUP2 MLOAD SWAP1 POP SWAP2 SWAP1 POP JUMP JUMPDEST PUSH1 0x0 DUP3 DUP3 MSTORE PUSH1 0x20 DUP3 ADD SWAP1 POP SWAP3 SWAP2 POP POP JUMP JUMPDEST PUSH1 0x0 DUP3 DUP3 MSTORE PUSH1 0x20 DUP3 ADD SWAP1 POP SWAP3 SWAP2 POP POP JUMP JUMPDEST PUSH1 0x0 PUSH2 0x2326 DUP3 PUSH2 0x23A4 JUMP JUMPDEST SWAP2 POP PUSH2 0x2331 DUP4 PUSH2 0x23A4 JUMP JUMPDEST SWAP3 POP DUP3 PUSH1 0xFF SUB DUP3 GT ISZERO PUSH2 0x2347 JUMPI PUSH2 0x2346 PUSH2 0x2460 JUMP JUMPDEST JUMPDEST DUP3 DUP3 ADD SWAP1 POP SWAP3 SWAP2 POP POP JUMP JUMPDEST PUSH1 0x0 PUSH2 0x235D DUP3 PUSH2 0x237A JUMP JUMPDEST SWAP1 POP SWAP2 SWAP1 POP JUMP JUMPDEST PUSH1 0x0 DUP2 ISZERO ISZERO SWAP1 POP SWAP2 SWAP1 POP JUMP JUMPDEST PUSH1 0x0 DUP2 SWAP1 POP SWAP2 SWAP1 POP JUMP JUMPDEST PUSH1 0x0 PUSH20 0xFFFFFFFFFFFFFFFFFFFFFFFFFFFFFFFFFFFFFFFF DUP3 AND SWAP1 POP SWAP2 SWAP1 POP JUMP JUMPDEST PUSH1 0x0 DUP2 SWAP1 POP SWAP2 SWAP1 POP JUMP JUMPDEST PUSH1 0x0 PUSH1 0xFF DUP3 AND SWAP1 POP SWAP2 SWAP1 POP JUMP JUMPDEST DUP3 DUP2 DUP4 CALLDATACOPY PUSH1 0x0 DUP4 DUP4 ADD MSTORE POP POP POP JUMP JUMPDEST PUSH1 0x0 JUMPDEST DUP4 DUP2 LT ISZERO PUSH2 0x23DE JUMPI DUP1 DUP3 ADD MLOAD DUP2 DUP5 ADD MSTORE PUSH1 0x20 DUP2 ADD SWAP1 POP PUSH2 0x23C3 JUMP JUMPDEST DUP4 DUP2 GT ISZERO PUSH2 0x23ED JUMPI PUSH1 0x0 DUP5 DUP5 ADD MSTORE JUMPDEST POP POP POP POP JUMP JUMPDEST PUSH1 0x0 PUSH1 0x2 DUP3 DIV SWAP1 POP PUSH1 0x1 DUP3 AND DUP1 PUSH2 0x240B JUMPI PUSH1 0x7F DUP3 AND SWAP2 POP JUMPDEST PUSH1 0x20 DUP3 LT DUP2 EQ ISZERO PUSH2 0x241F JUMPI PUSH2 0x241E PUSH2 0x248F JUMP JUMPDEST JUMPDEST POP SWAP2 SWAP1 POP JUMP JUMPDEST PUSH2 0x242E DUP3 PUSH2 0x2501 JUMP JUMPDEST DUP2 ADD DUP2 DUP2 LT PUSH8 0xFFFFFFFFFFFFFFFF DUP3 GT OR ISZERO PUSH2 0x244D JUMPI PUSH2 0x244C PUSH2 0x24BE JUMP JUMPDEST JUMPDEST DUP1 PUSH1 0x40 MSTORE POP POP POP JUMP JUMPDEST PUSH1 0x0 DUP2 SWAP1 POP SWAP2 SWAP1 POP JUMP JUMPDEST PUSH32 0x4E487B7100000000000000000000000000000000000000000000000000000000 PUSH1 0x0 MSTORE PUSH1 0x11 PUSH1 0x4 MSTORE PUSH1 0x24 PUSH1 0x0 REVERT JUMPDEST PUSH32 0x4E487B7100000000000000000000000000000000000000000000000000000000 PUSH1 0x0 MSTORE PUSH1 0x22 PUSH1 0x4 MSTORE PUSH1 0x24 PUSH1 0x0 REVERT JUMPDEST PUSH32 0x4E487B7100000000000000000000000000000000000000000000000000000000 PUSH1 0x0 MSTORE PUSH1 0x41 PUSH1 0x4 MSTORE PUSH1 0x24 PUSH1 0x0 REVERT JUMPDEST PUSH1 0x0 DUP1 REVERT JUMPDEST PUSH1 0x0 DUP1 REVERT JUMPDEST PUSH1 0x0 DUP1 REVERT JUMPDEST PUSH1 0x0 DUP1 REVERT JUMPDEST PUSH1 0x0 PUSH1 0x1F NOT PUSH1 0x1F DUP4 ADD AND SWAP1 POP SWAP2 SWAP1 POP JUMP JUMPDEST PUSH32 0x6F6E6C79206F776E65722063616E2063616C6C20746869732066756E6374696F PUSH1 0x0 DUP3 ADD MSTORE PUSH32 0x6E00000000000000000000000000000000000000000000000000000000000000 PUSH1 0x20 DUP3 ADD MSTORE POP JUMP JUMPDEST PUSH32 0x70726F64756374206861736820766572696669636174696F6E206661696C6564 PUSH1 0x0 DUP3 ADD MSTORE POP JUMP JUMPDEST PUSH32 0x636F6E74726163742068616C7400000000000000000000000000000000000000 PUSH1 0x0 DUP3 ADD MSTORE POP JUMP JUMPDEST PUSH32 0x6F6E6C7920636F6E7472616374206F776E65722063616E2063616C6C20746869 PUSH1 0x0 DUP3 ADD MSTORE PUSH32 0x732066756E6374696F6E00000000000000000000000000000000000000000000 PUSH1 0x20 DUP3 ADD MSTORE POP JUMP JUMPDEST PUSH32 0x636572746966696361746520766572696669636174696F6E206661696C656400 PUSH1 0x0 DUP3 ADD MSTORE POP JUMP JUMPDEST PUSH32 0x64617461206D75737420636F6D652066726F6D20746865206F7261636C652063 PUSH1 0x0 DUP3 ADD MSTORE PUSH32 0x6F6E747261637400000000000000000000000000000000000000000000000000 PUSH1 0x20 DUP3 ADD MSTORE POP JUMP JUMPDEST PUSH32 0x6F6E6C7920617574686F72697365642070726F64756365722063616E2063616C PUSH1 0x0 DUP3 ADD MSTORE PUSH32 0x6C20746869732066756E6374696F6E0000000000000000000000000000000000 PUSH1 0x20 DUP3 ADD MSTORE POP JUMP JUMPDEST PUSH32 0x70726F6475636572206F6620746865206261746368206973206E6F7420746865 PUSH1 0x0 DUP3 ADD MSTORE PUSH32 0x206F776E65720000000000000000000000000000000000000000000000000000 PUSH1 0x20 DUP3 ADD MSTORE POP JUMP JUMPDEST PUSH2 0x2721 DUP2 PUSH2 0x2352 JUMP JUMPDEST DUP2 EQ PUSH2 0x272C JUMPI PUSH1 0x0 DUP1 REVERT JUMPDEST POP JUMP JUMPDEST PUSH2 0x2738 DUP2 PUSH2 0x2364 JUMP JUMPDEST DUP2 EQ PUSH2 0x2743 JUMPI PUSH1 0x0 DUP1 REVERT JUMPDEST POP JUMP JUMPDEST PUSH2 0x274F DUP2 PUSH2 0x2370 JUMP JUMPDEST DUP2 EQ PUSH2 0x275A JUMPI PUSH1 0x0 DUP1 REVERT JUMPDEST POP JUMP JUMPDEST PUSH2 0x2766 DUP2 PUSH2 0x239A JUMP JUMPDEST DUP2 EQ PUSH2 0x2771 JUMPI PUSH1 0x0 DUP1 REVERT JUMPDEST POP JUMP INVALID LOG2 PUSH5 0x6970667358 0x22 SLT KECCAK256 0xD6 DUP9 0xC1 PUSH3 0x5ED99F BYTE EXTCODECOPY 0xD2 SLOAD SAR 0xA7 DUP6 REVERT SWAP15 ISZERO 0x2D 0x4E 0xEA 0xB8 0xE1 DUP3 DELEGATECALL SGT 0xC5 PC XOR 0xF7 DUP15 0xCA 0xE5 PUSH5 0x736F6C6343 STOP ADDMOD SMOD STOP CALLER "
				},
				"gasEstimates": {
					"creation": {
						"codeDepositCost": "2030800",
						"executionCost": "infinite",
						"totalCost": "infinite"
					},
					"external": {
						"addCertificate(bytes32,bytes32,bytes)": "infinite",
						"addProducer(address)": "29274",
						"addProduct(bytes32,uint256,string)": "infinite",
						"destroyContract()": "32074",
						"emergencyHalt()": "28880",
						"getCertificate(bytes32)": "infinite",
						"getDatabase(bytes32)": "infinite",
						"getProducer(address)": "5198",
						"getProduct(bytes32)": "infinite",
						"getStatus(bytes32)": "5121",
						"getTemperature(bytes32)": "infinite",
						"receiveDataFromOracle(uint256,bytes32)": "infinite",
						"restartContract()": "28925",
						"updateOwner(bytes32,bytes32,address)": "infinite",
						"updateStatus(bytes32,bool)": "29513",
						"verifyCertificate(bytes32)": "infinite",
						"verifyProductHash(bytes32,bytes32)": "infinite"
					},
					"internal": {
						"compareTemperature(bytes32,uint256)": "infinite",
						"receiveTemperatureFromOracle(bytes32,uint256)": "infinite",
						"recoverIssuer(bytes32,bytes memory)": "infinite",
						"verifyIssuer(address)": "infinite"
					}
				},
				"methodIdentifiers": {
					"addCertificate(bytes32,bytes32,bytes)": "8ec394d1",
					"addProducer(address)": "ddf80166",
					"addProduct(bytes32,uint256,string)": "5950c3fb",
					"destroyContract()": "092a5cce",
					"emergencyHalt()": "51755334",
					"getCertificate(bytes32)": "f333fe08",
					"getDatabase(bytes32)": "62004e63",
					"getProducer(address)": "aab147b2",
					"getProduct(bytes32)": "3a20e9df",
					"getStatus(bytes32)": "5de28ae0",
					"getTemperature(bytes32)": "bfc9554e",
					"receiveDataFromOracle(uint256,bytes32)": "24c45f68",
					"restartContract()": "30a52d5b",
					"updateOwner(bytes32,bytes32,address)": "b83ce919",
					"updateStatus(bytes32,bool)": "e58603a9",
					"verifyCertificate(bytes32)": "850c1768",
					"verifyProductHash(bytes32,bytes32)": "a9213874"
				}
			},
			"storageLayout": {
				"storage": [
					{
						"astId": 87,
						"contract": "contracts/Product.sol:Product",
						"label": "_oracleAddress",
						"offset": 0,
						"slot": "0",
						"type": "t_address"
					},
					{
						"astId": 165,
						"contract": "contracts/Product.sol:Product",
						"label": "halted",
						"offset": 20,
						"slot": "0",
						"type": "t_bool"
					},
					{
						"astId": 167,
						"contract": "contracts/Product.sol:Product",
						"label": "locked",
						"offset": 21,
						"slot": "0",
						"type": "t_bool"
					},
					{
						"astId": 169,
						"contract": "contracts/Product.sol:Product",
						"label": "owner",
						"offset": 0,
						"slot": "1",
						"type": "t_address_payable"
					},
					{
						"astId": 171,
						"contract": "contracts/Product.sol:Product",
						"label": "DOA",
						"offset": 0,
						"slot": "2",
						"type": "t_address"
					},
					{
						"astId": 173,
						"contract": "contracts/Product.sol:Product",
						"label": "recvdTemp",
						"offset": 0,
						"slot": "3",
						"type": "t_uint256"
					},
					{
						"astId": 193,
						"contract": "contracts/Product.sol:Product",
						"label": "products",
						"offset": 0,
						"slot": "4",
						"type": "t_mapping(t_bytes32,t_struct(Batch)188_storage)"
					},
					{
						"astId": 197,
						"contract": "contracts/Product.sol:Product",
						"label": "database",
						"offset": 0,
						"slot": "5",
						"type": "t_mapping(t_bytes32,t_string_storage)"
					},
					{
						"astId": 201,
						"contract": "contracts/Product.sol:Product",
						"label": "producers",
						"offset": 0,
						"slot": "6",
						"type": "t_mapping(t_address,t_bool)"
					}
				],
				"types": {
					"t_address": {
						"encoding": "inplace",
						"label": "address",
						"numberOfBytes": "20"
					},
					"t_address_payable": {
						"encoding": "inplace",
						"label": "address payable",
						"numberOfBytes": "20"
					},
					"t_bool": {
						"encoding": "inplace",
						"label": "bool",
						"numberOfBytes": "1"
					},
					"t_bytes32": {
						"encoding": "inplace",
						"label": "bytes32",
						"numberOfBytes": "32"
					},
					"t_bytes_storage": {
						"encoding": "bytes",
						"label": "bytes",
						"numberOfBytes": "32"
					},
					"t_mapping(t_address,t_bool)": {
						"encoding": "mapping",
						"key": "t_address",
						"label": "mapping(address => bool)",
						"numberOfBytes": "32",
						"value": "t_bool"
					},
					"t_mapping(t_bytes32,t_string_storage)": {
						"encoding": "mapping",
						"key": "t_bytes32",
						"label": "mapping(bytes32 => string)",
						"numberOfBytes": "32",
						"value": "t_string_storage"
					},
					"t_mapping(t_bytes32,t_struct(Batch)188_storage)": {
						"encoding": "mapping",
						"key": "t_bytes32",
						"label": "mapping(bytes32 => struct Product.Batch)",
						"numberOfBytes": "32",
						"value": "t_struct(Batch)188_storage"
					},
					"t_string_storage": {
						"encoding": "bytes",
						"label": "string",
						"numberOfBytes": "32"
					},
					"t_struct(Batch)188_storage": {
						"encoding": "inplace",
						"label": "struct Product.Batch",
						"members": [
							{
								"astId": 175,
								"contract": "contracts/Product.sol:Product",
								"label": "productHash",
								"offset": 0,
								"slot": "0",
								"type": "t_bytes32"
							},
							{
								"astId": 177,
								"contract": "contracts/Product.sol:Product",
								"label": "certificate",
								"offset": 0,
								"slot": "1",
								"type": "t_bytes32"
							},
							{
								"astId": 179,
								"contract": "contracts/Product.sol:Product",
								"label": "signature",
								"offset": 0,
								"slot": "2",
								"type": "t_bytes_storage"
							},
							{
								"astId": 181,
								"contract": "contracts/Product.sol:Product",
								"label": "owner",
								"offset": 0,
								"slot": "3",
								"type": "t_address"
							},
							{
								"astId": 183,
								"contract": "contracts/Product.sol:Product",
								"label": "producer",
								"offset": 0,
								"slot": "4",
								"type": "t_address"
							},
							{
								"astId": 185,
								"contract": "contracts/Product.sol:Product",
								"label": "temperature",
								"offset": 0,
								"slot": "5",
								"type": "t_uint256"
							},
							{
								"astId": 187,
								"contract": "contracts/Product.sol:Product",
								"label": "status",
								"offset": 0,
								"slot": "6",
								"type": "t_bool"
							}
						],
						"numberOfBytes": "224"
					},
					"t_uint256": {
						"encoding": "inplace",
						"label": "uint256",
						"numberOfBytes": "32"
					}
				}
			},
			"userdoc": {
				"kind": "user",
				"methods": {
					"addCertificate(bytes32,bytes32,bytes)": {
						"notice": "producer adds a certificate obtained from the          CA from off-chain, the producer has to be the          current batch owner to add certificate "
					},
					"addProducer(address)": {
						"notice": "contract deployer adds authorised producer         to the mapping, which gives permissions to          add products and certificate "
					},
					"addProduct(bytes32,uint256,string)": {
						"notice": "add product infromation to the data hash         and conditions hash generated from off-chain"
					},
					"destroyContract()": {
						"notice": "deactivate contract "
					},
					"emergencyHalt()": {
						"notice": "tempotarity deactivate contract "
					},
					"getCertificate(bytes32)": {
						"notice": "get the product certificate and signer signature"
					},
					"getDatabase(bytes32)": {
						"notice": "get the product off-chain storage location "
					},
					"getProducer(address)": {
						"notice": "checks whether the producer address is         authorised to add product and certificate"
					},
					"getProduct(bytes32)": {
						"notice": "get the product hash and owner by its unique ID"
					},
					"getStatus(bytes32)": {
						"notice": "get status of the batch "
					},
					"restartContract()": {
						"notice": "re-activate contract "
					},
					"updateOwner(bytes32,bytes32,address)": {
						"notice": "transfer the ownership of the product batch, supported by          certificate verification and check of the product hash         that is stored on-chain and freshly computed one"
					},
					"updateStatus(bytes32,bool)": {
						"notice": "lets a product owner to update product status          based on physical off-chain investigation"
					},
					"verifyCertificate(bytes32)": {
						"notice": "based the product certificate and issuer signature         recovers the address of CA who signed the certificate         and verifies whether it is registered with DOA "
					},
					"verifyProductHash(bytes32,bytes32)": {
						"notice": "allows to verify data in the off-chain data store about product"
					}
				},
				"version": 1
			}
		}
	}
}