{
  "contractName": "AuthorityRegistry",
  "abi": [
    {
      "inputs": [
        {
          "internalType": "address",
          "name": "_owner",
          "type": "address"
        }
      ],
      "stateMutability": "nonpayable",
      "type": "constructor"
    },
    {
      "inputs": [
        {
          "internalType": "address",
          "name": "",
          "type": "address"
        }
      ],
      "name": "registry",
      "outputs": [
        {
          "internalType": "bool",
          "name": "",
          "type": "bool"
        }
      ],
      "stateMutability": "view",
      "type": "function",
      "constant": true
    },
    {
      "inputs": [
        {
          "internalType": "address",
          "name": "_publicKey",
          "type": "address"
        }
      ],
      "name": "addPublicKey",
      "outputs": [
        {
          "internalType": "bool",
          "name": "",
          "type": "bool"
        }
      ],
      "stateMutability": "nonpayable",
      "type": "function"
    },
    {
      "inputs": [
        {
          "internalType": "address",
          "name": "_publicKey",
          "type": "address"
        }
      ],
      "name": "deletePublicKey",
      "outputs": [],
      "stateMutability": "nonpayable",
      "type": "function"
    },
    {
      "inputs": [
        {
          "internalType": "address",
          "name": "_publicKey",
          "type": "address"
        }
      ],
      "name": "checkPublicKey",
      "outputs": [
        {
          "internalType": "bool",
          "name": "",
          "type": "bool"
        }
      ],
      "stateMutability": "view",
      "type": "function",
      "constant": true
    }
  ],
  "bytecode": "0x608060405234801561001057600080fd5b506040516105e93803806105e9833981810160405281019061003291906100db565b806000806101000a81548173ffffffffffffffffffffffffffffffffffffffff021916908373ffffffffffffffffffffffffffffffffffffffff16021790555050610108565b600080fd5b600073ffffffffffffffffffffffffffffffffffffffff82169050919050565b60006100a88261007d565b9050919050565b6100b88161009d565b81146100c357600080fd5b50565b6000815190506100d5816100af565b92915050565b6000602082840312156100f1576100f0610078565b5b60006100ff848285016100c6565b91505092915050565b6104d2806101176000396000f3fe608060405234801561001057600080fd5b506004361061004c5760003560e01c8063038defd7146100515780631bf9b325146100815780636af929561461009d578063d5838ca7146100cd575b600080fd5b61006b600480360381019061006691906103bc565b6100fd565b6040516100789190610404565b60405180910390f35b61009b600480360381019061009691906103bc565b61011d565b005b6100b760048036038101906100b291906103bc565b6101ff565b6040516100c49190610404565b60405180910390f35b6100e760048036038101906100e291906103bc565b610266565b6040516100f49190610404565b60405180910390f35b60016020528060005260406000206000915054906101000a900460ff1681565b60008054906101000a900473ffffffffffffffffffffffffffffffffffffffff168073ffffffffffffffffffffffffffffffffffffffff163373ffffffffffffffffffffffffffffffffffffffff16146101ac576040517f08c379a00000000000000000000000000000000000000000000000000000000081526004016101a39061047c565b60405180910390fd5b600160008373ffffffffffffffffffffffffffffffffffffffff1673ffffffffffffffffffffffffffffffffffffffff16815260200190815260200160002060006101000a81549060ff02191690555050565b6000600160008373ffffffffffffffffffffffffffffffffffffffff1673ffffffffffffffffffffffffffffffffffffffff16815260200190815260200160002060009054906101000a900460ff161561025c5760019050610261565b600090505b919050565b60008060009054906101000a900473ffffffffffffffffffffffffffffffffffffffff168073ffffffffffffffffffffffffffffffffffffffff163373ffffffffffffffffffffffffffffffffffffffff16146102f8576040517f08c379a00000000000000000000000000000000000000000000000000000000081526004016102ef9061047c565b60405180910390fd5b60018060008573ffffffffffffffffffffffffffffffffffffffff1673ffffffffffffffffffffffffffffffffffffffff16815260200190815260200160002060006101000a81548160ff0219169083151502179055506001915050919050565b600080fd5b600073ffffffffffffffffffffffffffffffffffffffff82169050919050565b60006103898261035e565b9050919050565b6103998161037e565b81146103a457600080fd5b50565b6000813590506103b681610390565b92915050565b6000602082840312156103d2576103d1610359565b5b60006103e0848285016103a7565b91505092915050565b60008115159050919050565b6103fe816103e9565b82525050565b600060208201905061041960008301846103f5565b92915050565b600082825260208201905092915050565b7f4f6e6c79206f776e65722063616e2063616c6c20746869730000000000000000600082015250565b600061046660188361041f565b915061047182610430565b602082019050919050565b6000602082019050818103600083015261049581610459565b905091905056fea264697066735822122006a116ea4c6c7dc297c23d90f22fd9d9be3c4f538f7d2ed3abdd090372f5029f64736f6c634300080f0033",
  "immutableReferences": {},
  "source": "// SPDX-License-Identifier: MIT\npragma solidity ^0.8.0;\n\ncontract AuthorityRegistry {\n\n\t// registry of public keys of CA's that are authorised to issue certificates \n\n    address owner; // contract owner who can add/remove CA's authorisation\n\n    mapping(address => bool) public registry; \n\n    constructor(address _owner) {\n        owner = _owner; \n    }\n\n    // only owner an call functions \n    modifier onlyOwner(address _owner) { require(msg.sender == _owner, \"Only owner can call this\"); _; }\n\n    // owner adds pubic key to the registry \n    function addPublicKey(address _publicKey) public onlyOwner(owner) returns(bool) {\n        registry[_publicKey] = true; \n        return true; \n    }\n\n    // owner removes public key from the registry \n    function deletePublicKey(address _publicKey) public onlyOwner(owner) {\n        delete registry[_publicKey];\n    }\n\n    // other contracts can call this and see if the given key in regestry \n    function checkPublicKey(address _publicKey) external view returns(bool) {\n        if (registry[_publicKey]) { return true; }\n        return false; \n    }\n\n}\n",
  "sourcePath": "/Users/dariaschumm/Library/Mobile Documents/com~apple~CloudDocs/6452/supply-chain/contracts/CARegistry.sol",
  "compiler": {
    "name": "solc",
    "version": "0.8.15+commit.e14f2714.Emscripten.clang"
  },
  "schemaVersion": "3.4.8",
  "updatedAt": "2022-07-25T07:03:12.749Z",
  "networkType": "ethereum",
  "devdoc": {
    "kind": "dev",
    "methods": {},
    "version": 1
  },
  "userdoc": {
    "kind": "user",
    "methods": {},
    "version": 1
  }
}