{
  "contractName": "Oracle",
  "abi": [
    {
      "inputs": [
        {
          "internalType": "address",
          "name": "_owner",
          "type": "address"
        }
      ],
      "stateMutability": "nonpayable",
      "type": "constructor"
    },
    {
      "anonymous": false,
      "inputs": [
        {
          "indexed": false,
          "internalType": "bytes32",
          "name": "batchId",
          "type": "bytes32"
        },
        {
          "indexed": false,
          "internalType": "address",
          "name": "caller",
          "type": "address"
        }
      ],
      "name": "request",
      "type": "event"
    },
    {
      "inputs": [],
      "name": "owner",
      "outputs": [
        {
          "internalType": "address",
          "name": "",
          "type": "address"
        }
      ],
      "stateMutability": "view",
      "type": "function",
      "constant": true
    },
    {
      "inputs": [
        {
          "internalType": "bytes32",
          "name": "_batchID",
          "type": "bytes32"
        }
      ],
      "name": "requestData",
      "outputs": [],
      "stateMutability": "nonpayable",
      "type": "function"
    },
    {
      "inputs": [
        {
          "internalType": "bytes32",
          "name": "_batchID",
          "type": "bytes32"
        },
        {
          "internalType": "uint256",
          "name": "_data",
          "type": "uint256"
        },
        {
          "internalType": "address",
          "name": "_caller",
          "type": "address"
        }
      ],
      "name": "replyTemp",
      "outputs": [
        {
          "internalType": "bool",
          "name": "",
          "type": "bool"
        }
      ],
      "stateMutability": "nonpayable",
      "type": "function"
    }
  ],
  "bytecode": "0x608060405234801561001057600080fd5b50604051610691380380610691833981810160405281019061003291906100db565b806000806101000a81548173ffffffffffffffffffffffffffffffffffffffff021916908373ffffffffffffffffffffffffffffffffffffffff16021790555050610108565b600080fd5b600073ffffffffffffffffffffffffffffffffffffffff82169050919050565b60006100a88261007d565b9050919050565b6100b88161009d565b81146100c357600080fd5b50565b6000815190506100d5816100af565b92915050565b6000602082840312156100f1576100f0610078565b5b60006100ff848285016100c6565b91505092915050565b61057a806101176000396000f3fe608060405234801561001057600080fd5b50600436106100415760003560e01c80633661346b146100465780634f639359146100625780638da5cb5b14610092575b600080fd5b610060600480360381019061005b9190610264565b6100b0565b005b61007c60048036038101906100779190610325565b6100ec565b6040516100899190610393565b60405180910390f35b61009a610205565b6040516100a791906103bd565b60405180910390f35b7f8ceab900465c46f8cf4b3bc563f7b3664b3c166bbb3f28ce57191805ac45411581336040516100e19291906103e7565b60405180910390a150565b60003360008054906101000a900473ffffffffffffffffffffffffffffffffffffffff1673ffffffffffffffffffffffffffffffffffffffff168173ffffffffffffffffffffffffffffffffffffffff161461017d576040517f08c379a000000000000000000000000000000000000000000000000000000000815260040161017490610493565b60405180910390fd5b8273ffffffffffffffffffffffffffffffffffffffff166324c45f6885876040518363ffffffff1660e01b81526004016101b89291906104c2565b6020604051808303816000875af11580156101d7573d6000803e3d6000fd5b505050506040513d601f19601f820116820180604052508101906101fb9190610517565b9150509392505050565b60008054906101000a900473ffffffffffffffffffffffffffffffffffffffff1681565b600080fd5b6000819050919050565b6102418161022e565b811461024c57600080fd5b50565b60008135905061025e81610238565b92915050565b60006020828403121561027a57610279610229565b5b60006102888482850161024f565b91505092915050565b6000819050919050565b6102a481610291565b81146102af57600080fd5b50565b6000813590506102c18161029b565b92915050565b600073ffffffffffffffffffffffffffffffffffffffff82169050919050565b60006102f2826102c7565b9050919050565b610302816102e7565b811461030d57600080fd5b50565b60008135905061031f816102f9565b92915050565b60008060006060848603121561033e5761033d610229565b5b600061034c8682870161024f565b935050602061035d868287016102b2565b925050604061036e86828701610310565b9150509250925092565b60008115159050919050565b61038d81610378565b82525050565b60006020820190506103a86000830184610384565b92915050565b6103b7816102e7565b82525050565b60006020820190506103d260008301846103ae565b92915050565b6103e18161022e565b82525050565b60006040820190506103fc60008301856103d8565b61040960208301846103ae565b9392505050565b600082825260208201905092915050565b7f64617461206d75737420636f6d652066726f6d2074686520747275737465642060008201527f736f757263650000000000000000000000000000000000000000000000000000602082015250565b600061047d602683610410565b915061048882610421565b604082019050919050565b600060208201905081810360008301526104ac81610470565b9050919050565b6104bc81610291565b82525050565b60006040820190506104d760008301856104b3565b6104e460208301846103d8565b9392505050565b6104f481610378565b81146104ff57600080fd5b50565b600081519050610511816104eb565b92915050565b60006020828403121561052d5761052c610229565b5b600061053b84828501610502565b9150509291505056fea26469706673582212204d96e1187755586d01b3f45466035523804446abe964490388c69beec2489dfb64736f6c634300080f0033",
  "immutableReferences": {},
  "source": "//SPDX-License-Identifier: UNLICENSED\n \npragma solidity ^0.8.0;\nimport \"./OracleClient.sol\";\n// abstract class for oracle contract, which implements the oracle interface\ncontract Oracle is OracleInterface {\n    event request(bytes32 batchId, address caller);\n\n    address public owner;\n\n    // only get temperature from declared source\n    modifier trusted(address _serverAddr) {\n        require(_serverAddr == owner, 'data must come from the trusted source'); _;\n    }\n\n    constructor(address _owner) {\n        owner = _owner;\n    }\n\n    // emit a request for temperature data for the given batchId for the \n    // listener to hear\n    function requestData(bytes32 _batchID) public override {\n        emit request(_batchID, msg.sender);\n    }\n    \n    // send the data from the oracle to the client\n    function replyTemp(bytes32 _batchID, uint256 _data, address _caller) public virtual trusted(msg.sender) returns (bool){\n        return TemperatureOracleClient(_caller).receiveDataFromOracle(_data, _batchID);\n    }\n}",
  "sourcePath": "/Users/dariaschumm/Library/Mobile Documents/com~apple~CloudDocs/6452/supply-chain/contracts/Oracle.sol",
  "compiler": {
    "name": "solc",
    "version": "0.8.15+commit.e14f2714.Emscripten.clang"
  },
  "schemaVersion": "3.4.8",
  "updatedAt": "2022-07-24T10:12:00.835Z",
  "networkType": "ethereum",
  "devdoc": {
    "kind": "dev",
    "methods": {},
    "version": 1
  },
  "userdoc": {
    "kind": "user",
    "methods": {},
    "version": 1
  }
}