{
  "contractName": "Oracle",
  "abi": [
    {
      "inputs": [
        {
          "internalType": "address",
          "name": "serverAddr",
          "type": "address"
        }
      ],
      "stateMutability": "nonpayable",
      "type": "constructor"
    },
    {
      "anonymous": false,
      "inputs": [
        {
          "indexed": false,
          "internalType": "bytes32",
          "name": "batchID",
          "type": "bytes32"
        },
        {
          "indexed": false,
          "internalType": "address",
          "name": "caller",
          "type": "address"
        }
      ],
      "name": "temperatureRequest",
      "type": "event"
    },
    {
      "inputs": [],
      "name": "trustedServer",
      "outputs": [
        {
          "internalType": "address",
          "name": "",
          "type": "address"
        }
      ],
      "stateMutability": "view",
      "type": "function",
      "constant": true
    },
    {
      "inputs": [
        {
          "internalType": "bytes32",
          "name": "batchId",
          "type": "bytes32"
        }
      ],
      "name": "requestData",
      "outputs": [],
      "stateMutability": "nonpayable",
      "type": "function"
    },
    {
      "inputs": [
        {
          "internalType": "bytes32",
          "name": "batchId",
          "type": "bytes32"
        },
        {
          "internalType": "uint256",
          "name": "data",
          "type": "uint256"
        },
        {
          "internalType": "address",
          "name": "caller",
          "type": "address"
        }
      ],
      "name": "replyTemp",
      "outputs": [
        {
          "internalType": "bool",
          "name": "",
          "type": "bool"
        }
      ],
      "stateMutability": "nonpayable",
      "type": "function"
    }
  ],
  "bytecode": "0x608060405234801561001057600080fd5b5060405161055e38038061055e833981810160405281019061003291906100db565b806000806101000a81548173ffffffffffffffffffffffffffffffffffffffff021916908373ffffffffffffffffffffffffffffffffffffffff16021790555050610108565b600080fd5b600073ffffffffffffffffffffffffffffffffffffffff82169050919050565b60006100a88261007d565b9050919050565b6100b88161009d565b81146100c357600080fd5b50565b6000815190506100d5816100af565b92915050565b6000602082840312156100f1576100f0610078565b5b60006100ff848285016100c6565b91505092915050565b610447806101176000396000f3fe608060405234801561001057600080fd5b50600436106100415760003560e01c80633661346b146100465780634f639359146100625780635b7c569a14610092575b600080fd5b610060600480360381019061005b91906101d4565b6100b0565b005b61007c60048036038101906100779190610295565b6100ec565b6040516100899190610303565b60405180910390f35b61009a610175565b6040516100a7919061032d565b60405180910390f35b7f3c579593cfdc79e8d5ade0f53e2336a0d1d20989d7ee34a598471cafe59c8ea581336040516100e1929190610357565b60405180910390a150565b60008173ffffffffffffffffffffffffffffffffffffffff166324c45f6884866040518363ffffffff1660e01b815260040161012992919061038f565b6020604051808303816000875af1158015610148573d6000803e3d6000fd5b505050506040513d601f19601f8201168201806040525081019061016c91906103e4565b90509392505050565b60008054906101000a900473ffffffffffffffffffffffffffffffffffffffff1681565b600080fd5b6000819050919050565b6101b18161019e565b81146101bc57600080fd5b50565b6000813590506101ce816101a8565b92915050565b6000602082840312156101ea576101e9610199565b5b60006101f8848285016101bf565b91505092915050565b6000819050919050565b61021481610201565b811461021f57600080fd5b50565b6000813590506102318161020b565b92915050565b600073ffffffffffffffffffffffffffffffffffffffff82169050919050565b600061026282610237565b9050919050565b61027281610257565b811461027d57600080fd5b50565b60008135905061028f81610269565b92915050565b6000806000606084860312156102ae576102ad610199565b5b60006102bc868287016101bf565b93505060206102cd86828701610222565b92505060406102de86828701610280565b9150509250925092565b60008115159050919050565b6102fd816102e8565b82525050565b600060208201905061031860008301846102f4565b92915050565b61032781610257565b82525050565b6000602082019050610342600083018461031e565b92915050565b6103518161019e565b82525050565b600060408201905061036c6000830185610348565b610379602083018461031e565b9392505050565b61038981610201565b82525050565b60006040820190506103a46000830185610380565b6103b16020830184610348565b9392505050565b6103c1816102e8565b81146103cc57600080fd5b50565b6000815190506103de816103b8565b92915050565b6000602082840312156103fa576103f9610199565b5b6000610408848285016103cf565b9150509291505056fea264697066735822122033416d3af5cb5bf4ac5218e1a2a175cbc484241942268959d10e323db576abe764736f6c634300080f0033",
  "immutableReferences": {},
  "source": "//SPDX-License-Identifier: UNLICENSED\n \npragma solidity ^0.8.0;\nimport \"./OracleClient.sol\";\n\n// abstract class for oracle contract, which implements the oracle interface\ncontract Oracle is OracleInterface {\n    \n    event temperatureRequest(bytes32 batchID, address caller);\n\n    address public trustedServer;\n\n    // only get temperature from declared source\n    // modifier trusted(address serverAddr) { require(serverAddr == trustedServer, 'data must come from the trusted source'); _; }\n\n    constructor(address serverAddr) {\n        trustedServer = serverAddr;\n    }\n\n    // emit a request for temperature data for the given batchId for the \n    // listener to hear\n    function requestData(bytes32 batchId) public override {\n        emit temperatureRequest(batchId , msg.sender);\n    }\n    \n    // send the data from the oracle to the client\n    // called by the listener after obtaining the requested\n    // data and sends the new data to the product contract\n    function replyTemp(bytes32 batchId, uint256 data, address caller) public virtual returns (bool){\n        return TemperatureOracleClient(caller).receiveDataFromOracle(data, batchId);\n    }\n}\n",
  "sourcePath": "/Users/dariaschumm/Library/Mobile Documents/com~apple~CloudDocs/6452/project_2/contracts/Oracle.sol",
  "compiler": {
    "name": "solc",
    "version": "0.8.15+commit.e14f2714.Emscripten.clang"
  },
  "schemaVersion": "3.4.8",
  "updatedAt": "2022-07-22T09:21:35.591Z",
  "networkType": "ethereum",
  "devdoc": {
    "kind": "dev",
    "methods": {},
    "version": 1
  },
  "userdoc": {
    "kind": "user",
    "methods": {},
    "version": 1
  }
}