{
  "contractName": "Product",
  "abi": [
    {
      "inputs": [
        {
          "internalType": "address",
          "name": "_oracle",
          "type": "address"
        },
        {
          "internalType": "address",
          "name": "_DOA",
          "type": "address"
        },
        {
          "internalType": "address payable",
          "name": "_owner",
          "type": "address"
        }
      ],
      "stateMutability": "nonpayable",
      "type": "constructor"
    },
    {
      "anonymous": false,
      "inputs": [
        {
          "indexed": false,
          "internalType": "bytes32",
          "name": "productID",
          "type": "bytes32"
        }
      ],
      "name": "batchIdentifier",
      "type": "event"
    },
    {
      "anonymous": false,
      "inputs": [
        {
          "indexed": false,
          "internalType": "bool",
          "name": "result",
          "type": "bool"
        }
      ],
      "name": "compareTemperatureResult",
      "type": "event"
    },
    {
      "inputs": [
        {
          "internalType": "uint256",
          "name": "data",
          "type": "uint256"
        },
        {
          "internalType": "bytes32",
          "name": "batchId",
          "type": "bytes32"
        }
      ],
      "name": "receiveDataFromOracle",
      "outputs": [
        {
          "internalType": "bool",
          "name": "",
          "type": "bool"
        }
      ],
      "stateMutability": "nonpayable",
      "type": "function"
    },
    {
      "inputs": [
        {
          "internalType": "address",
          "name": "_producer",
          "type": "address"
        }
      ],
      "name": "addProducer",
      "outputs": [],
      "stateMutability": "nonpayable",
      "type": "function"
    },
    {
      "inputs": [
        {
          "internalType": "bytes32",
          "name": "_data",
          "type": "bytes32"
        },
        {
          "internalType": "uint256",
          "name": "_temperature",
          "type": "uint256"
        },
        {
          "internalType": "string",
          "name": "_CID",
          "type": "string"
        }
      ],
      "name": "addProduct",
      "outputs": [],
      "stateMutability": "nonpayable",
      "type": "function"
    },
    {
      "inputs": [
        {
          "internalType": "bytes32",
          "name": "_batchID",
          "type": "bytes32"
        },
        {
          "internalType": "bytes32",
          "name": "_certificate",
          "type": "bytes32"
        },
        {
          "internalType": "bytes",
          "name": "_signature",
          "type": "bytes"
        }
      ],
      "name": "addCertificate",
      "outputs": [],
      "stateMutability": "nonpayable",
      "type": "function"
    },
    {
      "inputs": [
        {
          "internalType": "bytes32",
          "name": "_batchID",
          "type": "bytes32"
        },
        {
          "internalType": "bytes32",
          "name": "_productHash",
          "type": "bytes32"
        },
        {
          "internalType": "address",
          "name": "_newOwner",
          "type": "address"
        }
      ],
      "name": "updateOwner",
      "outputs": [],
      "stateMutability": "nonpayable",
      "type": "function"
    },
    {
      "inputs": [
        {
          "internalType": "bytes32",
          "name": "_batchID",
          "type": "bytes32"
        },
        {
          "internalType": "bool",
          "name": "_status",
          "type": "bool"
        }
      ],
      "name": "updateStatus",
      "outputs": [],
      "stateMutability": "nonpayable",
      "type": "function"
    },
    {
      "inputs": [
        {
          "internalType": "bytes32",
          "name": "_batchID",
          "type": "bytes32"
        },
        {
          "internalType": "bytes32",
          "name": "_offchainHash",
          "type": "bytes32"
        }
      ],
      "name": "verifyProductHash",
      "outputs": [
        {
          "internalType": "bool",
          "name": "",
          "type": "bool"
        }
      ],
      "stateMutability": "view",
      "type": "function",
      "constant": true
    },
    {
      "inputs": [
        {
          "internalType": "address",
          "name": "_producer",
          "type": "address"
        }
      ],
      "name": "getProducer",
      "outputs": [
        {
          "internalType": "bool",
          "name": "",
          "type": "bool"
        }
      ],
      "stateMutability": "view",
      "type": "function",
      "constant": true
    },
    {
      "inputs": [
        {
          "internalType": "bytes32",
          "name": "_batchID",
          "type": "bytes32"
        }
      ],
      "name": "getProduct",
      "outputs": [
        {
          "internalType": "bytes32",
          "name": "",
          "type": "bytes32"
        },
        {
          "internalType": "address",
          "name": "",
          "type": "address"
        },
        {
          "internalType": "bool",
          "name": "",
          "type": "bool"
        }
      ],
      "stateMutability": "view",
      "type": "function",
      "constant": true
    },
    {
      "inputs": [
        {
          "internalType": "bytes32",
          "name": "_batchID",
          "type": "bytes32"
        }
      ],
      "name": "getCertificate",
      "outputs": [
        {
          "internalType": "bytes32",
          "name": "",
          "type": "bytes32"
        },
        {
          "internalType": "bytes",
          "name": "",
          "type": "bytes"
        }
      ],
      "stateMutability": "view",
      "type": "function",
      "constant": true
    },
    {
      "inputs": [
        {
          "internalType": "bytes32",
          "name": "_batchID",
          "type": "bytes32"
        }
      ],
      "name": "getDatabase",
      "outputs": [
        {
          "internalType": "string",
          "name": "",
          "type": "string"
        }
      ],
      "stateMutability": "view",
      "type": "function",
      "constant": true
    },
    {
      "inputs": [
        {
          "internalType": "bytes32",
          "name": "_batchID",
          "type": "bytes32"
        }
      ],
      "name": "getStatus",
      "outputs": [
        {
          "internalType": "bool",
          "name": "",
          "type": "bool"
        }
      ],
      "stateMutability": "view",
      "type": "function",
      "constant": true
    },
    {
      "inputs": [
        {
          "internalType": "bytes32",
          "name": "_batchID",
          "type": "bytes32"
        }
      ],
      "name": "getTemperature",
      "outputs": [],
      "stateMutability": "nonpayable",
      "type": "function"
    },
    {
      "inputs": [
        {
          "internalType": "bytes32",
          "name": "_batchID",
          "type": "bytes32"
        }
      ],
      "name": "verifyCertificate",
      "outputs": [
        {
          "internalType": "bool",
          "name": "",
          "type": "bool"
        }
      ],
      "stateMutability": "view",
      "type": "function",
      "constant": true
    },
    {
      "inputs": [],
      "name": "destroyContract",
      "outputs": [],
      "stateMutability": "nonpayable",
      "type": "function"
    },
    {
      "inputs": [],
      "name": "emergencyHalt",
      "outputs": [],
      "stateMutability": "nonpayable",
      "type": "function"
    },
    {
      "inputs": [],
      "name": "restartContract",
      "outputs": [],
      "stateMutability": "nonpayable",
      "type": "function"
    },
    {
      "inputs": [],
      "name": "checkHalt",
      "outputs": [
        {
          "internalType": "bool",
          "name": "",
          "type": "bool"
        }
      ],
      "stateMutability": "view",
      "type": "function",
      "constant": true
    }
  ],
  "bytecode": "0x60806040523480156200001157600080fd5b5060405162002d4038038062002d408339818101604052810190620000379190620001b3565b82806000806101000a81548173ffffffffffffffffffffffffffffffffffffffff021916908373ffffffffffffffffffffffffffffffffffffffff1602179055505081600260006101000a81548173ffffffffffffffffffffffffffffffffffffffff021916908373ffffffffffffffffffffffffffffffffffffffff16021790555080600160006101000a81548173ffffffffffffffffffffffffffffffffffffffff021916908373ffffffffffffffffffffffffffffffffffffffff1602179055505050506200020f565b600080fd5b600073ffffffffffffffffffffffffffffffffffffffff82169050919050565b6000620001368262000109565b9050919050565b620001488162000129565b81146200015457600080fd5b50565b60008151905062000168816200013d565b92915050565b60006200017b8262000109565b9050919050565b6200018d816200016e565b81146200019957600080fd5b50565b600081519050620001ad8162000182565b92915050565b600080600060608486031215620001cf57620001ce62000104565b5b6000620001df8682870162000157565b9350506020620001f28682870162000157565b925050604062000205868287016200019c565b9150509250925092565b612b21806200021f6000396000f3fe608060405234801561001057600080fd5b50600436106101165760003560e01c80638ec394d1116100a2578063bfc9554e11610071578063bfc9554e146102df578063ddf80166146102fb578063e58603a914610317578063f333fe0814610333578063f86f17861461036457610116565b80638ec394d114610247578063a921387414610263578063aab147b214610293578063b83ce919146102c357610116565b806351755334116100e957806351755334146101915780635950c3fb1461019b5780635de28ae0146101b757806362004e63146101e7578063850c17681461021757610116565b8063092a5cce1461011b57806324c45f681461012557806330a52d5b146101555780633a20e9df1461015f575b600080fd5b610123610382565b005b61013f600480360381019061013a9190611a65565b61044d565b60405161014c9190611ac0565b60405180910390f35b61015d6104f0565b005b61017960048036038101906101749190611adb565b6105f4565b60405161018893929190611b58565b60405180910390f35b6101996106cf565b005b6101b560048036038101906101b09190611cd5565b6107d4565b005b6101d160048036038101906101cc9190611adb565b610a59565b6040516101de9190611ac0565b60405180910390f35b61020160048036038101906101fc9190611adb565b610add565b60405161020e9190611dcc565b60405180910390f35b610231600480360381019061022c9190611adb565b610bda565b60405161023e9190611ac0565b60405180910390f35b610261600480360381019061025c9190611e8f565b610d2c565b005b61027d60048036038101906102789190611efe565b610f4a565b60405161028a9190611ac0565b60405180910390f35b6102ad60048036038101906102a89190611f6a565b610fd4565b6040516102ba9190611ac0565b60405180910390f35b6102dd60048036038101906102d89190611f97565b611081565b005b6102f960048036038101906102f49190611adb565b6112e4565b005b61031560048036038101906103109190611f6a565b6112f0565b005b610331600480360381019061032c9190612016565b611433565b005b61034d60048036038101906103489190611adb565b611565565b60405161035b9291906120ab565b60405180910390f35b61036c611683565b6040516103799190611ac0565b60405180910390f35b3373ffffffffffffffffffffffffffffffffffffffff16600160009054906101000a900473ffffffffffffffffffffffffffffffffffffffff1673ffffffffffffffffffffffffffffffffffffffff1614610412576040517f08c379a00000000000000000000000000000000000000000000000000000000081526004016104099061214d565b60405180910390fd5b600160009054906101000a900473ffffffffffffffffffffffffffffffffffffffff1673ffffffffffffffffffffffffffffffffffffffff16ff5b60008060009054906101000a900473ffffffffffffffffffffffffffffffffffffffff1673ffffffffffffffffffffffffffffffffffffffff163373ffffffffffffffffffffffffffffffffffffffff16146104de576040517f08c379a00000000000000000000000000000000000000000000000000000000081526004016104d5906121df565b60405180910390fd5b6104e88284611699565b905092915050565b6001801515600060149054906101000a900460ff16151514610547576040517f08c379a000000000000000000000000000000000000000000000000000000000815260040161053e9061224b565b60405180910390fd5b3373ffffffffffffffffffffffffffffffffffffffff16600160009054906101000a900473ffffffffffffffffffffffffffffffffffffffff1673ffffffffffffffffffffffffffffffffffffffff16146105d7576040517f08c379a00000000000000000000000000000000000000000000000000000000081526004016105ce9061214d565b60405180910390fd5b60008060146101000a81548160ff02191690831515021790555050565b600080600080801515600060149054906101000a900460ff1615151461064f576040517f08c379a00000000000000000000000000000000000000000000000000000000081526004016106469061224b565b60405180910390fd5b60046000868152602001908152602001600020600001546004600087815260200190815260200160002060030160009054906101000a900473ffffffffffffffffffffffffffffffffffffffff166004600088815260200190815260200160002060060160009054906101000a900460ff16935093509350509193909250565b6000801515600060149054906101000a900460ff16151514610726576040517f08c379a000000000000000000000000000000000000000000000000000000000815260040161071d9061224b565b60405180910390fd5b3373ffffffffffffffffffffffffffffffffffffffff16600160009054906101000a900473ffffffffffffffffffffffffffffffffffffffff1673ffffffffffffffffffffffffffffffffffffffff16146107b6576040517f08c379a00000000000000000000000000000000000000000000000000000000081526004016107ad9061214d565b60405180910390fd5b6001600060146101000a81548160ff02191690831515021790555050565b6000801515600060149054906101000a900460ff1615151461082b576040517f08c379a00000000000000000000000000000000000000000000000000000000081526004016108229061224b565b60405180910390fd5b3360011515600660008373ffffffffffffffffffffffffffffffffffffffff1673ffffffffffffffffffffffffffffffffffffffff16815260200190815260200160002060009054906101000a900460ff161515146108bf576040517f08c379a00000000000000000000000000000000000000000000000000000000081526004016108b6906122dd565b60405180910390fd5b6000856040516020016108d2919061231e565b604051602081830303815290604052805190602001209050856004600083815260200190815260200160002060000181905550336004600083815260200190815260200160002060030160006101000a81548173ffffffffffffffffffffffffffffffffffffffff021916908373ffffffffffffffffffffffffffffffffffffffff160217905550336004600083815260200190815260200160002060040160006101000a81548173ffffffffffffffffffffffffffffffffffffffff021916908373ffffffffffffffffffffffffffffffffffffffff16021790555084600460008381526020019081526020016000206005018190555060016004600083815260200190815260200160002060060160006101000a81548160ff02191690831515021790555083600560008381526020019081526020016000209081610a199190612545565b507feb12ab352ec0628425cb2d83290a1d034ed2d60ba8d5caf7462e7526ce18d38e81604051610a499190612617565b60405180910390a1505050505050565b600080801515600060149054906101000a900460ff16151514610ab1576040517f08c379a0000000000000000000000000000000000000000000000000000000008152600401610aa89061224b565b60405180910390fd5b6004600084815260200190815260200160002060060160009054906101000a900460ff16915050919050565b60606000801515600060149054906101000a900460ff16151514610b36576040517f08c379a0000000000000000000000000000000000000000000000000000000008152600401610b2d9061224b565b60405180910390fd5b600560008481526020019081526020016000208054610b5490612368565b80601f0160208091040260200160405190810160405280929190818152602001828054610b8090612368565b8015610bcd5780601f10610ba257610100808354040283529160200191610bcd565b820191906000526020600020905b815481529060010190602001808311610bb057829003601f168201915b5050505050915050919050565b600080801515600060149054906101000a900460ff16151514610c32576040517f08c379a0000000000000000000000000000000000000000000000000000000008152600401610c299061224b565b60405180910390fd5b6000600460008581526020019081526020016000206001015490506000600460008681526020019081526020016000206002018054610c7090612368565b80601f0160208091040260200160405190810160405280929190818152602001828054610c9c90612368565b8015610ce95780601f10610cbe57610100808354040283529160200191610ce9565b820191906000526020600020905b815481529060010190602001808311610ccc57829003601f168201915b505050505090506000610cfc83836116ad565b905060011515610d0b82611780565b151503610d1e5760019450505050610d26565b600094505050505b50919050565b6000801515600060149054906101000a900460ff16151514610d83576040517f08c379a0000000000000000000000000000000000000000000000000000000008152600401610d7a9061224b565b60405180910390fd5b33843373ffffffffffffffffffffffffffffffffffffffff166004600083815260200190815260200160002060030160009054906101000a900473ffffffffffffffffffffffffffffffffffffffff1673ffffffffffffffffffffffffffffffffffffffff1614610e29576040517f08c379a0000000000000000000000000000000000000000000000000000000008152600401610e20906126a4565b60405180910390fd5b6004600087815260200190815260200160002060030160009054906101000a900473ffffffffffffffffffffffffffffffffffffffff1673ffffffffffffffffffffffffffffffffffffffff166004600088815260200190815260200160002060040160009054906101000a900473ffffffffffffffffffffffffffffffffffffffff1673ffffffffffffffffffffffffffffffffffffffff1614610f03576040517f08c379a0000000000000000000000000000000000000000000000000000000008152600401610efa90612736565b60405180910390fd5b84600460008881526020019081526020016000206001018190555083600460008881526020019081526020016000206002019081610f4191906127b1565b50505050505050565b600080801515600060149054906101000a900460ff16151514610fa2576040517f08c379a0000000000000000000000000000000000000000000000000000000008152600401610f999061224b565b60405180910390fd5b82600460008681526020019081526020016000206000015403610fc85760019150610fcd565b600091505b5092915050565b600080801515600060149054906101000a900460ff1615151461102c576040517f08c379a00000000000000000000000000000000000000000000000000000000081526004016110239061224b565b60405180910390fd5b600660008473ffffffffffffffffffffffffffffffffffffffff1673ffffffffffffffffffffffffffffffffffffffff16815260200190815260200160002060009054906101000a900460ff16915050919050565b6000801515600060149054906101000a900460ff161515146110d8576040517f08c379a00000000000000000000000000000000000000000000000000000000081526004016110cf9061224b565b60405180910390fd5b33843373ffffffffffffffffffffffffffffffffffffffff166004600083815260200190815260200160002060030160009054906101000a900473ffffffffffffffffffffffffffffffffffffffff1673ffffffffffffffffffffffffffffffffffffffff161461117e576040517f08c379a0000000000000000000000000000000000000000000000000000000008152600401611175906126a4565b60405180910390fd5b6001151561118c8787610f4a565b1515146111ce576040517f08c379a00000000000000000000000000000000000000000000000000000000081526004016111c5906128cf565b60405180910390fd5b600115156111db87610bda565b15151461121d576040517f08c379a00000000000000000000000000000000000000000000000000000000081526004016112149061293b565b60405180910390fd5b600115156004600088815260200190815260200160002060060160009054906101000a900460ff16151514611287576040517f08c379a000000000000000000000000000000000000000000000000000000000815260040161127e906129a7565b60405180910390fd5b836004600088815260200190815260200160002060030160006101000a81548173ffffffffffffffffffffffffffffffffffffffff021916908373ffffffffffffffffffffffffffffffffffffffff160217905550505050505050565b6112ed8161182a565b50565b6000801515600060149054906101000a900460ff16151514611347576040517f08c379a000000000000000000000000000000000000000000000000000000000815260040161133e9061224b565b60405180910390fd5b3373ffffffffffffffffffffffffffffffffffffffff16600160009054906101000a900473ffffffffffffffffffffffffffffffffffffffff1673ffffffffffffffffffffffffffffffffffffffff16146113d7576040517f08c379a00000000000000000000000000000000000000000000000000000000081526004016113ce9061214d565b60405180910390fd5b6001600660008473ffffffffffffffffffffffffffffffffffffffff1673ffffffffffffffffffffffffffffffffffffffff16815260200190815260200160002060006101000a81548160ff0219169083151502179055505050565b6000801515600060149054906101000a900460ff1615151461148a576040517f08c379a00000000000000000000000000000000000000000000000000000000081526004016114819061224b565b60405180910390fd5b33833373ffffffffffffffffffffffffffffffffffffffff166004600083815260200190815260200160002060030160009054906101000a900473ffffffffffffffffffffffffffffffffffffffff1673ffffffffffffffffffffffffffffffffffffffff1614611530576040517f08c379a0000000000000000000000000000000000000000000000000000000008152600401611527906126a4565b60405180910390fd5b836004600087815260200190815260200160002060060160006101000a81548160ff0219169083151502179055505050505050565b600060606000801515600060149054906101000a900460ff161515146115c0576040517f08c379a00000000000000000000000000000000000000000000000000000000081526004016115b79061224b565b60405180910390fd5b6004600085815260200190815260200160002060010154600460008681526020019081526020016000206002018080546115f990612368565b80601f016020809104026020016040519081016040528092919081815260200182805461162590612368565b80156116725780601f1061164757610100808354040283529160200191611672565b820191906000526020600020905b81548152906001019060200180831161165557829003601f168201915b505050505090509250925050915091565b60008060149054906101000a900460ff16905090565b60006116a583836118b8565b905092915050565b60008060008060418551146116c8576000935050505061177a565b6020850151925060408501519150606085015160001a9050601b8160ff1610156116fc57601b816116f99190612a03565b90505b601b8160ff16141580156117145750601c8160ff1614155b15611725576000935050505061177a565b600186828585604051600081526020016040526040516117489493929190612a49565b6020604051602081039080840390855afa15801561176a573d6000803e3d6000fd5b5050506020604051035193505050505b92915050565b600080600260009054906101000a900473ffffffffffffffffffffffffffffffffffffffff1690508073ffffffffffffffffffffffffffffffffffffffff16636af92956846040518263ffffffff1660e01b81526004016117e19190612a8e565b602060405180830381865afa1580156117fe573d6000803e3d6000fd5b505050506040513d601f19601f820116820180604052508101906118229190612abe565b915050919050565b60008054906101000a900473ffffffffffffffffffffffffffffffffffffffff1673ffffffffffffffffffffffffffffffffffffffff16633661346b826040518263ffffffff1660e01b81526004016118839190612617565b600060405180830381600087803b15801561189d57600080fd5b505af11580156118b1573d6000803e3d6000fd5b5050505050565b600080801515600060149054906101000a900460ff16151514611910576040517f08c379a00000000000000000000000000000000000000000000000000000000081526004016119079061224b565b60405180910390fd5b600460008581526020019081526020016000206005015483111561195e5760006004600086815260200190815260200160002060060160006101000a81548160ff0219169083151502179055505b7f8fadd6f505628cd2c13e5786c730c9d6e57eb96632e17ff196ad26f99cec61526004600086815260200190815260200160002060060160009054906101000a900460ff166040516119b09190611ac0565b60405180910390a16004600085815260200190815260200160002060060160009054906101000a900460ff1691505092915050565b6000604051905090565b600080fd5b600080fd5b6000819050919050565b611a0c816119f9565b8114611a1757600080fd5b50565b600081359050611a2981611a03565b92915050565b6000819050919050565b611a4281611a2f565b8114611a4d57600080fd5b50565b600081359050611a5f81611a39565b92915050565b60008060408385031215611a7c57611a7b6119ef565b5b6000611a8a85828601611a1a565b9250506020611a9b85828601611a50565b9150509250929050565b60008115159050919050565b611aba81611aa5565b82525050565b6000602082019050611ad56000830184611ab1565b92915050565b600060208284031215611af157611af06119ef565b5b6000611aff84828501611a50565b91505092915050565b611b1181611a2f565b82525050565b600073ffffffffffffffffffffffffffffffffffffffff82169050919050565b6000611b4282611b17565b9050919050565b611b5281611b37565b82525050565b6000606082019050611b6d6000830186611b08565b611b7a6020830185611b49565b611b876040830184611ab1565b949350505050565b600080fd5b600080fd5b6000601f19601f8301169050919050565b7f4e487b7100000000000000000000000000000000000000000000000000000000600052604160045260246000fd5b611be282611b99565b810181811067ffffffffffffffff82111715611c0157611c00611baa565b5b80604052505050565b6000611c146119e5565b9050611c208282611bd9565b919050565b600067ffffffffffffffff821115611c4057611c3f611baa565b5b611c4982611b99565b9050602081019050919050565b82818337600083830152505050565b6000611c78611c7384611c25565b611c0a565b905082815260208101848484011115611c9457611c93611b94565b5b611c9f848285611c56565b509392505050565b600082601f830112611cbc57611cbb611b8f565b5b8135611ccc848260208601611c65565b91505092915050565b600080600060608486031215611cee57611ced6119ef565b5b6000611cfc86828701611a50565b9350506020611d0d86828701611a1a565b925050604084013567ffffffffffffffff811115611d2e57611d2d6119f4565b5b611d3a86828701611ca7565b9150509250925092565b600081519050919050565b600082825260208201905092915050565b60005b83811015611d7e578082015181840152602081019050611d63565b83811115611d8d576000848401525b50505050565b6000611d9e82611d44565b611da88185611d4f565b9350611db8818560208601611d60565b611dc181611b99565b840191505092915050565b60006020820190508181036000830152611de68184611d93565b905092915050565b600067ffffffffffffffff821115611e0957611e08611baa565b5b611e1282611b99565b9050602081019050919050565b6000611e32611e2d84611dee565b611c0a565b905082815260208101848484011115611e4e57611e4d611b94565b5b611e59848285611c56565b509392505050565b600082601f830112611e7657611e75611b8f565b5b8135611e86848260208601611e1f565b91505092915050565b600080600060608486031215611ea857611ea76119ef565b5b6000611eb686828701611a50565b9350506020611ec786828701611a50565b925050604084013567ffffffffffffffff811115611ee857611ee76119f4565b5b611ef486828701611e61565b9150509250925092565b60008060408385031215611f1557611f146119ef565b5b6000611f2385828601611a50565b9250506020611f3485828601611a50565b9150509250929050565b611f4781611b37565b8114611f5257600080fd5b50565b600081359050611f6481611f3e565b92915050565b600060208284031215611f8057611f7f6119ef565b5b6000611f8e84828501611f55565b91505092915050565b600080600060608486031215611fb057611faf6119ef565b5b6000611fbe86828701611a50565b9350506020611fcf86828701611a50565b9250506040611fe086828701611f55565b9150509250925092565b611ff381611aa5565b8114611ffe57600080fd5b50565b60008135905061201081611fea565b92915050565b6000806040838503121561202d5761202c6119ef565b5b600061203b85828601611a50565b925050602061204c85828601612001565b9150509250929050565b600081519050919050565b600082825260208201905092915050565b600061207d82612056565b6120878185612061565b9350612097818560208601611d60565b6120a081611b99565b840191505092915050565b60006040820190506120c06000830185611b08565b81810360208301526120d28184612072565b90509392505050565b7f6f6e6c7920636f6e7472616374206f776e65722063616e2063616c6c2074686960008201527f732066756e6374696f6e00000000000000000000000000000000000000000000602082015250565b6000612137602a83611d4f565b9150612142826120db565b604082019050919050565b600060208201905081810360008301526121668161212a565b9050919050565b7f64617461206d75737420636f6d652066726f6d20746865206f7261636c65206360008201527f6f6e747261637400000000000000000000000000000000000000000000000000602082015250565b60006121c9602783611d4f565b91506121d48261216d565b604082019050919050565b600060208201905081810360008301526121f8816121bc565b9050919050565b7f636f6e74726163742068616c7400000000000000000000000000000000000000600082015250565b6000612235600d83611d4f565b9150612240826121ff565b602082019050919050565b6000602082019050818103600083015261226481612228565b9050919050565b7f6f6e6c7920617574686f72697365642070726f64756365722063616e2063616c60008201527f6c20746869732066756e6374696f6e0000000000000000000000000000000000602082015250565b60006122c7602f83611d4f565b91506122d28261226b565b604082019050919050565b600060208201905081810360008301526122f6816122ba565b9050919050565b6000819050919050565b61231861231382611a2f565b6122fd565b82525050565b600061232a8284612307565b60208201915081905092915050565b7f4e487b7100000000000000000000000000000000000000000000000000000000600052602260045260246000fd5b6000600282049050600182168061238057607f821691505b60208210810361239357612392612339565b5b50919050565b60008190508160005260206000209050919050565b60006020601f8301049050919050565b600082821b905092915050565b6000600883026123fb7fffffffffffffffffffffffffffffffffffffffffffffffffffffffffffffffff826123be565b61240586836123be565b95508019841693508086168417925050509392505050565b6000819050919050565b600061244261243d612438846119f9565b61241d565b6119f9565b9050919050565b6000819050919050565b61245c83612427565b61247061246882612449565b8484546123cb565b825550505050565b600090565b612485612478565b612490818484612453565b505050565b5b818110156124b4576124a960008261247d565b600181019050612496565b5050565b601f8211156124f9576124ca81612399565b6124d3846123ae565b810160208510156124e2578190505b6124f66124ee856123ae565b830182612495565b50505b505050565b600082821c905092915050565b600061251c600019846008026124fe565b1980831691505092915050565b6000612535838361250b565b9150826002028217905092915050565b61254e82611d44565b67ffffffffffffffff81111561256757612566611baa565b5b6125718254612368565b61257c8282856124b8565b600060209050601f8311600181146125af576000841561259d578287015190505b6125a78582612529565b86555061260f565b601f1984166125bd86612399565b60005b828110156125e5578489015182556001820191506020850194506020810190506125c0565b8683101561260257848901516125fe601f89168261250b565b8355505b6001600288020188555050505b505050505050565b600060208201905061262c6000830184611b08565b92915050565b7f6f6e6c79206f776e65722063616e2063616c6c20746869732066756e6374696f60008201527f6e00000000000000000000000000000000000000000000000000000000000000602082015250565b600061268e602183611d4f565b915061269982612632565b604082019050919050565b600060208201905081810360008301526126bd81612681565b9050919050565b7f70726f6475636572206f6620746865206261746368206973206e6f742074686560008201527f206f776e65720000000000000000000000000000000000000000000000000000602082015250565b6000612720602683611d4f565b915061272b826126c4565b604082019050919050565b6000602082019050818103600083015261274f81612713565b9050919050565b60008190508160005260206000209050919050565b601f8211156127ac5761277d81612756565b612786846123ae565b81016020851015612795578190505b6127a96127a1856123ae565b830182612495565b50505b505050565b6127ba82612056565b67ffffffffffffffff8111156127d3576127d2611baa565b5b6127dd8254612368565b6127e882828561276b565b600060209050601f83116001811461281b5760008415612809578287015190505b6128138582612529565b86555061287b565b601f19841661282986612756565b60005b828110156128515784890151825560018201915060208501945060208101905061282c565b8683101561286e578489015161286a601f89168261250b565b8355505b6001600288020188555050505b505050505050565b7f70726f64756374206861736820766572696669636174696f6e206661696c6564600082015250565b60006128b9602083611d4f565b91506128c482612883565b602082019050919050565b600060208201905081810360008301526128e8816128ac565b9050919050565b7f636572746966696361746520766572696669636174696f6e206661696c656400600082015250565b6000612925601f83611d4f565b9150612930826128ef565b602082019050919050565b6000602082019050818103600083015261295481612918565b9050919050565b7f737461747573206973206e6f7420676f6f640000000000000000000000000000600082015250565b6000612991601283611d4f565b915061299c8261295b565b602082019050919050565b600060208201905081810360008301526129c081612984565b9050919050565b600060ff82169050919050565b7f4e487b7100000000000000000000000000000000000000000000000000000000600052601160045260246000fd5b6000612a0e826129c7565b9150612a19836129c7565b92508260ff03821115612a2f57612a2e6129d4565b5b828201905092915050565b612a43816129c7565b82525050565b6000608082019050612a5e6000830187611b08565b612a6b6020830186612a3a565b612a786040830185611b08565b612a856060830184611b08565b95945050505050565b6000602082019050612aa36000830184611b49565b92915050565b600081519050612ab881611fea565b92915050565b600060208284031215612ad457612ad36119ef565b5b6000612ae284828501612aa9565b9150509291505056fea2646970667358221220016bfc13a9ac244db4f66adc88abd0a1c6f14d74eca3d0580d615d97104b295964736f6c634300080f0033",
  "immutableReferences": {},
  "source": "// SPDX-License-Identifier: MIT\npragma solidity ^0.8.0;\n\nimport \"./CARegistry.sol\"; \nimport \"./OracleClient.sol\";\n\ncontract Product is TemperatureOracleClient {\n\n    bool internal halted;\n    bool internal locked;                   // lock for payments (not sure if necessary yet)\n    address payable owner;                  // owner of this contract (who deployed)\n    address DOA;                            // Department of Agriculture contract address \n    uint256 recvdTemp;\n\n    struct Batch {                          // keeps the hash of product data and conditions \n        bytes32 productHash;                // hash of the data stored off-chain \n        bytes32 certificate;                // organic product certification \n        bytes signature;                    // created with web3.eth.sign(), bytes by issuer \n        address owner;                      // current owner of the product batch \n        address producer;                   // who produced the batch \n        uint256 temperature;                // required temp of the product as provided in required conitions\n        bool status;                        // the status of the product, true means ok - not sure if needed\n    }\n    \n    mapping (bytes32 => Batch) products;    // maps each product ID to a product data   \n    mapping (bytes32 => string) database;   // maps batchID to IPFS storage link \n    mapping (address => bool) producers;    // eligible producers to add products \n\n    constructor(address _oracle, address _DOA, address payable _owner) TemperatureOracleClient(_oracle) {\n        DOA = _DOA; \n        owner = _owner; \n    }\n\n    // check if the contract temporarily disabled \n    modifier halt(bool _state) { require (halted == _state, \"contract halt\"); _; }\n    // check if the caller the current owner of the batch\n    modifier onlyOwner(address _address, bytes32 _batchID) { require(products[_batchID].owner == msg.sender, \"only owner can call this function\"); _; }\n    // check if the producer authorised to add products\n    modifier onlyProducer(address _address) { require(producers[_address] == true, \"only authorised producer can call this function\"); _; }\n    // check if the caller is the contract owner \n    modifier onlyDeployer() { require(owner == msg.sender, \"only contract owner can call this function\"); _; }\n\n    // send generated product ID to off-chain \n    event batchIdentifier(bytes32 productID); \n    // send temperature comparison result to off-chain\n    event compareTemperatureResult(bool result);\n\n    /* PRODUCT FUNCTIONS ------------------------------------------------------------------ */\n\n    /**\n     * @notice contract deployer adds authorised producer\n     *         to the mapping, which gives permissions to \n     *         add products and certificate \n     * @dev    only contract owner can call \n     * @param  _producer batch producer address \n    **/\n    function addProducer(address _producer) public halt(false) onlyDeployer() {\n        producers[_producer] = true; \n    }\n\n    /**\n     * @notice add product infromation to the data hash\n     *         and conditions hash generated from off-chain\n     * @dev    only registered producer can call \n     * @param  _data product data hash \n     * @param  _temperature stores required temperature\n     * @param  _CID unique identifier of the off-chain storage\n    **/\n    function addProduct(bytes32 _data, uint256 _temperature, string memory _CID) public halt(false) onlyProducer(msg.sender) {\n        bytes32 batchID = bytes32(keccak256(abi.encodePacked(_data))); \n        products[batchID].productHash = _data; \n        products[batchID].owner = msg.sender; \n        products[batchID].producer = msg.sender;\n        products[batchID].temperature = _temperature; \n        products[batchID].status = true;\n        database[batchID] = _CID; \n        emit batchIdentifier(batchID);\n    }\n\n    /**\n     * @notice producer adds a certificate obtained from the \n     *         CA from off-chain, the producer has to be the \n     *         current batch owner to add certificate \n     * @dev    only the producer of the product can call \n     * @param  _batchID unique identifier of the batch \n     * @param  _certificate certificate certifying product batch\n     * @param  _signature signature of the certificate issuer \n    **/\n    function addCertificate(bytes32 _batchID, bytes32 _certificate, bytes memory _signature) public halt(false) onlyOwner(msg.sender, _batchID) {\n        require(products[_batchID].producer == products[_batchID].owner, \"producer of the batch is not the owner\"); \n        // require(verifyIssuer(recoverIssuer(_certificate, _signature)) == true, \"certificate issued by unauthorised CA\");\n        products[_batchID].certificate = _certificate; \n        products[_batchID].signature = _signature; \n        \n    }\n\n    /**\n     * @notice transfer the ownership of the product batch, supported by \n     *         certificate verification and check of the product hash\n     *         that is stored on-chain and freshly computed one\n     * @dev    only the current owner of the product can call \n     * @param  _batchID unique identifier of the batch \n     * @param  _productHash hash of the product to verify\n     * @param  _newOwner address of a new batch owner \n    **/\n    function updateOwner(bytes32 _batchID, bytes32 _productHash, address _newOwner) public halt(false) onlyOwner(msg.sender, _batchID) {\n        require(verifyProductHash(_batchID, _productHash) == true, \"product hash verification failed\"); \n        require(verifyCertificate(_batchID) == true, \"certificate verification failed\");\n        require(products[_batchID].status == true, \"status is not good\"); \n        products[_batchID].owner = _newOwner; \n    }\n\n    /**\n     * @notice lets a product owner to update product status \n     *         based on physical off-chain investigation\n     * @dev    only batch current owner can call \n     * @param  _batchID unique identifier of the batch \n     * @param  _status new status of the batch \n    **/\n    function updateStatus(bytes32 _batchID, bool _status) public halt(false) onlyOwner(msg.sender, _batchID) {\n        products[_batchID].status = _status; \n    }\n\n    /* VERIFICATION FUNCTIONS ----------------------------------------------------------------- */\n\n    /**\n     * @notice allows to verify data in the off-chain data store about product\n     * @dev    anyone can call \n     * @param  _batchID unique identifier of the batch \n     * @param  _offchainHash certificate certifying product batch\n     * @return bool if the hash stored on-chain is the same as newly computed hash,\n     *         then product infromation is correct and has not been modified \n    **/\n    function verifyProductHash(bytes32 _batchID, bytes32 _offchainHash) public halt(false) view returns(bool) {\n        if (products[_batchID].productHash == _offchainHash) { return true;}\n        return false;\n    }\n\n    /* GETTER FUNCTIONS ----------------------------------------------------------------------- */\n\n    /**\n     * @notice checks whether the producer address is\n     *         authorised to add product and certificate\n     * @dev    anyone can call function \n     * @param  _producer batch producer address \n     * @return bool true if address is in mapping \n    **/\n    function getProducer(address _producer) public view halt(false) returns(bool) {\n        return producers[_producer]; \n    }\n\n    /**\n     * @notice get the product hash and owner by its unique ID\n     * @dev    anyone can call function \n     * @param  _batchID unique batch ID to get the product \n     * @return bytes32 product hash stored on-chain \n     * @return address of the current owner of the batch \n    **/\n    function getProduct(bytes32 _batchID) public view halt(false) returns(bytes32, address, bool) {\n        return (products[_batchID].productHash, products[_batchID].owner, products[_batchID].status);\n    }\n\n    /**\n     * @notice get the product certificate and signer signature\n     * @dev    anyone can call function \n     * @param  _batchID unique batch ID to get the product \n     * @return bytes32 batch certificate on-chain\n     * @return bytes array of the issuer signature\n    **/\n    function getCertificate(bytes32 _batchID) public view halt(false) returns(bytes32, bytes memory) {\n        return (products[_batchID].certificate, products[_batchID].signature); \n    }\n\n    /**\n     * @notice get the product off-chain storage location \n     * @dev    anyone can call function \n     * @param  _batchID unique batch ID to get the product \n     * @return string unique IPFS storage identifier (CID)\n    **/\n    function getDatabase(bytes32 _batchID) public view halt(false) returns(string memory) {\n        return database[_batchID]; \n    }\n\n    /**\n     * @notice get status of the batch \n     * @dev    anyone can call function \n     * @param  _batchID unique batch ID to get the product \n     * @return bool reads batch status \n    **/\n    function getStatus(bytes32 _batchID) public view halt(false) returns(bool) {\n        return products[_batchID].status; \n    }\n\n    /* ORACLE FUNCTIONS -------------------------------------------------------------------- */\n\n    /**\n     * @notice request temperature from the oracle \n     * @dev    anyone can call function \n     * @param  _batchID unique batch ID to get the product \n    **/\n    function getTemperature(bytes32 _batchID) public {\n        requestTemperatureFromOracle(_batchID);\n    }\n\n    // receive the reply from the oracle\n    // this will check received temp against required temp in products \n    /**\n     * @notice receive temperature from the oracle \n     * @dev    oracle calls this function \n     * @param  _batchID unique batch ID to get the product \n     * @param  _recvdTemp temperature returned from oracle \n     * @return bool true if the temperature as expected \n    **/\n    function receiveTemperatureFromOracle(bytes32 _batchID, uint256 _recvdTemp) internal override returns(bool) {\n        return compareTemperature(_batchID, _recvdTemp);\n    }\n\n    /* TEMPERATURE FUNCTIONS ------------------------------------------------------------------ */\n\n    /**\n     * @notice oracle function that is called once data received,\n     *         required temperature is compared with newly received \n     *         temperature and status is set to false when temperature\n     *         is abnormal, event emitted and users can be notified \n     * @dev    oracle only can call the function \n     * @param  _batchID unique batch ID to get the product \n     * @param  _newTemperature received temperature from external source\n     * @return bool new status of the product\n    **/\n    function compareTemperature(bytes32 _batchID, uint256 _newTemperature) private halt(false) returns(bool) {\n        if (_newTemperature > products[_batchID].temperature) {\n            products[_batchID].status = false;\n        }\n        emit compareTemperatureResult(products[_batchID].status);\n        return products[_batchID].status;\n    }\n\n    /* CERTIFICATE FUNCTIONS ------------------------------------------------------------------ */\n\n    /**\n     * @notice based the product certificate and issuer signature\n     *         recovers the address of CA who signed the certificate\n     *         and verifies whether it is registered with DOA \n     * @dev    anyone can call function \n     * @param  _batchID unique batch ID to get the product \n     * @return bool if the issuer is registered with DOA, then \n     *         certificate is valid, otherwise returns false \n    **/\n    function verifyCertificate(bytes32 _batchID) public view halt(false) returns(bool) {\n        bytes32 certificate = products[_batchID].certificate; \n        bytes memory signature = products[_batchID].signature; \n        // recovered issuer from the certificate and his signature \n        address issuer = recoverIssuer(certificate, signature); \n        if (verifyIssuer(issuer) == true) { return true; }\n        return false; \n    }\n\n    /**\n     * @notice verify that the certifying authority is ligitimate\n     *         and has been registrered with DOA registry contract,\n     *         and thus eligible to issue organic certificates\n     * @dev    other functions from this contract can call\n     * @param  _issuer unique batch ID to get the product \n     * @return bool true if the issuer registered with DOA,\n     *         otherwise false\n    **/\n    function verifyIssuer(address _issuer) internal view returns(bool) {\n        AuthorityRegistry registry = AuthorityRegistry(DOA);  \n        return registry.checkPublicKey(_issuer);\n    }\n\n    /**\n     * @notice functions recovers the signer of the certificate from the provided certificate \n               (message signed by authority) and signature \n     * @dev    called internally from placeBid function  \n     * @param  _hash the batch certificate signed by CA \n     * @param  _sig CA's bytes signature generated using web3.eth.sign()\n     * @return issuer address (authority who issued/signed the organic certificate to the product batch)\n    **/\n    // copyright: https://github.com/protofire/zeppelin-solidity/blob/master/contracts/ECRecovery.sol\n    function recoverIssuer(bytes32 _hash, bytes memory _sig) internal pure returns(address) {\n        bytes32 r; bytes32 s; uint8 v;\n        //Check the signature length\n        if (_sig.length != 65) { return (address(0)); }\n        assembly {\n            r := mload(add(_sig, 32))\n            s := mload(add(_sig, 64))\n            v := byte(0, mload(add(_sig, 96)))\n        }\n        if (v < 27) { v += 27; }\n\n        // If the version is correct return the signer address\n        if (v != 27 && v != 28) { return (address(0)); } \n        else { return ecrecover(_hash, v, r, s); }\n    }\n\n    /* UTILITIES FUNCTIONS -------------------------------------------------------------------- */\n\n    /**\n     * @notice deactivate contract \n     * @dev    only the contract owner / deployer can call\n    **/\n    function destroyContract() public onlyDeployer() {\n        selfdestruct(owner); \n    }\n\n    /**\n     * @notice tempotarity deactivate contract \n     * @dev    only the contract owner / deployer can call\n    **/\n    function emergencyHalt() public halt(false) onlyDeployer() {\n        halted = true;\n    }\n\n    /**\n     * @notice re-activate contract \n     * @dev    only the contract owner / deployer can call\n    **/\n    function restartContract() public halt(true) onlyDeployer() {\n        halted = false;\n    }\n\n    /**\n     * @notice check whether the contract is on pause\n     * @dev    anyone can call the function\n     * @return bool true if contract paused, else false\n    **/\n    function checkHalt() public view returns(bool) {\n        return halted; \n    }\n\n}",
  "sourcePath": "/Users/dariaschumm/Library/Mobile Documents/com~apple~CloudDocs/6452/supply-chain/contracts/Product.sol",
  "compiler": {
    "name": "solc",
    "version": "0.8.15+commit.e14f2714.Emscripten.clang"
  },
  "schemaVersion": "3.4.8",
  "updatedAt": "2022-07-25T07:03:12.753Z",
  "networkType": "ethereum",
  "devdoc": {
    "kind": "dev",
    "methods": {
      "addCertificate(bytes32,bytes32,bytes)": {
        "details": "only the producer of the product can call ",
        "params": {
          "_batchID": "unique identifier of the batch ",
          "_certificate": "certificate certifying product batch",
          "_signature": "signature of the certificate issuer *"
        }
      },
      "addProducer(address)": {
        "details": "only contract owner can call ",
        "params": {
          "_producer": "batch producer address *"
        }
      },
      "addProduct(bytes32,uint256,string)": {
        "details": "only registered producer can call ",
        "params": {
          "_CID": "unique identifier of the off-chain storage*",
          "_data": "product data hash ",
          "_temperature": "stores required temperature"
        }
      },
      "checkHalt()": {
        "details": "anyone can call the function",
        "returns": {
          "_0": "bool true if contract paused, else false*"
        }
      },
      "destroyContract()": {
        "details": "only the contract owner / deployer can call*"
      },
      "emergencyHalt()": {
        "details": "only the contract owner / deployer can call*"
      },
      "getCertificate(bytes32)": {
        "details": "anyone can call function ",
        "params": {
          "_batchID": "unique batch ID to get the product "
        },
        "returns": {
          "_0": "bytes32 batch certificate on-chain",
          "_1": "bytes array of the issuer signature*"
        }
      },
      "getDatabase(bytes32)": {
        "details": "anyone can call function ",
        "params": {
          "_batchID": "unique batch ID to get the product "
        },
        "returns": {
          "_0": "string unique IPFS storage identifier (CID)*"
        }
      },
      "getProducer(address)": {
        "details": "anyone can call function ",
        "params": {
          "_producer": "batch producer address "
        },
        "returns": {
          "_0": "bool true if address is in mapping *"
        }
      },
      "getProduct(bytes32)": {
        "details": "anyone can call function ",
        "params": {
          "_batchID": "unique batch ID to get the product "
        },
        "returns": {
          "_0": "bytes32 product hash stored on-chain ",
          "_1": "address of the current owner of the batch *"
        }
      },
      "getStatus(bytes32)": {
        "details": "anyone can call function ",
        "params": {
          "_batchID": "unique batch ID to get the product "
        },
        "returns": {
          "_0": "bool reads batch status *"
        }
      },
      "getTemperature(bytes32)": {
        "details": "anyone can call function ",
        "params": {
          "_batchID": "unique batch ID to get the product *"
        }
      },
      "restartContract()": {
        "details": "only the contract owner / deployer can call*"
      },
      "updateOwner(bytes32,bytes32,address)": {
        "details": "only the current owner of the product can call ",
        "params": {
          "_batchID": "unique identifier of the batch ",
          "_newOwner": "address of a new batch owner *",
          "_productHash": "hash of the product to verify"
        }
      },
      "updateStatus(bytes32,bool)": {
        "details": "only batch current owner can call ",
        "params": {
          "_batchID": "unique identifier of the batch ",
          "_status": "new status of the batch *"
        }
      },
      "verifyCertificate(bytes32)": {
        "details": "anyone can call function ",
        "params": {
          "_batchID": "unique batch ID to get the product "
        },
        "returns": {
          "_0": "bool if the issuer is registered with DOA, then          certificate is valid, otherwise returns false *"
        }
      },
      "verifyProductHash(bytes32,bytes32)": {
        "details": "anyone can call ",
        "params": {
          "_batchID": "unique identifier of the batch ",
          "_offchainHash": "certificate certifying product batch"
        },
        "returns": {
          "_0": "bool if the hash stored on-chain is the same as newly computed hash,         then product infromation is correct and has not been modified *"
        }
      }
    },
    "version": 1
  },
  "userdoc": {
    "kind": "user",
    "methods": {
      "addCertificate(bytes32,bytes32,bytes)": {
        "notice": "producer adds a certificate obtained from the          CA from off-chain, the producer has to be the          current batch owner to add certificate "
      },
      "addProducer(address)": {
        "notice": "contract deployer adds authorised producer         to the mapping, which gives permissions to          add products and certificate "
      },
      "addProduct(bytes32,uint256,string)": {
        "notice": "add product infromation to the data hash         and conditions hash generated from off-chain"
      },
      "checkHalt()": {
        "notice": "check whether the contract is on pause"
      },
      "destroyContract()": {
        "notice": "deactivate contract "
      },
      "emergencyHalt()": {
        "notice": "tempotarity deactivate contract "
      },
      "getCertificate(bytes32)": {
        "notice": "get the product certificate and signer signature"
      },
      "getDatabase(bytes32)": {
        "notice": "get the product off-chain storage location "
      },
      "getProducer(address)": {
        "notice": "checks whether the producer address is         authorised to add product and certificate"
      },
      "getProduct(bytes32)": {
        "notice": "get the product hash and owner by its unique ID"
      },
      "getStatus(bytes32)": {
        "notice": "get status of the batch "
      },
      "getTemperature(bytes32)": {
        "notice": "request temperature from the oracle "
      },
      "restartContract()": {
        "notice": "re-activate contract "
      },
      "updateOwner(bytes32,bytes32,address)": {
        "notice": "transfer the ownership of the product batch, supported by          certificate verification and check of the product hash         that is stored on-chain and freshly computed one"
      },
      "updateStatus(bytes32,bool)": {
        "notice": "lets a product owner to update product status          based on physical off-chain investigation"
      },
      "verifyCertificate(bytes32)": {
        "notice": "based the product certificate and issuer signature         recovers the address of CA who signed the certificate         and verifies whether it is registered with DOA "
      },
      "verifyProductHash(bytes32,bytes32)": {
        "notice": "allows to verify data in the off-chain data store about product"
      }
    },
    "version": 1
  }
}