{
  "contractName": "Product",
  "abi": [
    {
      "inputs": [
        {
          "internalType": "address",
          "name": "_DOA",
          "type": "address"
        },
        {
          "internalType": "address",
          "name": "_owner",
          "type": "address"
        }
      ],
      "stateMutability": "nonpayable",
      "type": "constructor"
    },
    {
      "anonymous": false,
      "inputs": [
        {
          "indexed": false,
          "internalType": "bytes32",
          "name": "certificate",
          "type": "bytes32"
        },
        {
          "indexed": false,
          "internalType": "bytes",
          "name": "signature",
          "type": "bytes"
        }
      ],
      "name": "batchCertificate",
      "type": "event"
    },
    {
      "anonymous": false,
      "inputs": [
        {
          "indexed": false,
          "internalType": "bytes32",
          "name": "productID",
          "type": "bytes32"
        }
      ],
      "name": "batchIdentifier",
      "type": "event"
    },
    {
      "anonymous": false,
      "inputs": [
        {
          "indexed": false,
          "internalType": "address",
          "name": "owner",
          "type": "address"
        }
      ],
      "name": "newOwner",
      "type": "event"
    },
    {
      "inputs": [
        {
          "internalType": "bytes32",
          "name": "_data",
          "type": "bytes32"
        },
        {
          "internalType": "bytes32",
          "name": "_conditions",
          "type": "bytes32"
        }
      ],
      "name": "addProduct",
      "outputs": [],
      "stateMutability": "nonpayable",
      "type": "function"
    },
    {
      "inputs": [
        {
          "internalType": "bytes32",
          "name": "_batchID",
          "type": "bytes32"
        },
        {
          "internalType": "bytes32",
          "name": "_updatedData",
          "type": "bytes32"
        }
      ],
      "name": "updateProduct",
      "outputs": [],
      "stateMutability": "nonpayable",
      "type": "function"
    },
    {
      "inputs": [
        {
          "internalType": "bytes32",
          "name": "_batchID",
          "type": "bytes32"
        },
        {
          "internalType": "bytes32",
          "name": "_updatedConditions",
          "type": "bytes32"
        }
      ],
      "name": "updateConditions",
      "outputs": [],
      "stateMutability": "nonpayable",
      "type": "function"
    },
    {
      "inputs": [
        {
          "internalType": "bytes32",
          "name": "_batchID",
          "type": "bytes32"
        },
        {
          "internalType": "address",
          "name": "_requestedCA",
          "type": "address"
        }
      ],
      "name": "updateCertAuthorisation",
      "outputs": [],
      "stateMutability": "nonpayable",
      "type": "function"
    },
    {
      "inputs": [
        {
          "internalType": "bytes32",
          "name": "_batchID",
          "type": "bytes32"
        },
        {
          "internalType": "bytes32",
          "name": "_certificate",
          "type": "bytes32"
        },
        {
          "internalType": "bytes",
          "name": "_signature",
          "type": "bytes"
        }
      ],
      "name": "updateCertificate",
      "outputs": [],
      "stateMutability": "nonpayable",
      "type": "function"
    },
    {
      "inputs": [
        {
          "internalType": "bytes32",
          "name": "_batchID",
          "type": "bytes32"
        },
        {
          "internalType": "address",
          "name": "_newOwner",
          "type": "address"
        }
      ],
      "name": "updateOwner",
      "outputs": [],
      "stateMutability": "nonpayable",
      "type": "function"
    },
    {
      "inputs": [
        {
          "internalType": "bytes32",
          "name": "_batchID",
          "type": "bytes32"
        },
        {
          "internalType": "bytes32",
          "name": "_offchainHash",
          "type": "bytes32"
        }
      ],
      "name": "verifyProductHash",
      "outputs": [
        {
          "internalType": "bool",
          "name": "",
          "type": "bool"
        }
      ],
      "stateMutability": "view",
      "type": "function",
      "constant": true
    },
    {
      "inputs": [
        {
          "internalType": "bytes32",
          "name": "_batchID",
          "type": "bytes32"
        },
        {
          "internalType": "bytes32",
          "name": "_offchainHash",
          "type": "bytes32"
        }
      ],
      "name": "verifyConditionsHash",
      "outputs": [
        {
          "internalType": "bool",
          "name": "",
          "type": "bool"
        }
      ],
      "stateMutability": "view",
      "type": "function",
      "constant": true
    },
    {
      "inputs": [
        {
          "internalType": "bytes32",
          "name": "_batchID",
          "type": "bytes32"
        }
      ],
      "name": "verifyIssuerAuthorisation",
      "outputs": [
        {
          "internalType": "bool",
          "name": "",
          "type": "bool"
        }
      ],
      "stateMutability": "view",
      "type": "function",
      "constant": true
    },
    {
      "inputs": [
        {
          "internalType": "bytes32",
          "name": "_batchID",
          "type": "bytes32"
        }
      ],
      "name": "getProduct",
      "outputs": [
        {
          "internalType": "bytes32",
          "name": "",
          "type": "bytes32"
        },
        {
          "internalType": "bytes32",
          "name": "",
          "type": "bytes32"
        },
        {
          "internalType": "address",
          "name": "",
          "type": "address"
        },
        {
          "internalType": "address",
          "name": "",
          "type": "address"
        }
      ],
      "stateMutability": "view",
      "type": "function",
      "constant": true
    },
    {
      "inputs": [
        {
          "internalType": "bytes32",
          "name": "_batchID",
          "type": "bytes32"
        }
      ],
      "name": "verifyCertificate",
      "outputs": [
        {
          "internalType": "bool",
          "name": "",
          "type": "bool"
        }
      ],
      "stateMutability": "view",
      "type": "function",
      "constant": true
    }
  ],
  "bytecode": "0x60806040523480156200001157600080fd5b50604051620019473803806200194783398181016040528101906200003791906200012b565b81600160006101000a81548173ffffffffffffffffffffffffffffffffffffffff021916908373ffffffffffffffffffffffffffffffffffffffff16021790555080600060016101000a81548173ffffffffffffffffffffffffffffffffffffffff021916908373ffffffffffffffffffffffffffffffffffffffff160217905550505062000172565b600080fd5b600073ffffffffffffffffffffffffffffffffffffffff82169050919050565b6000620000f382620000c6565b9050919050565b6200010581620000e6565b81146200011157600080fd5b50565b6000815190506200012581620000fa565b92915050565b60008060408385031215620001455762000144620000c1565b5b6000620001558582860162000114565b9250506020620001688582860162000114565b9150509250929050565b6117c580620001826000396000f3fe608060405234801561001057600080fd5b50600436106100a95760003560e01c80635a5ef626116100715780635a5ef62614610165578063850c1768146101815780639711a543146101b1578063a9213874146101cd578063aee726bf146101fd578063fc1a98401461022d576100a9565b806317ffd9ef146100ae5780632fad3fc4146100de5780633146610d146100fa5780633a20e9df14610116578063558b290214610149575b600080fd5b6100c860048036038101906100c39190610e50565b610249565b6040516100d59190610e98565b60405180910390f35b6100f860048036038101906100f39190610eb3565b610398565b005b610114600480360381019061010f9190610eb3565b61045d565b005b610130600480360381019061012b9190610e50565b6105d5565b6040516101409493929190610f43565b60405180910390f35b610163600480360381019061015e9190610fb4565b610686565b005b61017f600480360381019061017a919061113a565b610829565b005b61019b60048036038101906101969190610e50565b61094c565b6040516101a89190610e98565b60405180910390f35b6101cb60048036038101906101c69190610fb4565b610a46565b005b6101e760048036038101906101e29190610eb3565b610b5e565b6040516101f49190610e98565b60405180910390f35b61021760048036038101906102129190610eb3565b610b91565b6040516102249190610e98565b60405180910390f35b61024760048036038101906102429190610eb3565b610bc4565b005b600080600260008481526020019081526020016000206003015490506000600260008581526020019081526020016000206004018054610288906111d8565b80601f01602080910402602001604051908101604052809291908181526020018280546102b4906111d8565b80156103015780601f106102d657610100808354040283529160200191610301565b820191906000526020600020905b8154815290600101906020018083116102e457829003601f168201915b5050505050905060006103148383610c89565b90508073ffffffffffffffffffffffffffffffffffffffff166002600087815260200190815260200160002060050160009054906101000a900473ffffffffffffffffffffffffffffffffffffffff1673ffffffffffffffffffffffffffffffffffffffff160361038b5760019350505050610393565b600093505050505b919050565b6002600083815260200190815260200160002060060160009054906101000a900473ffffffffffffffffffffffffffffffffffffffff168073ffffffffffffffffffffffffffffffffffffffff163373ffffffffffffffffffffffffffffffffffffffff161461043d576040517f08c379a00000000000000000000000000000000000000000000000000000000081526004016104349061128c565b60405180910390fd5b816002600085815260200190815260200160002060010181905550505050565b600082826040516020016104729291906112cd565b604051602081830303815290604052805190602001209050826002600083815260200190815260200160002060010181905550816002600083815260200190815260200160002060020181905550336002600083815260200190815260200160002060060160006101000a81548173ffffffffffffffffffffffffffffffffffffffff021916908373ffffffffffffffffffffffffffffffffffffffff160217905550336002600083815260200190815260200160002060070160006101000a81548173ffffffffffffffffffffffffffffffffffffffff021916908373ffffffffffffffffffffffffffffffffffffffff16021790555060016002600083815260200190815260200160002060090160006101000a81548160ff0219169083151502179055507feb12ab352ec0628425cb2d83290a1d034ed2d60ba8d5caf7462e7526ce18d38e816040516105c891906112f9565b60405180910390a1505050565b600080600080600260008681526020019081526020016000206001015460026000878152602001908152602001600020600201546002600088815260200190815260200160002060060160009054906101000a900473ffffffffffffffffffffffffffffffffffffffff166002600089815260200190815260200160002060050160009054906101000a900473ffffffffffffffffffffffffffffffffffffffff1693509350935093509193509193565b6002600083815260200190815260200160002060070160009054906101000a900473ffffffffffffffffffffffffffffffffffffffff168073ffffffffffffffffffffffffffffffffffffffff163373ffffffffffffffffffffffffffffffffffffffff161461072b576040517f08c379a00000000000000000000000000000000000000000000000000000000081526004016107229061128c565b60405180910390fd5b6002600084815260200190815260200160002060070160009054906101000a900473ffffffffffffffffffffffffffffffffffffffff1673ffffffffffffffffffffffffffffffffffffffff166002600085815260200190815260200160002060060160009054906101000a900473ffffffffffffffffffffffffffffffffffffffff1673ffffffffffffffffffffffffffffffffffffffff16146107cf57600080fd5b816002600085815260200190815260200160002060050160006101000a81548173ffffffffffffffffffffffffffffffffffffffff021916908373ffffffffffffffffffffffffffffffffffffffff160217905550505050565b6002600084815260200190815260200160002060070160009054906101000a900473ffffffffffffffffffffffffffffffffffffffff168073ffffffffffffffffffffffffffffffffffffffff163373ffffffffffffffffffffffffffffffffffffffff16146108ce576040517f08c379a00000000000000000000000000000000000000000000000000000000081526004016108c59061128c565b60405180910390fd5b8260026000868152602001908152602001600020600301819055508160026000868152602001908152602001600020600401908161090c91906114d5565b507faeb1546c2c359892a79841d222bc322861f84b2134c2676cf01ebd20bc52a697838360405161093e929190611624565b60405180910390a150505050565b60008060026000848152602001908152602001600020600301549050600060026000858152602001908152602001600020600401805461098b906111d8565b80601f01602080910402602001604051908101604052809291908181526020018280546109b7906111d8565b8015610a045780601f106109d957610100808354040283529160200191610a04565b820191906000526020600020905b8154815290600101906020018083116109e757829003601f168201915b505050505090506000610a178383610c89565b905060011515610a2682610d5c565b151503610a395760019350505050610a41565b600093505050505b919050565b6002600083815260200190815260200160002060060160009054906101000a900473ffffffffffffffffffffffffffffffffffffffff168073ffffffffffffffffffffffffffffffffffffffff163373ffffffffffffffffffffffffffffffffffffffff1614610aeb576040517f08c379a0000000000000000000000000000000000000000000000000000000008152600401610ae29061128c565b60405180910390fd5b60011515610af88461094c565b151514610b0457600080fd5b816002600085815260200190815260200160002060060160006101000a81548173ffffffffffffffffffffffffffffffffffffffff021916908373ffffffffffffffffffffffffffffffffffffffff160217905550505050565b600081600260008581526020019081526020016000206001015403610b865760019050610b8b565b600090505b92915050565b600081600260008581526020019081526020016000206002015403610bb95760019050610bbe565b600090505b92915050565b6002600083815260200190815260200160002060060160009054906101000a900473ffffffffffffffffffffffffffffffffffffffff168073ffffffffffffffffffffffffffffffffffffffff163373ffffffffffffffffffffffffffffffffffffffff1614610c69576040517f08c379a0000000000000000000000000000000000000000000000000000000008152600401610c609061128c565b60405180910390fd5b816002600085815260200190815260200160002060020181905550505050565b6000806000806041855114610ca45760009350505050610d56565b6020850151925060408501519150606085015160001a9050601b8160ff161015610cd857601b81610cd59190611690565b90505b601b8160ff1614158015610cf05750601c8160ff1614155b15610d015760009350505050610d56565b60018682858560405160008152602001604052604051610d2494939291906116d6565b6020604051602081039080840390855afa158015610d46573d6000803e3d6000fd5b5050506020604051035193505050505b92915050565b600080600160009054906101000a900473ffffffffffffffffffffffffffffffffffffffff1690508073ffffffffffffffffffffffffffffffffffffffff16636af92956846040518263ffffffff1660e01b8152600401610dbd919061171b565b602060405180830381865afa158015610dda573d6000803e3d6000fd5b505050506040513d601f19601f82011682018060405250810190610dfe9190611762565b915050919050565b6000604051905090565b600080fd5b600080fd5b6000819050919050565b610e2d81610e1a565b8114610e3857600080fd5b50565b600081359050610e4a81610e24565b92915050565b600060208284031215610e6657610e65610e10565b5b6000610e7484828501610e3b565b91505092915050565b60008115159050919050565b610e9281610e7d565b82525050565b6000602082019050610ead6000830184610e89565b92915050565b60008060408385031215610eca57610ec9610e10565b5b6000610ed885828601610e3b565b9250506020610ee985828601610e3b565b9150509250929050565b610efc81610e1a565b82525050565b600073ffffffffffffffffffffffffffffffffffffffff82169050919050565b6000610f2d82610f02565b9050919050565b610f3d81610f22565b82525050565b6000608082019050610f586000830187610ef3565b610f656020830186610ef3565b610f726040830185610f34565b610f7f6060830184610f34565b95945050505050565b610f9181610f22565b8114610f9c57600080fd5b50565b600081359050610fae81610f88565b92915050565b60008060408385031215610fcb57610fca610e10565b5b6000610fd985828601610e3b565b9250506020610fea85828601610f9f565b9150509250929050565b600080fd5b600080fd5b6000601f19601f8301169050919050565b7f4e487b7100000000000000000000000000000000000000000000000000000000600052604160045260246000fd5b61104782610ffe565b810181811067ffffffffffffffff821117156110665761106561100f565b5b80604052505050565b6000611079610e06565b9050611085828261103e565b919050565b600067ffffffffffffffff8211156110a5576110a461100f565b5b6110ae82610ffe565b9050602081019050919050565b82818337600083830152505050565b60006110dd6110d88461108a565b61106f565b9050828152602081018484840111156110f9576110f8610ff9565b5b6111048482856110bb565b509392505050565b600082601f83011261112157611120610ff4565b5b81356111318482602086016110ca565b91505092915050565b60008060006060848603121561115357611152610e10565b5b600061116186828701610e3b565b935050602061117286828701610e3b565b925050604084013567ffffffffffffffff81111561119357611192610e15565b5b61119f8682870161110c565b9150509250925092565b7f4e487b7100000000000000000000000000000000000000000000000000000000600052602260045260246000fd5b600060028204905060018216806111f057607f821691505b602082108103611203576112026111a9565b5b50919050565b600082825260208201905092915050565b7f4f6e6c7920617574686f726973656420616464726573732063616e2063616c6c60008201527f20746869732066756e6374696f6e000000000000000000000000000000000000602082015250565b6000611276602e83611209565b91506112818261121a565b604082019050919050565b600060208201905081810360008301526112a581611269565b9050919050565b6000819050919050565b6112c76112c282610e1a565b6112ac565b82525050565b60006112d982856112b6565b6020820191506112e982846112b6565b6020820191508190509392505050565b600060208201905061130e6000830184610ef3565b92915050565b600081519050919050565b60008190508160005260206000209050919050565b60006020601f8301049050919050565b600082821b905092915050565b6000600883026113817fffffffffffffffffffffffffffffffffffffffffffffffffffffffffffffffff82611344565b61138b8683611344565b95508019841693508086168417925050509392505050565b6000819050919050565b6000819050919050565b60006113d26113cd6113c8846113a3565b6113ad565b6113a3565b9050919050565b6000819050919050565b6113ec836113b7565b6114006113f8826113d9565b848454611351565b825550505050565b600090565b611415611408565b6114208184846113e3565b505050565b5b818110156114445761143960008261140d565b600181019050611426565b5050565b601f8211156114895761145a8161131f565b61146384611334565b81016020851015611472578190505b61148661147e85611334565b830182611425565b50505b505050565b600082821c905092915050565b60006114ac6000198460080261148e565b1980831691505092915050565b60006114c5838361149b565b9150826002028217905092915050565b6114de82611314565b67ffffffffffffffff8111156114f7576114f661100f565b5b61150182546111d8565b61150c828285611448565b600060209050601f83116001811461153f576000841561152d578287015190505b61153785826114b9565b86555061159f565b601f19841661154d8661131f565b60005b8281101561157557848901518255600182019150602085019450602081019050611550565b86831015611592578489015161158e601f89168261149b565b8355505b6001600288020188555050505b505050505050565b600082825260208201905092915050565b60005b838110156115d65780820151818401526020810190506115bb565b838111156115e5576000848401525b50505050565b60006115f682611314565b61160081856115a7565b93506116108185602086016115b8565b61161981610ffe565b840191505092915050565b60006040820190506116396000830185610ef3565b818103602083015261164b81846115eb565b90509392505050565b600060ff82169050919050565b7f4e487b7100000000000000000000000000000000000000000000000000000000600052601160045260246000fd5b600061169b82611654565b91506116a683611654565b92508260ff038211156116bc576116bb611661565b5b828201905092915050565b6116d081611654565b82525050565b60006080820190506116eb6000830187610ef3565b6116f860208301866116c7565b6117056040830185610ef3565b6117126060830184610ef3565b95945050505050565b60006020820190506117306000830184610f34565b92915050565b61173f81610e7d565b811461174a57600080fd5b50565b60008151905061175c81611736565b92915050565b60006020828403121561177857611777610e10565b5b60006117868482850161174d565b9150509291505056fea2646970667358221220a992052e0edaf1d184a205963daf45a13addeb9d5f1ca2dc611c989b9d35e96564736f6c634300080f0033",
  "immutableReferences": {},
  "source": "// SPDX-License-Identifier: MIT\npragma solidity ^0.8.0;\n\nimport \"./CARegistry.sol\"; \n\ncontract Product {\n\n    bool internal locked;                   // lock for payments (not sure if necessary yet)\n    address owner;\n    // address CA;\n    address DOA;                            // Department of Agriculture contract address \n\n    // another option to map multiple structs:\n    // https://ethereum.stackexchange.com/questions/82157/mapping-multiple-structs-to-a-struct-and-call-them\n    \n    // keeps the hash of product data and contions,\n    // certificate infromation and the current owner \n    struct Batch {\n        bytes32 bardoce;                // get this from oracle, physical batch barcode\n        bytes32 productHash; \n        bytes32 conditionsHash;\n\n        bytes32 certificate; \n        bytes signature;                // created with web3.eth.sign(), bytes \n        address authCA;                 // the CA authorised by producer to update certificate\n\n        address owner;\n        address producer;\n\n        uint256 reqTemperature;         // required temp of the product as provided in required conitions\n        bool status;                    // the status of the product, true means ok - not sure if needed\n    }\n\n    // maps each product ID to a product data   \n    mapping (bytes32 => Batch) products; \n\n    // alternatively keep as array:\n    // Product[] products; \n\n    constructor(address _DOA, address _owner) {\n        DOA = _DOA; \n        owner = _owner; \n    }\n\n    modifier onlyThis(address _address) { require(msg.sender == _address, \"Only authorised address can call this function\"); _; }\n\n    // only owner can call the function \n    // modifier onlyOwner(address _owner) { require(msg.sender == _owner, \"You are not the owner of this batch\"); _; }\n    // only producer can call the function \n    // modifier onlyProducer(address _producer) { require(msg.sender == _producer,\"only a producer can request a certifying authority\" ); _; }\n    \n    // only after that time can call the function \n    // modifier onlyAfter(uint256 _time) { require(block.timestamp > _time); _; }\n    // only before that time can call the function \n    // modifier onlyBefore(uint256 _time) { require(block.timestamp < _time); _;}\n    \n    // only authorised CA can add a certificate\n    modifier onlyAuthCA(address _CA) { require(msg.sender == _CA, \"You do not have permission to modify this information\"); _; }\n    \n    // lock against reentrancy \n    modifier lock() { \n        require(!locked); \n        locked = true; _; \n        locked = false;\n    }\n\n    // send generated product ID to off-chain \n    event batchIdentifier(bytes32 productID); \n\n    event batchCertificate(bytes32 certificate, bytes signature); \n\n    event newOwner(address owner); \n\n    /* PRODUCT FUNCTIONS ------------------------------------------------------------------ */\n\n    // adds product data hash and conditions hash \n    function addProduct(bytes32 _data, bytes32 _conditions) public {\n        bytes32 batchID = bytes32(keccak256(abi.encodePacked(_data, _conditions))); \n        products[batchID].productHash = _data; \n        products[batchID].conditionsHash = _conditions; \n        products[batchID].owner = msg.sender; \n        products[batchID].producer = msg.sender;\n        products[batchID].status = true;\n        emit batchIdentifier(batchID);\n    }\n\n    // the owner can update the product hash\n    function updateProduct(bytes32 _batchID, bytes32 _updatedData) public onlyThis(products[_batchID].owner) {\n        products[_batchID].productHash = _updatedData;\n    }\n\n    // the owner can send a new product contions hash\n    function updateConditions(bytes32 _batchID, bytes32 _updatedConditions) public onlyThis(products[_batchID].owner) {\n        products[_batchID].conditionsHash = _updatedConditions;\n    }\n\n    // producer calls this function to select a CA of their choice \n    // to add a certificate to their product\n    // the producer must still own the batch to request a certificate\n    function updateCertAuthorisation(bytes32 _batchID, address _requestedCA) public onlyThis(products[_batchID].producer) {\n        require(products[_batchID].owner == products[_batchID].producer); \n        products[_batchID].authCA = _requestedCA;\n    }\n    \n    // update certificate data in product - only authorised CA \n    function updateCertificate(bytes32 _batchID, bytes32 _certificate, bytes memory _signature) public onlyThis(products[_batchID].producer) {\n        products[_batchID].certificate = _certificate; \n        products[_batchID].signature = _signature; \n        emit batchCertificate(_certificate, _signature);\n    }\n\n    function updateOwner(bytes32 _batchID, address _newOwner) public onlyThis(products[_batchID].owner) {\n        require(verifyCertificate(_batchID) == true); \n        products[_batchID].owner = _newOwner; \n    }\n\n    /* VERIFICATION FUNCTIONS ----------------------------------------------------------------- */\n\n    // allow anyone to verify data in the off chain data store about product\n    function verifyProductHash(bytes32 _batchID, bytes32 _offchainHash) public view returns (bool) {\n        if (products[_batchID].productHash == _offchainHash) { return true;}\n        return false;\n    }\n\n    // allow anyone to verify data in the off chain data store about conditions\n    function verifyConditionsHash(bytes32 _batchID, bytes32 _offchainHash) public view returns (bool){\n        if (products[_batchID].conditionsHash == _offchainHash) { return true;}\n        return false;\n    }\n\n    function verifyIssuerAuthorisation(bytes32 _batchID) public view returns (bool) {\n        bytes32 certificate = products[_batchID].certificate; \n        bytes memory signature = products[_batchID].signature; \n        address issuer = recoverIssuer(certificate, signature); \n        if (products[_batchID].authCA == issuer) { return true; }\n        return false; \n    }\n\n    /* GETTER FUNCTIONS ----------------------------------------------------------------------- */\n\n    function getProduct(bytes32 _batchID) public view returns(bytes32, bytes32, address, address) {\n        return (products[_batchID].productHash, products[_batchID].conditionsHash, products[_batchID].owner, products[_batchID].authCA);\n    }\n\n    /* TEMPERATURE FUNCTIONS ------------------------------------------------------------------ */\n\n    // requires oracle \n    // have restricted to private so anyone cannot call this \n    // is there a way to resctrict this to the oracle?\n    function compareTemperature(bytes32 _batchID, uint256 _temperature) private returns (bool) {\n        if (_temperature != products[_batchID].reqTemperature) {\n            products[_batchID].status = false;\n            return false;\n        }\n        return true;\n    }\n\n    /* CERTIFICATE FUNCTIONS ------------------------------------------------------------------ */\n\n    // anyone can send a product ID and verify its certificate\n    // should check if the certificate exists first, if not then false \n    function verifyCertificate(bytes32 _batchID) public view returns(bool) {\n        bytes32 certificate = products[_batchID].certificate; \n        bytes memory signature = products[_batchID].signature; \n        // recovered issuer from the certificate and his signature \n        address issuer = recoverIssuer(certificate, signature); \n        if (verifyIssuer(issuer) == true) { return true; }\n        return false; \n    }\n\n    // verify that the certifying authority is registered with DOA \n    // and eligible to issue organic certificates\n    function verifyIssuer(address _issuer) internal view returns(bool) {\n        AuthorityRegistry registry = AuthorityRegistry(DOA);  \n        return registry.checkPublicKey(_issuer);\n    }\n\n    /**\n     * @notice functions recovers the signer of the certificate from the provided certificate \n               (message signed by authority) and signature \n     * @dev    called internally from placeBid function  \n     * @param  _hash the batch certificate signed by CA \n     * @param  _sig CA's bytes signature generated using web3.eth.sign()\n     * @return issuer address (authority who issued/signed the organic certificate to the product batch)\n    **/\n    // copyright: https://github.com/protofire/zeppelin-solidity/blob/master/contracts/ECRecovery.sol\n    function recoverIssuer(bytes32 _hash, bytes memory _sig) internal pure returns(address) {\n        bytes32 r; bytes32 s; uint8 v;\n        //Check the signature length\n        if (_sig.length != 65) { return (address(0)); }\n        assembly {\n            r := mload(add(_sig, 32))\n            s := mload(add(_sig, 64))\n            v := byte(0, mload(add(_sig, 96)))\n        }\n        if (v < 27) { v += 27; }\n\n        // If the version is correct return the signer address\n        if (v != 27 && v != 28) { return (address(0)); } \n        else { return ecrecover(_hash, v, r, s); }\n    }\n\n}",
  "sourcePath": "/Users/dariaschumm/Library/Mobile Documents/com~apple~CloudDocs/6452/project_2/contracts/Product.sol",
  "compiler": {
    "name": "solc",
    "version": "0.8.15+commit.e14f2714.Emscripten.clang"
  },
  "schemaVersion": "3.4.8",
  "updatedAt": "2022-07-19T06:42:34.189Z",
  "networkType": "ethereum",
  "devdoc": {
    "kind": "dev",
    "methods": {},
    "version": 1
  },
  "userdoc": {
    "kind": "user",
    "methods": {},
    "version": 1
  }
}