{
  "contractName": "Product",
  "abi": [
    {
      "inputs": [
        {
          "internalType": "address",
          "name": "oracleAddress",
          "type": "address"
        },
        {
          "internalType": "address",
          "name": "_DOA",
          "type": "address"
        },
        {
          "internalType": "address payable",
          "name": "_owner",
          "type": "address"
        }
      ],
      "stateMutability": "nonpayable",
      "type": "constructor"
    },
    {
      "anonymous": false,
      "inputs": [
        {
          "indexed": false,
          "internalType": "bytes32",
          "name": "productID",
          "type": "bytes32"
        }
      ],
      "name": "batchIdentifier",
      "type": "event"
    },
    {
      "inputs": [
        {
          "internalType": "uint256",
          "name": "data",
          "type": "uint256"
        },
        {
          "internalType": "bytes32",
          "name": "batchId",
          "type": "bytes32"
        }
      ],
      "name": "receiveDataFromOracle",
      "outputs": [
        {
          "internalType": "bool",
          "name": "",
          "type": "bool"
        }
      ],
      "stateMutability": "nonpayable",
      "type": "function"
    },
    {
      "inputs": [
        {
          "internalType": "bytes32",
          "name": "batchId",
          "type": "bytes32"
        }
      ],
      "name": "getTemperature",
      "outputs": [],
      "stateMutability": "nonpayable",
      "type": "function"
    },
    {
      "inputs": [
        {
          "internalType": "address",
          "name": "_producer",
          "type": "address"
        }
      ],
      "name": "addProducer",
      "outputs": [],
      "stateMutability": "nonpayable",
      "type": "function"
    },
    {
      "inputs": [
        {
          "internalType": "bytes32",
          "name": "_data",
          "type": "bytes32"
        },
        {
          "internalType": "uint256",
          "name": "_temperature",
          "type": "uint256"
        },
        {
          "internalType": "string",
          "name": "_CID",
          "type": "string"
        }
      ],
      "name": "addProduct",
      "outputs": [],
      "stateMutability": "nonpayable",
      "type": "function"
    },
    {
      "inputs": [
        {
          "internalType": "bytes32",
          "name": "_batchID",
          "type": "bytes32"
        },
        {
          "internalType": "bytes32",
          "name": "_certificate",
          "type": "bytes32"
        },
        {
          "internalType": "bytes",
          "name": "_signature",
          "type": "bytes"
        }
      ],
      "name": "addCertificate",
      "outputs": [],
      "stateMutability": "nonpayable",
      "type": "function"
    },
    {
      "inputs": [
        {
          "internalType": "bytes32",
          "name": "_batchID",
          "type": "bytes32"
        },
        {
          "internalType": "bytes32",
          "name": "_productHash",
          "type": "bytes32"
        },
        {
          "internalType": "address",
          "name": "_newOwner",
          "type": "address"
        }
      ],
      "name": "updateOwner",
      "outputs": [],
      "stateMutability": "nonpayable",
      "type": "function"
    },
    {
      "inputs": [
        {
          "internalType": "bytes32",
          "name": "_batchID",
          "type": "bytes32"
        },
        {
          "internalType": "bytes32",
          "name": "_offchainHash",
          "type": "bytes32"
        }
      ],
      "name": "verifyProductHash",
      "outputs": [
        {
          "internalType": "bool",
          "name": "",
          "type": "bool"
        }
      ],
      "stateMutability": "view",
      "type": "function",
      "constant": true
    },
    {
      "inputs": [
        {
          "internalType": "address",
          "name": "_producer",
          "type": "address"
        }
      ],
      "name": "getProducer",
      "outputs": [
        {
          "internalType": "bool",
          "name": "",
          "type": "bool"
        }
      ],
      "stateMutability": "view",
      "type": "function",
      "constant": true
    },
    {
      "inputs": [
        {
          "internalType": "bytes32",
          "name": "_batchID",
          "type": "bytes32"
        }
      ],
      "name": "getProduct",
      "outputs": [
        {
          "internalType": "bytes32",
          "name": "",
          "type": "bytes32"
        },
        {
          "internalType": "address",
          "name": "",
          "type": "address"
        }
      ],
      "stateMutability": "view",
      "type": "function",
      "constant": true
    },
    {
      "inputs": [
        {
          "internalType": "bytes32",
          "name": "_batchID",
          "type": "bytes32"
        }
      ],
      "name": "getCertificate",
      "outputs": [
        {
          "internalType": "bytes32",
          "name": "",
          "type": "bytes32"
        },
        {
          "internalType": "bytes",
          "name": "",
          "type": "bytes"
        }
      ],
      "stateMutability": "view",
      "type": "function",
      "constant": true
    },
    {
      "inputs": [
        {
          "internalType": "bytes32",
          "name": "_batchID",
          "type": "bytes32"
        }
      ],
      "name": "getDatabase",
      "outputs": [
        {
          "internalType": "string",
          "name": "",
          "type": "string"
        }
      ],
      "stateMutability": "view",
      "type": "function",
      "constant": true
    },
    {
      "inputs": [
        {
          "internalType": "bytes32",
          "name": "_batchID",
          "type": "bytes32"
        },
        {
          "internalType": "uint256",
          "name": "_temperature",
          "type": "uint256"
        }
      ],
      "name": "updateStatus",
      "outputs": [],
      "stateMutability": "nonpayable",
      "type": "function"
    },
    {
      "inputs": [],
      "name": "emergencyHalt",
      "outputs": [],
      "stateMutability": "nonpayable",
      "type": "function"
    },
    {
      "inputs": [],
      "name": "restartContract",
      "outputs": [],
      "stateMutability": "nonpayable",
      "type": "function"
    },
    {
      "inputs": [
        {
          "internalType": "bytes32",
          "name": "_batchID",
          "type": "bytes32"
        }
      ],
      "name": "verifyCertificate",
      "outputs": [
        {
          "internalType": "bool",
          "name": "",
          "type": "bool"
        }
      ],
      "stateMutability": "view",
      "type": "function",
      "constant": true
    },
    {
      "inputs": [],
      "name": "destroyContract",
      "outputs": [],
      "stateMutability": "nonpayable",
      "type": "function"
    }
  ],
  "bytecode": "0x60806040523480156200001157600080fd5b5060405162002b6938038062002b698339818101604052810190620000379190620001b3565b82806000806101000a81548173ffffffffffffffffffffffffffffffffffffffff021916908373ffffffffffffffffffffffffffffffffffffffff1602179055505081600260006101000a81548173ffffffffffffffffffffffffffffffffffffffff021916908373ffffffffffffffffffffffffffffffffffffffff16021790555080600160006101000a81548173ffffffffffffffffffffffffffffffffffffffff021916908373ffffffffffffffffffffffffffffffffffffffff1602179055505050506200020f565b600080fd5b600073ffffffffffffffffffffffffffffffffffffffff82169050919050565b6000620001368262000109565b9050919050565b620001488162000129565b81146200015457600080fd5b50565b60008151905062000168816200013d565b92915050565b60006200017b8262000109565b9050919050565b6200018d816200016e565b81146200019957600080fd5b50565b600081519050620001ad8162000182565b92915050565b600080600060608486031215620001cf57620001ce62000104565b5b6000620001df8682870162000157565b9350506020620001f28682870162000157565b925050604062000205868287016200019c565b9150509250925092565b61294a806200021f6000396000f3fe608060405234801561001057600080fd5b50600436106101005760003560e01c8063850c176811610097578063b83ce91911610066578063b83ce91914610298578063bfc9554e146102b4578063ddf80166146102d0578063f333fe08146102ec57610100565b8063850c1768146101ec5780638ec394d11461021c578063a921387414610238578063aab147b21461026857610100565b806351755334116100d3578063517553341461017a5780635950c3fb1461018457806362004e63146101a057806373e6e96e146101d057610100565b8063092a5cce1461010557806324c45f681461010f57806330a52d5b1461013f5780633a20e9df14610149575b600080fd5b61010d61031d565b005b6101296004803603810190610124919061181f565b6103e8565b604051610136919061187a565b60405180910390f35b61014761048b565b005b610163600480360381019061015e9190611895565b61058d565b604051610171929190611912565b60405180910390f35b61018261063d565b005b61019e60048036038101906101999190611a81565b610740565b005b6101ba60048036038101906101b59190611895565b6109c3565b6040516101c79190611b78565b60405180910390f35b6101ea60048036038101906101e59190611b9a565b610abe565b005b61020660048036038101906102019190611895565b610bc9565b604051610213919061187a565b60405180910390f35b61023660048036038101906102319190611c7b565b610d19565b005b610252600480360381019061024d9190611cea565b610f35565b60405161025f919061187a565b60405180910390f35b610282600480360381019061027d9190611d56565b610fbd565b60405161028f919061187a565b60405180910390f35b6102b260048036038101906102ad9190611d83565b611068565b005b6102ce60048036038101906102c99190611895565b61125f565b005b6102ea60048036038101906102e59190611d56565b61126b565b005b61030660048036038101906103019190611895565b6113ac565b604051610314929190611e2b565b60405180910390f35b3373ffffffffffffffffffffffffffffffffffffffff16600160009054906101000a900473ffffffffffffffffffffffffffffffffffffffff1673ffffffffffffffffffffffffffffffffffffffff16146103ad576040517f08c379a00000000000000000000000000000000000000000000000000000000081526004016103a490611ecd565b60405180910390fd5b600160009054906101000a900473ffffffffffffffffffffffffffffffffffffffff1673ffffffffffffffffffffffffffffffffffffffff16ff5b60008060009054906101000a900473ffffffffffffffffffffffffffffffffffffffff1673ffffffffffffffffffffffffffffffffffffffff163373ffffffffffffffffffffffffffffffffffffffff1614610479576040517f08c379a000000000000000000000000000000000000000000000000000000000815260040161047090611f5f565b60405180910390fd5b61048382846114c8565b905092915050565b3373ffffffffffffffffffffffffffffffffffffffff16600160009054906101000a900473ffffffffffffffffffffffffffffffffffffffff1673ffffffffffffffffffffffffffffffffffffffff161461051b576040517f08c379a000000000000000000000000000000000000000000000000000000000815260040161051290611ecd565b60405180910390fd5b60011515600060149054906101000a900460ff16151514610571576040517f08c379a000000000000000000000000000000000000000000000000000000000815260040161056890611fcb565b60405180910390fd5b60008060146101000a81548160ff021916908315150217905550565b60008060001515600060149054906101000a900460ff161515146105e6576040517f08c379a00000000000000000000000000000000000000000000000000000000081526004016105dd90612037565b60405180910390fd5b60046000848152602001908152602001600020600001546004600085815260200190815260200160002060030160009054906101000a900473ffffffffffffffffffffffffffffffffffffffff1691509150915091565b3373ffffffffffffffffffffffffffffffffffffffff16600160009054906101000a900473ffffffffffffffffffffffffffffffffffffffff1673ffffffffffffffffffffffffffffffffffffffff16146106cd576040517f08c379a00000000000000000000000000000000000000000000000000000000081526004016106c490611ecd565b60405180910390fd5b60001515600060149054906101000a900460ff16151514610723576040517f08c379a000000000000000000000000000000000000000000000000000000000815260040161071a90612037565b60405180910390fd5b6001600060146101000a81548160ff021916908315150217905550565b60001515600060149054906101000a900460ff16151514610796576040517f08c379a000000000000000000000000000000000000000000000000000000000815260040161078d90612037565b60405180910390fd5b3360011515600660008373ffffffffffffffffffffffffffffffffffffffff1673ffffffffffffffffffffffffffffffffffffffff16815260200190815260200160002060009054906101000a900460ff1615151461082a576040517f08c379a0000000000000000000000000000000000000000000000000000000008152600401610821906120c9565b60405180910390fd5b60008460405160200161083d919061210a565b604051602081830303815290604052805190602001209050846004600083815260200190815260200160002060000181905550336004600083815260200190815260200160002060030160006101000a81548173ffffffffffffffffffffffffffffffffffffffff021916908373ffffffffffffffffffffffffffffffffffffffff160217905550336004600083815260200190815260200160002060040160006101000a81548173ffffffffffffffffffffffffffffffffffffffff021916908373ffffffffffffffffffffffffffffffffffffffff16021790555083600460008381526020019081526020016000206005018190555060016004600083815260200190815260200160002060060160006101000a81548160ff021916908315150217905550826005600083815260200190815260200160002090816109849190612331565b507feb12ab352ec0628425cb2d83290a1d034ed2d60ba8d5caf7462e7526ce18d38e816040516109b49190612403565b60405180910390a15050505050565b606060001515600060149054906101000a900460ff16151514610a1b576040517f08c379a0000000000000000000000000000000000000000000000000000000008152600401610a1290612037565b60405180910390fd5b600560008381526020019081526020016000208054610a3990612154565b80601f0160208091040260200160405190810160405280929190818152602001828054610a6590612154565b8015610ab25780601f10610a8757610100808354040283529160200191610ab2565b820191906000526020600020905b815481529060010190602001808311610a9557829003601f168201915b50505050509050919050565b60001515600060149054906101000a900460ff16151514610b14576040517f08c379a0000000000000000000000000000000000000000000000000000000008152600401610b0b90612037565b60405180910390fd5b6004600083815260200190815260200160002060030160009054906101000a900473ffffffffffffffffffffffffffffffffffffffff168073ffffffffffffffffffffffffffffffffffffffff163373ffffffffffffffffffffffffffffffffffffffff1614610bb9576040517f08c379a0000000000000000000000000000000000000000000000000000000008152600401610bb090612490565b60405180910390fd5b610bc383836114dc565b50505050565b6000801515600060149054906101000a900460ff16151514610c20576040517f08c379a0000000000000000000000000000000000000000000000000000000008152600401610c1790612037565b60405180910390fd5b6000600460008481526020019081526020016000206001015490506000600460008581526020019081526020016000206002018054610c5e90612154565b80601f0160208091040260200160405190810160405280929190818152602001828054610c8a90612154565b8015610cd75780601f10610cac57610100808354040283529160200191610cd7565b820191906000526020600020905b815481529060010190602001808311610cba57829003601f168201915b505050505090506000610cea8383611594565b905060011515610cf982611667565b151503610d0c5760019350505050610d14565b600093505050505b919050565b60001515600060149054906101000a900460ff16151514610d6f576040517f08c379a0000000000000000000000000000000000000000000000000000000008152600401610d6690612037565b60405180910390fd5b33833373ffffffffffffffffffffffffffffffffffffffff166004600083815260200190815260200160002060030160009054906101000a900473ffffffffffffffffffffffffffffffffffffffff1673ffffffffffffffffffffffffffffffffffffffff1614610e15576040517f08c379a0000000000000000000000000000000000000000000000000000000008152600401610e0c90612522565b60405180910390fd5b6004600086815260200190815260200160002060030160009054906101000a900473ffffffffffffffffffffffffffffffffffffffff1673ffffffffffffffffffffffffffffffffffffffff166004600087815260200190815260200160002060040160009054906101000a900473ffffffffffffffffffffffffffffffffffffffff1673ffffffffffffffffffffffffffffffffffffffff1614610eef576040517f08c379a0000000000000000000000000000000000000000000000000000000008152600401610ee6906125b4565b60405180910390fd5b83600460008781526020019081526020016000206001018190555082600460008781526020019081526020016000206002019081610f2d919061262f565b505050505050565b6000801515600060149054906101000a900460ff16151514610f8c576040517f08c379a0000000000000000000000000000000000000000000000000000000008152600401610f8390612037565b60405180910390fd5b81600460008581526020019081526020016000206000015403610fb25760019050610fb7565b600090505b92915050565b6000801515600060149054906101000a900460ff16151514611014576040517f08c379a000000000000000000000000000000000000000000000000000000000815260040161100b90612037565b60405180910390fd5b600660008373ffffffffffffffffffffffffffffffffffffffff1673ffffffffffffffffffffffffffffffffffffffff16815260200190815260200160002060009054906101000a900460ff169050919050565b60001515600060149054906101000a900460ff161515146110be576040517f08c379a00000000000000000000000000000000000000000000000000000000081526004016110b590612037565b60405180910390fd5b33833373ffffffffffffffffffffffffffffffffffffffff166004600083815260200190815260200160002060030160009054906101000a900473ffffffffffffffffffffffffffffffffffffffff1673ffffffffffffffffffffffffffffffffffffffff1614611164576040517f08c379a000000000000000000000000000000000000000000000000000000000815260040161115b90612522565b60405180910390fd5b600115156111728686610f35565b1515146111b4576040517f08c379a00000000000000000000000000000000000000000000000000000000081526004016111ab9061274d565b60405180910390fd5b600115156111c186610bc9565b151514611203576040517f08c379a00000000000000000000000000000000000000000000000000000000081526004016111fa906127b9565b60405180910390fd5b826004600087815260200190815260200160002060030160006101000a81548173ffffffffffffffffffffffffffffffffffffffff021916908373ffffffffffffffffffffffffffffffffffffffff1602179055505050505050565b61126881611711565b50565b60001515600060149054906101000a900460ff161515146112c1576040517f08c379a00000000000000000000000000000000000000000000000000000000081526004016112b890612037565b60405180910390fd5b3373ffffffffffffffffffffffffffffffffffffffff16600160009054906101000a900473ffffffffffffffffffffffffffffffffffffffff1673ffffffffffffffffffffffffffffffffffffffff1614611351576040517f08c379a000000000000000000000000000000000000000000000000000000000815260040161134890611ecd565b60405180910390fd5b6001600660008373ffffffffffffffffffffffffffffffffffffffff1673ffffffffffffffffffffffffffffffffffffffff16815260200190815260200160002060006101000a81548160ff02191690831515021790555050565b6000606060001515600060149054906101000a900460ff16151514611406576040517f08c379a00000000000000000000000000000000000000000000000000000000081526004016113fd90612037565b60405180910390fd5b60046000848152602001908152602001600020600101546004600085815260200190815260200160002060020180805461143f90612154565b80601f016020809104026020016040519081016040528092919081815260200182805461146b90612154565b80156114b85780601f1061148d576101008083540402835291602001916114b8565b820191906000526020600020905b81548152906001019060200180831161149b57829003601f168201915b5050505050905091509150915091565b60006114d483836114dc565b905092915050565b6000801515600060149054906101000a900460ff16151514611533576040517f08c379a000000000000000000000000000000000000000000000000000000000815260040161152a90612037565b60405180910390fd5b60046000848152602001908152602001600020600501548211156115895760006004600085815260200190815260200160002060060160006101000a81548160ff0219169083151502179055506000905061158e565b600190505b92915050565b60008060008060418551146115af5760009350505050611661565b6020850151925060408501519150606085015160001a9050601b8160ff1610156115e357601b816115e09190612815565b90505b601b8160ff16141580156115fb5750601c8160ff1614155b1561160c5760009350505050611661565b6001868285856040516000815260200160405260405161162f949392919061285b565b6020604051602081039080840390855afa158015611651573d6000803e3d6000fd5b5050506020604051035193505050505b92915050565b600080600260009054906101000a900473ffffffffffffffffffffffffffffffffffffffff1690508073ffffffffffffffffffffffffffffffffffffffff16636af92956846040518263ffffffff1660e01b81526004016116c891906128a0565b602060405180830381865afa1580156116e5573d6000803e3d6000fd5b505050506040513d601f19601f8201168201806040525081019061170991906128e7565b915050919050565b60008054906101000a900473ffffffffffffffffffffffffffffffffffffffff1673ffffffffffffffffffffffffffffffffffffffff16633661346b826040518263ffffffff1660e01b815260040161176a9190612403565b600060405180830381600087803b15801561178457600080fd5b505af1158015611798573d6000803e3d6000fd5b5050505050565b6000604051905090565b600080fd5b600080fd5b6000819050919050565b6117c6816117b3565b81146117d157600080fd5b50565b6000813590506117e3816117bd565b92915050565b6000819050919050565b6117fc816117e9565b811461180757600080fd5b50565b600081359050611819816117f3565b92915050565b60008060408385031215611836576118356117a9565b5b6000611844858286016117d4565b92505060206118558582860161180a565b9150509250929050565b60008115159050919050565b6118748161185f565b82525050565b600060208201905061188f600083018461186b565b92915050565b6000602082840312156118ab576118aa6117a9565b5b60006118b98482850161180a565b91505092915050565b6118cb816117e9565b82525050565b600073ffffffffffffffffffffffffffffffffffffffff82169050919050565b60006118fc826118d1565b9050919050565b61190c816118f1565b82525050565b600060408201905061192760008301856118c2565b6119346020830184611903565b9392505050565b600080fd5b600080fd5b6000601f19601f8301169050919050565b7f4e487b7100000000000000000000000000000000000000000000000000000000600052604160045260246000fd5b61198e82611945565b810181811067ffffffffffffffff821117156119ad576119ac611956565b5b80604052505050565b60006119c061179f565b90506119cc8282611985565b919050565b600067ffffffffffffffff8211156119ec576119eb611956565b5b6119f582611945565b9050602081019050919050565b82818337600083830152505050565b6000611a24611a1f846119d1565b6119b6565b905082815260208101848484011115611a4057611a3f611940565b5b611a4b848285611a02565b509392505050565b600082601f830112611a6857611a6761193b565b5b8135611a78848260208601611a11565b91505092915050565b600080600060608486031215611a9a57611a996117a9565b5b6000611aa88682870161180a565b9350506020611ab9868287016117d4565b925050604084013567ffffffffffffffff811115611ada57611ad96117ae565b5b611ae686828701611a53565b9150509250925092565b600081519050919050565b600082825260208201905092915050565b60005b83811015611b2a578082015181840152602081019050611b0f565b83811115611b39576000848401525b50505050565b6000611b4a82611af0565b611b548185611afb565b9350611b64818560208601611b0c565b611b6d81611945565b840191505092915050565b60006020820190508181036000830152611b928184611b3f565b905092915050565b60008060408385031215611bb157611bb06117a9565b5b6000611bbf8582860161180a565b9250506020611bd0858286016117d4565b9150509250929050565b600067ffffffffffffffff821115611bf557611bf4611956565b5b611bfe82611945565b9050602081019050919050565b6000611c1e611c1984611bda565b6119b6565b905082815260208101848484011115611c3a57611c39611940565b5b611c45848285611a02565b509392505050565b600082601f830112611c6257611c6161193b565b5b8135611c72848260208601611c0b565b91505092915050565b600080600060608486031215611c9457611c936117a9565b5b6000611ca28682870161180a565b9350506020611cb38682870161180a565b925050604084013567ffffffffffffffff811115611cd457611cd36117ae565b5b611ce086828701611c4d565b9150509250925092565b60008060408385031215611d0157611d006117a9565b5b6000611d0f8582860161180a565b9250506020611d208582860161180a565b9150509250929050565b611d33816118f1565b8114611d3e57600080fd5b50565b600081359050611d5081611d2a565b92915050565b600060208284031215611d6c57611d6b6117a9565b5b6000611d7a84828501611d41565b91505092915050565b600080600060608486031215611d9c57611d9b6117a9565b5b6000611daa8682870161180a565b9350506020611dbb8682870161180a565b9250506040611dcc86828701611d41565b9150509250925092565b600081519050919050565b600082825260208201905092915050565b6000611dfd82611dd6565b611e078185611de1565b9350611e17818560208601611b0c565b611e2081611945565b840191505092915050565b6000604082019050611e4060008301856118c2565b8181036020830152611e528184611df2565b90509392505050565b7f6f6e6c7920636f6e7472616374206f776e65722063616e2063616c6c2074686960008201527f732066756e6374696f6e00000000000000000000000000000000000000000000602082015250565b6000611eb7602a83611afb565b9150611ec282611e5b565b604082019050919050565b60006020820190508181036000830152611ee681611eaa565b9050919050565b7f64617461206d75737420636f6d652066726f6d20746865206f7261636c65206360008201527f6f6e747261637400000000000000000000000000000000000000000000000000602082015250565b6000611f49602783611afb565b9150611f5482611eed565b604082019050919050565b60006020820190508181036000830152611f7881611f3c565b9050919050565b7f54686520636f6e7472616374206973206e6f742068616c746564000000000000600082015250565b6000611fb5601a83611afb565b9150611fc082611f7f565b602082019050919050565b60006020820190508181036000830152611fe481611fa8565b9050919050565b7f54686520636f6e747261637420686173206265656e2068616c74656400000000600082015250565b6000612021601c83611afb565b915061202c82611feb565b602082019050919050565b6000602082019050818103600083015261205081612014565b9050919050565b7f6f6e6c7920617574686f72697365642070726f64756365722063616e2063616c60008201527f6c20746869732066756e6374696f6e0000000000000000000000000000000000602082015250565b60006120b3602f83611afb565b91506120be82612057565b604082019050919050565b600060208201905081810360008301526120e2816120a6565b9050919050565b6000819050919050565b6121046120ff826117e9565b6120e9565b82525050565b600061211682846120f3565b60208201915081905092915050565b7f4e487b7100000000000000000000000000000000000000000000000000000000600052602260045260246000fd5b6000600282049050600182168061216c57607f821691505b60208210810361217f5761217e612125565b5b50919050565b60008190508160005260206000209050919050565b60006020601f8301049050919050565b600082821b905092915050565b6000600883026121e77fffffffffffffffffffffffffffffffffffffffffffffffffffffffffffffffff826121aa565b6121f186836121aa565b95508019841693508086168417925050509392505050565b6000819050919050565b600061222e612229612224846117b3565b612209565b6117b3565b9050919050565b6000819050919050565b61224883612213565b61225c61225482612235565b8484546121b7565b825550505050565b600090565b612271612264565b61227c81848461223f565b505050565b5b818110156122a057612295600082612269565b600181019050612282565b5050565b601f8211156122e5576122b681612185565b6122bf8461219a565b810160208510156122ce578190505b6122e26122da8561219a565b830182612281565b50505b505050565b600082821c905092915050565b6000612308600019846008026122ea565b1980831691505092915050565b600061232183836122f7565b9150826002028217905092915050565b61233a82611af0565b67ffffffffffffffff81111561235357612352611956565b5b61235d8254612154565b6123688282856122a4565b600060209050601f83116001811461239b5760008415612389578287015190505b6123938582612315565b8655506123fb565b601f1984166123a986612185565b60005b828110156123d1578489015182556001820191506020850194506020810190506123ac565b868310156123ee57848901516123ea601f8916826122f7565b8355505b6001600288020188555050505b505050505050565b600060208201905061241860008301846118c2565b92915050565b7f4f6e6c7920617574686f726973656420616464726573732063616e2063616c6c60008201527f20746869732066756e6374696f6e000000000000000000000000000000000000602082015250565b600061247a602e83611afb565b91506124858261241e565b604082019050919050565b600060208201905081810360008301526124a98161246d565b9050919050565b7f6f6e6c79206f776e65722063616e2063616c6c20746869732066756e6374696f60008201527f6e00000000000000000000000000000000000000000000000000000000000000602082015250565b600061250c602183611afb565b9150612517826124b0565b604082019050919050565b6000602082019050818103600083015261253b816124ff565b9050919050565b7f70726f6475636572206f6620746865206261746368206973206e6f742074686560008201527f206f776e65720000000000000000000000000000000000000000000000000000602082015250565b600061259e602683611afb565b91506125a982612542565b604082019050919050565b600060208201905081810360008301526125cd81612591565b9050919050565b60008190508160005260206000209050919050565b601f82111561262a576125fb816125d4565b6126048461219a565b81016020851015612613578190505b61262761261f8561219a565b830182612281565b50505b505050565b61263882611dd6565b67ffffffffffffffff81111561265157612650611956565b5b61265b8254612154565b6126668282856125e9565b600060209050601f8311600181146126995760008415612687578287015190505b6126918582612315565b8655506126f9565b601f1984166126a7866125d4565b60005b828110156126cf578489015182556001820191506020850194506020810190506126aa565b868310156126ec57848901516126e8601f8916826122f7565b8355505b6001600288020188555050505b505050505050565b7f70726f64756374206861736820766572696669636174696f6e206661696c6564600082015250565b6000612737602083611afb565b915061274282612701565b602082019050919050565b600060208201905081810360008301526127668161272a565b9050919050565b7f636572746966696361746520766572696669636174696f6e206661696c656400600082015250565b60006127a3601f83611afb565b91506127ae8261276d565b602082019050919050565b600060208201905081810360008301526127d281612796565b9050919050565b600060ff82169050919050565b7f4e487b7100000000000000000000000000000000000000000000000000000000600052601160045260246000fd5b6000612820826127d9565b915061282b836127d9565b92508260ff03821115612841576128406127e6565b5b828201905092915050565b612855816127d9565b82525050565b600060808201905061287060008301876118c2565b61287d602083018661284c565b61288a60408301856118c2565b61289760608301846118c2565b95945050505050565b60006020820190506128b56000830184611903565b92915050565b6128c48161185f565b81146128cf57600080fd5b50565b6000815190506128e1816128bb565b92915050565b6000602082840312156128fd576128fc6117a9565b5b600061290b848285016128d2565b9150509291505056fea26469706673582212202038a9eea98a640da2a111037b9d65c5e904e61bfeb294fa4d982af50c70217f64736f6c634300080f0033",
  "immutableReferences": {},
  "source": "// SPDX-License-Identifier: MIT\npragma solidity ^0.8.0;\n\nimport \"./CARegistry.sol\"; \nimport \"./OracleClient.sol\";\n\ncontract Product is TemperatureOracleClient {\n    bool internal halted;\n    bool internal locked;               // lock for payments (not sure if necessary yet)\n    address payable owner;              // owner of this contract (who deployed)\n    address DOA;                        // Department of Agriculture contract address \n\n    struct Batch {                      // keeps the hash of product data and conditions \n        bytes32 productHash;            // hash of the data stored off-chain \n        bytes32 certificate;            // organic product certification \n        bytes signature;                // created with web3.eth.sign(), bytes by issuer \n        address owner;                  // current owner of the product batch \n        address producer;               // who produced the batch \n        uint256 temperature;            // required temp of the product as provided in required conitions\n        bool status;                    // the status of the product, true means ok - not sure if needed\n    }\n    uint256 _recvdTemp;\n\n    \n    mapping (bytes32 => Batch) products;    // maps each product ID to a product data   \n    mapping (bytes32 => string) database;   // maps batchID to IPFS storage link \n    mapping (address => bool) producers;    // eligible producers to add products \n\n    constructor(address oracleAddress, address _DOA, address payable _owner) TemperatureOracleClient(oracleAddress) {\n        DOA = _DOA; \n        owner = _owner; \n    }\n\n    ////////////////////////ORACLE //////////////////////////////\n    // function to request the temperature from the oracle for a \n    // given batchId\n    function getTemperature(bytes32 batchId) public \n    {\n        // send a request to the oracle for the temperature\n        requestTemperatureFromOracle(batchId);\n        // remember what oracle requests are associated with what batches\n\n    }\n\n    // receive the reply from the oracle\n    function receiveTemperatureFromOracle(bytes32 batchId, uint256 recvdTemp) internal override returns (bool) {\n        // this will check received temp against required temp in products \n        return compareTemperature(batchId, recvdTemp);\n\n    }\n    /////////////////////////////////////////////////////////////\n\n\n    modifier onlyThis(address _address) { require(msg.sender == _address, \"Only authorised address can call this function\"); _; }\n\n    modifier notHalted () {require(halted == false, 'The contract has been halted'); _;}\n\n    modifier isHalted () {require(halted == true, 'The contract is not halted'); _;}\n    \n    // check if the caller the current owner of the batch\n    modifier onlyOwner(address _address, bytes32 _batchID) { require(products[_batchID].owner == msg.sender, \"only owner can call this function\"); _; }\n    // check if the producer authorised to add products\n    modifier onlyProducer(address _address) { require(producers[_address] == true, \"only authorised producer can call this function\"); _; }\n    // check if the caller is the contract owner \n    modifier onlyDeployer() { require(owner == msg.sender, \"only contract owner can call this function\"); _; }\n    // lock against reentrancy \n    modifier lock() { \n        require(!locked); \n        locked = true; _; \n        locked = false;\n    }\n\n    // send generated product ID to off-chain \n    event batchIdentifier(bytes32 productID); \n\n    /* PRODUCT FUNCTIONS ------------------------------------------------------------------ */\n\n    /**\n     * @notice contract deployer adds authorised producer\n     *         to the mapping, which gives permissions to \n     *         add products and certificate \n     * @dev    only contract owner can call \n     * @param  _producer batch producer address \n    **/\n    function addProducer(address _producer) public \n    notHalted()\n    onlyDeployer() {\n        producers[_producer] = true; \n    }\n\n    /**\n     * @notice add product infromation to the data hash\n     *         and conditions hash generated from off-chain\n     * @dev    only registered producer can call \n     * @param  _data product data hash \n     * @param  _temperature stores required temperature\n     * @param  _CID unique identifier of the off-chain storage\n    **/\n    function addProduct(bytes32 _data, uint256 _temperature, string memory _CID) public \n    notHalted()\n    onlyProducer(msg.sender) {\n        bytes32 batchID = bytes32(keccak256(abi.encodePacked(_data))); \n        products[batchID].productHash = _data; \n        products[batchID].owner = msg.sender; \n        products[batchID].producer = msg.sender;\n        products[batchID].temperature = _temperature; \n        products[batchID].status = true;\n        database[batchID] = _CID; \n        emit batchIdentifier(batchID);\n    }\n\n    /**\n     * @notice producer adds a certificate obtained from the \n     *         CA from off-chain, the producer has to be the \n     *         current batch owner to add certificate \n     * @dev    only the producer of the product can call \n     * @param  _batchID unique identifier of the batch \n     * @param  _certificate certificate certifying product batch\n     * @param  _signature signature of the certificate issuer \n    **/\n    function addCertificate(bytes32 _batchID, bytes32 _certificate, bytes memory _signature) public \n    notHalted()\n    onlyOwner(msg.sender, _batchID) {\n        require(products[_batchID].producer == products[_batchID].owner, \"producer of the batch is not the owner\"); \n        products[_batchID].certificate = _certificate; \n        products[_batchID].signature = _signature; \n    }\n\n    /**\n     * @notice transfer the ownership of the product batch, supported by \n     *         certificate verification and check of the product hash\n     *         that is stored on-chain and freshly computed one\n     * @dev    only the current owner of the product can call \n     * @param  _batchID unique identifier of the batch \n     * @param  _productHash hash of the product to verify\n     * @param  _newOwner address of a new batch owner \n    **/\n    function updateOwner(bytes32 _batchID, bytes32 _productHash, address _newOwner) public\n    notHalted()\n    onlyOwner(msg.sender, _batchID) {\n        require(verifyProductHash(_batchID, _productHash) == true, \"product hash verification failed\"); \n        require(verifyCertificate(_batchID) == true, \"certificate verification failed\");\n        products[_batchID].owner = _newOwner; \n    }\n\n    /* VERIFICATION FUNCTIONS ----------------------------------------------------------------- */\n\n    /**\n     * @notice allows to verify data in the off-chain data store about product\n     * @dev    anyone can call \n     * @param  _batchID unique identifier of the batch \n     * @param  _offchainHash certificate certifying product batch\n     * @return bool if the hash stored on-chain is the same as newly computed hash,\n     *         then product infromation is correct and has not been modified \n    **/\n    function verifyProductHash(bytes32 _batchID, bytes32 _offchainHash) public \n    notHalted()\n    view returns (bool) {\n        if (products[_batchID].productHash == _offchainHash) { return true;}\n        return false;\n    }\n\n    /* GETTER FUNCTIONS ----------------------------------------------------------------------- */\n\n    /**\n     * @notice checks whether the producer address is\n     *         authorised to add product and certificate\n     * @dev    anyone can call function \n     * @param  _producer batch producer address \n     * @return bool true if address is in mapping \n    **/\n    function getProducer(address _producer) public view \n    notHalted()\n    returns(bool) {\n        return producers[_producer]; \n    }\n\n    /**\n     * @notice get the product hash and owner by its unique ID\n     * @dev    anyone can call function \n     * @param  _batchID unique batch ID to get the product \n     * @return bytes32 product hash stored on-chain \n     * @return address of the current owner of the batch \n    **/\n    function getProduct(bytes32 _batchID) public view \n    notHalted()\n    returns(bytes32, address) {\n        return (products[_batchID].productHash, products[_batchID].owner);\n    }\n\n    /**\n     * @notice get the product certificate and signer signature\n     * @dev    anyone can call function \n     * @param  _batchID unique batch ID to get the product \n     * @return bytes32 batch certificate on-chain\n     * @return bytes array of the issuer signature\n    **/\n    function getCertificate(bytes32 _batchID) public view \n    notHalted()\n    returns(bytes32, bytes memory) {\n        return (products[_batchID].certificate, products[_batchID].signature); \n    }\n\n    /**\n     * @notice get the product off-chain storage location \n     * @dev    anyone can call function \n     * @param  _batchID unique batch ID to get the product \n     * @return string unique IPFS storage identifier (CID)\n    **/\n    function getDatabase(bytes32 _batchID) public view \n    notHalted()\n    returns(string memory) {\n        return database[_batchID]; \n    }\n\n    /* TEMPERATURE FUNCTIONS ------------------------------------------------------------------ */\n\n    // requires oracle \n    // have restricted to private so anyone cannot call this \n    // is there a way to resctrict this to the oracle?\n    function compareTemperature(bytes32 _batchID, uint256 _temperature) private \n    notHalted()\n    returns (bool)\n    {\n        if (_temperature > products[_batchID].temperature) {\n            products[_batchID].status = false;\n            return false;\n        }\n        return true;\n    }\n\n\n    // allow owner to reset product status in the event of oracle malfunction\n    // they must provide an alternative temperature reading\n    function updateStatus(bytes32 _batchID, uint256 _temperature) public\n    notHalted()\n    onlyThis(products[_batchID].owner)\n    {\n        compareTemperature(_batchID, _temperature);\n    }\n\n    // following can only be executed by contract owner\n    function emergencyHalt()\n    onlyDeployer()\n    notHalted()\n    public \n    {\n        halted = true;\n    }\n\n    function restartContract() public\n    onlyDeployer()\n    isHalted()\n    {\n        halted = false;\n    }\n\n    /* CERTIFICATE FUNCTIONS ------------------------------------------------------------------ */\n\n    /**\n     * @notice based the product certificate and issuer signature\n     *         recovers the address of CA who signed the certificate\n     *         and verifies whether it is registered with DOA \n     * @dev    anyone can call function \n     * @param  _batchID unique batch ID to get the product \n     * @return bool if the issuer is registered with DOA, then \n     *         certificate is valid, otherwise returns false \n    **/\n    function verifyCertificate(bytes32 _batchID) public view\n    notHalted()\n    returns(bool) {\n        bytes32 certificate = products[_batchID].certificate; \n        bytes memory signature = products[_batchID].signature; \n        // recovered issuer from the certificate and his signature \n        address issuer = recoverIssuer(certificate, signature); \n        if (verifyIssuer(issuer) == true) { return true; }\n        return false; \n    }\n\n    /**\n     * @notice verify that the certifying authority is ligitimate\n     *         and has been registrered with DOA registry contract,\n     *         and thus eligible to issue organic certificates\n     * @dev    other functions from this contract can call\n     * @param  _issuer unique batch ID to get the product \n     * @return bool true if the issuer registered with DOA,\n     *         otherwise false\n    **/\n    function verifyIssuer(address _issuer) internal view returns(bool) {\n        AuthorityRegistry registry = AuthorityRegistry(DOA);  \n        return registry.checkPublicKey(_issuer);\n    }\n\n    /**\n     * @notice functions recovers the signer of the certificate from the provided certificate \n               (message signed by authority) and signature \n     * @dev    called internally from placeBid function  \n     * @param  _hash the batch certificate signed by CA \n     * @param  _sig CA's bytes signature generated using web3.eth.sign()\n     * @return issuer address (authority who issued/signed the organic certificate to the product batch)\n    **/\n    // copyright: https://github.com/protofire/zeppelin-solidity/blob/master/contracts/ECRecovery.sol\n    function recoverIssuer(bytes32 _hash, bytes memory _sig) internal pure returns(address) {\n        bytes32 r; bytes32 s; uint8 v;\n        //Check the signature length\n        if (_sig.length != 65) { return (address(0)); }\n        assembly {\n            r := mload(add(_sig, 32))\n            s := mload(add(_sig, 64))\n            v := byte(0, mload(add(_sig, 96)))\n        }\n        if (v < 27) { v += 27; }\n\n        // If the version is correct return the signer address\n        if (v != 27 && v != 28) { return (address(0)); } \n        else { return ecrecover(_hash, v, r, s); }\n    }\n\n    /* UTILITIES FUNCTIONS -------------------------------------------------------------------- */\n\n    /**\n     * @notice deactivate contract \n     * @dev    only the contract owner / deployer can call\n    **/\n    function destroyContract() public onlyDeployer() {\n        selfdestruct(owner); \n    }\n\n}",
  "sourcePath": "/Users/dariaschumm/Library/Mobile Documents/com~apple~CloudDocs/6452/project_2/contracts/Product.sol",
  "compiler": {
    "name": "solc",
    "version": "0.8.15+commit.e14f2714.Emscripten.clang"
  },
  "schemaVersion": "3.4.8",
  "updatedAt": "2022-07-22T22:07:06.346Z",
  "networkType": "ethereum",
  "devdoc": {
    "kind": "dev",
    "methods": {
      "addCertificate(bytes32,bytes32,bytes)": {
        "details": "only the producer of the product can call ",
        "params": {
          "_batchID": "unique identifier of the batch ",
          "_certificate": "certificate certifying product batch",
          "_signature": "signature of the certificate issuer *"
        }
      },
      "addProducer(address)": {
        "details": "only contract owner can call ",
        "params": {
          "_producer": "batch producer address *"
        }
      },
      "addProduct(bytes32,uint256,string)": {
        "details": "only registered producer can call ",
        "params": {
          "_CID": "unique identifier of the off-chain storage*",
          "_data": "product data hash ",
          "_temperature": "stores required temperature"
        }
      },
      "destroyContract()": {
        "details": "only the contract owner / deployer can call*"
      },
      "getCertificate(bytes32)": {
        "details": "anyone can call function ",
        "params": {
          "_batchID": "unique batch ID to get the product "
        },
        "returns": {
          "_0": "bytes32 batch certificate on-chain",
          "_1": "bytes array of the issuer signature*"
        }
      },
      "getDatabase(bytes32)": {
        "details": "anyone can call function ",
        "params": {
          "_batchID": "unique batch ID to get the product "
        },
        "returns": {
          "_0": "string unique IPFS storage identifier (CID)*"
        }
      },
      "getProducer(address)": {
        "details": "anyone can call function ",
        "params": {
          "_producer": "batch producer address "
        },
        "returns": {
          "_0": "bool true if address is in mapping *"
        }
      },
      "getProduct(bytes32)": {
        "details": "anyone can call function ",
        "params": {
          "_batchID": "unique batch ID to get the product "
        },
        "returns": {
          "_0": "bytes32 product hash stored on-chain ",
          "_1": "address of the current owner of the batch *"
        }
      },
      "updateOwner(bytes32,bytes32,address)": {
        "details": "only the current owner of the product can call ",
        "params": {
          "_batchID": "unique identifier of the batch ",
          "_newOwner": "address of a new batch owner *",
          "_productHash": "hash of the product to verify"
        }
      },
      "verifyCertificate(bytes32)": {
        "details": "anyone can call function ",
        "params": {
          "_batchID": "unique batch ID to get the product "
        },
        "returns": {
          "_0": "bool if the issuer is registered with DOA, then          certificate is valid, otherwise returns false *"
        }
      },
      "verifyProductHash(bytes32,bytes32)": {
        "details": "anyone can call ",
        "params": {
          "_batchID": "unique identifier of the batch ",
          "_offchainHash": "certificate certifying product batch"
        },
        "returns": {
          "_0": "bool if the hash stored on-chain is the same as newly computed hash,         then product infromation is correct and has not been modified *"
        }
      }
    },
    "version": 1
  },
  "userdoc": {
    "kind": "user",
    "methods": {
      "addCertificate(bytes32,bytes32,bytes)": {
        "notice": "producer adds a certificate obtained from the          CA from off-chain, the producer has to be the          current batch owner to add certificate "
      },
      "addProducer(address)": {
        "notice": "contract deployer adds authorised producer         to the mapping, which gives permissions to          add products and certificate "
      },
      "addProduct(bytes32,uint256,string)": {
        "notice": "add product infromation to the data hash         and conditions hash generated from off-chain"
      },
      "destroyContract()": {
        "notice": "deactivate contract "
      },
      "getCertificate(bytes32)": {
        "notice": "get the product certificate and signer signature"
      },
      "getDatabase(bytes32)": {
        "notice": "get the product off-chain storage location "
      },
      "getProducer(address)": {
        "notice": "checks whether the producer address is         authorised to add product and certificate"
      },
      "getProduct(bytes32)": {
        "notice": "get the product hash and owner by its unique ID"
      },
      "updateOwner(bytes32,bytes32,address)": {
        "notice": "transfer the ownership of the product batch, supported by          certificate verification and check of the product hash         that is stored on-chain and freshly computed one"
      },
      "verifyCertificate(bytes32)": {
        "notice": "based the product certificate and issuer signature         recovers the address of CA who signed the certificate         and verifies whether it is registered with DOA "
      },
      "verifyProductHash(bytes32,bytes32)": {
        "notice": "allows to verify data in the off-chain data store about product"
      }
    },
    "version": 1
  }
}