{
  "contractName": "ProductContract",
  "abi": [
    {
      "inputs": [
        {
          "internalType": "address",
          "name": "_owner",
          "type": "address"
        }
      ],
      "stateMutability": "nonpayable",
      "type": "constructor"
    },
    {
      "inputs": [
        {
          "internalType": "bytes32",
          "name": "_data",
          "type": "bytes32"
        },
        {
          "internalType": "bytes32",
          "name": "_conditions",
          "type": "bytes32"
        }
      ],
      "name": "addProduct",
      "outputs": [],
      "stateMutability": "nonpayable",
      "type": "function"
    },
    {
      "inputs": [
        {
          "internalType": "uint256",
          "name": "_index",
          "type": "uint256"
        }
      ],
      "name": "getProduct",
      "outputs": [
        {
          "internalType": "bytes32",
          "name": "",
          "type": "bytes32"
        },
        {
          "internalType": "bytes32",
          "name": "",
          "type": "bytes32"
        },
        {
          "internalType": "address",
          "name": "",
          "type": "address"
        }
      ],
      "stateMutability": "view",
      "type": "function",
      "constant": true
    }
  ],
  "bytecode": "0x608060405234801561001057600080fd5b50604051610554380380610554833981810160405281019061003291906100dc565b80600060016101000a81548173ffffffffffffffffffffffffffffffffffffffff021916908373ffffffffffffffffffffffffffffffffffffffff16021790555050610109565b600080fd5b600073ffffffffffffffffffffffffffffffffffffffff82169050919050565b60006100a98261007e565b9050919050565b6100b98161009e565b81146100c457600080fd5b50565b6000815190506100d6816100b0565b92915050565b6000602082840312156100f2576100f1610079565b5b6000610100848285016100c7565b91505092915050565b61043c806101186000396000f3fe608060405234801561001057600080fd5b50600436106100365760003560e01c80633146610d1461003b578063b9db15b414610057575b600080fd5b610055600480360381019061005091906102ad565b610089565b005b610071600480360381019061006c9190610323565b6101ce565b604051610080939291906103a0565b60405180910390f35b60016040518060c001604052808481526020018381526020016000801b815260200160008152602001600073ffffffffffffffffffffffffffffffffffffffff1681526020013373ffffffffffffffffffffffffffffffffffffffff1681525090806001815401808255809150506001900390600052602060002090600602016000909190919091506000820151816000015560208201518160010155604082015181600201556060820151816003015560808201518160040160006101000a81548173ffffffffffffffffffffffffffffffffffffffff021916908373ffffffffffffffffffffffffffffffffffffffff16021790555060a08201518160050160006101000a81548173ffffffffffffffffffffffffffffffffffffffff021916908373ffffffffffffffffffffffffffffffffffffffff16021790555050505050565b6000806000600184815481106101e7576101e66103d7565b5b9060005260206000209060060201600001546001858154811061020d5761020c6103d7565b5b90600052602060002090600602016001015460018681548110610233576102326103d7565b5b906000526020600020906006020160050160009054906101000a900473ffffffffffffffffffffffffffffffffffffffff169250925092509193909250565b600080fd5b6000819050919050565b61028a81610277565b811461029557600080fd5b50565b6000813590506102a781610281565b92915050565b600080604083850312156102c4576102c3610272565b5b60006102d285828601610298565b92505060206102e385828601610298565b9150509250929050565b6000819050919050565b610300816102ed565b811461030b57600080fd5b50565b60008135905061031d816102f7565b92915050565b60006020828403121561033957610338610272565b5b60006103478482850161030e565b91505092915050565b61035981610277565b82525050565b600073ffffffffffffffffffffffffffffffffffffffff82169050919050565b600061038a8261035f565b9050919050565b61039a8161037f565b82525050565b60006060820190506103b56000830186610350565b6103c26020830185610350565b6103cf6040830184610391565b949350505050565b7f4e487b7100000000000000000000000000000000000000000000000000000000600052603260045260246000fdfea26469706673582212201739cba71d56d5ae99777bb36a022145d0d36583e40fe24e1cc94a7afa7dc21764736f6c634300080f0033",
  "immutableReferences": {},
  "source": "// SPDX-License-Identifier: MIT\npragma solidity ^0.8.0;\n\ncontract ProductContract {\n\n    bool internal locked;                   // lock for payments (not sure if necessary yet)\n    address owner;\n\n    // another option to map multiple structs:\n    // https://ethereum.stackexchange.com/questions/82157/mapping-multiple-structs-to-a-struct-and-call-them\n    \n    // keeps the hash of product data and contions,\n    // certificate infromation and the current owner \n    struct Product {\n        bytes32 productHash; \n        bytes32 conditionsHash;\n        bytes32 certificate; \n        uint256 expiration; \n        address issuer;\n        address currentOwner;\n    }\n\n    // maps each product entry to an integer  \n    // mapping (uint256 => Product[]) products; \n    // alternatively keep as array:\n    Product[] products; \n\n    constructor(address _owner) {\n        owner = _owner; \n    }\n\n    // only owner can call the function \n    modifier onlyOwner(address _owner) { require(msg.sender == _owner); _; }\n    // only after that time can call the function \n    modifier onlyAfter(uint256 _time) { require(block.timestamp > _time); _; }\n    // only before that time can call the function \n    modifier onlyBefore(uint256 _time) { require(block.timestamp < _time); _;}\n    // lock against reentrancy \n    modifier lock() { \n        require(!locked); \n        locked = true; _; \n        locked = false;\n    }\n\n    /* PRODUCT FUNCTIONS ------------------------------------------------------------------ */\n\n    // adds product data hash and conditions hash \n    function addProduct(bytes32 _data, bytes32 _conditions) public {\n        products.push(Product(_data, _conditions, bytes32(0), 0, address(0), msg.sender)); \n    }\n\n    function getProduct(uint256 _index) public view returns(bytes32, bytes32, address) {\n        return (products[_index].productHash, products[_index].conditionsHash, products[_index].currentOwner); \n    }\n\n}",
  "sourcePath": "/Users/dariaschumm/Library/Mobile Documents/com~apple~CloudDocs/6452/project_2/contracts/Product.sol",
  "compiler": {
    "name": "solc",
    "version": "0.8.15+commit.e14f2714.Emscripten.clang"
  },
  "schemaVersion": "3.4.7",
  "updatedAt": "2022-07-09T09:35:27.028Z",
  "networkType": "ethereum",
  "devdoc": {
    "kind": "dev",
    "methods": {},
    "version": 1
  },
  "userdoc": {
    "kind": "user",
    "methods": {},
    "version": 1
  }
}