{
  "contractName": "Product",
  "abi": [
    {
      "inputs": [
        {
          "internalType": "address",
          "name": "_DOA",
          "type": "address"
        },
        {
          "internalType": "address payable",
          "name": "_owner",
          "type": "address"
        }
      ],
      "stateMutability": "nonpayable",
      "type": "constructor"
    },
    {
      "anonymous": false,
      "inputs": [
        {
          "indexed": false,
          "internalType": "bytes32",
          "name": "productID",
          "type": "bytes32"
        }
      ],
      "name": "batchIdentifier",
      "type": "event"
    },
    {
      "inputs": [
        {
          "internalType": "address",
          "name": "_producer",
          "type": "address"
        }
      ],
      "name": "addProducer",
      "outputs": [],
      "stateMutability": "nonpayable",
      "type": "function"
    },
    {
      "inputs": [
        {
          "internalType": "bytes32",
          "name": "_data",
          "type": "bytes32"
        },
        {
          "internalType": "uint256",
          "name": "_temperature",
          "type": "uint256"
        },
        {
          "internalType": "string",
          "name": "_CID",
          "type": "string"
        }
      ],
      "name": "addProduct",
      "outputs": [],
      "stateMutability": "nonpayable",
      "type": "function"
    },
    {
      "inputs": [
        {
          "internalType": "bytes32",
          "name": "_batchID",
          "type": "bytes32"
        },
        {
          "internalType": "bytes32",
          "name": "_certificate",
          "type": "bytes32"
        },
        {
          "internalType": "bytes",
          "name": "_signature",
          "type": "bytes"
        }
      ],
      "name": "addCertificate",
      "outputs": [],
      "stateMutability": "nonpayable",
      "type": "function"
    },
    {
      "inputs": [
        {
          "internalType": "bytes32",
          "name": "_batchID",
          "type": "bytes32"
        },
        {
          "internalType": "bytes32",
          "name": "_productHash",
          "type": "bytes32"
        },
        {
          "internalType": "address",
          "name": "_newOwner",
          "type": "address"
        }
      ],
      "name": "updateOwner",
      "outputs": [],
      "stateMutability": "nonpayable",
      "type": "function"
    },
    {
      "inputs": [
        {
          "internalType": "bytes32",
          "name": "_batchID",
          "type": "bytes32"
        },
        {
          "internalType": "bytes32",
          "name": "_offchainHash",
          "type": "bytes32"
        }
      ],
      "name": "verifyProductHash",
      "outputs": [
        {
          "internalType": "bool",
          "name": "",
          "type": "bool"
        }
      ],
      "stateMutability": "view",
      "type": "function",
      "constant": true
    },
    {
      "inputs": [
        {
          "internalType": "address",
          "name": "_producer",
          "type": "address"
        }
      ],
      "name": "getProducer",
      "outputs": [
        {
          "internalType": "bool",
          "name": "",
          "type": "bool"
        }
      ],
      "stateMutability": "view",
      "type": "function",
      "constant": true
    },
    {
      "inputs": [
        {
          "internalType": "bytes32",
          "name": "_batchID",
          "type": "bytes32"
        }
      ],
      "name": "getProduct",
      "outputs": [
        {
          "internalType": "bytes32",
          "name": "",
          "type": "bytes32"
        },
        {
          "internalType": "address",
          "name": "",
          "type": "address"
        }
      ],
      "stateMutability": "view",
      "type": "function",
      "constant": true
    },
    {
      "inputs": [
        {
          "internalType": "bytes32",
          "name": "_batchID",
          "type": "bytes32"
        }
      ],
      "name": "getCertificate",
      "outputs": [
        {
          "internalType": "bytes32",
          "name": "",
          "type": "bytes32"
        },
        {
          "internalType": "bytes",
          "name": "",
          "type": "bytes"
        }
      ],
      "stateMutability": "view",
      "type": "function",
      "constant": true
    },
    {
      "inputs": [
        {
          "internalType": "bytes32",
          "name": "_batchID",
          "type": "bytes32"
        }
      ],
      "name": "getDatabase",
      "outputs": [
        {
          "internalType": "string",
          "name": "",
          "type": "string"
        }
      ],
      "stateMutability": "view",
      "type": "function",
      "constant": true
    },
    {
      "inputs": [
        {
          "internalType": "bytes32",
          "name": "_batchID",
          "type": "bytes32"
        }
      ],
      "name": "verifyCertificate",
      "outputs": [
        {
          "internalType": "bool",
          "name": "",
          "type": "bool"
        }
      ],
      "stateMutability": "view",
      "type": "function",
      "constant": true
    },
    {
      "inputs": [],
      "name": "destroyContract",
      "outputs": [],
      "stateMutability": "nonpayable",
      "type": "function"
    }
  ],
  "bytecode": "0x60806040523480156200001157600080fd5b5060405162001f4f38038062001f4f833981810160405281019062000037919062000170565b81600160006101000a81548173ffffffffffffffffffffffffffffffffffffffff021916908373ffffffffffffffffffffffffffffffffffffffff16021790555080600060016101000a81548173ffffffffffffffffffffffffffffffffffffffff021916908373ffffffffffffffffffffffffffffffffffffffff1602179055505050620001b7565b600080fd5b600073ffffffffffffffffffffffffffffffffffffffff82169050919050565b6000620000f382620000c6565b9050919050565b6200010581620000e6565b81146200011157600080fd5b50565b6000815190506200012581620000fa565b92915050565b60006200013882620000c6565b9050919050565b6200014a816200012b565b81146200015657600080fd5b50565b6000815190506200016a816200013f565b92915050565b600080604083850312156200018a5762000189620000c1565b5b60006200019a8582860162000114565b9250506020620001ad8582860162000159565b9150509250929050565b611d8880620001c76000396000f3fe608060405234801561001057600080fd5b50600436106100a95760003560e01c80638ec394d1116100715780638ec394d114610165578063a921387414610181578063aab147b2146101b1578063b83ce919146101e1578063ddf80166146101fd578063f333fe0814610219576100a9565b8063092a5cce146100ae5780633a20e9df146100b85780635950c3fb146100e957806362004e6314610105578063850c176814610135575b600080fd5b6100b661024a565b005b6100d260048036038101906100cd9190610ea3565b610315565b6040516100e0929190610f20565b60405180910390f35b61010360048036038101906100fe91906110c5565b61036f565b005b61011f600480360381019061011a9190610ea3565b61059c565b60405161012c91906111bc565b60405180910390f35b61014f600480360381019061014a9190610ea3565b610641565b60405161015c91906111f9565b60405180910390f35b61017f600480360381019061017a91906112b5565b61073b565b005b61019b60048036038101906101969190611324565b610901565b6040516101a891906111f9565b60405180910390f35b6101cb60048036038101906101c69190611390565b610934565b6040516101d891906111f9565b60405180910390f35b6101fb60048036038101906101f691906113bd565b61098a565b005b61021760048036038101906102129190611390565b610b2b565b005b610233600480360381019061022e9190610ea3565b610c16565b604051610241929190611465565b60405180910390f35b3373ffffffffffffffffffffffffffffffffffffffff16600060019054906101000a900473ffffffffffffffffffffffffffffffffffffffff1673ffffffffffffffffffffffffffffffffffffffff16146102da576040517f08c379a00000000000000000000000000000000000000000000000000000000081526004016102d190611507565b60405180910390fd5b600060019054906101000a900473ffffffffffffffffffffffffffffffffffffffff1673ffffffffffffffffffffffffffffffffffffffff16ff5b60008060026000848152602001908152602001600020600001546002600085815260200190815260200160002060030160009054906101000a900473ffffffffffffffffffffffffffffffffffffffff1691509150915091565b3360011515600460008373ffffffffffffffffffffffffffffffffffffffff1673ffffffffffffffffffffffffffffffffffffffff16815260200190815260200160002060009054906101000a900460ff16151514610403576040517f08c379a00000000000000000000000000000000000000000000000000000000081526004016103fa90611599565b60405180910390fd5b60008460405160200161041691906115da565b604051602081830303815290604052805190602001209050846002600083815260200190815260200160002060000181905550336002600083815260200190815260200160002060030160006101000a81548173ffffffffffffffffffffffffffffffffffffffff021916908373ffffffffffffffffffffffffffffffffffffffff160217905550336002600083815260200190815260200160002060040160006101000a81548173ffffffffffffffffffffffffffffffffffffffff021916908373ffffffffffffffffffffffffffffffffffffffff16021790555083600260008381526020019081526020016000206005018190555060016002600083815260200190815260200160002060060160006101000a81548160ff0219169083151502179055508260036000838152602001908152602001600020908161055d9190611801565b507feb12ab352ec0628425cb2d83290a1d034ed2d60ba8d5caf7462e7526ce18d38e8160405161058d91906118d3565b60405180910390a15050505050565b60606003600083815260200190815260200160002080546105bc90611624565b80601f01602080910402602001604051908101604052809291908181526020018280546105e890611624565b80156106355780601f1061060a57610100808354040283529160200191610635565b820191906000526020600020905b81548152906001019060200180831161061857829003601f168201915b50505050509050919050565b60008060026000848152602001908152602001600020600101549050600060026000858152602001908152602001600020600201805461068090611624565b80601f01602080910402602001604051908101604052809291908181526020018280546106ac90611624565b80156106f95780601f106106ce576101008083540402835291602001916106f9565b820191906000526020600020905b8154815290600101906020018083116106dc57829003601f168201915b50505050509050600061070c8383610cdc565b90506001151561071b82610daf565b15150361072e5760019350505050610736565b600093505050505b919050565b33833373ffffffffffffffffffffffffffffffffffffffff166002600083815260200190815260200160002060030160009054906101000a900473ffffffffffffffffffffffffffffffffffffffff1673ffffffffffffffffffffffffffffffffffffffff16146107e1576040517f08c379a00000000000000000000000000000000000000000000000000000000081526004016107d890611960565b60405180910390fd5b6002600086815260200190815260200160002060030160009054906101000a900473ffffffffffffffffffffffffffffffffffffffff1673ffffffffffffffffffffffffffffffffffffffff166002600087815260200190815260200160002060040160009054906101000a900473ffffffffffffffffffffffffffffffffffffffff1673ffffffffffffffffffffffffffffffffffffffff16146108bb576040517f08c379a00000000000000000000000000000000000000000000000000000000081526004016108b2906119f2565b60405180910390fd5b836002600087815260200190815260200160002060010181905550826002600087815260200190815260200160002060020190816108f99190611a6d565b505050505050565b600081600260008581526020019081526020016000206000015403610929576001905061092e565b600090505b92915050565b6000600460008373ffffffffffffffffffffffffffffffffffffffff1673ffffffffffffffffffffffffffffffffffffffff16815260200190815260200160002060009054906101000a900460ff169050919050565b33833373ffffffffffffffffffffffffffffffffffffffff166002600083815260200190815260200160002060030160009054906101000a900473ffffffffffffffffffffffffffffffffffffffff1673ffffffffffffffffffffffffffffffffffffffff1614610a30576040517f08c379a0000000000000000000000000000000000000000000000000000000008152600401610a2790611960565b60405180910390fd5b60011515610a3e8686610901565b151514610a80576040517f08c379a0000000000000000000000000000000000000000000000000000000008152600401610a7790611b8b565b60405180910390fd5b60011515610a8d86610641565b151514610acf576040517f08c379a0000000000000000000000000000000000000000000000000000000008152600401610ac690611bf7565b60405180910390fd5b826002600087815260200190815260200160002060030160006101000a81548173ffffffffffffffffffffffffffffffffffffffff021916908373ffffffffffffffffffffffffffffffffffffffff1602179055505050505050565b3373ffffffffffffffffffffffffffffffffffffffff16600060019054906101000a900473ffffffffffffffffffffffffffffffffffffffff1673ffffffffffffffffffffffffffffffffffffffff1614610bbb576040517f08c379a0000000000000000000000000000000000000000000000000000000008152600401610bb290611507565b60405180910390fd5b6001600460008373ffffffffffffffffffffffffffffffffffffffff1673ffffffffffffffffffffffffffffffffffffffff16815260200190815260200160002060006101000a81548160ff02191690831515021790555050565b60006060600260008481526020019081526020016000206001015460026000858152602001908152602001600020600201808054610c5390611624565b80601f0160208091040260200160405190810160405280929190818152602001828054610c7f90611624565b8015610ccc5780601f10610ca157610100808354040283529160200191610ccc565b820191906000526020600020905b815481529060010190602001808311610caf57829003601f168201915b5050505050905091509150915091565b6000806000806041855114610cf75760009350505050610da9565b6020850151925060408501519150606085015160001a9050601b8160ff161015610d2b57601b81610d289190611c53565b90505b601b8160ff1614158015610d435750601c8160ff1614155b15610d545760009350505050610da9565b60018682858560405160008152602001604052604051610d779493929190611c99565b6020604051602081039080840390855afa158015610d99573d6000803e3d6000fd5b5050506020604051035193505050505b92915050565b600080600160009054906101000a900473ffffffffffffffffffffffffffffffffffffffff1690508073ffffffffffffffffffffffffffffffffffffffff16636af92956846040518263ffffffff1660e01b8152600401610e109190611cde565b602060405180830381865afa158015610e2d573d6000803e3d6000fd5b505050506040513d601f19601f82011682018060405250810190610e519190611d25565b915050919050565b6000604051905090565b600080fd5b600080fd5b6000819050919050565b610e8081610e6d565b8114610e8b57600080fd5b50565b600081359050610e9d81610e77565b92915050565b600060208284031215610eb957610eb8610e63565b5b6000610ec784828501610e8e565b91505092915050565b610ed981610e6d565b82525050565b600073ffffffffffffffffffffffffffffffffffffffff82169050919050565b6000610f0a82610edf565b9050919050565b610f1a81610eff565b82525050565b6000604082019050610f356000830185610ed0565b610f426020830184610f11565b9392505050565b6000819050919050565b610f5c81610f49565b8114610f6757600080fd5b50565b600081359050610f7981610f53565b92915050565b600080fd5b600080fd5b6000601f19601f8301169050919050565b7f4e487b7100000000000000000000000000000000000000000000000000000000600052604160045260246000fd5b610fd282610f89565b810181811067ffffffffffffffff82111715610ff157610ff0610f9a565b5b80604052505050565b6000611004610e59565b90506110108282610fc9565b919050565b600067ffffffffffffffff8211156110305761102f610f9a565b5b61103982610f89565b9050602081019050919050565b82818337600083830152505050565b600061106861106384611015565b610ffa565b90508281526020810184848401111561108457611083610f84565b5b61108f848285611046565b509392505050565b600082601f8301126110ac576110ab610f7f565b5b81356110bc848260208601611055565b91505092915050565b6000806000606084860312156110de576110dd610e63565b5b60006110ec86828701610e8e565b93505060206110fd86828701610f6a565b925050604084013567ffffffffffffffff81111561111e5761111d610e68565b5b61112a86828701611097565b9150509250925092565b600081519050919050565b600082825260208201905092915050565b60005b8381101561116e578082015181840152602081019050611153565b8381111561117d576000848401525b50505050565b600061118e82611134565b611198818561113f565b93506111a8818560208601611150565b6111b181610f89565b840191505092915050565b600060208201905081810360008301526111d68184611183565b905092915050565b60008115159050919050565b6111f3816111de565b82525050565b600060208201905061120e60008301846111ea565b92915050565b600067ffffffffffffffff82111561122f5761122e610f9a565b5b61123882610f89565b9050602081019050919050565b600061125861125384611214565b610ffa565b90508281526020810184848401111561127457611273610f84565b5b61127f848285611046565b509392505050565b600082601f83011261129c5761129b610f7f565b5b81356112ac848260208601611245565b91505092915050565b6000806000606084860312156112ce576112cd610e63565b5b60006112dc86828701610e8e565b93505060206112ed86828701610e8e565b925050604084013567ffffffffffffffff81111561130e5761130d610e68565b5b61131a86828701611287565b9150509250925092565b6000806040838503121561133b5761133a610e63565b5b600061134985828601610e8e565b925050602061135a85828601610e8e565b9150509250929050565b61136d81610eff565b811461137857600080fd5b50565b60008135905061138a81611364565b92915050565b6000602082840312156113a6576113a5610e63565b5b60006113b48482850161137b565b91505092915050565b6000806000606084860312156113d6576113d5610e63565b5b60006113e486828701610e8e565b93505060206113f586828701610e8e565b92505060406114068682870161137b565b9150509250925092565b600081519050919050565b600082825260208201905092915050565b600061143782611410565b611441818561141b565b9350611451818560208601611150565b61145a81610f89565b840191505092915050565b600060408201905061147a6000830185610ed0565b818103602083015261148c818461142c565b90509392505050565b7f6f6e6c7920636f6e7472616374206f776e65722063616e2063616c6c2074686960008201527f732066756e6374696f6e00000000000000000000000000000000000000000000602082015250565b60006114f1602a8361113f565b91506114fc82611495565b604082019050919050565b60006020820190508181036000830152611520816114e4565b9050919050565b7f6f6e6c7920617574686f72697365642070726f64756365722063616e2063616c60008201527f6c20746869732066756e6374696f6e0000000000000000000000000000000000602082015250565b6000611583602f8361113f565b915061158e82611527565b604082019050919050565b600060208201905081810360008301526115b281611576565b9050919050565b6000819050919050565b6115d46115cf82610e6d565b6115b9565b82525050565b60006115e682846115c3565b60208201915081905092915050565b7f4e487b7100000000000000000000000000000000000000000000000000000000600052602260045260246000fd5b6000600282049050600182168061163c57607f821691505b60208210810361164f5761164e6115f5565b5b50919050565b60008190508160005260206000209050919050565b60006020601f8301049050919050565b600082821b905092915050565b6000600883026116b77fffffffffffffffffffffffffffffffffffffffffffffffffffffffffffffffff8261167a565b6116c1868361167a565b95508019841693508086168417925050509392505050565b6000819050919050565b60006116fe6116f96116f484610f49565b6116d9565b610f49565b9050919050565b6000819050919050565b611718836116e3565b61172c61172482611705565b848454611687565b825550505050565b600090565b611741611734565b61174c81848461170f565b505050565b5b8181101561177057611765600082611739565b600181019050611752565b5050565b601f8211156117b55761178681611655565b61178f8461166a565b8101602085101561179e578190505b6117b26117aa8561166a565b830182611751565b50505b505050565b600082821c905092915050565b60006117d8600019846008026117ba565b1980831691505092915050565b60006117f183836117c7565b9150826002028217905092915050565b61180a82611134565b67ffffffffffffffff81111561182357611822610f9a565b5b61182d8254611624565b611838828285611774565b600060209050601f83116001811461186b5760008415611859578287015190505b61186385826117e5565b8655506118cb565b601f19841661187986611655565b60005b828110156118a15784890151825560018201915060208501945060208101905061187c565b868310156118be57848901516118ba601f8916826117c7565b8355505b6001600288020188555050505b505050505050565b60006020820190506118e86000830184610ed0565b92915050565b7f6f6e6c79206f776e65722063616e2063616c6c20746869732066756e6374696f60008201527f6e00000000000000000000000000000000000000000000000000000000000000602082015250565b600061194a60218361113f565b9150611955826118ee565b604082019050919050565b600060208201905081810360008301526119798161193d565b9050919050565b7f70726f6475636572206f6620746865206261746368206973206e6f742074686560008201527f206f776e65720000000000000000000000000000000000000000000000000000602082015250565b60006119dc60268361113f565b91506119e782611980565b604082019050919050565b60006020820190508181036000830152611a0b816119cf565b9050919050565b60008190508160005260206000209050919050565b601f821115611a6857611a3981611a12565b611a428461166a565b81016020851015611a51578190505b611a65611a5d8561166a565b830182611751565b50505b505050565b611a7682611410565b67ffffffffffffffff811115611a8f57611a8e610f9a565b5b611a998254611624565b611aa4828285611a27565b600060209050601f831160018114611ad75760008415611ac5578287015190505b611acf85826117e5565b865550611b37565b601f198416611ae586611a12565b60005b82811015611b0d57848901518255600182019150602085019450602081019050611ae8565b86831015611b2a5784890151611b26601f8916826117c7565b8355505b6001600288020188555050505b505050505050565b7f70726f64756374206861736820766572696669636174696f6e206661696c6564600082015250565b6000611b7560208361113f565b9150611b8082611b3f565b602082019050919050565b60006020820190508181036000830152611ba481611b68565b9050919050565b7f636572746966696361746520766572696669636174696f6e206661696c656400600082015250565b6000611be1601f8361113f565b9150611bec82611bab565b602082019050919050565b60006020820190508181036000830152611c1081611bd4565b9050919050565b600060ff82169050919050565b7f4e487b7100000000000000000000000000000000000000000000000000000000600052601160045260246000fd5b6000611c5e82611c17565b9150611c6983611c17565b92508260ff03821115611c7f57611c7e611c24565b5b828201905092915050565b611c9381611c17565b82525050565b6000608082019050611cae6000830187610ed0565b611cbb6020830186611c8a565b611cc86040830185610ed0565b611cd56060830184610ed0565b95945050505050565b6000602082019050611cf36000830184610f11565b92915050565b611d02816111de565b8114611d0d57600080fd5b50565b600081519050611d1f81611cf9565b92915050565b600060208284031215611d3b57611d3a610e63565b5b6000611d4984828501611d10565b9150509291505056fea2646970667358221220c31bec312321b6c900162ba00cee78d8e9b71a5725b31ee338bb60f171f9702464736f6c634300080f0033",
  "immutableReferences": {},
  "source": "// SPDX-License-Identifier: MIT\npragma solidity ^0.8.0;\n\nimport \"./CARegistry.sol\"; \n\ncontract Product {\n\n    bool internal locked;               // lock for payments (not sure if necessary yet)\n    address payable owner;              // owner of this contract (who deployed)\n    address DOA;                        // Department of Agriculture contract address \n\n    struct Batch {                      // keeps the hash of product data and conditions \n        bytes32 productHash;            // hash of the data stored off-chain \n        bytes32 certificate;            // organic product certification \n        bytes signature;                // created with web3.eth.sign(), bytes by issuer \n        address owner;                  // current owner of the product batch \n        address producer;               // who produced the batch \n        uint256 temperature;            // required temp of the product as provided in required conitions\n        bool status;                    // the status of the product, true means ok - not sure if needed\n    }\n\n    \n    mapping (bytes32 => Batch) products;    // maps each product ID to a product data   \n    mapping (bytes32 => string) database;   // maps batchID to IPFS storage link \n    mapping (address => bool) producers;    // eligible producers to add products \n\n    constructor(address _DOA, address payable _owner) {\n        DOA = _DOA; \n        owner = _owner; \n    }\n\n    // check if the caller the current owner of the batch\n    modifier onlyOwner(address _address, bytes32 _batchID) { require(products[_batchID].owner == msg.sender, \"only owner can call this function\"); _; }\n    // check if the producer authorised to add products\n    modifier onlyProducer(address _address) { require(producers[_address] == true, \"only authorised producer can call this function\"); _; }\n    // check if the caller is the contract owner \n    modifier onlyDeployer() { require(owner == msg.sender, \"only contract owner can call this function\"); _; }\n    // lock against reentrancy \n    modifier lock() { \n        require(!locked); \n        locked = true; _; \n        locked = false;\n    }\n\n    // send generated product ID to off-chain \n    event batchIdentifier(bytes32 productID); \n\n    /* PRODUCT FUNCTIONS ------------------------------------------------------------------ */\n\n    /**\n     * @notice contract deployer adds authorised producer\n     *         to the mapping, which gives permissions to \n     *         add products and certificate \n     * @dev    only contract owner can call \n     * @param  _producer batch producer address \n    **/\n    function addProducer(address _producer) public onlyDeployer() {\n        producers[_producer] = true; \n    }\n\n    /**\n     * @notice add product infromation to the data hash\n     *         and conditions hash generated from off-chain\n     * @dev    only registered producer can call \n     * @param  _data product data hash \n     * @param _CID unique identifier of the off-chain storage\n    **/\n    function addProduct(bytes32 _data, uint256 _temperature, string memory _CID) public onlyProducer(msg.sender) {\n        bytes32 batchID = bytes32(keccak256(abi.encodePacked(_data))); \n        products[batchID].productHash = _data; \n        products[batchID].owner = msg.sender; \n        products[batchID].producer = msg.sender;\n        products[batchID].temperature = _temperature; \n        products[batchID].status = true;\n        database[batchID] = _CID; \n        emit batchIdentifier(batchID);\n    }\n\n    /**\n     * @notice add unique identifier of the IPFS storage\n     *         that stores all the data about product batch\n     *         off-chain \n     * @dev    only registered producer can call \n     * @param  _batchID unique identifier of the batch \n     * @param  _CID unique identifier of the off-chain storage\n    **/\n    // function addDatabase(bytes32 _batchID, string memory _CID) public onlyProducer(msg.sender) {\n    //     database[_batchID] = _CID; \n    // }\n\n    /**\n     * @notice producer adds a certificate obtained from the \n     *         CA from off-chain, the producer has to be the \n     *         current batch owner to add certificate \n     * @dev    only the producer of the product can call \n     * @param  _batchID unique identifier of the batch \n     * @param  _certificate certificate certifying product batch\n     * @param  _signature signature of the certificate issuer \n    **/\n    function addCertificate(bytes32 _batchID, bytes32 _certificate, bytes memory _signature) public onlyOwner(msg.sender, _batchID) {\n        require(products[_batchID].producer == products[_batchID].owner, \"producer of the batch is not the owner\"); \n        products[_batchID].certificate = _certificate; \n        products[_batchID].signature = _signature; \n    }\n\n    /**\n     * @notice transfer the ownership of the product batch, supported by \n     *         certificate verification and check of the product hash\n     *         that is stored on-chain and freshly computed one\n     * @dev    only the current owner of the product can call \n     * @param  _batchID unique identifier of the batch \n     * @param  _productHash hash of the product to verify\n     * @param  _newOwner address of a new batch owner \n    **/\n    function updateOwner(bytes32 _batchID, bytes32 _productHash, address _newOwner) public onlyOwner(msg.sender, _batchID) {\n        require(verifyProductHash(_batchID, _productHash) == true, \"product hash verification failed\"); \n        require(verifyCertificate(_batchID) == true, \"certificate verification failed\");\n        products[_batchID].owner = _newOwner; \n    }\n\n    /* VERIFICATION FUNCTIONS ----------------------------------------------------------------- */\n\n    /**\n     * @notice allows to verify data in the off-chain data store about product\n     * @dev    anyone can call \n     * @param  _batchID unique identifier of the batch \n     * @param  _offchainHash certificate certifying product batch\n     * @return bool if the hash stored on-chain is the same as newly computed hash,\n     *         then product infromation is correct and has not been modified \n    **/\n    function verifyProductHash(bytes32 _batchID, bytes32 _offchainHash) public view returns (bool) {\n        if (products[_batchID].productHash == _offchainHash) { return true;}\n        return false;\n    }\n\n    /* GETTER FUNCTIONS ----------------------------------------------------------------------- */\n\n    /**\n     * @notice checks whether the producer address is\n     *         authorised to add product and certificate\n     * @dev    anyone can call function \n     * @param  _producer batch producer address \n     * @return bool true if address is in mapping \n    **/\n    function getProducer(address _producer) public view returns(bool) {\n        return producers[_producer]; \n    }\n\n    /**\n     * @notice get the product hash and owner by its unique ID\n     * @dev    anyone can call function \n     * @param  _batchID unique batch ID to get the product \n     * @return bytes32 product hash stored on-chain \n     * @return address of the current owner of the batch \n    **/\n    function getProduct(bytes32 _batchID) public view returns(bytes32, address) {\n        return (products[_batchID].productHash, products[_batchID].owner);\n    }\n\n    /**\n     * @notice get the product certificate and signer signature\n     * @dev    anyone can call function \n     * @param  _batchID unique batch ID to get the product \n     * @return bytes32 batch certificate on-chain\n     * @return bytes array of the issuer signature\n    **/\n    function getCertificate(bytes32 _batchID) public view returns(bytes32, bytes memory) {\n        return (products[_batchID].certificate, products[_batchID].signature); \n    }\n\n    /**\n     * @notice get the product off-chain storage location \n     * @dev    anyone can call function \n     * @param  _batchID unique batch ID to get the product \n     * @return string unique IPFS storage identifier (CID)\n    **/\n    function getDatabase(bytes32 _batchID) public view returns(string memory) {\n        return database[_batchID]; \n    }\n\n    /* TEMPERATURE FUNCTIONS ------------------------------------------------------------------ */\n\n    // requires oracle \n    // have restricted to private so anyone cannot call this \n    // is there a way to resctrict this to the oracle?\n    function compareTemperature(bytes32 _batchID, uint256 _temperature) private returns (bool) {\n        if (_temperature != products[_batchID].temperature) {\n            products[_batchID].status = false;\n            return false;\n        }\n        return true;\n    }\n\n    /* CERTIFICATE FUNCTIONS ------------------------------------------------------------------ */\n\n    /**\n     * @notice based the product certificate and issuer signature\n     *         recovers the address of CA who signed the certificate\n     *         and verifies whether it is registered with DOA \n     * @dev    anyone can call function \n     * @param  _batchID unique batch ID to get the product \n     * @return bool if the issuer is registered with DOA, then \n     *         certificate is valid, otherwise returns false \n    **/\n    function verifyCertificate(bytes32 _batchID) public view returns(bool) {\n        bytes32 certificate = products[_batchID].certificate; \n        bytes memory signature = products[_batchID].signature; \n        // recovered issuer from the certificate and his signature \n        address issuer = recoverIssuer(certificate, signature); \n        if (verifyIssuer(issuer) == true) { return true; }\n        return false; \n    }\n\n    /**\n     * @notice verify that the certifying authority is ligitimate\n     *         and has been registrered with DOA registry contract,\n     *         and thus eligible to issue organic certificates\n     * @dev    other functions from this contract can call\n     * @param  _issuer unique batch ID to get the product \n     * @return bool true if the issuer registered with DOA,\n     *         otherwise false\n    **/\n    function verifyIssuer(address _issuer) internal view returns(bool) {\n        AuthorityRegistry registry = AuthorityRegistry(DOA);  \n        return registry.checkPublicKey(_issuer);\n    }\n\n    /**\n     * @notice functions recovers the signer of the certificate from the provided certificate \n               (message signed by authority) and signature \n     * @dev    called internally from placeBid function  \n     * @param  _hash the batch certificate signed by CA \n     * @param  _sig CA's bytes signature generated using web3.eth.sign()\n     * @return issuer address (authority who issued/signed the organic certificate to the product batch)\n    **/\n    // copyright: https://github.com/protofire/zeppelin-solidity/blob/master/contracts/ECRecovery.sol\n    function recoverIssuer(bytes32 _hash, bytes memory _sig) internal pure returns(address) {\n        bytes32 r; bytes32 s; uint8 v;\n        //Check the signature length\n        if (_sig.length != 65) { return (address(0)); }\n        assembly {\n            r := mload(add(_sig, 32))\n            s := mload(add(_sig, 64))\n            v := byte(0, mload(add(_sig, 96)))\n        }\n        if (v < 27) { v += 27; }\n\n        // If the version is correct return the signer address\n        if (v != 27 && v != 28) { return (address(0)); } \n        else { return ecrecover(_hash, v, r, s); }\n    }\n\n    /* UTILITIES FUNCTIONS -------------------------------------------------------------------- */\n\n    /**\n     * @notice deactivate contract \n     * @dev    only the contract owner / deployer can call\n    **/\n    function destroyContract() public onlyDeployer() {\n        selfdestruct(owner); \n    }\n\n}",
  "sourcePath": "/Users/dariaschumm/Library/Mobile Documents/com~apple~CloudDocs/6452/project_2/contracts/Product.sol",
  "compiler": {
    "name": "solc",
    "version": "0.8.15+commit.e14f2714.Emscripten.clang"
  },
  "schemaVersion": "3.4.8",
  "updatedAt": "2022-07-21T05:56:08.210Z",
  "networkType": "ethereum",
  "devdoc": {
    "kind": "dev",
    "methods": {
      "addCertificate(bytes32,bytes32,bytes)": {
        "details": "only the producer of the product can call ",
        "params": {
          "_batchID": "unique identifier of the batch ",
          "_certificate": "certificate certifying product batch",
          "_signature": "signature of the certificate issuer *"
        }
      },
      "addProducer(address)": {
        "details": "only contract owner can call ",
        "params": {
          "_producer": "batch producer address *"
        }
      },
      "addProduct(bytes32,uint256,string)": {
        "details": "only registered producer can call ",
        "params": {
          "_CID": "unique identifier of the off-chain storage*",
          "_data": "product data hash "
        }
      },
      "destroyContract()": {
        "details": "only the contract owner / deployer can call*"
      },
      "getCertificate(bytes32)": {
        "details": "anyone can call function ",
        "params": {
          "_batchID": "unique batch ID to get the product "
        },
        "returns": {
          "_0": "bytes32 batch certificate on-chain",
          "_1": "bytes array of the issuer signature*"
        }
      },
      "getDatabase(bytes32)": {
        "details": "anyone can call function ",
        "params": {
          "_batchID": "unique batch ID to get the product "
        },
        "returns": {
          "_0": "string unique IPFS storage identifier (CID)*"
        }
      },
      "getProducer(address)": {
        "details": "anyone can call function ",
        "params": {
          "_producer": "batch producer address "
        },
        "returns": {
          "_0": "bool true if address is in mapping *"
        }
      },
      "getProduct(bytes32)": {
        "details": "anyone can call function ",
        "params": {
          "_batchID": "unique batch ID to get the product "
        },
        "returns": {
          "_0": "bytes32 product hash stored on-chain ",
          "_1": "address of the current owner of the batch *"
        }
      },
      "updateOwner(bytes32,bytes32,address)": {
        "details": "only the current owner of the product can call ",
        "params": {
          "_batchID": "unique identifier of the batch ",
          "_newOwner": "address of a new batch owner *",
          "_productHash": "hash of the product to verify"
        }
      },
      "verifyCertificate(bytes32)": {
        "details": "anyone can call function ",
        "params": {
          "_batchID": "unique batch ID to get the product "
        },
        "returns": {
          "_0": "bool if the issuer is registered with DOA, then          certificate is valid, otherwise returns false *"
        }
      },
      "verifyProductHash(bytes32,bytes32)": {
        "details": "anyone can call ",
        "params": {
          "_batchID": "unique identifier of the batch ",
          "_offchainHash": "certificate certifying product batch"
        },
        "returns": {
          "_0": "bool if the hash stored on-chain is the same as newly computed hash,         then product infromation is correct and has not been modified *"
        }
      }
    },
    "version": 1
  },
  "userdoc": {
    "kind": "user",
    "methods": {
      "addCertificate(bytes32,bytes32,bytes)": {
        "notice": "producer adds a certificate obtained from the          CA from off-chain, the producer has to be the          current batch owner to add certificate "
      },
      "addProducer(address)": {
        "notice": "contract deployer adds authorised producer         to the mapping, which gives permissions to          add products and certificate "
      },
      "addProduct(bytes32,uint256,string)": {
        "notice": "add product infromation to the data hash         and conditions hash generated from off-chain"
      },
      "destroyContract()": {
        "notice": "deactivate contract "
      },
      "getCertificate(bytes32)": {
        "notice": "get the product certificate and signer signature"
      },
      "getDatabase(bytes32)": {
        "notice": "get the product off-chain storage location "
      },
      "getProducer(address)": {
        "notice": "checks whether the producer address is         authorised to add product and certificate"
      },
      "getProduct(bytes32)": {
        "notice": "get the product hash and owner by its unique ID"
      },
      "updateOwner(bytes32,bytes32,address)": {
        "notice": "transfer the ownership of the product batch, supported by          certificate verification and check of the product hash         that is stored on-chain and freshly computed one"
      },
      "verifyCertificate(bytes32)": {
        "notice": "based the product certificate and issuer signature         recovers the address of CA who signed the certificate         and verifies whether it is registered with DOA "
      },
      "verifyProductHash(bytes32,bytes32)": {
        "notice": "allows to verify data in the off-chain data store about product"
      }
    },
    "version": 1
  }
}