{
  "contractName": "Product",
  "abi": [
    {
      "inputs": [
        {
          "internalType": "address",
          "name": "_DOA",
          "type": "address"
        },
        {
          "internalType": "address",
          "name": "_owner",
          "type": "address"
        }
      ],
      "stateMutability": "nonpayable",
      "type": "constructor"
    },
    {
      "anonymous": false,
      "inputs": [
        {
          "indexed": false,
          "internalType": "bytes32",
          "name": "certificate",
          "type": "bytes32"
        },
        {
          "indexed": false,
          "internalType": "bytes",
          "name": "signature",
          "type": "bytes"
        }
      ],
      "name": "batchCertificate",
      "type": "event"
    },
    {
      "anonymous": false,
      "inputs": [
        {
          "indexed": false,
          "internalType": "bytes32",
          "name": "productID",
          "type": "bytes32"
        }
      ],
      "name": "batchIdentifier",
      "type": "event"
    },
    {
      "anonymous": false,
      "inputs": [
        {
          "indexed": false,
          "internalType": "address",
          "name": "owner",
          "type": "address"
        }
      ],
      "name": "newOwner",
      "type": "event"
    },
    {
      "inputs": [
        {
          "internalType": "bytes32",
          "name": "_data",
          "type": "bytes32"
        },
        {
          "internalType": "bytes32",
          "name": "_conditions",
          "type": "bytes32"
        }
      ],
      "name": "addProduct",
      "outputs": [],
      "stateMutability": "nonpayable",
      "type": "function"
    },
    {
      "inputs": [
        {
          "internalType": "bytes32",
          "name": "_batchID",
          "type": "bytes32"
        },
        {
          "internalType": "bytes32",
          "name": "_updatedData",
          "type": "bytes32"
        }
      ],
      "name": "updateProduct",
      "outputs": [],
      "stateMutability": "nonpayable",
      "type": "function"
    },
    {
      "inputs": [
        {
          "internalType": "bytes32",
          "name": "_batchID",
          "type": "bytes32"
        },
        {
          "internalType": "bytes32",
          "name": "_updatedConditions",
          "type": "bytes32"
        }
      ],
      "name": "updateConditions",
      "outputs": [],
      "stateMutability": "nonpayable",
      "type": "function"
    },
    {
      "inputs": [
        {
          "internalType": "bytes32",
          "name": "_batchID",
          "type": "bytes32"
        },
        {
          "internalType": "address",
          "name": "_requestedCA",
          "type": "address"
        }
      ],
      "name": "updateCertAuthorisation",
      "outputs": [],
      "stateMutability": "nonpayable",
      "type": "function"
    },
    {
      "inputs": [
        {
          "internalType": "bytes32",
          "name": "_batchID",
          "type": "bytes32"
        },
        {
          "internalType": "bytes32",
          "name": "_certificate",
          "type": "bytes32"
        },
        {
          "internalType": "bytes",
          "name": "_signature",
          "type": "bytes"
        }
      ],
      "name": "updateCertificate",
      "outputs": [],
      "stateMutability": "nonpayable",
      "type": "function"
    },
    {
      "inputs": [
        {
          "internalType": "bytes32",
          "name": "_batchID",
          "type": "bytes32"
        }
      ],
      "name": "updateOwner",
      "outputs": [],
      "stateMutability": "nonpayable",
      "type": "function"
    },
    {
      "inputs": [
        {
          "internalType": "bytes32",
          "name": "_batchID",
          "type": "bytes32"
        },
        {
          "internalType": "bytes32",
          "name": "_offchainHash",
          "type": "bytes32"
        }
      ],
      "name": "verifyProductHash",
      "outputs": [
        {
          "internalType": "bool",
          "name": "",
          "type": "bool"
        }
      ],
      "stateMutability": "view",
      "type": "function",
      "constant": true
    },
    {
      "inputs": [
        {
          "internalType": "bytes32",
          "name": "_batchID",
          "type": "bytes32"
        },
        {
          "internalType": "bytes32",
          "name": "_offchainHash",
          "type": "bytes32"
        }
      ],
      "name": "verifyConditionsHash",
      "outputs": [
        {
          "internalType": "bool",
          "name": "",
          "type": "bool"
        }
      ],
      "stateMutability": "view",
      "type": "function",
      "constant": true
    },
    {
      "inputs": [
        {
          "internalType": "bytes32",
          "name": "_batchID",
          "type": "bytes32"
        }
      ],
      "name": "verifyIssuerAuthorisation",
      "outputs": [
        {
          "internalType": "bool",
          "name": "",
          "type": "bool"
        }
      ],
      "stateMutability": "view",
      "type": "function",
      "constant": true
    },
    {
      "inputs": [
        {
          "internalType": "bytes32",
          "name": "_batchID",
          "type": "bytes32"
        }
      ],
      "name": "getProduct",
      "outputs": [
        {
          "internalType": "bytes32",
          "name": "",
          "type": "bytes32"
        },
        {
          "internalType": "bytes32",
          "name": "",
          "type": "bytes32"
        },
        {
          "internalType": "address",
          "name": "",
          "type": "address"
        },
        {
          "internalType": "address",
          "name": "",
          "type": "address"
        }
      ],
      "stateMutability": "view",
      "type": "function",
      "constant": true
    },
    {
      "inputs": [
        {
          "internalType": "bytes32",
          "name": "_batchID",
          "type": "bytes32"
        }
      ],
      "name": "verifyCertificate",
      "outputs": [
        {
          "internalType": "bool",
          "name": "",
          "type": "bool"
        }
      ],
      "stateMutability": "view",
      "type": "function",
      "constant": true
    }
  ],
  "bytecode": "0x60806040523480156200001157600080fd5b50604051620018d8380380620018d883398181016040528101906200003791906200012b565b81600160006101000a81548173ffffffffffffffffffffffffffffffffffffffff021916908373ffffffffffffffffffffffffffffffffffffffff16021790555080600060016101000a81548173ffffffffffffffffffffffffffffffffffffffff021916908373ffffffffffffffffffffffffffffffffffffffff160217905550505062000172565b600080fd5b600073ffffffffffffffffffffffffffffffffffffffff82169050919050565b6000620000f382620000c6565b9050919050565b6200010581620000e6565b81146200011157600080fd5b50565b6000815190506200012581620000fa565b92915050565b60008060408385031215620001455762000144620000c1565b5b6000620001558582860162000114565b9250506020620001688582860162000114565b9150509250929050565b61175680620001826000396000f3fe608060405234801561001057600080fd5b50600436106100a95760003560e01c80635a5ef626116100715780635a5ef62614610165578063850c176814610181578063a9213874146101b1578063aee726bf146101e1578063e9abbb5914610211578063fc1a98401461022d576100a9565b806317ffd9ef146100ae5780632fad3fc4146100de5780633146610d146100fa5780633a20e9df14610116578063558b290214610149575b600080fd5b6100c860048036038101906100c39190610de1565b610249565b6040516100d59190610e29565b60405180910390f35b6100f860048036038101906100f39190610e44565b610398565b005b610114600480360381019061010f9190610e44565b61045d565b005b610130600480360381019061012b9190610de1565b6105d5565b6040516101409493929190610ed4565b60405180910390f35b610163600480360381019061015e9190610f45565b610686565b005b61017f600480360381019061017a91906110cb565b610829565b005b61019b60048036038101906101969190610de1565b61094c565b6040516101a89190610e29565b60405180910390f35b6101cb60048036038101906101c69190610e44565b610a46565b6040516101d89190610e29565b60405180910390f35b6101fb60048036038101906101f69190610e44565b610a79565b6040516102089190610e29565b60405180910390f35b61022b60048036038101906102269190610de1565b610aac565b005b61024760048036038101906102429190610e44565b610b55565b005b60008060026000848152602001908152602001600020600301549050600060026000858152602001908152602001600020600401805461028890611169565b80601f01602080910402602001604051908101604052809291908181526020018280546102b490611169565b80156103015780601f106102d657610100808354040283529160200191610301565b820191906000526020600020905b8154815290600101906020018083116102e457829003601f168201915b5050505050905060006103148383610c1a565b90508073ffffffffffffffffffffffffffffffffffffffff166002600087815260200190815260200160002060050160009054906101000a900473ffffffffffffffffffffffffffffffffffffffff1673ffffffffffffffffffffffffffffffffffffffff160361038b5760019350505050610393565b600093505050505b919050565b6002600083815260200190815260200160002060060160009054906101000a900473ffffffffffffffffffffffffffffffffffffffff168073ffffffffffffffffffffffffffffffffffffffff163373ffffffffffffffffffffffffffffffffffffffff161461043d576040517f08c379a00000000000000000000000000000000000000000000000000000000081526004016104349061121d565b60405180910390fd5b816002600085815260200190815260200160002060010181905550505050565b6000828260405160200161047292919061125e565b604051602081830303815290604052805190602001209050826002600083815260200190815260200160002060010181905550816002600083815260200190815260200160002060020181905550336002600083815260200190815260200160002060060160006101000a81548173ffffffffffffffffffffffffffffffffffffffff021916908373ffffffffffffffffffffffffffffffffffffffff160217905550336002600083815260200190815260200160002060070160006101000a81548173ffffffffffffffffffffffffffffffffffffffff021916908373ffffffffffffffffffffffffffffffffffffffff16021790555060016002600083815260200190815260200160002060090160006101000a81548160ff0219169083151502179055507feb12ab352ec0628425cb2d83290a1d034ed2d60ba8d5caf7462e7526ce18d38e816040516105c8919061128a565b60405180910390a1505050565b600080600080600260008681526020019081526020016000206001015460026000878152602001908152602001600020600201546002600088815260200190815260200160002060060160009054906101000a900473ffffffffffffffffffffffffffffffffffffffff166002600089815260200190815260200160002060050160009054906101000a900473ffffffffffffffffffffffffffffffffffffffff1693509350935093509193509193565b6002600083815260200190815260200160002060070160009054906101000a900473ffffffffffffffffffffffffffffffffffffffff168073ffffffffffffffffffffffffffffffffffffffff163373ffffffffffffffffffffffffffffffffffffffff161461072b576040517f08c379a00000000000000000000000000000000000000000000000000000000081526004016107229061121d565b60405180910390fd5b6002600084815260200190815260200160002060070160009054906101000a900473ffffffffffffffffffffffffffffffffffffffff1673ffffffffffffffffffffffffffffffffffffffff166002600085815260200190815260200160002060060160009054906101000a900473ffffffffffffffffffffffffffffffffffffffff1673ffffffffffffffffffffffffffffffffffffffff16146107cf57600080fd5b816002600085815260200190815260200160002060050160006101000a81548173ffffffffffffffffffffffffffffffffffffffff021916908373ffffffffffffffffffffffffffffffffffffffff160217905550505050565b6002600084815260200190815260200160002060070160009054906101000a900473ffffffffffffffffffffffffffffffffffffffff168073ffffffffffffffffffffffffffffffffffffffff163373ffffffffffffffffffffffffffffffffffffffff16146108ce576040517f08c379a00000000000000000000000000000000000000000000000000000000081526004016108c59061121d565b60405180910390fd5b8260026000868152602001908152602001600020600301819055508160026000868152602001908152602001600020600401908161090c9190611466565b507faeb1546c2c359892a79841d222bc322861f84b2134c2676cf01ebd20bc52a697838360405161093e9291906115b5565b60405180910390a150505050565b60008060026000848152602001908152602001600020600301549050600060026000858152602001908152602001600020600401805461098b90611169565b80601f01602080910402602001604051908101604052809291908181526020018280546109b790611169565b8015610a045780601f106109d957610100808354040283529160200191610a04565b820191906000526020600020905b8154815290600101906020018083116109e757829003601f168201915b505050505090506000610a178383610c1a565b905060011515610a2682610ced565b151503610a395760019350505050610a41565b600093505050505b919050565b600081600260008581526020019081526020016000206001015403610a6e5760019050610a73565b600090505b92915050565b600081600260008581526020019081526020016000206002015403610aa15760019050610aa6565b600090505b92915050565b6002600082815260200190815260200160002060060160009054906101000a900473ffffffffffffffffffffffffffffffffffffffff168073ffffffffffffffffffffffffffffffffffffffff163373ffffffffffffffffffffffffffffffffffffffff1614610b51576040517f08c379a0000000000000000000000000000000000000000000000000000000008152600401610b489061121d565b60405180910390fd5b5050565b6002600083815260200190815260200160002060060160009054906101000a900473ffffffffffffffffffffffffffffffffffffffff168073ffffffffffffffffffffffffffffffffffffffff163373ffffffffffffffffffffffffffffffffffffffff1614610bfa576040517f08c379a0000000000000000000000000000000000000000000000000000000008152600401610bf19061121d565b60405180910390fd5b816002600085815260200190815260200160002060020181905550505050565b6000806000806041855114610c355760009350505050610ce7565b6020850151925060408501519150606085015160001a9050601b8160ff161015610c6957601b81610c669190611621565b90505b601b8160ff1614158015610c815750601c8160ff1614155b15610c925760009350505050610ce7565b60018682858560405160008152602001604052604051610cb59493929190611667565b6020604051602081039080840390855afa158015610cd7573d6000803e3d6000fd5b5050506020604051035193505050505b92915050565b600080600160009054906101000a900473ffffffffffffffffffffffffffffffffffffffff1690508073ffffffffffffffffffffffffffffffffffffffff16636af92956846040518263ffffffff1660e01b8152600401610d4e91906116ac565b602060405180830381865afa158015610d6b573d6000803e3d6000fd5b505050506040513d601f19601f82011682018060405250810190610d8f91906116f3565b915050919050565b6000604051905090565b600080fd5b600080fd5b6000819050919050565b610dbe81610dab565b8114610dc957600080fd5b50565b600081359050610ddb81610db5565b92915050565b600060208284031215610df757610df6610da1565b5b6000610e0584828501610dcc565b91505092915050565b60008115159050919050565b610e2381610e0e565b82525050565b6000602082019050610e3e6000830184610e1a565b92915050565b60008060408385031215610e5b57610e5a610da1565b5b6000610e6985828601610dcc565b9250506020610e7a85828601610dcc565b9150509250929050565b610e8d81610dab565b82525050565b600073ffffffffffffffffffffffffffffffffffffffff82169050919050565b6000610ebe82610e93565b9050919050565b610ece81610eb3565b82525050565b6000608082019050610ee96000830187610e84565b610ef66020830186610e84565b610f036040830185610ec5565b610f106060830184610ec5565b95945050505050565b610f2281610eb3565b8114610f2d57600080fd5b50565b600081359050610f3f81610f19565b92915050565b60008060408385031215610f5c57610f5b610da1565b5b6000610f6a85828601610dcc565b9250506020610f7b85828601610f30565b9150509250929050565b600080fd5b600080fd5b6000601f19601f8301169050919050565b7f4e487b7100000000000000000000000000000000000000000000000000000000600052604160045260246000fd5b610fd882610f8f565b810181811067ffffffffffffffff82111715610ff757610ff6610fa0565b5b80604052505050565b600061100a610d97565b90506110168282610fcf565b919050565b600067ffffffffffffffff82111561103657611035610fa0565b5b61103f82610f8f565b9050602081019050919050565b82818337600083830152505050565b600061106e6110698461101b565b611000565b90508281526020810184848401111561108a57611089610f8a565b5b61109584828561104c565b509392505050565b600082601f8301126110b2576110b1610f85565b5b81356110c284826020860161105b565b91505092915050565b6000806000606084860312156110e4576110e3610da1565b5b60006110f286828701610dcc565b935050602061110386828701610dcc565b925050604084013567ffffffffffffffff81111561112457611123610da6565b5b6111308682870161109d565b9150509250925092565b7f4e487b7100000000000000000000000000000000000000000000000000000000600052602260045260246000fd5b6000600282049050600182168061118157607f821691505b6020821081036111945761119361113a565b5b50919050565b600082825260208201905092915050565b7f4f6e6c7920617574686f726973656420616464726573732063616e2063616c6c60008201527f20746869732066756e6374696f6e000000000000000000000000000000000000602082015250565b6000611207602e8361119a565b9150611212826111ab565b604082019050919050565b60006020820190508181036000830152611236816111fa565b9050919050565b6000819050919050565b61125861125382610dab565b61123d565b82525050565b600061126a8285611247565b60208201915061127a8284611247565b6020820191508190509392505050565b600060208201905061129f6000830184610e84565b92915050565b600081519050919050565b60008190508160005260206000209050919050565b60006020601f8301049050919050565b600082821b905092915050565b6000600883026113127fffffffffffffffffffffffffffffffffffffffffffffffffffffffffffffffff826112d5565b61131c86836112d5565b95508019841693508086168417925050509392505050565b6000819050919050565b6000819050919050565b600061136361135e61135984611334565b61133e565b611334565b9050919050565b6000819050919050565b61137d83611348565b6113916113898261136a565b8484546112e2565b825550505050565b600090565b6113a6611399565b6113b1818484611374565b505050565b5b818110156113d5576113ca60008261139e565b6001810190506113b7565b5050565b601f82111561141a576113eb816112b0565b6113f4846112c5565b81016020851015611403578190505b61141761140f856112c5565b8301826113b6565b50505b505050565b600082821c905092915050565b600061143d6000198460080261141f565b1980831691505092915050565b6000611456838361142c565b9150826002028217905092915050565b61146f826112a5565b67ffffffffffffffff81111561148857611487610fa0565b5b6114928254611169565b61149d8282856113d9565b600060209050601f8311600181146114d057600084156114be578287015190505b6114c8858261144a565b865550611530565b601f1984166114de866112b0565b60005b82811015611506578489015182556001820191506020850194506020810190506114e1565b86831015611523578489015161151f601f89168261142c565b8355505b6001600288020188555050505b505050505050565b600082825260208201905092915050565b60005b8381101561156757808201518184015260208101905061154c565b83811115611576576000848401525b50505050565b6000611587826112a5565b6115918185611538565b93506115a1818560208601611549565b6115aa81610f8f565b840191505092915050565b60006040820190506115ca6000830185610e84565b81810360208301526115dc818461157c565b90509392505050565b600060ff82169050919050565b7f4e487b7100000000000000000000000000000000000000000000000000000000600052601160045260246000fd5b600061162c826115e5565b9150611637836115e5565b92508260ff0382111561164d5761164c6115f2565b5b828201905092915050565b611661816115e5565b82525050565b600060808201905061167c6000830187610e84565b6116896020830186611658565b6116966040830185610e84565b6116a36060830184610e84565b95945050505050565b60006020820190506116c16000830184610ec5565b92915050565b6116d081610e0e565b81146116db57600080fd5b50565b6000815190506116ed816116c7565b92915050565b60006020828403121561170957611708610da1565b5b6000611717848285016116de565b9150509291505056fea2646970667358221220851276b5fd7ca88f81f496f3a05371292be6f5a927180ceb723974169a77063664736f6c634300080f0033",
  "immutableReferences": {},
  "source": "// SPDX-License-Identifier: MIT\npragma solidity ^0.8.0;\n\nimport \"./CARegistry.sol\"; \n\ncontract Product {\n\n    bool internal locked;                   // lock for payments (not sure if necessary yet)\n    address owner;\n    // address CA;\n    address DOA;                            // Department of Agriculture contract address \n\n    // another option to map multiple structs:\n    // https://ethereum.stackexchange.com/questions/82157/mapping-multiple-structs-to-a-struct-and-call-them\n    \n    // keeps the hash of product data and contions,\n    // certificate infromation and the current owner \n    struct Batch {\n        bytes32 bardoce;                // get this from oracle, physical batch barcode\n        bytes32 productHash; \n        bytes32 conditionsHash;\n\n        bytes32 certificate; \n        bytes signature;                // created with web3.eth.sign(), bytes \n        address authCA;                 // the CA authorised by producer to update certificate\n\n        address owner;\n        address producer;\n\n        uint256 reqTemperature;         // required temp of the product as provided in required conitions\n        bool status;                    // the status of the product, true means ok - not sure if needed\n    }\n\n    // maps each product ID to a product data   \n    mapping (bytes32 => Batch) products; \n\n    // alternatively keep as array:\n    // Product[] products; \n\n    constructor(address _DOA, address _owner) {\n        DOA = _DOA; \n        owner = _owner; \n    }\n\n    modifier onlyThis(address _address) { require(msg.sender == _address, \"Only authorised address can call this function\"); _; }\n\n    // only owner can call the function \n    // modifier onlyOwner(address _owner) { require(msg.sender == _owner, \"You are not the owner of this batch\"); _; }\n    // only producer can call the function \n    // modifier onlyProducer(address _producer) { require(msg.sender == _producer,\"only a producer can request a certifying authority\" ); _; }\n    \n    // only after that time can call the function \n    // modifier onlyAfter(uint256 _time) { require(block.timestamp > _time); _; }\n    // only before that time can call the function \n    // modifier onlyBefore(uint256 _time) { require(block.timestamp < _time); _;}\n    \n    // only authorised CA can add a certificate\n    modifier onlyAuthCA(address _CA) { require(msg.sender == _CA, \"You do not have permission to modify this information\"); _; }\n    \n    // lock against reentrancy \n    modifier lock() { \n        require(!locked); \n        locked = true; _; \n        locked = false;\n    }\n\n    // send generated product ID to off-chain \n    event batchIdentifier(bytes32 productID); \n\n    event batchCertificate(bytes32 certificate, bytes signature); \n\n    event newOwner(address owner); \n\n    /* PRODUCT FUNCTIONS ------------------------------------------------------------------ */\n\n    // adds product data hash and conditions hash \n    function addProduct(bytes32 _data, bytes32 _conditions) public {\n        bytes32 batchID = bytes32(keccak256(abi.encodePacked(_data, _conditions))); \n        products[batchID].productHash = _data; \n        products[batchID].conditionsHash = _conditions; \n        products[batchID].owner = msg.sender; \n        products[batchID].producer = msg.sender;\n        products[batchID].status = true;\n        emit batchIdentifier(batchID);\n    }\n\n    // the owner can update the product hash\n    function updateProduct(bytes32 _batchID, bytes32 _updatedData) public onlyThis(products[_batchID].owner) {\n        products[_batchID].productHash = _updatedData;\n    }\n\n    // the owner can send a new product contions hash\n    function updateConditions(bytes32 _batchID, bytes32 _updatedConditions) public onlyThis(products[_batchID].owner) {\n        products[_batchID].conditionsHash = _updatedConditions;\n    }\n\n    // producer calls this function to select a CA of their choice \n    // to add a certificate to their product\n    // the producer must still own the batch to request a certificate\n    function updateCertAuthorisation(bytes32 _batchID, address _requestedCA) public onlyThis(products[_batchID].producer) {\n        require(products[_batchID].owner == products[_batchID].producer); \n        products[_batchID].authCA = _requestedCA;\n    }\n    \n    // update certificate data in product - only authorised CA \n    function updateCertificate(bytes32 _batchID, bytes32 _certificate, bytes memory _signature) public onlyThis(products[_batchID].producer) {\n        products[_batchID].certificate = _certificate; \n        products[_batchID].signature = _signature; \n        emit batchCertificate(_certificate, _signature);\n    }\n\n    function updateOwner(bytes32 _batchID) public onlyThis(products[_batchID].owner) {\n        \n\n    }\n\n    /* VERIFICATION FUNCTIONS ----------------------------------------------------------------- */\n\n    // allow anyone to verify data in the off chain data store about product\n    function verifyProductHash(bytes32 _batchID, bytes32 _offchainHash) public view returns (bool) {\n        if (products[_batchID].productHash == _offchainHash) { return true;}\n        return false;\n    }\n\n    // allow anyone to verify data in the off chain data store about conditions\n    function verifyConditionsHash(bytes32 _batchID, bytes32 _offchainHash) public view returns (bool){\n        if (products[_batchID].conditionsHash == _offchainHash) { return true;}\n        return false;\n    }\n\n    function verifyIssuerAuthorisation(bytes32 _batchID) public view returns (bool) {\n        bytes32 certificate = products[_batchID].certificate; \n        bytes memory signature = products[_batchID].signature; \n        address issuer = recoverIssuer(certificate, signature); \n        if (products[_batchID].authCA == issuer) { return true; }\n        return false; \n    }\n\n    /* GETTER FUNCTIONS ----------------------------------------------------------------------- */\n\n    function getProduct(bytes32 _batchID) public view returns(bytes32, bytes32, address, address) {\n        return (products[_batchID].productHash, products[_batchID].conditionsHash, products[_batchID].owner, products[_batchID].authCA);\n    }\n\n    /* TEMPERATURE FUNCTIONS ------------------------------------------------------------------ */\n\n    // requires oracle \n    // have restricted to private so anyone cannot call this \n    // is there a way to resctrict this to the oracle?\n    function compareTemperature(bytes32 _batchID, uint256 _temperature) private returns (bool) {\n        if (_temperature != products[_batchID].reqTemperature) {\n            products[_batchID].status = false;\n            return false;\n        }\n        return true;\n    }\n\n    /* CERTIFICATE FUNCTIONS ------------------------------------------------------------------ */\n\n    // anyone can send a product ID and verify its certificate\n    // should check if the certificate exists first, if not then false \n    function verifyCertificate(bytes32 _batchID) external view returns(bool) {\n        bytes32 certificate = products[_batchID].certificate; \n        bytes memory signature = products[_batchID].signature; \n        // recovered issuer from the certificate and his signature \n        address issuer = recoverIssuer(certificate, signature); \n        if (verifyIssuer(issuer) == true) { return true; }\n        return false; \n    }\n\n    // verify that the certifying authority is registered with DOA \n    // and eligible to issue organic certificates\n    function verifyIssuer(address _issuer) internal view returns(bool) {\n        AuthorityRegistry registry = AuthorityRegistry(DOA);  \n        return registry.checkPublicKey(_issuer);\n    }\n\n    /**\n     * @notice functions recovers the signer of the certificate from the provided certificate \n               (message signed by authority) and signature \n     * @dev    called internally from placeBid function  \n     * @param  _hash the batch certificate signed by CA \n     * @param  _sig CA's bytes signature generated using web3.eth.sign()\n     * @return issuer address (authority who issued/signed the organic certificate to the product batch)\n    **/\n    // copyright: https://github.com/protofire/zeppelin-solidity/blob/master/contracts/ECRecovery.sol\n    function recoverIssuer(bytes32 _hash, bytes memory _sig) internal pure returns(address) {\n        bytes32 r; bytes32 s; uint8 v;\n        //Check the signature length\n        if (_sig.length != 65) { return (address(0)); }\n        assembly {\n            r := mload(add(_sig, 32))\n            s := mload(add(_sig, 64))\n            v := byte(0, mload(add(_sig, 96)))\n        }\n        if (v < 27) { v += 27; }\n\n        // If the version is correct return the signer address\n        if (v != 27 && v != 28) { return (address(0)); } \n        else { return ecrecover(_hash, v, r, s); }\n    }\n\n}",
  "sourcePath": "/Users/dariaschumm/Library/Mobile Documents/com~apple~CloudDocs/6452/project_2/contracts/Product.sol",
  "compiler": {
    "name": "solc",
    "version": "0.8.15+commit.e14f2714.Emscripten.clang"
  },
  "schemaVersion": "3.4.7",
  "updatedAt": "2022-07-18T10:55:13.707Z",
  "networkType": "ethereum",
  "devdoc": {
    "kind": "dev",
    "methods": {},
    "version": 1
  },
  "userdoc": {
    "kind": "user",
    "methods": {},
    "version": 1
  }
}