{
  "contractName": "Product",
  "abi": [
    {
      "inputs": [
        {
          "internalType": "address",
          "name": "_DOA",
          "type": "address"
        },
        {
          "internalType": "address",
          "name": "_owner",
          "type": "address"
        }
      ],
      "stateMutability": "nonpayable",
      "type": "constructor"
    },
    {
      "anonymous": false,
      "inputs": [
        {
          "indexed": false,
          "internalType": "bytes32",
          "name": "certificate",
          "type": "bytes32"
        },
        {
          "indexed": false,
          "internalType": "bytes",
          "name": "signature",
          "type": "bytes"
        }
      ],
      "name": "batchCertificate",
      "type": "event"
    },
    {
      "anonymous": false,
      "inputs": [
        {
          "indexed": false,
          "internalType": "bytes32",
          "name": "productID",
          "type": "bytes32"
        }
      ],
      "name": "batchIdentifier",
      "type": "event"
    },
    {
      "inputs": [
        {
          "internalType": "bytes32",
          "name": "_data",
          "type": "bytes32"
        },
        {
          "internalType": "bytes32",
          "name": "_conditions",
          "type": "bytes32"
        }
      ],
      "name": "addProduct",
      "outputs": [],
      "stateMutability": "nonpayable",
      "type": "function"
    },
    {
      "inputs": [
        {
          "internalType": "bytes32",
          "name": "_batchID",
          "type": "bytes32"
        },
        {
          "internalType": "bytes32",
          "name": "_updatedData",
          "type": "bytes32"
        }
      ],
      "name": "updateProduct",
      "outputs": [],
      "stateMutability": "nonpayable",
      "type": "function"
    },
    {
      "inputs": [
        {
          "internalType": "bytes32",
          "name": "_batchID",
          "type": "bytes32"
        },
        {
          "internalType": "bytes32",
          "name": "_updatedConditions",
          "type": "bytes32"
        }
      ],
      "name": "updateConditions",
      "outputs": [],
      "stateMutability": "nonpayable",
      "type": "function"
    },
    {
      "inputs": [
        {
          "internalType": "bytes32",
          "name": "_batchID",
          "type": "bytes32"
        },
        {
          "internalType": "address",
          "name": "_requestedCA",
          "type": "address"
        }
      ],
      "name": "updateCertAuthorisation",
      "outputs": [],
      "stateMutability": "nonpayable",
      "type": "function"
    },
    {
      "inputs": [
        {
          "internalType": "bytes32",
          "name": "_batchID",
          "type": "bytes32"
        },
        {
          "internalType": "bytes32",
          "name": "_certificate",
          "type": "bytes32"
        },
        {
          "internalType": "bytes",
          "name": "_signature",
          "type": "bytes"
        }
      ],
      "name": "updateCertificate",
      "outputs": [],
      "stateMutability": "nonpayable",
      "type": "function"
    },
    {
      "inputs": [
        {
          "internalType": "bytes32",
          "name": "_batchID",
          "type": "bytes32"
        },
        {
          "internalType": "bytes32",
          "name": "_offchainHash",
          "type": "bytes32"
        }
      ],
      "name": "verifyProductHash",
      "outputs": [
        {
          "internalType": "bool",
          "name": "",
          "type": "bool"
        }
      ],
      "stateMutability": "view",
      "type": "function",
      "constant": true
    },
    {
      "inputs": [
        {
          "internalType": "bytes32",
          "name": "_batchID",
          "type": "bytes32"
        },
        {
          "internalType": "bytes32",
          "name": "_offchainHash",
          "type": "bytes32"
        }
      ],
      "name": "verifyConditionsHash",
      "outputs": [
        {
          "internalType": "bool",
          "name": "",
          "type": "bool"
        }
      ],
      "stateMutability": "view",
      "type": "function",
      "constant": true
    },
    {
      "inputs": [
        {
          "internalType": "bytes32",
          "name": "_batchID",
          "type": "bytes32"
        }
      ],
      "name": "verifyIssuerAuthorisation",
      "outputs": [
        {
          "internalType": "bool",
          "name": "",
          "type": "bool"
        }
      ],
      "stateMutability": "view",
      "type": "function",
      "constant": true
    },
    {
      "inputs": [
        {
          "internalType": "bytes32",
          "name": "_batchID",
          "type": "bytes32"
        }
      ],
      "name": "getProduct",
      "outputs": [
        {
          "internalType": "bytes32",
          "name": "",
          "type": "bytes32"
        },
        {
          "internalType": "bytes32",
          "name": "",
          "type": "bytes32"
        },
        {
          "internalType": "address",
          "name": "",
          "type": "address"
        },
        {
          "internalType": "address",
          "name": "",
          "type": "address"
        }
      ],
      "stateMutability": "view",
      "type": "function",
      "constant": true
    },
    {
      "inputs": [
        {
          "internalType": "bytes32",
          "name": "_batchID",
          "type": "bytes32"
        }
      ],
      "name": "verifyCertificate",
      "outputs": [
        {
          "internalType": "bool",
          "name": "",
          "type": "bool"
        }
      ],
      "stateMutability": "view",
      "type": "function",
      "constant": true
    }
  ],
  "bytecode": "0x60806040523480156200001157600080fd5b50604051620017643803806200176483398181016040528101906200003791906200012b565b81600160006101000a81548173ffffffffffffffffffffffffffffffffffffffff021916908373ffffffffffffffffffffffffffffffffffffffff16021790555080600060016101000a81548173ffffffffffffffffffffffffffffffffffffffff021916908373ffffffffffffffffffffffffffffffffffffffff160217905550505062000172565b600080fd5b600073ffffffffffffffffffffffffffffffffffffffff82169050919050565b6000620000f382620000c6565b9050919050565b6200010581620000e6565b81146200011157600080fd5b50565b6000815190506200012581620000fa565b92915050565b60008060408385031215620001455762000144620000c1565b5b6000620001558582860162000114565b9250506020620001688582860162000114565b9150509250929050565b6115e280620001826000396000f3fe608060405234801561001057600080fd5b506004361061009e5760003560e01c80635a5ef626116100665780635a5ef6261461015a578063850c176814610176578063a9213874146101a6578063aee726bf146101d6578063fc1a9840146102065761009e565b806317ffd9ef146100a35780632fad3fc4146100d35780633146610d146100ef5780633a20e9df1461010b578063558b29021461013e575b600080fd5b6100bd60048036038101906100b89190610c6d565b610222565b6040516100ca9190610cb5565b60405180910390f35b6100ed60048036038101906100e89190610cd0565b610371565b005b61010960048036038101906101049190610cd0565b610436565b005b61012560048036038101906101209190610c6d565b6105ae565b6040516101359493929190610d60565b60405180910390f35b61015860048036038101906101539190610dd1565b61065f565b005b610174600480360381019061016f9190610f57565b61075e565b005b610190600480360381019061018b9190610c6d565b610881565b60405161019d9190610cb5565b60405180910390f35b6101c060048036038101906101bb9190610cd0565b61097b565b6040516101cd9190610cb5565b60405180910390f35b6101f060048036038101906101eb9190610cd0565b6109ae565b6040516101fd9190610cb5565b60405180910390f35b610220600480360381019061021b9190610cd0565b6109e1565b005b60008060026000848152602001908152602001600020600301549050600060026000858152602001908152602001600020600401805461026190610ff5565b80601f016020809104026020016040519081016040528092919081815260200182805461028d90610ff5565b80156102da5780601f106102af576101008083540402835291602001916102da565b820191906000526020600020905b8154815290600101906020018083116102bd57829003601f168201915b5050505050905060006102ed8383610aa6565b90508073ffffffffffffffffffffffffffffffffffffffff166002600087815260200190815260200160002060050160009054906101000a900473ffffffffffffffffffffffffffffffffffffffff1673ffffffffffffffffffffffffffffffffffffffff1603610364576001935050505061036c565b600093505050505b919050565b6002600083815260200190815260200160002060060160009054906101000a900473ffffffffffffffffffffffffffffffffffffffff168073ffffffffffffffffffffffffffffffffffffffff163373ffffffffffffffffffffffffffffffffffffffff1614610416576040517f08c379a000000000000000000000000000000000000000000000000000000000815260040161040d906110a9565b60405180910390fd5b816002600085815260200190815260200160002060010181905550505050565b6000828260405160200161044b9291906110ea565b604051602081830303815290604052805190602001209050826002600083815260200190815260200160002060010181905550816002600083815260200190815260200160002060020181905550336002600083815260200190815260200160002060060160006101000a81548173ffffffffffffffffffffffffffffffffffffffff021916908373ffffffffffffffffffffffffffffffffffffffff160217905550336002600083815260200190815260200160002060070160006101000a81548173ffffffffffffffffffffffffffffffffffffffff021916908373ffffffffffffffffffffffffffffffffffffffff16021790555060016002600083815260200190815260200160002060090160006101000a81548160ff0219169083151502179055507feb12ab352ec0628425cb2d83290a1d034ed2d60ba8d5caf7462e7526ce18d38e816040516105a19190611116565b60405180910390a1505050565b600080600080600260008681526020019081526020016000206001015460026000878152602001908152602001600020600201546002600088815260200190815260200160002060060160009054906101000a900473ffffffffffffffffffffffffffffffffffffffff166002600089815260200190815260200160002060050160009054906101000a900473ffffffffffffffffffffffffffffffffffffffff1693509350935093509193509193565b6002600083815260200190815260200160002060070160009054906101000a900473ffffffffffffffffffffffffffffffffffffffff168073ffffffffffffffffffffffffffffffffffffffff163373ffffffffffffffffffffffffffffffffffffffff1614610704576040517f08c379a00000000000000000000000000000000000000000000000000000000081526004016106fb906110a9565b60405180910390fd5b816002600085815260200190815260200160002060050160006101000a81548173ffffffffffffffffffffffffffffffffffffffff021916908373ffffffffffffffffffffffffffffffffffffffff160217905550505050565b6002600084815260200190815260200160002060070160009054906101000a900473ffffffffffffffffffffffffffffffffffffffff168073ffffffffffffffffffffffffffffffffffffffff163373ffffffffffffffffffffffffffffffffffffffff1614610803576040517f08c379a00000000000000000000000000000000000000000000000000000000081526004016107fa906110a9565b60405180910390fd5b8260026000868152602001908152602001600020600301819055508160026000868152602001908152602001600020600401908161084191906112f2565b507faeb1546c2c359892a79841d222bc322861f84b2134c2676cf01ebd20bc52a6978383604051610873929190611441565b60405180910390a150505050565b6000806002600084815260200190815260200160002060030154905060006002600085815260200190815260200160002060040180546108c090610ff5565b80601f01602080910402602001604051908101604052809291908181526020018280546108ec90610ff5565b80156109395780601f1061090e57610100808354040283529160200191610939565b820191906000526020600020905b81548152906001019060200180831161091c57829003601f168201915b50505050509050600061094c8383610aa6565b90506001151561095b82610b79565b15150361096e5760019350505050610976565b600093505050505b919050565b6000816002600085815260200190815260200160002060010154036109a357600190506109a8565b600090505b92915050565b6000816002600085815260200190815260200160002060020154036109d657600190506109db565b600090505b92915050565b6002600083815260200190815260200160002060060160009054906101000a900473ffffffffffffffffffffffffffffffffffffffff168073ffffffffffffffffffffffffffffffffffffffff163373ffffffffffffffffffffffffffffffffffffffff1614610a86576040517f08c379a0000000000000000000000000000000000000000000000000000000008152600401610a7d906110a9565b60405180910390fd5b816002600085815260200190815260200160002060020181905550505050565b6000806000806041855114610ac15760009350505050610b73565b6020850151925060408501519150606085015160001a9050601b8160ff161015610af557601b81610af291906114ad565b90505b601b8160ff1614158015610b0d5750601c8160ff1614155b15610b1e5760009350505050610b73565b60018682858560405160008152602001604052604051610b4194939291906114f3565b6020604051602081039080840390855afa158015610b63573d6000803e3d6000fd5b5050506020604051035193505050505b92915050565b600080600160009054906101000a900473ffffffffffffffffffffffffffffffffffffffff1690508073ffffffffffffffffffffffffffffffffffffffff16636af92956846040518263ffffffff1660e01b8152600401610bda9190611538565b602060405180830381865afa158015610bf7573d6000803e3d6000fd5b505050506040513d601f19601f82011682018060405250810190610c1b919061157f565b915050919050565b6000604051905090565b600080fd5b600080fd5b6000819050919050565b610c4a81610c37565b8114610c5557600080fd5b50565b600081359050610c6781610c41565b92915050565b600060208284031215610c8357610c82610c2d565b5b6000610c9184828501610c58565b91505092915050565b60008115159050919050565b610caf81610c9a565b82525050565b6000602082019050610cca6000830184610ca6565b92915050565b60008060408385031215610ce757610ce6610c2d565b5b6000610cf585828601610c58565b9250506020610d0685828601610c58565b9150509250929050565b610d1981610c37565b82525050565b600073ffffffffffffffffffffffffffffffffffffffff82169050919050565b6000610d4a82610d1f565b9050919050565b610d5a81610d3f565b82525050565b6000608082019050610d756000830187610d10565b610d826020830186610d10565b610d8f6040830185610d51565b610d9c6060830184610d51565b95945050505050565b610dae81610d3f565b8114610db957600080fd5b50565b600081359050610dcb81610da5565b92915050565b60008060408385031215610de857610de7610c2d565b5b6000610df685828601610c58565b9250506020610e0785828601610dbc565b9150509250929050565b600080fd5b600080fd5b6000601f19601f8301169050919050565b7f4e487b7100000000000000000000000000000000000000000000000000000000600052604160045260246000fd5b610e6482610e1b565b810181811067ffffffffffffffff82111715610e8357610e82610e2c565b5b80604052505050565b6000610e96610c23565b9050610ea28282610e5b565b919050565b600067ffffffffffffffff821115610ec257610ec1610e2c565b5b610ecb82610e1b565b9050602081019050919050565b82818337600083830152505050565b6000610efa610ef584610ea7565b610e8c565b905082815260208101848484011115610f1657610f15610e16565b5b610f21848285610ed8565b509392505050565b600082601f830112610f3e57610f3d610e11565b5b8135610f4e848260208601610ee7565b91505092915050565b600080600060608486031215610f7057610f6f610c2d565b5b6000610f7e86828701610c58565b9350506020610f8f86828701610c58565b925050604084013567ffffffffffffffff811115610fb057610faf610c32565b5b610fbc86828701610f29565b9150509250925092565b7f4e487b7100000000000000000000000000000000000000000000000000000000600052602260045260246000fd5b6000600282049050600182168061100d57607f821691505b6020821081036110205761101f610fc6565b5b50919050565b600082825260208201905092915050565b7f4f6e6c7920617574686f726973656420616464726573732063616e2063616c6c60008201527f20746869732066756e6374696f6e000000000000000000000000000000000000602082015250565b6000611093602e83611026565b915061109e82611037565b604082019050919050565b600060208201905081810360008301526110c281611086565b9050919050565b6000819050919050565b6110e46110df82610c37565b6110c9565b82525050565b60006110f682856110d3565b60208201915061110682846110d3565b6020820191508190509392505050565b600060208201905061112b6000830184610d10565b92915050565b600081519050919050565b60008190508160005260206000209050919050565b60006020601f8301049050919050565b600082821b905092915050565b60006008830261119e7fffffffffffffffffffffffffffffffffffffffffffffffffffffffffffffffff82611161565b6111a88683611161565b95508019841693508086168417925050509392505050565b6000819050919050565b6000819050919050565b60006111ef6111ea6111e5846111c0565b6111ca565b6111c0565b9050919050565b6000819050919050565b611209836111d4565b61121d611215826111f6565b84845461116e565b825550505050565b600090565b611232611225565b61123d818484611200565b505050565b5b818110156112615761125660008261122a565b600181019050611243565b5050565b601f8211156112a6576112778161113c565b61128084611151565b8101602085101561128f578190505b6112a361129b85611151565b830182611242565b50505b505050565b600082821c905092915050565b60006112c9600019846008026112ab565b1980831691505092915050565b60006112e283836112b8565b9150826002028217905092915050565b6112fb82611131565b67ffffffffffffffff81111561131457611313610e2c565b5b61131e8254610ff5565b611329828285611265565b600060209050601f83116001811461135c576000841561134a578287015190505b61135485826112d6565b8655506113bc565b601f19841661136a8661113c565b60005b828110156113925784890151825560018201915060208501945060208101905061136d565b868310156113af57848901516113ab601f8916826112b8565b8355505b6001600288020188555050505b505050505050565b600082825260208201905092915050565b60005b838110156113f35780820151818401526020810190506113d8565b83811115611402576000848401525b50505050565b600061141382611131565b61141d81856113c4565b935061142d8185602086016113d5565b61143681610e1b565b840191505092915050565b60006040820190506114566000830185610d10565b81810360208301526114688184611408565b90509392505050565b600060ff82169050919050565b7f4e487b7100000000000000000000000000000000000000000000000000000000600052601160045260246000fd5b60006114b882611471565b91506114c383611471565b92508260ff038211156114d9576114d861147e565b5b828201905092915050565b6114ed81611471565b82525050565b60006080820190506115086000830187610d10565b61151560208301866114e4565b6115226040830185610d10565b61152f6060830184610d10565b95945050505050565b600060208201905061154d6000830184610d51565b92915050565b61155c81610c9a565b811461156757600080fd5b50565b60008151905061157981611553565b92915050565b60006020828403121561159557611594610c2d565b5b60006115a38482850161156a565b9150509291505056fea2646970667358221220dd2538817eb088e12394ea4897ff918cc0a57f9173c7b56ad6d921627022598764736f6c634300080f0033",
  "immutableReferences": {},
  "source": "// SPDX-License-Identifier: MIT\npragma solidity ^0.8.0;\n\nimport \"./CARegistry.sol\"; \n\ncontract Product {\n\n    bool internal locked;                   // lock for payments (not sure if necessary yet)\n    address owner;\n    // address CA;\n    address DOA;                            // Department of Agriculture contract address \n\n    // another option to map multiple structs:\n    // https://ethereum.stackexchange.com/questions/82157/mapping-multiple-structs-to-a-struct-and-call-them\n    \n    // keeps the hash of product data and contions,\n    // certificate infromation and the current owner \n    struct Batch {\n        bytes32 bardoce;                // get this from oracle, physical batch barcode\n        bytes32 productHash; \n        bytes32 conditionsHash;\n\n        bytes32 certificate; \n        bytes signature;                // created with web3.eth.sign(), bytes \n        address authCA;                 // the CA authorised by producer to update certificate\n\n        address owner;\n        address producer;\n\n        uint256 reqTemperature;         // required temp of the product as provided in required conitions\n        bool status;                    // the status of the product, true means ok - not sure if needed\n    }\n\n    // maps each product ID to a product data   \n    mapping (bytes32 => Batch) products; \n\n    // alternatively keep as array:\n    // Product[] products; \n\n    constructor(address _DOA, address _owner) {\n        DOA = _DOA; \n        owner = _owner; \n    }\n\n    modifier onlyThis(address _address) { require(msg.sender == _address, \"Only authorised address can call this function\"); _; }\n\n    // only owner can call the function \n    // modifier onlyOwner(address _owner) { require(msg.sender == _owner, \"You are not the owner of this batch\"); _; }\n    // only producer can call the function \n    // modifier onlyProducer(address _producer) { require(msg.sender == _producer,\"only a producer can request a certifying authority\" ); _; }\n    \n    // only after that time can call the function \n    // modifier onlyAfter(uint256 _time) { require(block.timestamp > _time); _; }\n    // only before that time can call the function \n    // modifier onlyBefore(uint256 _time) { require(block.timestamp < _time); _;}\n    \n    // only authorised CA can add a certificate\n    modifier onlyAuthCA(address _CA) { require(msg.sender == _CA, \"You do not have permission to modify this information\"); _; }\n    \n    // lock against reentrancy \n    modifier lock() { \n        require(!locked); \n        locked = true; _; \n        locked = false;\n    }\n\n    // send generated product ID to off-chain \n    event batchIdentifier(bytes32 productID); \n\n    event batchCertificate(bytes32 certificate, bytes signature); \n\n\n\n    /* PRODUCT FUNCTIONS ------------------------------------------------------------------ */\n\n    // adds product data hash and conditions hash \n    function addProduct(bytes32 _data, bytes32 _conditions) public {\n        bytes32 batchID = bytes32(keccak256(abi.encodePacked(_data, _conditions))); \n        products[batchID].productHash = _data; \n        products[batchID].conditionsHash = _conditions; \n        products[batchID].owner = msg.sender; \n        products[batchID].producer = msg.sender;\n        products[batchID].status = true;\n        emit batchIdentifier(batchID);\n    }\n\n    // the owner can update the product hash\n    function updateProduct(bytes32 _batchID, bytes32 _updatedData) public onlyThis(products[_batchID].owner) {\n        products[_batchID].productHash = _updatedData;\n    }\n\n    // the owner can send a new product contions hash\n    function updateConditions(bytes32 _batchID, bytes32 _updatedConditions) public onlyThis(products[_batchID].owner) {\n        products[_batchID].conditionsHash = _updatedConditions;\n    }\n\n    // producer calls this function to select a CA of their choice \n    // to add a certificate to their product\n    // the producer must still own the batch to request a certificate\n    function updateCertAuthorisation(bytes32 _batchID, address _requestedCA) public onlyThis(products[_batchID].producer) {\n        products[_batchID].authCA = _requestedCA;\n    }\n    \n    // update certificate data in product - only authorised CA \n    function updateCertificate(bytes32 _batchID, bytes32 _certificate, bytes memory _signature) public onlyThis(products[_batchID].producer) {\n        products[_batchID].certificate = _certificate; \n        products[_batchID].signature = _signature; \n        emit batchCertificate(_certificate, _signature);\n    }\n\n    /* VERIFICATION FUNCTIONS ----------------------------------------------------------------- */\n\n    // allow anyone to verify data in the off chain data store about product\n    function verifyProductHash(bytes32 _batchID, bytes32 _offchainHash) public view returns (bool) {\n        if (products[_batchID].productHash == _offchainHash) { return true;}\n        return false;\n    }\n\n    // allow anyone to verify data in the off chain data store about conditions\n    function verifyConditionsHash(bytes32 _batchID, bytes32 _offchainHash) public view returns (bool){\n        if (products[_batchID].conditionsHash == _offchainHash) { return true;}\n        return false;\n    }\n\n    function verifyIssuerAuthorisation(bytes32 _batchID) public view returns (bool) {\n        // recover issuer certificate \n        // check if authorised CA is the same as recovered \n        bytes32 certificate = products[_batchID].certificate; \n        bytes memory signature = products[_batchID].signature; \n        address issuer = recoverIssuer(certificate, signature); \n        if (products[_batchID].authCA == issuer) { return true; }\n        return false; \n    }\n\n    /* GETTER FUNCTIONS ----------------------------------------------------------------------- */\n\n    function getProduct(bytes32 _batchID) public view returns(bytes32, bytes32, address, address) {\n        return (products[_batchID].productHash, products[_batchID].conditionsHash, products[_batchID].owner, products[_batchID].authCA);\n    }\n\n    /* TEMPERATURE FUNCTIONS ------------------------------------------------------------------ */\n\n    // requires oracle \n    // have restricted to private so anyone cannot call this \n    // is there a way to resctrict this to the oracle?\n    function compareTemperature(bytes32 _batchID, uint256 _temperature) private returns (bool) {\n        if (_temperature != products[_batchID].reqTemperature) {\n            products[_batchID].status = false;\n            return false;\n        }\n        return true;\n    }\n\n    /* CERTIFICATE FUNCTIONS ------------------------------------------------------------------ */\n\n    // anyone can send a product ID and verify its certificate\n    // should check if the certificate exists first, if not then false \n    function verifyCertificate(bytes32 _batchID) external view returns(bool) {\n        bytes32 certificate = products[_batchID].certificate; \n        bytes memory signature = products[_batchID].signature; \n        // recovered issuer from the certificate and his signature \n        address issuer = recoverIssuer(certificate, signature); \n        if (verifyIssuer(issuer) == true) { return true; }\n        return false; \n    }\n\n    // verify that the certifying authority is registered with DOA \n    // and eligible to issue organic certificates\n    function verifyIssuer(address _issuer) internal view returns(bool) {\n        AuthorityRegistry registry = AuthorityRegistry(DOA);  \n        return registry.checkPublicKey(_issuer);\n    }\n\n    /**\n     * @notice functions recovers the signer of the certificate from the provided certificate \n               (message signed by authority) and signature \n     * @dev    called internally from placeBid function  \n     * @param  _hash the batch certificate signed by CA \n     * @param  _sig CA's bytes signature generated using web3.eth.sign()\n     * @return issuer address (authority who issued/signed the organic certificate to the product batch)\n    **/\n    // copyright: https://github.com/protofire/zeppelin-solidity/blob/master/contracts/ECRecovery.sol\n    function recoverIssuer(bytes32 _hash, bytes memory _sig) internal pure returns(address) {\n        bytes32 r; bytes32 s; uint8 v;\n        //Check the signature length\n        if (_sig.length != 65) { return (address(0)); }\n        assembly {\n            r := mload(add(_sig, 32))\n            s := mload(add(_sig, 64))\n            v := byte(0, mload(add(_sig, 96)))\n        }\n        if (v < 27) { v += 27; }\n\n        // If the version is correct return the signer address\n        if (v != 27 && v != 28) { return (address(0)); } \n        else { return ecrecover(_hash, v, r, s); }\n    }\n\n}",
  "sourcePath": "/Users/dariaschumm/Library/Mobile Documents/com~apple~CloudDocs/6452/project_2/contracts/Product.sol",
  "compiler": {
    "name": "solc",
    "version": "0.8.15+commit.e14f2714.Emscripten.clang"
  },
  "schemaVersion": "3.4.7",
  "updatedAt": "2022-07-18T10:43:49.773Z",
  "networkType": "ethereum",
  "devdoc": {
    "kind": "dev",
    "methods": {},
    "version": 1
  },
  "userdoc": {
    "kind": "user",
    "methods": {},
    "version": 1
  }
}