{
  "contractName": "Product",
  "abi": [
    {
      "inputs": [
        {
          "internalType": "address",
          "name": "_DOA",
          "type": "address"
        },
        {
          "internalType": "address",
          "name": "_owner",
          "type": "address"
        }
      ],
      "stateMutability": "nonpayable",
      "type": "constructor"
    },
    {
      "anonymous": false,
      "inputs": [
        {
          "indexed": false,
          "internalType": "bytes32",
          "name": "certificate",
          "type": "bytes32"
        },
        {
          "indexed": false,
          "internalType": "bytes",
          "name": "signature",
          "type": "bytes"
        }
      ],
      "name": "batchCertificate",
      "type": "event"
    },
    {
      "anonymous": false,
      "inputs": [
        {
          "indexed": false,
          "internalType": "bytes32",
          "name": "productID",
          "type": "bytes32"
        }
      ],
      "name": "batchIdentifier",
      "type": "event"
    },
    {
      "inputs": [
        {
          "internalType": "bytes32",
          "name": "_data",
          "type": "bytes32"
        },
        {
          "internalType": "bytes32",
          "name": "_conditions",
          "type": "bytes32"
        }
      ],
      "name": "addProduct",
      "outputs": [],
      "stateMutability": "nonpayable",
      "type": "function"
    },
    {
      "inputs": [
        {
          "internalType": "bytes32",
          "name": "_updatedData",
          "type": "bytes32"
        },
        {
          "internalType": "bytes32",
          "name": "_batchID",
          "type": "bytes32"
        }
      ],
      "name": "updateProduct",
      "outputs": [],
      "stateMutability": "nonpayable",
      "type": "function"
    },
    {
      "inputs": [
        {
          "internalType": "bytes32",
          "name": "_updatedConditions",
          "type": "bytes32"
        },
        {
          "internalType": "bytes32",
          "name": "_batchID",
          "type": "bytes32"
        }
      ],
      "name": "updateConditions",
      "outputs": [],
      "stateMutability": "nonpayable",
      "type": "function"
    },
    {
      "inputs": [
        {
          "internalType": "bytes32",
          "name": "_batchID",
          "type": "bytes32"
        },
        {
          "internalType": "bytes32",
          "name": "_certificate",
          "type": "bytes32"
        },
        {
          "internalType": "bytes",
          "name": "_signature",
          "type": "bytes"
        }
      ],
      "name": "updateCertificate",
      "outputs": [],
      "stateMutability": "nonpayable",
      "type": "function"
    },
    {
      "inputs": [
        {
          "internalType": "bytes32",
          "name": "_batchID",
          "type": "bytes32"
        }
      ],
      "name": "getProduct",
      "outputs": [
        {
          "internalType": "bytes32",
          "name": "",
          "type": "bytes32"
        },
        {
          "internalType": "bytes32",
          "name": "",
          "type": "bytes32"
        },
        {
          "internalType": "address",
          "name": "",
          "type": "address"
        }
      ],
      "stateMutability": "view",
      "type": "function",
      "constant": true
    },
    {
      "inputs": [
        {
          "internalType": "bytes32",
          "name": "_offchainHash",
          "type": "bytes32"
        },
        {
          "internalType": "bytes32",
          "name": "_batchID",
          "type": "bytes32"
        }
      ],
      "name": "verifyProductHash",
      "outputs": [
        {
          "internalType": "bool",
          "name": "",
          "type": "bool"
        }
      ],
      "stateMutability": "view",
      "type": "function",
      "constant": true
    },
    {
      "inputs": [
        {
          "internalType": "bytes32",
          "name": "_offchainHash",
          "type": "bytes32"
        },
        {
          "internalType": "bytes32",
          "name": "_batchID",
          "type": "bytes32"
        }
      ],
      "name": "verifyConditionsHash",
      "outputs": [
        {
          "internalType": "bool",
          "name": "",
          "type": "bool"
        }
      ],
      "stateMutability": "view",
      "type": "function",
      "constant": true
    },
    {
      "inputs": [
        {
          "internalType": "bytes32",
          "name": "_batchID",
          "type": "bytes32"
        },
        {
          "internalType": "address",
          "name": "_requestedCA",
          "type": "address"
        }
      ],
      "name": "authoriseCA",
      "outputs": [
        {
          "internalType": "bool",
          "name": "",
          "type": "bool"
        }
      ],
      "stateMutability": "nonpayable",
      "type": "function"
    },
    {
      "inputs": [
        {
          "internalType": "bytes32",
          "name": "_batchID",
          "type": "bytes32"
        }
      ],
      "name": "verifyCertificate",
      "outputs": [
        {
          "internalType": "bool",
          "name": "",
          "type": "bool"
        }
      ],
      "stateMutability": "view",
      "type": "function",
      "constant": true
    }
  ],
  "bytecode": "0x60806040523480156200001157600080fd5b506040516200178f3803806200178f83398181016040528101906200003791906200012b565b81600160006101000a81548173ffffffffffffffffffffffffffffffffffffffff021916908373ffffffffffffffffffffffffffffffffffffffff16021790555080600060016101000a81548173ffffffffffffffffffffffffffffffffffffffff021916908373ffffffffffffffffffffffffffffffffffffffff160217905550505062000172565b600080fd5b600073ffffffffffffffffffffffffffffffffffffffff82169050919050565b6000620000f382620000c6565b9050919050565b6200010581620000e6565b81146200011157600080fd5b50565b6000815190506200012581620000fa565b92915050565b60008060408385031215620001455762000144620000c1565b5b6000620001558582860162000114565b9250506020620001688582860162000114565b9150509250929050565b61160d80620001826000396000f3fe608060405234801561001057600080fd5b50600436106100935760003560e01c8063850c176811610066578063850c17681461011e578063a92138741461014e578063aee40ead1461017e578063aee726bf146101ae578063fc1a9840146101de57610093565b80632fad3fc4146100985780633146610d146100b45780633a20e9df146100d05780635a5ef62614610102575b600080fd5b6100b260048036038101906100ad9190610b82565b6101fa565b005b6100ce60048036038101906100c99190610b82565b6102bf565b005b6100ea60048036038101906100e59190610bc2565b610437565b6040516100f993929190610c3f565b60405180910390f35b61011c60048036038101906101179190610dbc565b6104ae565b005b61013860048036038101906101339190610bc2565b6105d1565b6040516101459190610e46565b60405180910390f35b61016860048036038101906101639190610b82565b6106cb565b6040516101759190610e46565b60405180910390f35b61019860048036038101906101939190610e8d565b6106fe565b6040516101a59190610e46565b60405180910390f35b6101c860048036038101906101c39190610b82565b6108c3565b6040516101d59190610e46565b60405180910390f35b6101f860048036038101906101f39190610b82565b6108f6565b005b6002600082815260200190815260200160002060060160009054906101000a900473ffffffffffffffffffffffffffffffffffffffff168073ffffffffffffffffffffffffffffffffffffffff163373ffffffffffffffffffffffffffffffffffffffff161461029f576040517f08c379a000000000000000000000000000000000000000000000000000000000815260040161029690610f50565b60405180910390fd5b826002600084815260200190815260200160002060000181905550505050565b600082826040516020016102d4929190610f91565b60405160208183030381529060405280519060200120905082600260008381526020019081526020016000206000018190555081600260008381526020019081526020016000206001018190555060016002600083815260200190815260200160002060020160006101000a81548160ff021916908315150217905550336002600083815260200190815260200160002060060160006101000a81548173ffffffffffffffffffffffffffffffffffffffff021916908373ffffffffffffffffffffffffffffffffffffffff160217905550336002600083815260200190815260200160002060070160006101000a81548173ffffffffffffffffffffffffffffffffffffffff021916908373ffffffffffffffffffffffffffffffffffffffff1602179055507feb12ab352ec0628425cb2d83290a1d034ed2d60ba8d5caf7462e7526ce18d38e8160405161042a9190610fbd565b60405180910390a1505050565b6000806000600260008581526020019081526020016000206000015460026000868152602001908152602001600020600101546002600087815260200190815260200160002060060160009054906101000a900473ffffffffffffffffffffffffffffffffffffffff169250925092509193909250565b6002600084815260200190815260200160002060050160009054906101000a900473ffffffffffffffffffffffffffffffffffffffff168073ffffffffffffffffffffffffffffffffffffffff163373ffffffffffffffffffffffffffffffffffffffff1614610553576040517f08c379a000000000000000000000000000000000000000000000000000000000815260040161054a9061104a565b60405180910390fd5b82600260008681526020019081526020016000206003018190555081600260008681526020019081526020016000206004019081610591919061128b565b507faeb1546c2c359892a79841d222bc322861f84b2134c2676cf01ebd20bc52a69783836040516105c39291906113da565b60405180910390a150505050565b600080600260008481526020019081526020016000206003015490506000600260008581526020019081526020016000206004018054610610906110a4565b80601f016020809104026020016040519081016040528092919081815260200182805461063c906110a4565b80156106895780601f1061065e57610100808354040283529160200191610689565b820191906000526020600020905b81548152906001019060200180831161066c57829003601f168201915b50505050509050600061069c83836109bb565b9050600115156106ab82610a8e565b1515036106be57600193505050506106c6565b600093505050505b919050565b6000826002600084815260200190815260200160002060000154036106f357600190506106f8565b600090505b92915050565b60006002600084815260200190815260200160002060060160009054906101000a900473ffffffffffffffffffffffffffffffffffffffff168073ffffffffffffffffffffffffffffffffffffffff163373ffffffffffffffffffffffffffffffffffffffff16146107a5576040517f08c379a000000000000000000000000000000000000000000000000000000000815260040161079c90610f50565b60405180910390fd5b6002600085815260200190815260200160002060070160009054906101000a900473ffffffffffffffffffffffffffffffffffffffff168073ffffffffffffffffffffffffffffffffffffffff163373ffffffffffffffffffffffffffffffffffffffff161461084a576040517f08c379a00000000000000000000000000000000000000000000000000000000081526004016108419061147c565b60405180910390fd5b61085384610a8e565b156108b657836002600087815260200190815260200160002060050160006101000a81548173ffffffffffffffffffffffffffffffffffffffff021916908373ffffffffffffffffffffffffffffffffffffffff160217905550600192506108bb565b600092505b505092915050565b6000826002600084815260200190815260200160002060010154036108eb57600190506108f0565b600090505b92915050565b6002600082815260200190815260200160002060060160009054906101000a900473ffffffffffffffffffffffffffffffffffffffff168073ffffffffffffffffffffffffffffffffffffffff163373ffffffffffffffffffffffffffffffffffffffff161461099b576040517f08c379a000000000000000000000000000000000000000000000000000000000815260040161099290610f50565b60405180910390fd5b826002600084815260200190815260200160002060010181905550505050565b60008060008060418551146109d65760009350505050610a88565b6020850151925060408501519150606085015160001a9050601b8160ff161015610a0a57601b81610a0791906114d8565b90505b601b8160ff1614158015610a225750601c8160ff1614155b15610a335760009350505050610a88565b60018682858560405160008152602001604052604051610a56949392919061151e565b6020604051602081039080840390855afa158015610a78573d6000803e3d6000fd5b5050506020604051035193505050505b92915050565b600080600160009054906101000a900473ffffffffffffffffffffffffffffffffffffffff1690508073ffffffffffffffffffffffffffffffffffffffff16636af92956846040518263ffffffff1660e01b8152600401610aef9190611563565b602060405180830381865afa158015610b0c573d6000803e3d6000fd5b505050506040513d601f19601f82011682018060405250810190610b3091906115aa565b915050919050565b6000604051905090565b600080fd5b600080fd5b6000819050919050565b610b5f81610b4c565b8114610b6a57600080fd5b50565b600081359050610b7c81610b56565b92915050565b60008060408385031215610b9957610b98610b42565b5b6000610ba785828601610b6d565b9250506020610bb885828601610b6d565b9150509250929050565b600060208284031215610bd857610bd7610b42565b5b6000610be684828501610b6d565b91505092915050565b610bf881610b4c565b82525050565b600073ffffffffffffffffffffffffffffffffffffffff82169050919050565b6000610c2982610bfe565b9050919050565b610c3981610c1e565b82525050565b6000606082019050610c546000830186610bef565b610c616020830185610bef565b610c6e6040830184610c30565b949350505050565b600080fd5b600080fd5b6000601f19601f8301169050919050565b7f4e487b7100000000000000000000000000000000000000000000000000000000600052604160045260246000fd5b610cc982610c80565b810181811067ffffffffffffffff82111715610ce857610ce7610c91565b5b80604052505050565b6000610cfb610b38565b9050610d078282610cc0565b919050565b600067ffffffffffffffff821115610d2757610d26610c91565b5b610d3082610c80565b9050602081019050919050565b82818337600083830152505050565b6000610d5f610d5a84610d0c565b610cf1565b905082815260208101848484011115610d7b57610d7a610c7b565b5b610d86848285610d3d565b509392505050565b600082601f830112610da357610da2610c76565b5b8135610db3848260208601610d4c565b91505092915050565b600080600060608486031215610dd557610dd4610b42565b5b6000610de386828701610b6d565b9350506020610df486828701610b6d565b925050604084013567ffffffffffffffff811115610e1557610e14610b47565b5b610e2186828701610d8e565b9150509250925092565b60008115159050919050565b610e4081610e2b565b82525050565b6000602082019050610e5b6000830184610e37565b92915050565b610e6a81610c1e565b8114610e7557600080fd5b50565b600081359050610e8781610e61565b92915050565b60008060408385031215610ea457610ea3610b42565b5b6000610eb285828601610b6d565b9250506020610ec385828601610e78565b9150509250929050565b600082825260208201905092915050565b7f596f7520617265206e6f7420746865206f776e6572206f66207468697320626160008201527f7463680000000000000000000000000000000000000000000000000000000000602082015250565b6000610f3a602383610ecd565b9150610f4582610ede565b604082019050919050565b60006020820190508181036000830152610f6981610f2d565b9050919050565b6000819050919050565b610f8b610f8682610b4c565b610f70565b82525050565b6000610f9d8285610f7a565b602082019150610fad8284610f7a565b6020820191508190509392505050565b6000602082019050610fd26000830184610bef565b92915050565b7f596f7520646f206e6f742068617665207065726d697373696f6e20746f206d6f60008201527f64696679207468697320696e666f726d6174696f6e0000000000000000000000602082015250565b6000611034603583610ecd565b915061103f82610fd8565b604082019050919050565b6000602082019050818103600083015261106381611027565b9050919050565b600081519050919050565b7f4e487b7100000000000000000000000000000000000000000000000000000000600052602260045260246000fd5b600060028204905060018216806110bc57607f821691505b6020821081036110cf576110ce611075565b5b50919050565b60008190508160005260206000209050919050565b60006020601f8301049050919050565b600082821b905092915050565b6000600883026111377fffffffffffffffffffffffffffffffffffffffffffffffffffffffffffffffff826110fa565b61114186836110fa565b95508019841693508086168417925050509392505050565b6000819050919050565b6000819050919050565b600061118861118361117e84611159565b611163565b611159565b9050919050565b6000819050919050565b6111a28361116d565b6111b66111ae8261118f565b848454611107565b825550505050565b600090565b6111cb6111be565b6111d6818484611199565b505050565b5b818110156111fa576111ef6000826111c3565b6001810190506111dc565b5050565b601f82111561123f57611210816110d5565b611219846110ea565b81016020851015611228578190505b61123c611234856110ea565b8301826111db565b50505b505050565b600082821c905092915050565b600061126260001984600802611244565b1980831691505092915050565b600061127b8383611251565b9150826002028217905092915050565b6112948261106a565b67ffffffffffffffff8111156112ad576112ac610c91565b5b6112b782546110a4565b6112c28282856111fe565b600060209050601f8311600181146112f557600084156112e3578287015190505b6112ed858261126f565b865550611355565b601f198416611303866110d5565b60005b8281101561132b57848901518255600182019150602085019450602081019050611306565b868310156113485784890151611344601f891682611251565b8355505b6001600288020188555050505b505050505050565b600082825260208201905092915050565b60005b8381101561138c578082015181840152602081019050611371565b8381111561139b576000848401525b50505050565b60006113ac8261106a565b6113b6818561135d565b93506113c681856020860161136e565b6113cf81610c80565b840191505092915050565b60006040820190506113ef6000830185610bef565b818103602083015261140181846113a1565b90509392505050565b7f6f6e6c7920612070726f64756365722063616e2072657175657374206120636560008201527f7274696679696e6720617574686f726974790000000000000000000000000000602082015250565b6000611466603283610ecd565b91506114718261140a565b604082019050919050565b6000602082019050818103600083015261149581611459565b9050919050565b600060ff82169050919050565b7f4e487b7100000000000000000000000000000000000000000000000000000000600052601160045260246000fd5b60006114e38261149c565b91506114ee8361149c565b92508260ff03821115611504576115036114a9565b5b828201905092915050565b6115188161149c565b82525050565b60006080820190506115336000830187610bef565b611540602083018661150f565b61154d6040830185610bef565b61155a6060830184610bef565b95945050505050565b60006020820190506115786000830184610c30565b92915050565b61158781610e2b565b811461159257600080fd5b50565b6000815190506115a48161157e565b92915050565b6000602082840312156115c0576115bf610b42565b5b60006115ce84828501611595565b9150509291505056fea264697066735822122090c28b3d0387ea2afd0cdddc5cd27e937c81f0b5582c89c3cc630f6357988db964736f6c634300080f0033",
  "immutableReferences": {},
  "source": "// SPDX-License-Identifier: MIT\npragma solidity ^0.8.0;\n\nimport \"./CARegistry.sol\"; \n\ncontract Product {\n\n    bool internal locked;                   // lock for payments (not sure if necessary yet)\n    address owner;\n    // address CA;\n    address DOA;                            // Department of Agriculture contract address \n\n    // another option to map multiple structs:\n    // https://ethereum.stackexchange.com/questions/82157/mapping-multiple-structs-to-a-struct-and-call-them\n    \n    // keeps the hash of product data and contions,\n    // certificate infromation and the current owner \n    struct Batch {\n        bytes32 productHash; \n        bytes32 conditionsHash;\n        bool status;                    // the status of the product, true means ok\n\n        bytes32 certificate; \n        bytes signature;                // created with web3.eth.sign(), bytes \n        address authCA;                 // the CA authorised by producer to update certificate\n\n        address currentOwner;\n        address producer;\n\n        uint256 reqTemperature;         // required temp of the product as provided in required conitions\n    }\n\n    // maps each product ID to a product data   \n    mapping (bytes32 => Batch) products; \n\n    // alternatively keep as array:\n    // Product[] products; \n\n    constructor(address _DOA, address _owner) {\n        DOA = _DOA; \n        owner = _owner; \n    }\n\n    // only owner can call the function \n    modifier onlyOwner(address _owner) { require(msg.sender == _owner, \"You are not the owner of this batch\"); _; }\n    // only producer can call the function \n    modifier onlyProducer(address _producer) { require(msg.sender == _producer,\"only a producer can request a certifying authority\" ); _; }\n    // only after that time can call the function \n    modifier onlyAfter(uint256 _time) { require(block.timestamp > _time); _; }\n    // only before that time can call the function \n    modifier onlyBefore(uint256 _time) { require(block.timestamp < _time); _;}\n     // only authorised CA can add a certificate\n    modifier onlyAuthCA(address _CA) { require(msg.sender == _CA, \"You do not have permission to modify this information\"); _; }\n    // lock against reentrancy \n    modifier lock() { \n        require(!locked); \n        locked = true; _; \n        locked = false;\n    }\n\n    // send generated product ID to off-chain \n    event batchIdentifier(bytes32 productID); \n\n    event batchCertificate(bytes32 certificate, bytes signature); \n\n\n\n    /* PRODUCT FUNCTIONS ------------------------------------------------------------------ */\n\n    // adds product data hash and conditions hash \n    function addProduct(bytes32 _data, bytes32 _conditions) public {\n        bytes32 batchID = bytes32(keccak256(abi.encodePacked(_data, _conditions))); \n        products[batchID].productHash = _data; \n        products[batchID].conditionsHash = _conditions; \n        products[batchID].status = true;\n        products[batchID].currentOwner = msg.sender; \n        products[batchID].producer = msg.sender;\n        emit batchIdentifier(batchID);\n    }\n\n    // the owner can update the product hash\n    function updateProduct(bytes32 _updatedData, bytes32 _batchID) public onlyOwner(products[_batchID].currentOwner) {\n        products[_batchID].productHash = _updatedData;\n    }\n\n    // the owner can send a new product contions hash\n    function updateConditions(bytes32 _updatedConditions, bytes32 _batchID) public onlyOwner(products[_batchID].currentOwner) {\n        products[_batchID].conditionsHash = _updatedConditions;\n    }\n\n    // requires oracle \n    // have restricted to private so anyone cannot call this \n    // is there a way to resctrict this to the oracle?\n    function compareTemperature(uint256 _temperature, bytes32 _batchID) private returns (bool) {\n        if (_temperature != products[_batchID].reqTemperature) {\n            products[_batchID].status = false;\n            return false;\n        }\n        return true;\n    }\n\n    // update certificate data in product - only authorised CA \n    function updateCertificate(bytes32 _batchID, bytes32 _certificate, bytes memory _signature) public onlyAuthCA(products[_batchID].authCA) {\n        products[_batchID].certificate = _certificate; \n        products[_batchID].signature = _signature; \n        emit batchCertificate(_certificate, _signature);\n    }\n\n    function getProduct(bytes32 _batchID) public view returns(bytes32, bytes32, address) {\n        return (products[_batchID].productHash, products[_batchID].conditionsHash, products[_batchID].currentOwner);\n    }\n\n    // allow anyone to verify data in the off chain data store about product\n    function verifyProductHash(bytes32 _offchainHash, bytes32 _batchID) public view returns (bool) {\n        if (products[_batchID].productHash == _offchainHash) { return true;}\n        return false;\n    }\n\n    // allow anyone to verify data in the off chain data store about conditions\n    function verifyConditionsHash(bytes32 _offchainHash, bytes32 _batchID) public view returns (bool){\n        if (products[_batchID].conditionsHash == _offchainHash) { return true;}\n        return false;\n    }\n\n\n\n    /* CERTIFICATE FUNCTIONS ------------------------------------------------------------------ */\n\n    // producer calls this function to select a CA of their choice \n    // to add a certificate to their product\n    // the producer must still own the batch to request a certificate\n    function authoriseCA(bytes32 _batchID, address _requestedCA) public onlyOwner(products[_batchID].currentOwner) onlyProducer(products[_batchID].producer) returns(bool) {\n        // verify that the CA producer authorises to update certificate is \n        // an authorised CA in the registry\n        if (verifyIssuer(_requestedCA)) {\n            products[_batchID].authCA = _requestedCA;\n            return true;\n        }\n        return false;\n    }\n    \n    // anyone can send a product ID and verify its certificate\n    // should check if the certificate exists first, if not then false \n    function verifyCertificate(bytes32 _batchID) external view returns(bool) {\n        bytes32 certificate = products[_batchID].certificate; \n        bytes memory signature = products[_batchID].signature; \n        // recovered issuer from the certificate and his signature \n        address issuer = recoverIssuer(certificate, signature); \n        if (verifyIssuer(issuer) == true) { return true; }\n        return false; \n    }\n\n    // verify that the certifying authority is registered with DOA \n    // and eligible to issue organic certificates\n    function verifyIssuer(address _issuer) internal view returns(bool) {\n        AuthorityRegistry registry = AuthorityRegistry(DOA);  \n        return registry.checkPublicKey(_issuer);\n    }\n\n    /**\n     * @notice functions recovers the signer of the certificate from the provided certificate \n               (message signed by authority) and signature \n     * @dev    called internally from placeBid function  \n     * @param  _hash the batch certificate signed by CA \n     * @param  _sig CA's bytes signature generated using web3.eth.sign()\n     * @return issuer address (authority who issued/signed the organic certificate to the product batch)\n    **/\n    // copyright: https://github.com/protofire/zeppelin-solidity/blob/master/contracts/ECRecovery.sol\n    function recoverIssuer(bytes32 _hash, bytes memory _sig) internal pure returns(address) {\n        bytes32 r; bytes32 s; uint8 v;\n        //Check the signature length\n        if (_sig.length != 65) { return (address(0)); }\n        assembly {\n            r := mload(add(_sig, 32))\n            s := mload(add(_sig, 64))\n            v := byte(0, mload(add(_sig, 96)))\n        }\n        if (v < 27) { v += 27; }\n\n        // If the version is correct return the signer address\n        if (v != 27 && v != 28) { return (address(0)); } \n        else { return ecrecover(_hash, v, r, s); }\n    }\n\n}",
  "sourcePath": "/Users/dariaschumm/Library/Mobile Documents/com~apple~CloudDocs/6452/project_2/contracts/Product.sol",
  "compiler": {
    "name": "solc",
    "version": "0.8.15+commit.e14f2714.Emscripten.clang"
  },
  "schemaVersion": "3.4.7",
  "updatedAt": "2022-07-18T08:40:24.730Z",
  "networkType": "ethereum",
  "devdoc": {
    "kind": "dev",
    "methods": {},
    "version": 1
  },
  "userdoc": {
    "kind": "user",
    "methods": {},
    "version": 1
  }
}