{
  "contractName": "Product",
  "abi": [
    {
      "inputs": [
        {
          "internalType": "address",
          "name": "_DOA",
          "type": "address"
        },
        {
          "internalType": "address",
          "name": "_owner",
          "type": "address"
        }
      ],
      "stateMutability": "nonpayable",
      "type": "constructor"
    },
    {
      "anonymous": false,
      "inputs": [
        {
          "indexed": false,
          "internalType": "bytes32",
          "name": "productID",
          "type": "bytes32"
        }
      ],
      "name": "batchIdentifier",
      "type": "event"
    },
    {
      "inputs": [
        {
          "internalType": "bytes32",
          "name": "_data",
          "type": "bytes32"
        }
      ],
      "name": "addProduct",
      "outputs": [],
      "stateMutability": "nonpayable",
      "type": "function"
    },
    {
      "inputs": [
        {
          "internalType": "bytes32",
          "name": "_batchID",
          "type": "bytes32"
        },
        {
          "internalType": "bytes32",
          "name": "_certificate",
          "type": "bytes32"
        },
        {
          "internalType": "bytes",
          "name": "_signature",
          "type": "bytes"
        }
      ],
      "name": "updateCertificate",
      "outputs": [],
      "stateMutability": "nonpayable",
      "type": "function"
    },
    {
      "inputs": [
        {
          "internalType": "bytes32",
          "name": "_batchID",
          "type": "bytes32"
        },
        {
          "internalType": "address",
          "name": "_newOwner",
          "type": "address"
        },
        {
          "internalType": "bytes32",
          "name": "_newHash",
          "type": "bytes32"
        }
      ],
      "name": "updateOwner",
      "outputs": [],
      "stateMutability": "nonpayable",
      "type": "function"
    },
    {
      "inputs": [
        {
          "internalType": "bytes32",
          "name": "_batchID",
          "type": "bytes32"
        },
        {
          "internalType": "bytes32",
          "name": "_offchainHash",
          "type": "bytes32"
        }
      ],
      "name": "verifyProductHash",
      "outputs": [
        {
          "internalType": "bool",
          "name": "",
          "type": "bool"
        }
      ],
      "stateMutability": "view",
      "type": "function",
      "constant": true
    },
    {
      "inputs": [
        {
          "internalType": "bytes32",
          "name": "_batchID",
          "type": "bytes32"
        }
      ],
      "name": "getProduct",
      "outputs": [
        {
          "internalType": "bytes32",
          "name": "",
          "type": "bytes32"
        },
        {
          "internalType": "address",
          "name": "",
          "type": "address"
        }
      ],
      "stateMutability": "view",
      "type": "function",
      "constant": true
    },
    {
      "inputs": [
        {
          "internalType": "bytes32",
          "name": "_batchID",
          "type": "bytes32"
        }
      ],
      "name": "getCertificate",
      "outputs": [
        {
          "internalType": "bytes32",
          "name": "",
          "type": "bytes32"
        },
        {
          "internalType": "bytes",
          "name": "",
          "type": "bytes"
        }
      ],
      "stateMutability": "view",
      "type": "function",
      "constant": true
    },
    {
      "inputs": [
        {
          "internalType": "bytes32",
          "name": "_batchID",
          "type": "bytes32"
        }
      ],
      "name": "verifyCertificate",
      "outputs": [
        {
          "internalType": "bool",
          "name": "",
          "type": "bool"
        }
      ],
      "stateMutability": "view",
      "type": "function",
      "constant": true
    }
  ],
  "bytecode": "0x60806040523480156200001157600080fd5b50604051620016d6380380620016d683398181016040528101906200003791906200012b565b81600160006101000a81548173ffffffffffffffffffffffffffffffffffffffff021916908373ffffffffffffffffffffffffffffffffffffffff16021790555080600060016101000a81548173ffffffffffffffffffffffffffffffffffffffff021916908373ffffffffffffffffffffffffffffffffffffffff160217905550505062000172565b600080fd5b600073ffffffffffffffffffffffffffffffffffffffff82169050919050565b6000620000f382620000c6565b9050919050565b6200010581620000e6565b81146200011157600080fd5b50565b6000815190506200012581620000fa565b92915050565b60008060408385031215620001455762000144620000c1565b5b6000620001558582860162000114565b9250506020620001688582860162000114565b9150509250929050565b61155480620001826000396000f3fe608060405234801561001057600080fd5b506004361061007d5760003560e01c80638ca082e61161005b5780638ca082e6146100ff5780638f8d16fd1461011b578063a921387414610137578063f333fe08146101675761007d565b80633a20e9df146100825780635a5ef626146100b3578063850c1768146100cf575b600080fd5b61009c60048036038101906100979190610a69565b610198565b6040516100aa929190610ae6565b60405180910390f35b6100cd60048036038101906100c89190610c55565b6101f2565b005b6100e960048036038101906100e49190610a69565b6103b6565b6040516100f69190610cdf565b60405180910390f35b61011960048036038101906101149190610a69565b6104b0565b005b61013560048036038101906101309190610d26565b61060a565b005b610151600480360381019061014c9190610d79565b6107a9565b60405161015e9190610cdf565b60405180910390f35b610181600480360381019061017c9190610a69565b6107dc565b60405161018f929190610e41565b60405180910390f35b60008060026000848152602001908152602001600020600001546002600085815260200190815260200160002060030160009054906101000a900473ffffffffffffffffffffffffffffffffffffffff1691509150915091565b6002600084815260200190815260200160002060040160009054906101000a900473ffffffffffffffffffffffffffffffffffffffff168073ffffffffffffffffffffffffffffffffffffffff163373ffffffffffffffffffffffffffffffffffffffff1614610297576040517f08c379a000000000000000000000000000000000000000000000000000000000815260040161028e90610ef4565b60405180910390fd5b6002600085815260200190815260200160002060040160009054906101000a900473ffffffffffffffffffffffffffffffffffffffff1673ffffffffffffffffffffffffffffffffffffffff166002600086815260200190815260200160002060030160009054906101000a900473ffffffffffffffffffffffffffffffffffffffff1673ffffffffffffffffffffffffffffffffffffffff1614610371576040517f08c379a000000000000000000000000000000000000000000000000000000000815260040161036890610f60565b60405180910390fd5b826002600086815260200190815260200160002060010181905550816002600086815260200190815260200160002060020190816103af9190611196565b5050505050565b6000806002600084815260200190815260200160002060010154905060006002600085815260200190815260200160002060020180546103f590610faf565b80601f016020809104026020016040519081016040528092919081815260200182805461042190610faf565b801561046e5780601f106104435761010080835404028352916020019161046e565b820191906000526020600020905b81548152906001019060200180831161045157829003601f168201915b50505050509050600061048183836108a2565b90506001151561049082610975565b1515036104a357600193505050506104ab565b600093505050505b919050565b6000816040516020016104c39190611289565b604051602081830303815290604052805190602001209050816002600083815260200190815260200160002060000181905550336002600083815260200190815260200160002060030160006101000a81548173ffffffffffffffffffffffffffffffffffffffff021916908373ffffffffffffffffffffffffffffffffffffffff160217905550336002600083815260200190815260200160002060040160006101000a81548173ffffffffffffffffffffffffffffffffffffffff021916908373ffffffffffffffffffffffffffffffffffffffff16021790555060016002600083815260200190815260200160002060060160006101000a81548160ff0219169083151502179055507feb12ab352ec0628425cb2d83290a1d034ed2d60ba8d5caf7462e7526ce18d38e816040516105fe91906112a4565b60405180910390a15050565b6002600084815260200190815260200160002060030160009054906101000a900473ffffffffffffffffffffffffffffffffffffffff168073ffffffffffffffffffffffffffffffffffffffff163373ffffffffffffffffffffffffffffffffffffffff16146106af576040517f08c379a00000000000000000000000000000000000000000000000000000000081526004016106a690610ef4565b60405180910390fd5b600115156106bc856103b6565b1515146106fe576040517f08c379a00000000000000000000000000000000000000000000000000000000081526004016106f590611331565b60405180910390fd5b6001151561070c85846107a9565b15151461074e576040517f08c379a0000000000000000000000000000000000000000000000000000000008152600401610745906113c3565b60405180910390fd5b826002600086815260200190815260200160002060030160006101000a81548173ffffffffffffffffffffffffffffffffffffffff021916908373ffffffffffffffffffffffffffffffffffffffff16021790555050505050565b6000816002600085815260200190815260200160002060000154036107d157600190506107d6565b600090505b92915050565b6000606060026000848152602001908152602001600020600101546002600085815260200190815260200160002060020180805461081990610faf565b80601f016020809104026020016040519081016040528092919081815260200182805461084590610faf565b80156108925780601f1061086757610100808354040283529160200191610892565b820191906000526020600020905b81548152906001019060200180831161087557829003601f168201915b5050505050905091509150915091565b60008060008060418551146108bd576000935050505061096f565b6020850151925060408501519150606085015160001a9050601b8160ff1610156108f157601b816108ee919061141f565b90505b601b8160ff16141580156109095750601c8160ff1614155b1561091a576000935050505061096f565b6001868285856040516000815260200160405260405161093d9493929190611465565b6020604051602081039080840390855afa15801561095f573d6000803e3d6000fd5b5050506020604051035193505050505b92915050565b600080600160009054906101000a900473ffffffffffffffffffffffffffffffffffffffff1690508073ffffffffffffffffffffffffffffffffffffffff16636af92956846040518263ffffffff1660e01b81526004016109d691906114aa565b602060405180830381865afa1580156109f3573d6000803e3d6000fd5b505050506040513d601f19601f82011682018060405250810190610a1791906114f1565b915050919050565b6000604051905090565b600080fd5b600080fd5b6000819050919050565b610a4681610a33565b8114610a5157600080fd5b50565b600081359050610a6381610a3d565b92915050565b600060208284031215610a7f57610a7e610a29565b5b6000610a8d84828501610a54565b91505092915050565b610a9f81610a33565b82525050565b600073ffffffffffffffffffffffffffffffffffffffff82169050919050565b6000610ad082610aa5565b9050919050565b610ae081610ac5565b82525050565b6000604082019050610afb6000830185610a96565b610b086020830184610ad7565b9392505050565b600080fd5b600080fd5b6000601f19601f8301169050919050565b7f4e487b7100000000000000000000000000000000000000000000000000000000600052604160045260246000fd5b610b6282610b19565b810181811067ffffffffffffffff82111715610b8157610b80610b2a565b5b80604052505050565b6000610b94610a1f565b9050610ba08282610b59565b919050565b600067ffffffffffffffff821115610bc057610bbf610b2a565b5b610bc982610b19565b9050602081019050919050565b82818337600083830152505050565b6000610bf8610bf384610ba5565b610b8a565b905082815260208101848484011115610c1457610c13610b14565b5b610c1f848285610bd6565b509392505050565b600082601f830112610c3c57610c3b610b0f565b5b8135610c4c848260208601610be5565b91505092915050565b600080600060608486031215610c6e57610c6d610a29565b5b6000610c7c86828701610a54565b9350506020610c8d86828701610a54565b925050604084013567ffffffffffffffff811115610cae57610cad610a2e565b5b610cba86828701610c27565b9150509250925092565b60008115159050919050565b610cd981610cc4565b82525050565b6000602082019050610cf46000830184610cd0565b92915050565b610d0381610ac5565b8114610d0e57600080fd5b50565b600081359050610d2081610cfa565b92915050565b600080600060608486031215610d3f57610d3e610a29565b5b6000610d4d86828701610a54565b9350506020610d5e86828701610d11565b9250506040610d6f86828701610a54565b9150509250925092565b60008060408385031215610d9057610d8f610a29565b5b6000610d9e85828601610a54565b9250506020610daf85828601610a54565b9150509250929050565b600081519050919050565b600082825260208201905092915050565b60005b83811015610df3578082015181840152602081019050610dd8565b83811115610e02576000848401525b50505050565b6000610e1382610db9565b610e1d8185610dc4565b9350610e2d818560208601610dd5565b610e3681610b19565b840191505092915050565b6000604082019050610e566000830185610a96565b8181036020830152610e688184610e08565b90509392505050565b600082825260208201905092915050565b7f4f6e6c7920617574686f726973656420616464726573732063616e2063616c6c60008201527f20746869732066756e6374696f6e000000000000000000000000000000000000602082015250565b6000610ede602e83610e71565b9150610ee982610e82565b604082019050919050565b60006020820190508181036000830152610f0d81610ed1565b9050919050565b7f70726f6475636572206973207468652063757272656e74206f776e6572000000600082015250565b6000610f4a601d83610e71565b9150610f5582610f14565b602082019050919050565b60006020820190508181036000830152610f7981610f3d565b9050919050565b7f4e487b7100000000000000000000000000000000000000000000000000000000600052602260045260246000fd5b60006002820490506001821680610fc757607f821691505b602082108103610fda57610fd9610f80565b5b50919050565b60008190508160005260206000209050919050565b60006020601f8301049050919050565b600082821b905092915050565b6000600883026110427fffffffffffffffffffffffffffffffffffffffffffffffffffffffffffffffff82611005565b61104c8683611005565b95508019841693508086168417925050509392505050565b6000819050919050565b6000819050919050565b600061109361108e61108984611064565b61106e565b611064565b9050919050565b6000819050919050565b6110ad83611078565b6110c16110b98261109a565b848454611012565b825550505050565b600090565b6110d66110c9565b6110e18184846110a4565b505050565b5b81811015611105576110fa6000826110ce565b6001810190506110e7565b5050565b601f82111561114a5761111b81610fe0565b61112484610ff5565b81016020851015611133578190505b61114761113f85610ff5565b8301826110e6565b50505b505050565b600082821c905092915050565b600061116d6000198460080261114f565b1980831691505092915050565b6000611186838361115c565b9150826002028217905092915050565b61119f82610db9565b67ffffffffffffffff8111156111b8576111b7610b2a565b5b6111c28254610faf565b6111cd828285611109565b600060209050601f83116001811461120057600084156111ee578287015190505b6111f8858261117a565b865550611260565b601f19841661120e86610fe0565b60005b8281101561123657848901518255600182019150602085019450602081019050611211565b86831015611253578489015161124f601f89168261115c565b8355505b6001600288020188555050505b505050505050565b6000819050919050565b61128361127e82610a33565b611268565b82525050565b60006112958284611272565b60208201915081905092915050565b60006020820190506112b96000830184610a96565b92915050565b7f636572746966696361746520636f756c64206e6f74206265207665726966696560008201527f6400000000000000000000000000000000000000000000000000000000000000602082015250565b600061131b602183610e71565b9150611326826112bf565b604082019050919050565b6000602082019050818103600083015261134a8161130e565b9050919050565b7f70726f64756374206461746120636f756c64206e6f742062652076657269666960008201527f6564000000000000000000000000000000000000000000000000000000000000602082015250565b60006113ad602283610e71565b91506113b882611351565b604082019050919050565b600060208201905081810360008301526113dc816113a0565b9050919050565b600060ff82169050919050565b7f4e487b7100000000000000000000000000000000000000000000000000000000600052601160045260246000fd5b600061142a826113e3565b9150611435836113e3565b92508260ff0382111561144b5761144a6113f0565b5b828201905092915050565b61145f816113e3565b82525050565b600060808201905061147a6000830187610a96565b6114876020830186611456565b6114946040830185610a96565b6114a16060830184610a96565b95945050505050565b60006020820190506114bf6000830184610ad7565b92915050565b6114ce81610cc4565b81146114d957600080fd5b50565b6000815190506114eb816114c5565b92915050565b60006020828403121561150757611506610a29565b5b6000611515848285016114dc565b9150509291505056fea264697066735822122053fbc984d47a9fc08546b1f41b9c631f49fa9072a89b73a4bd43030de351d96964736f6c634300080f0033",
  "immutableReferences": {},
  "source": "// SPDX-License-Identifier: MIT\npragma solidity ^0.8.0;\n\nimport \"./CARegistry.sol\"; \n\ncontract Product {\n\n    bool internal locked;               // lock for payments (not sure if necessary yet)\n    address owner;                      // owner of this contract (who deployed)\n    address DOA;                        // Department of Agriculture contract address \n\n    struct Batch {                      // keeps the hash of product data and conditions \n        bytes32 productHash;            // hash of the data stored off-chain \n        bytes32 certificate;            // organic product certification \n        bytes signature;                // created with web3.eth.sign(), bytes by issuer \n        address owner;                  // current owner of the product batch \n        address producer;               // who produced the batch \n        uint256 reqTemperature;         // required temp of the product as provided in required conitions\n        bool status;                    // the status of the product, true means ok - not sure if needed\n    }\n\n    \n    mapping (bytes32 => Batch) products;    // maps each product ID to a product data   \n    mapping (bytes32 => bytes) database;    // maps batchID to IPFS storage link \n\n    constructor(address _DOA, address _owner) {\n        DOA = _DOA; \n        owner = _owner; \n    }\n\n    // restricts functions only to specific caller\n    // product owner or product producer \n    modifier onlyThis(address _address) { require(msg.sender == _address, \"Only authorised address can call this function\"); _; }\n    // lock against reentrancy \n    modifier lock() { \n        require(!locked); \n        locked = true; _; \n        locked = false;\n    }\n\n    // send generated product ID to off-chain \n    event batchIdentifier(bytes32 productID); \n\n    /* PRODUCT FUNCTIONS ------------------------------------------------------------------ */\n\n    /**\n     * @notice add product infromation to the data hash\n     *         and conditions hash generated from off-chain\n     * @dev    anyone can call function \n     * @param  _data product data hash \n    **/\n    function addProduct(bytes32 _data) public {\n        bytes32 batchID = bytes32(keccak256(abi.encodePacked(_data))); \n        products[batchID].productHash = _data; \n        products[batchID].owner = msg.sender; \n        products[batchID].producer = msg.sender;\n        products[batchID].status = true;\n        emit batchIdentifier(batchID);\n    }\n\n    /**\n     * @notice producer adds a certificate obtained from the \n     *         CA from off-chain \n     * @dev    only the producer of the product can call \n     * @param  _batchID unique identifier of the batch \n     * @param  _certificate certificate certifying product batch\n     * @param  _signature signature of the certificate issuer \n    **/\n    function updateCertificate(bytes32 _batchID, bytes32 _certificate, bytes memory _signature) public onlyThis(products[_batchID].producer) {\n        require(products[_batchID].owner == products[_batchID].producer, \"producer is the current owner\"); \n        products[_batchID].certificate = _certificate; \n        products[_batchID].signature = _signature; \n    }\n\n    /**\n     * @notice transfer the ownership of the product batch, supported by \n     *         certificate verification and check of the product hash\n     *         that is stored on-chain and freshly computed one \n     * @dev    only the current owner of the product can call \n     * @param  _batchID unique identifier of the batch \n     * @param  _newOwner certificate certifying product batch\n     * @param  _newHash newly computed hash of the off-chain data\n    **/\n    function updateOwner(bytes32 _batchID, address _newOwner, bytes32 _newHash) public onlyThis(products[_batchID].owner) {\n        require(verifyCertificate(_batchID) == true, \"certificate could not be verified\"); \n        require(verifyProductHash(_batchID, _newHash) == true, \"product data could not be verified\");\n        products[_batchID].owner = _newOwner; \n    }\n\n    /* VERIFICATION FUNCTIONS ----------------------------------------------------------------- */\n\n    // allow anyone to verify data in the off chain data store about product\n    /**\n     * @notice allows to verify data in the off-chain data store about product\n     * @dev    anyone can call \n     * @param  _batchID unique identifier of the batch \n     * @param  _offchainHash certificate certifying product batch\n     * @return bool if the hash stored on-chain is the same as newly computed hash,\n     *         then product infromation is correct and has not been modified \n    **/\n    function verifyProductHash(bytes32 _batchID, bytes32 _offchainHash) public view returns (bool) {\n        if (products[_batchID].productHash == _offchainHash) { return true;}\n        return false;\n    }\n\n    /* GETTER FUNCTIONS ----------------------------------------------------------------------- */\n\n    /**\n     * @notice get the product hash and owner by its unique ID\n     * @dev    anyone can call function \n     * @param  _batchID unique batch ID to get the product \n     * @return bytes32 product hash stored on-chain \n     * @return address of the current owner of the batch \n    **/\n    function getProduct(bytes32 _batchID) public view returns(bytes32, address) {\n        return (products[_batchID].productHash, products[_batchID].owner);\n    }\n\n    /**\n     * @notice get the product certificate and signer signature\n     * @dev    anyone can call function \n     * @param  _batchID unique batch ID to get the product \n     * @return bytes32 batch certificate on-chain\n     * @return bytes array of the issuer signature\n    **/\n    function getCertificate(bytes32 _batchID) public view returns(bytes32, bytes memory) {\n        return (products[_batchID].certificate, products[_batchID].signature); \n    }\n\n    /* TEMPERATURE FUNCTIONS ------------------------------------------------------------------ */\n\n    // requires oracle \n    // have restricted to private so anyone cannot call this \n    // is there a way to resctrict this to the oracle?\n    function compareTemperature(bytes32 _batchID, uint256 _temperature) private returns (bool) {\n        if (_temperature != products[_batchID].reqTemperature) {\n            products[_batchID].status = false;\n            return false;\n        }\n        return true;\n    }\n\n    /* CERTIFICATE FUNCTIONS ------------------------------------------------------------------ */\n\n    /**\n     * @notice based the product certificate and issuer signature\n     *         recovers the address of CA who signed the certificate\n     *         and verifies whether it is registered with DOA \n     * @dev    anyone can call function \n     * @param  _batchID unique batch ID to get the product \n     * @return bool if the issuer is registered with DOA, then \n     *         certificate is valid, otherwise returns false \n    **/\n    function verifyCertificate(bytes32 _batchID) public view returns(bool) {\n        bytes32 certificate = products[_batchID].certificate; \n        bytes memory signature = products[_batchID].signature; \n        // recovered issuer from the certificate and his signature \n        address issuer = recoverIssuer(certificate, signature); \n        if (verifyIssuer(issuer) == true) { return true; }\n        return false; \n    }\n\n    /**\n     * @notice verify that the certifying authority is ligitimate\n     *         and has been registrered with DOA registry contract,\n     *         and thus eligible to issue organic certificates\n     * @dev    other functions from this contract can call\n     * @param  _issuer unique batch ID to get the product \n     * @return bool true if the issuer registered with DOA,\n     *         otherwise false\n    **/\n    function verifyIssuer(address _issuer) internal view returns(bool) {\n        AuthorityRegistry registry = AuthorityRegistry(DOA);  \n        return registry.checkPublicKey(_issuer);\n    }\n\n    /**\n     * @notice functions recovers the signer of the certificate from the provided certificate \n               (message signed by authority) and signature \n     * @dev    called internally from placeBid function  \n     * @param  _hash the batch certificate signed by CA \n     * @param  _sig CA's bytes signature generated using web3.eth.sign()\n     * @return issuer address (authority who issued/signed the organic certificate to the product batch)\n    **/\n    // copyright: https://github.com/protofire/zeppelin-solidity/blob/master/contracts/ECRecovery.sol\n    function recoverIssuer(bytes32 _hash, bytes memory _sig) internal pure returns(address) {\n        bytes32 r; bytes32 s; uint8 v;\n        //Check the signature length\n        if (_sig.length != 65) { return (address(0)); }\n        assembly {\n            r := mload(add(_sig, 32))\n            s := mload(add(_sig, 64))\n            v := byte(0, mload(add(_sig, 96)))\n        }\n        if (v < 27) { v += 27; }\n\n        // If the version is correct return the signer address\n        if (v != 27 && v != 28) { return (address(0)); } \n        else { return ecrecover(_hash, v, r, s); }\n    }\n\n}",
  "sourcePath": "/Users/dariaschumm/Library/Mobile Documents/com~apple~CloudDocs/6452/project_2/contracts/Product.sol",
  "compiler": {
    "name": "solc",
    "version": "0.8.15+commit.e14f2714.Emscripten.clang"
  },
  "schemaVersion": "3.4.8",
  "updatedAt": "2022-07-20T10:23:54.300Z",
  "networkType": "ethereum",
  "devdoc": {
    "kind": "dev",
    "methods": {
      "addProduct(bytes32)": {
        "details": "anyone can call function ",
        "params": {
          "_data": "product data hash *"
        }
      },
      "getCertificate(bytes32)": {
        "details": "anyone can call function ",
        "params": {
          "_batchID": "unique batch ID to get the product "
        },
        "returns": {
          "_0": "bytes32 batch certificate on-chain",
          "_1": "bytes array of the issuer signature*"
        }
      },
      "getProduct(bytes32)": {
        "details": "anyone can call function ",
        "params": {
          "_batchID": "unique batch ID to get the product "
        },
        "returns": {
          "_0": "bytes32 product hash stored on-chain ",
          "_1": "address of the current owner of the batch *"
        }
      },
      "updateCertificate(bytes32,bytes32,bytes)": {
        "details": "only the producer of the product can call ",
        "params": {
          "_batchID": "unique identifier of the batch ",
          "_certificate": "certificate certifying product batch",
          "_signature": "signature of the certificate issuer *"
        }
      },
      "updateOwner(bytes32,address,bytes32)": {
        "details": "only the current owner of the product can call ",
        "params": {
          "_batchID": "unique identifier of the batch ",
          "_newHash": "newly computed hash of the off-chain data*",
          "_newOwner": "certificate certifying product batch"
        }
      },
      "verifyCertificate(bytes32)": {
        "details": "anyone can call function ",
        "params": {
          "_batchID": "unique batch ID to get the product "
        },
        "returns": {
          "_0": "bool if the issuer is registered with DOA, then          certificate is valid, otherwise returns false *"
        }
      },
      "verifyProductHash(bytes32,bytes32)": {
        "details": "anyone can call ",
        "params": {
          "_batchID": "unique identifier of the batch ",
          "_offchainHash": "certificate certifying product batch"
        },
        "returns": {
          "_0": "bool if the hash stored on-chain is the same as newly computed hash,         then product infromation is correct and has not been modified *"
        }
      }
    },
    "version": 1
  },
  "userdoc": {
    "kind": "user",
    "methods": {
      "addProduct(bytes32)": {
        "notice": "add product infromation to the data hash         and conditions hash generated from off-chain"
      },
      "getCertificate(bytes32)": {
        "notice": "get the product certificate and signer signature"
      },
      "getProduct(bytes32)": {
        "notice": "get the product hash and owner by its unique ID"
      },
      "updateCertificate(bytes32,bytes32,bytes)": {
        "notice": "producer adds a certificate obtained from the          CA from off-chain "
      },
      "updateOwner(bytes32,address,bytes32)": {
        "notice": "transfer the ownership of the product batch, supported by          certificate verification and check of the product hash         that is stored on-chain and freshly computed one "
      },
      "verifyCertificate(bytes32)": {
        "notice": "based the product certificate and issuer signature         recovers the address of CA who signed the certificate         and verifies whether it is registered with DOA "
      },
      "verifyProductHash(bytes32,bytes32)": {
        "notice": "allows to verify data in the off-chain data store about product"
      }
    },
    "version": 1
  }
}