{
  "contractName": "Product",
  "abi": [
    {
      "inputs": [
        {
          "internalType": "address",
          "name": "oracleAddress",
          "type": "address"
        },
        {
          "internalType": "address",
          "name": "_DOA",
          "type": "address"
        },
        {
          "internalType": "address payable",
          "name": "_owner",
          "type": "address"
        }
      ],
      "stateMutability": "nonpayable",
      "type": "constructor"
    },
    {
      "anonymous": false,
      "inputs": [
        {
          "indexed": false,
          "internalType": "bytes32",
          "name": "productID",
          "type": "bytes32"
        }
      ],
      "name": "batchIdentifier",
      "type": "event"
    },
    {
      "anonymous": false,
      "inputs": [
        {
          "indexed": false,
          "internalType": "bool",
          "name": "result",
          "type": "bool"
        }
      ],
      "name": "compareTemperatureResult",
      "type": "event"
    },
    {
      "inputs": [
        {
          "internalType": "uint256",
          "name": "data",
          "type": "uint256"
        },
        {
          "internalType": "bytes32",
          "name": "batchId",
          "type": "bytes32"
        }
      ],
      "name": "receiveDataFromOracle",
      "outputs": [
        {
          "internalType": "bool",
          "name": "",
          "type": "bool"
        }
      ],
      "stateMutability": "nonpayable",
      "type": "function"
    },
    {
      "inputs": [
        {
          "internalType": "bytes32",
          "name": "_batchID",
          "type": "bytes32"
        }
      ],
      "name": "getTemperature",
      "outputs": [],
      "stateMutability": "nonpayable",
      "type": "function"
    },
    {
      "inputs": [
        {
          "internalType": "address",
          "name": "_producer",
          "type": "address"
        }
      ],
      "name": "addProducer",
      "outputs": [],
      "stateMutability": "nonpayable",
      "type": "function"
    },
    {
      "inputs": [
        {
          "internalType": "bytes32",
          "name": "_data",
          "type": "bytes32"
        },
        {
          "internalType": "uint256",
          "name": "_temperature",
          "type": "uint256"
        },
        {
          "internalType": "string",
          "name": "_CID",
          "type": "string"
        }
      ],
      "name": "addProduct",
      "outputs": [],
      "stateMutability": "nonpayable",
      "type": "function"
    },
    {
      "inputs": [
        {
          "internalType": "bytes32",
          "name": "_batchID",
          "type": "bytes32"
        },
        {
          "internalType": "bytes32",
          "name": "_certificate",
          "type": "bytes32"
        },
        {
          "internalType": "bytes",
          "name": "_signature",
          "type": "bytes"
        }
      ],
      "name": "addCertificate",
      "outputs": [],
      "stateMutability": "nonpayable",
      "type": "function"
    },
    {
      "inputs": [
        {
          "internalType": "bytes32",
          "name": "_batchID",
          "type": "bytes32"
        },
        {
          "internalType": "bytes32",
          "name": "_productHash",
          "type": "bytes32"
        },
        {
          "internalType": "address",
          "name": "_newOwner",
          "type": "address"
        }
      ],
      "name": "updateOwner",
      "outputs": [],
      "stateMutability": "nonpayable",
      "type": "function"
    },
    {
      "inputs": [
        {
          "internalType": "bytes32",
          "name": "_batchID",
          "type": "bytes32"
        },
        {
          "internalType": "bool",
          "name": "_status",
          "type": "bool"
        }
      ],
      "name": "updateStatus",
      "outputs": [],
      "stateMutability": "nonpayable",
      "type": "function"
    },
    {
      "inputs": [
        {
          "internalType": "bytes32",
          "name": "_batchID",
          "type": "bytes32"
        },
        {
          "internalType": "bytes32",
          "name": "_offchainHash",
          "type": "bytes32"
        }
      ],
      "name": "verifyProductHash",
      "outputs": [
        {
          "internalType": "bool",
          "name": "",
          "type": "bool"
        }
      ],
      "stateMutability": "view",
      "type": "function",
      "constant": true
    },
    {
      "inputs": [
        {
          "internalType": "address",
          "name": "_producer",
          "type": "address"
        }
      ],
      "name": "getProducer",
      "outputs": [
        {
          "internalType": "bool",
          "name": "",
          "type": "bool"
        }
      ],
      "stateMutability": "view",
      "type": "function",
      "constant": true
    },
    {
      "inputs": [
        {
          "internalType": "bytes32",
          "name": "_batchID",
          "type": "bytes32"
        }
      ],
      "name": "getProduct",
      "outputs": [
        {
          "internalType": "bytes32",
          "name": "",
          "type": "bytes32"
        },
        {
          "internalType": "address",
          "name": "",
          "type": "address"
        },
        {
          "internalType": "bool",
          "name": "",
          "type": "bool"
        }
      ],
      "stateMutability": "view",
      "type": "function",
      "constant": true
    },
    {
      "inputs": [
        {
          "internalType": "bytes32",
          "name": "_batchID",
          "type": "bytes32"
        }
      ],
      "name": "getCertificate",
      "outputs": [
        {
          "internalType": "bytes32",
          "name": "",
          "type": "bytes32"
        },
        {
          "internalType": "bytes",
          "name": "",
          "type": "bytes"
        }
      ],
      "stateMutability": "view",
      "type": "function",
      "constant": true
    },
    {
      "inputs": [
        {
          "internalType": "bytes32",
          "name": "_batchID",
          "type": "bytes32"
        }
      ],
      "name": "getDatabase",
      "outputs": [
        {
          "internalType": "string",
          "name": "",
          "type": "string"
        }
      ],
      "stateMutability": "view",
      "type": "function",
      "constant": true
    },
    {
      "inputs": [
        {
          "internalType": "bytes32",
          "name": "_batchID",
          "type": "bytes32"
        }
      ],
      "name": "getStatus",
      "outputs": [
        {
          "internalType": "bool",
          "name": "",
          "type": "bool"
        }
      ],
      "stateMutability": "view",
      "type": "function",
      "constant": true
    },
    {
      "inputs": [
        {
          "internalType": "bytes32",
          "name": "_batchID",
          "type": "bytes32"
        }
      ],
      "name": "verifyCertificate",
      "outputs": [
        {
          "internalType": "bool",
          "name": "",
          "type": "bool"
        }
      ],
      "stateMutability": "view",
      "type": "function",
      "constant": true
    },
    {
      "inputs": [],
      "name": "destroyContract",
      "outputs": [],
      "stateMutability": "nonpayable",
      "type": "function"
    },
    {
      "inputs": [],
      "name": "emergencyHalt",
      "outputs": [],
      "stateMutability": "nonpayable",
      "type": "function"
    },
    {
      "inputs": [],
      "name": "restartContract",
      "outputs": [],
      "stateMutability": "nonpayable",
      "type": "function"
    }
  ],
  "bytecode": "0x60806040523480156200001157600080fd5b5060405162002c2b38038062002c2b8339818101604052810190620000379190620001b3565b82806000806101000a81548173ffffffffffffffffffffffffffffffffffffffff021916908373ffffffffffffffffffffffffffffffffffffffff1602179055505081600260006101000a81548173ffffffffffffffffffffffffffffffffffffffff021916908373ffffffffffffffffffffffffffffffffffffffff16021790555080600160006101000a81548173ffffffffffffffffffffffffffffffffffffffff021916908373ffffffffffffffffffffffffffffffffffffffff1602179055505050506200020f565b600080fd5b600073ffffffffffffffffffffffffffffffffffffffff82169050919050565b6000620001368262000109565b9050919050565b620001488162000129565b81146200015457600080fd5b50565b60008151905062000168816200013d565b92915050565b60006200017b8262000109565b9050919050565b6200018d816200016e565b81146200019957600080fd5b50565b600081519050620001ad8162000182565b92915050565b600080600060608486031215620001cf57620001ce62000104565b5b6000620001df8682870162000157565b9350506020620001f28682870162000157565b925050604062000205868287016200019c565b9150509250925092565b612a0c806200021f6000396000f3fe608060405234801561001057600080fd5b506004361061010b5760003560e01c8063850c1768116100a2578063b83ce91911610071578063b83ce919146102b8578063bfc9554e146102d4578063ddf80166146102f0578063e58603a91461030c578063f333fe08146103285761010b565b8063850c17681461020c5780638ec394d11461023c578063a921387414610258578063aab147b2146102885761010b565b806351755334116100de57806351755334146101865780635950c3fb146101905780635de28ae0146101ac57806362004e63146101dc5761010b565b8063092a5cce1461011057806324c45f681461011a57806330a52d5b1461014a5780633a20e9df14610154575b600080fd5b610118610359565b005b610134600480360381019061012f91906119bc565b610424565b6040516101419190611a17565b60405180910390f35b6101526104c7565b005b61016e60048036038101906101699190611a32565b6105cb565b60405161017d93929190611aaf565b60405180910390f35b61018e6106a6565b005b6101aa60048036038101906101a59190611c2c565b6107ab565b005b6101c660048036038101906101c19190611a32565b610a30565b6040516101d39190611a17565b60405180910390f35b6101f660048036038101906101f19190611a32565b610ab4565b6040516102039190611d23565b60405180910390f35b61022660048036038101906102219190611a32565b610bb1565b6040516102339190611a17565b60405180910390f35b61025660048036038101906102519190611de6565b610d03565b005b610272600480360381019061026d9190611e55565b610f21565b60405161027f9190611a17565b60405180910390f35b6102a2600480360381019061029d9190611ec1565b610fab565b6040516102af9190611a17565b60405180910390f35b6102d260048036038101906102cd9190611eee565b611058565b005b6102ee60048036038101906102e99190611a32565b611251565b005b61030a60048036038101906103059190611ec1565b61125d565b005b61032660048036038101906103219190611f6d565b6113a0565b005b610342600480360381019061033d9190611a32565b6114d2565b604051610350929190612002565b60405180910390f35b3373ffffffffffffffffffffffffffffffffffffffff16600160009054906101000a900473ffffffffffffffffffffffffffffffffffffffff1673ffffffffffffffffffffffffffffffffffffffff16146103e9576040517f08c379a00000000000000000000000000000000000000000000000000000000081526004016103e0906120a4565b60405180910390fd5b600160009054906101000a900473ffffffffffffffffffffffffffffffffffffffff1673ffffffffffffffffffffffffffffffffffffffff16ff5b60008060009054906101000a900473ffffffffffffffffffffffffffffffffffffffff1673ffffffffffffffffffffffffffffffffffffffff163373ffffffffffffffffffffffffffffffffffffffff16146104b5576040517f08c379a00000000000000000000000000000000000000000000000000000000081526004016104ac90612136565b60405180910390fd5b6104bf82846115f0565b905092915050565b6001801515600060149054906101000a900460ff1615151461051e576040517f08c379a0000000000000000000000000000000000000000000000000000000008152600401610515906121a2565b60405180910390fd5b3373ffffffffffffffffffffffffffffffffffffffff16600160009054906101000a900473ffffffffffffffffffffffffffffffffffffffff1673ffffffffffffffffffffffffffffffffffffffff16146105ae576040517f08c379a00000000000000000000000000000000000000000000000000000000081526004016105a5906120a4565b60405180910390fd5b60008060146101000a81548160ff02191690831515021790555050565b600080600080801515600060149054906101000a900460ff16151514610626576040517f08c379a000000000000000000000000000000000000000000000000000000000815260040161061d906121a2565b60405180910390fd5b60046000868152602001908152602001600020600001546004600087815260200190815260200160002060030160009054906101000a900473ffffffffffffffffffffffffffffffffffffffff166004600088815260200190815260200160002060060160009054906101000a900460ff16935093509350509193909250565b6000801515600060149054906101000a900460ff161515146106fd576040517f08c379a00000000000000000000000000000000000000000000000000000000081526004016106f4906121a2565b60405180910390fd5b3373ffffffffffffffffffffffffffffffffffffffff16600160009054906101000a900473ffffffffffffffffffffffffffffffffffffffff1673ffffffffffffffffffffffffffffffffffffffff161461078d576040517f08c379a0000000000000000000000000000000000000000000000000000000008152600401610784906120a4565b60405180910390fd5b6001600060146101000a81548160ff02191690831515021790555050565b6000801515600060149054906101000a900460ff16151514610802576040517f08c379a00000000000000000000000000000000000000000000000000000000081526004016107f9906121a2565b60405180910390fd5b3360011515600660008373ffffffffffffffffffffffffffffffffffffffff1673ffffffffffffffffffffffffffffffffffffffff16815260200190815260200160002060009054906101000a900460ff16151514610896576040517f08c379a000000000000000000000000000000000000000000000000000000000815260040161088d90612234565b60405180910390fd5b6000856040516020016108a99190612275565b604051602081830303815290604052805190602001209050856004600083815260200190815260200160002060000181905550336004600083815260200190815260200160002060030160006101000a81548173ffffffffffffffffffffffffffffffffffffffff021916908373ffffffffffffffffffffffffffffffffffffffff160217905550336004600083815260200190815260200160002060040160006101000a81548173ffffffffffffffffffffffffffffffffffffffff021916908373ffffffffffffffffffffffffffffffffffffffff16021790555084600460008381526020019081526020016000206005018190555060016004600083815260200190815260200160002060060160006101000a81548160ff021916908315150217905550836005600083815260200190815260200160002090816109f0919061249c565b507feb12ab352ec0628425cb2d83290a1d034ed2d60ba8d5caf7462e7526ce18d38e81604051610a20919061256e565b60405180910390a1505050505050565b600080801515600060149054906101000a900460ff16151514610a88576040517f08c379a0000000000000000000000000000000000000000000000000000000008152600401610a7f906121a2565b60405180910390fd5b6004600084815260200190815260200160002060060160009054906101000a900460ff16915050919050565b60606000801515600060149054906101000a900460ff16151514610b0d576040517f08c379a0000000000000000000000000000000000000000000000000000000008152600401610b04906121a2565b60405180910390fd5b600560008481526020019081526020016000208054610b2b906122bf565b80601f0160208091040260200160405190810160405280929190818152602001828054610b57906122bf565b8015610ba45780601f10610b7957610100808354040283529160200191610ba4565b820191906000526020600020905b815481529060010190602001808311610b8757829003601f168201915b5050505050915050919050565b600080801515600060149054906101000a900460ff16151514610c09576040517f08c379a0000000000000000000000000000000000000000000000000000000008152600401610c00906121a2565b60405180910390fd5b6000600460008581526020019081526020016000206001015490506000600460008681526020019081526020016000206002018054610c47906122bf565b80601f0160208091040260200160405190810160405280929190818152602001828054610c73906122bf565b8015610cc05780601f10610c9557610100808354040283529160200191610cc0565b820191906000526020600020905b815481529060010190602001808311610ca357829003601f168201915b505050505090506000610cd38383611604565b905060011515610ce2826116d7565b151503610cf55760019450505050610cfd565b600094505050505b50919050565b6000801515600060149054906101000a900460ff16151514610d5a576040517f08c379a0000000000000000000000000000000000000000000000000000000008152600401610d51906121a2565b60405180910390fd5b33843373ffffffffffffffffffffffffffffffffffffffff166004600083815260200190815260200160002060030160009054906101000a900473ffffffffffffffffffffffffffffffffffffffff1673ffffffffffffffffffffffffffffffffffffffff1614610e00576040517f08c379a0000000000000000000000000000000000000000000000000000000008152600401610df7906125fb565b60405180910390fd5b6004600087815260200190815260200160002060030160009054906101000a900473ffffffffffffffffffffffffffffffffffffffff1673ffffffffffffffffffffffffffffffffffffffff166004600088815260200190815260200160002060040160009054906101000a900473ffffffffffffffffffffffffffffffffffffffff1673ffffffffffffffffffffffffffffffffffffffff1614610eda576040517f08c379a0000000000000000000000000000000000000000000000000000000008152600401610ed19061268d565b60405180910390fd5b84600460008881526020019081526020016000206001018190555083600460008881526020019081526020016000206002019081610f189190612708565b50505050505050565b600080801515600060149054906101000a900460ff16151514610f79576040517f08c379a0000000000000000000000000000000000000000000000000000000008152600401610f70906121a2565b60405180910390fd5b82600460008681526020019081526020016000206000015403610f9f5760019150610fa4565b600091505b5092915050565b600080801515600060149054906101000a900460ff16151514611003576040517f08c379a0000000000000000000000000000000000000000000000000000000008152600401610ffa906121a2565b60405180910390fd5b600660008473ffffffffffffffffffffffffffffffffffffffff1673ffffffffffffffffffffffffffffffffffffffff16815260200190815260200160002060009054906101000a900460ff16915050919050565b6000801515600060149054906101000a900460ff161515146110af576040517f08c379a00000000000000000000000000000000000000000000000000000000081526004016110a6906121a2565b60405180910390fd5b33843373ffffffffffffffffffffffffffffffffffffffff166004600083815260200190815260200160002060030160009054906101000a900473ffffffffffffffffffffffffffffffffffffffff1673ffffffffffffffffffffffffffffffffffffffff1614611155576040517f08c379a000000000000000000000000000000000000000000000000000000000815260040161114c906125fb565b60405180910390fd5b600115156111638787610f21565b1515146111a5576040517f08c379a000000000000000000000000000000000000000000000000000000000815260040161119c90612826565b60405180910390fd5b600115156111b287610bb1565b1515146111f4576040517f08c379a00000000000000000000000000000000000000000000000000000000081526004016111eb90612892565b60405180910390fd5b836004600088815260200190815260200160002060030160006101000a81548173ffffffffffffffffffffffffffffffffffffffff021916908373ffffffffffffffffffffffffffffffffffffffff160217905550505050505050565b61125a81611781565b50565b6000801515600060149054906101000a900460ff161515146112b4576040517f08c379a00000000000000000000000000000000000000000000000000000000081526004016112ab906121a2565b60405180910390fd5b3373ffffffffffffffffffffffffffffffffffffffff16600160009054906101000a900473ffffffffffffffffffffffffffffffffffffffff1673ffffffffffffffffffffffffffffffffffffffff1614611344576040517f08c379a000000000000000000000000000000000000000000000000000000000815260040161133b906120a4565b60405180910390fd5b6001600660008473ffffffffffffffffffffffffffffffffffffffff1673ffffffffffffffffffffffffffffffffffffffff16815260200190815260200160002060006101000a81548160ff0219169083151502179055505050565b6000801515600060149054906101000a900460ff161515146113f7576040517f08c379a00000000000000000000000000000000000000000000000000000000081526004016113ee906121a2565b60405180910390fd5b33833373ffffffffffffffffffffffffffffffffffffffff166004600083815260200190815260200160002060030160009054906101000a900473ffffffffffffffffffffffffffffffffffffffff1673ffffffffffffffffffffffffffffffffffffffff161461149d576040517f08c379a0000000000000000000000000000000000000000000000000000000008152600401611494906125fb565b60405180910390fd5b836004600087815260200190815260200160002060060160006101000a81548160ff0219169083151502179055505050505050565b600060606000801515600060149054906101000a900460ff1615151461152d576040517f08c379a0000000000000000000000000000000000000000000000000000000008152600401611524906121a2565b60405180910390fd5b600460008581526020019081526020016000206001015460046000868152602001908152602001600020600201808054611566906122bf565b80601f0160208091040260200160405190810160405280929190818152602001828054611592906122bf565b80156115df5780601f106115b4576101008083540402835291602001916115df565b820191906000526020600020905b8154815290600101906020018083116115c257829003601f168201915b505050505090509250925050915091565b60006115fc838361180f565b905092915050565b600080600080604185511461161f57600093505050506116d1565b6020850151925060408501519150606085015160001a9050601b8160ff16101561165357601b8161165091906128ee565b90505b601b8160ff161415801561166b5750601c8160ff1614155b1561167c57600093505050506116d1565b6001868285856040516000815260200160405260405161169f9493929190612934565b6020604051602081039080840390855afa1580156116c1573d6000803e3d6000fd5b5050506020604051035193505050505b92915050565b600080600260009054906101000a900473ffffffffffffffffffffffffffffffffffffffff1690508073ffffffffffffffffffffffffffffffffffffffff16636af92956846040518263ffffffff1660e01b81526004016117389190612979565b602060405180830381865afa158015611755573d6000803e3d6000fd5b505050506040513d601f19601f8201168201806040525081019061177991906129a9565b915050919050565b60008054906101000a900473ffffffffffffffffffffffffffffffffffffffff1673ffffffffffffffffffffffffffffffffffffffff16633661346b826040518263ffffffff1660e01b81526004016117da919061256e565b600060405180830381600087803b1580156117f457600080fd5b505af1158015611808573d6000803e3d6000fd5b5050505050565b600080801515600060149054906101000a900460ff16151514611867576040517f08c379a000000000000000000000000000000000000000000000000000000000815260040161185e906121a2565b60405180910390fd5b60046000858152602001908152602001600020600501548311156118b55760006004600086815260200190815260200160002060060160006101000a81548160ff0219169083151502179055505b7f8fadd6f505628cd2c13e5786c730c9d6e57eb96632e17ff196ad26f99cec61526004600086815260200190815260200160002060060160009054906101000a900460ff166040516119079190611a17565b60405180910390a16004600085815260200190815260200160002060060160009054906101000a900460ff1691505092915050565b6000604051905090565b600080fd5b600080fd5b6000819050919050565b61196381611950565b811461196e57600080fd5b50565b6000813590506119808161195a565b92915050565b6000819050919050565b61199981611986565b81146119a457600080fd5b50565b6000813590506119b681611990565b92915050565b600080604083850312156119d3576119d2611946565b5b60006119e185828601611971565b92505060206119f2858286016119a7565b9150509250929050565b60008115159050919050565b611a11816119fc565b82525050565b6000602082019050611a2c6000830184611a08565b92915050565b600060208284031215611a4857611a47611946565b5b6000611a56848285016119a7565b91505092915050565b611a6881611986565b82525050565b600073ffffffffffffffffffffffffffffffffffffffff82169050919050565b6000611a9982611a6e565b9050919050565b611aa981611a8e565b82525050565b6000606082019050611ac46000830186611a5f565b611ad16020830185611aa0565b611ade6040830184611a08565b949350505050565b600080fd5b600080fd5b6000601f19601f8301169050919050565b7f4e487b7100000000000000000000000000000000000000000000000000000000600052604160045260246000fd5b611b3982611af0565b810181811067ffffffffffffffff82111715611b5857611b57611b01565b5b80604052505050565b6000611b6b61193c565b9050611b778282611b30565b919050565b600067ffffffffffffffff821115611b9757611b96611b01565b5b611ba082611af0565b9050602081019050919050565b82818337600083830152505050565b6000611bcf611bca84611b7c565b611b61565b905082815260208101848484011115611beb57611bea611aeb565b5b611bf6848285611bad565b509392505050565b600082601f830112611c1357611c12611ae6565b5b8135611c23848260208601611bbc565b91505092915050565b600080600060608486031215611c4557611c44611946565b5b6000611c53868287016119a7565b9350506020611c6486828701611971565b925050604084013567ffffffffffffffff811115611c8557611c8461194b565b5b611c9186828701611bfe565b9150509250925092565b600081519050919050565b600082825260208201905092915050565b60005b83811015611cd5578082015181840152602081019050611cba565b83811115611ce4576000848401525b50505050565b6000611cf582611c9b565b611cff8185611ca6565b9350611d0f818560208601611cb7565b611d1881611af0565b840191505092915050565b60006020820190508181036000830152611d3d8184611cea565b905092915050565b600067ffffffffffffffff821115611d6057611d5f611b01565b5b611d6982611af0565b9050602081019050919050565b6000611d89611d8484611d45565b611b61565b905082815260208101848484011115611da557611da4611aeb565b5b611db0848285611bad565b509392505050565b600082601f830112611dcd57611dcc611ae6565b5b8135611ddd848260208601611d76565b91505092915050565b600080600060608486031215611dff57611dfe611946565b5b6000611e0d868287016119a7565b9350506020611e1e868287016119a7565b925050604084013567ffffffffffffffff811115611e3f57611e3e61194b565b5b611e4b86828701611db8565b9150509250925092565b60008060408385031215611e6c57611e6b611946565b5b6000611e7a858286016119a7565b9250506020611e8b858286016119a7565b9150509250929050565b611e9e81611a8e565b8114611ea957600080fd5b50565b600081359050611ebb81611e95565b92915050565b600060208284031215611ed757611ed6611946565b5b6000611ee584828501611eac565b91505092915050565b600080600060608486031215611f0757611f06611946565b5b6000611f15868287016119a7565b9350506020611f26868287016119a7565b9250506040611f3786828701611eac565b9150509250925092565b611f4a816119fc565b8114611f5557600080fd5b50565b600081359050611f6781611f41565b92915050565b60008060408385031215611f8457611f83611946565b5b6000611f92858286016119a7565b9250506020611fa385828601611f58565b9150509250929050565b600081519050919050565b600082825260208201905092915050565b6000611fd482611fad565b611fde8185611fb8565b9350611fee818560208601611cb7565b611ff781611af0565b840191505092915050565b60006040820190506120176000830185611a5f565b81810360208301526120298184611fc9565b90509392505050565b7f6f6e6c7920636f6e7472616374206f776e65722063616e2063616c6c2074686960008201527f732066756e6374696f6e00000000000000000000000000000000000000000000602082015250565b600061208e602a83611ca6565b915061209982612032565b604082019050919050565b600060208201905081810360008301526120bd81612081565b9050919050565b7f64617461206d75737420636f6d652066726f6d20746865206f7261636c65206360008201527f6f6e747261637400000000000000000000000000000000000000000000000000602082015250565b6000612120602783611ca6565b915061212b826120c4565b604082019050919050565b6000602082019050818103600083015261214f81612113565b9050919050565b7f636f6e74726163742068616c7400000000000000000000000000000000000000600082015250565b600061218c600d83611ca6565b915061219782612156565b602082019050919050565b600060208201905081810360008301526121bb8161217f565b9050919050565b7f6f6e6c7920617574686f72697365642070726f64756365722063616e2063616c60008201527f6c20746869732066756e6374696f6e0000000000000000000000000000000000602082015250565b600061221e602f83611ca6565b9150612229826121c2565b604082019050919050565b6000602082019050818103600083015261224d81612211565b9050919050565b6000819050919050565b61226f61226a82611986565b612254565b82525050565b6000612281828461225e565b60208201915081905092915050565b7f4e487b7100000000000000000000000000000000000000000000000000000000600052602260045260246000fd5b600060028204905060018216806122d757607f821691505b6020821081036122ea576122e9612290565b5b50919050565b60008190508160005260206000209050919050565b60006020601f8301049050919050565b600082821b905092915050565b6000600883026123527fffffffffffffffffffffffffffffffffffffffffffffffffffffffffffffffff82612315565b61235c8683612315565b95508019841693508086168417925050509392505050565b6000819050919050565b600061239961239461238f84611950565b612374565b611950565b9050919050565b6000819050919050565b6123b38361237e565b6123c76123bf826123a0565b848454612322565b825550505050565b600090565b6123dc6123cf565b6123e78184846123aa565b505050565b5b8181101561240b576124006000826123d4565b6001810190506123ed565b5050565b601f82111561245057612421816122f0565b61242a84612305565b81016020851015612439578190505b61244d61244585612305565b8301826123ec565b50505b505050565b600082821c905092915050565b600061247360001984600802612455565b1980831691505092915050565b600061248c8383612462565b9150826002028217905092915050565b6124a582611c9b565b67ffffffffffffffff8111156124be576124bd611b01565b5b6124c882546122bf565b6124d382828561240f565b600060209050601f83116001811461250657600084156124f4578287015190505b6124fe8582612480565b865550612566565b601f198416612514866122f0565b60005b8281101561253c57848901518255600182019150602085019450602081019050612517565b868310156125595784890151612555601f891682612462565b8355505b6001600288020188555050505b505050505050565b60006020820190506125836000830184611a5f565b92915050565b7f6f6e6c79206f776e65722063616e2063616c6c20746869732066756e6374696f60008201527f6e00000000000000000000000000000000000000000000000000000000000000602082015250565b60006125e5602183611ca6565b91506125f082612589565b604082019050919050565b60006020820190508181036000830152612614816125d8565b9050919050565b7f70726f6475636572206f6620746865206261746368206973206e6f742074686560008201527f206f776e65720000000000000000000000000000000000000000000000000000602082015250565b6000612677602683611ca6565b91506126828261261b565b604082019050919050565b600060208201905081810360008301526126a68161266a565b9050919050565b60008190508160005260206000209050919050565b601f821115612703576126d4816126ad565b6126dd84612305565b810160208510156126ec578190505b6127006126f885612305565b8301826123ec565b50505b505050565b61271182611fad565b67ffffffffffffffff81111561272a57612729611b01565b5b61273482546122bf565b61273f8282856126c2565b600060209050601f8311600181146127725760008415612760578287015190505b61276a8582612480565b8655506127d2565b601f198416612780866126ad565b60005b828110156127a857848901518255600182019150602085019450602081019050612783565b868310156127c557848901516127c1601f891682612462565b8355505b6001600288020188555050505b505050505050565b7f70726f64756374206861736820766572696669636174696f6e206661696c6564600082015250565b6000612810602083611ca6565b915061281b826127da565b602082019050919050565b6000602082019050818103600083015261283f81612803565b9050919050565b7f636572746966696361746520766572696669636174696f6e206661696c656400600082015250565b600061287c601f83611ca6565b915061288782612846565b602082019050919050565b600060208201905081810360008301526128ab8161286f565b9050919050565b600060ff82169050919050565b7f4e487b7100000000000000000000000000000000000000000000000000000000600052601160045260246000fd5b60006128f9826128b2565b9150612904836128b2565b92508260ff0382111561291a576129196128bf565b5b828201905092915050565b61292e816128b2565b82525050565b60006080820190506129496000830187611a5f565b6129566020830186612925565b6129636040830185611a5f565b6129706060830184611a5f565b95945050505050565b600060208201905061298e6000830184611aa0565b92915050565b6000815190506129a381611f41565b92915050565b6000602082840312156129bf576129be611946565b5b60006129cd84828501612994565b9150509291505056fea26469706673582212203a068f7313d134d9205574326f8110fff5288e48274c0ca6297eb34d94e6030364736f6c634300080f0033",
  "immutableReferences": {},
  "source": "// SPDX-License-Identifier: MIT\npragma solidity ^0.8.0;\n\nimport \"./CARegistry.sol\"; \nimport \"./OracleClient.sol\";\n\ncontract Product is TemperatureOracleClient {\n\n    bool internal halted;\n    bool internal locked;               // lock for payments (not sure if necessary yet)\n    address payable owner;              // owner of this contract (who deployed)\n    address DOA;                        // Department of Agriculture contract address \n    uint256 recvdTemp;\n\n    struct Batch {                      // keeps the hash of product data and conditions \n        bytes32 productHash;            // hash of the data stored off-chain \n        bytes32 certificate;            // organic product certification \n        bytes signature;                // created with web3.eth.sign(), bytes by issuer \n        address owner;                  // current owner of the product batch \n        address producer;               // who produced the batch \n        uint256 temperature;            // required temp of the product as provided in required conitions\n        bool status;                    // the status of the product, true means ok - not sure if needed\n    }\n    \n    mapping (bytes32 => Batch) products;    // maps each product ID to a product data   \n    mapping (bytes32 => string) database;   // maps batchID to IPFS storage link \n    mapping (address => bool) producers;    // eligible producers to add products \n\n    constructor(address oracleAddress, address _DOA, address payable _owner) TemperatureOracleClient(oracleAddress) {\n        DOA = _DOA; \n        owner = _owner; \n    }\n\n    // check if the contract temporarily disabled \n    modifier halt(bool _state) { require (halted == _state, \"contract halt\"); _; }\n    // check if the caller the current owner of the batch\n    modifier onlyOwner(address _address, bytes32 _batchID) { require(products[_batchID].owner == msg.sender, \"only owner can call this function\"); _; }\n    // check if the producer authorised to add products\n    modifier onlyProducer(address _address) { require(producers[_address] == true, \"only authorised producer can call this function\"); _; }\n    // check if the caller is the contract owner \n    modifier onlyDeployer() { require(owner == msg.sender, \"only contract owner can call this function\"); _; }\n    // // lock against reentrancy \n    // modifier lock() { \n    //     require(!locked); \n    //     locked = true; _; \n    //     locked = false;\n    // }\n\n    // send generated product ID to off-chain \n    event batchIdentifier(bytes32 productID); \n    event compareTemperatureResult(bool result);\n\n    /* ORACLE FUNCTIONS -------------------------------------------------------------------- */\n\n    // function to request the temperature from the oracle for a \n    // given batchId\n    // send a request to the oracle for the temperature\n    function getTemperature(bytes32 _batchID) public {\n        requestTemperatureFromOracle(_batchID);\n    }\n\n    // receive the reply from the oracle\n    function receiveTemperatureFromOracle(bytes32 _batchID, uint256 _recvdTemp) internal override returns(bool) {\n        // this will check received temp against required temp in products \n        return compareTemperature(_batchID, _recvdTemp);\n    }\n\n    /* PRODUCT FUNCTIONS ------------------------------------------------------------------ */\n\n    /**\n     * @notice contract deployer adds authorised producer\n     *         to the mapping, which gives permissions to \n     *         add products and certificate \n     * @dev    only contract owner can call \n     * @param  _producer batch producer address \n    **/\n    function addProducer(address _producer) public halt(false) onlyDeployer() {\n        producers[_producer] = true; \n    }\n\n    /**\n     * @notice add product infromation to the data hash\n     *         and conditions hash generated from off-chain\n     * @dev    only registered producer can call \n     * @param  _data product data hash \n     * @param  _temperature stores required temperature\n     * @param  _CID unique identifier of the off-chain storage\n    **/\n    function addProduct(bytes32 _data, uint256 _temperature, string memory _CID) public halt(false) onlyProducer(msg.sender) {\n        bytes32 batchID = bytes32(keccak256(abi.encodePacked(_data))); \n        products[batchID].productHash = _data; \n        products[batchID].owner = msg.sender; \n        products[batchID].producer = msg.sender;\n        products[batchID].temperature = _temperature; \n        products[batchID].status = true;\n        database[batchID] = _CID; \n        emit batchIdentifier(batchID);\n    }\n\n    /**\n     * @notice producer adds a certificate obtained from the \n     *         CA from off-chain, the producer has to be the \n     *         current batch owner to add certificate \n     * @dev    only the producer of the product can call \n     * @param  _batchID unique identifier of the batch \n     * @param  _certificate certificate certifying product batch\n     * @param  _signature signature of the certificate issuer \n    **/\n    function addCertificate(bytes32 _batchID, bytes32 _certificate, bytes memory _signature) public halt(false) onlyOwner(msg.sender, _batchID) {\n        require(products[_batchID].producer == products[_batchID].owner, \"producer of the batch is not the owner\"); \n        products[_batchID].certificate = _certificate; \n        products[_batchID].signature = _signature; \n    }\n\n    /**\n     * @notice transfer the ownership of the product batch, supported by \n     *         certificate verification and check of the product hash\n     *         that is stored on-chain and freshly computed one\n     * @dev    only the current owner of the product can call \n     * @param  _batchID unique identifier of the batch \n     * @param  _productHash hash of the product to verify\n     * @param  _newOwner address of a new batch owner \n    **/\n    function updateOwner(bytes32 _batchID, bytes32 _productHash, address _newOwner) public halt(false) onlyOwner(msg.sender, _batchID) {\n        require(verifyProductHash(_batchID, _productHash) == true, \"product hash verification failed\"); \n        require(verifyCertificate(_batchID) == true, \"certificate verification failed\");\n        products[_batchID].owner = _newOwner; \n    }\n\n    /**\n     * @notice lets a product owner to update product status \n     *         based on physical off-chain investigation\n     * @dev    only batch current owner can call \n     * @param  _batchID unique identifier of the batch \n     * @param  _status new status of the batch \n    **/\n    function updateStatus(bytes32 _batchID, bool _status) public halt(false) onlyOwner(msg.sender, _batchID) {\n        products[_batchID].status = _status; \n    }\n\n    /* VERIFICATION FUNCTIONS ----------------------------------------------------------------- */\n\n    /**\n     * @notice allows to verify data in the off-chain data store about product\n     * @dev    anyone can call \n     * @param  _batchID unique identifier of the batch \n     * @param  _offchainHash certificate certifying product batch\n     * @return bool if the hash stored on-chain is the same as newly computed hash,\n     *         then product infromation is correct and has not been modified \n    **/\n    function verifyProductHash(bytes32 _batchID, bytes32 _offchainHash) public halt(false) view returns(bool) {\n        if (products[_batchID].productHash == _offchainHash) { return true;}\n        return false;\n    }\n\n    /* GETTER FUNCTIONS ----------------------------------------------------------------------- */\n\n    /**\n     * @notice checks whether the producer address is\n     *         authorised to add product and certificate\n     * @dev    anyone can call function \n     * @param  _producer batch producer address \n     * @return bool true if address is in mapping \n    **/\n    function getProducer(address _producer) public view halt(false) returns(bool) {\n        return producers[_producer]; \n    }\n\n    /**\n     * @notice get the product hash and owner by its unique ID\n     * @dev    anyone can call function \n     * @param  _batchID unique batch ID to get the product \n     * @return bytes32 product hash stored on-chain \n     * @return address of the current owner of the batch \n    **/\n    function getProduct(bytes32 _batchID) public view halt(false) returns(bytes32, address, bool) {\n        return (products[_batchID].productHash, products[_batchID].owner, products[_batchID].status);\n    }\n\n    /**\n     * @notice get the product certificate and signer signature\n     * @dev    anyone can call function \n     * @param  _batchID unique batch ID to get the product \n     * @return bytes32 batch certificate on-chain\n     * @return bytes array of the issuer signature\n    **/\n    function getCertificate(bytes32 _batchID) public view halt(false) returns(bytes32, bytes memory) {\n        return (products[_batchID].certificate, products[_batchID].signature); \n    }\n\n    /**\n     * @notice get the product off-chain storage location \n     * @dev    anyone can call function \n     * @param  _batchID unique batch ID to get the product \n     * @return string unique IPFS storage identifier (CID)\n    **/\n    function getDatabase(bytes32 _batchID) public view halt(false) returns(string memory) {\n        return database[_batchID]; \n    }\n\n    /**\n     * @notice get status of the batch \n     * @dev    anyone can call function \n     * @param  _batchID unique batch ID to get the product \n     * @return bool reads batch status \n    **/\n    function getStatus(bytes32 _batchID) public view halt(false) returns(bool) {\n        return products[_batchID].status; \n    }\n\n    /* TEMPERATURE FUNCTIONS ------------------------------------------------------------------ */\n\n    /**\n     * @notice oracle function that is called once data received,\n     *         required temperature is compared with newly received \n     *         temperature and status is set to false when temperature\n     *         is abnormal, event emitted and users can be notified \n     * @dev    oracle only can call the function \n     * @param  _batchID unique batch ID to get the product \n     * @param  _newTemperature received temperature from external source\n     * @return bool new status of the product\n    **/\n    function compareTemperature(bytes32 _batchID, uint256 _newTemperature) private halt(false) returns(bool) {\n        if (_newTemperature > products[_batchID].temperature) {\n            products[_batchID].status = false;\n        }\n        emit compareTemperatureResult(products[_batchID].status);\n        return products[_batchID].status;\n    }\n\n\n    // allow owner to reset product status in the event of oracle malfunction\n    // they must provide an alternative temperature reading\n    // function updateStatus(bytes32 _batchID, uint256 _temperature) public halt(false) onlyOwner(msg.sender, _batchID) {\n    //     compareTemperature(_batchID, _temperature);\n    // }\n\n    /* CERTIFICATE FUNCTIONS ------------------------------------------------------------------ */\n\n    /**\n     * @notice based the product certificate and issuer signature\n     *         recovers the address of CA who signed the certificate\n     *         and verifies whether it is registered with DOA \n     * @dev    anyone can call function \n     * @param  _batchID unique batch ID to get the product \n     * @return bool if the issuer is registered with DOA, then \n     *         certificate is valid, otherwise returns false \n    **/\n    function verifyCertificate(bytes32 _batchID) public view halt(false) returns(bool) {\n        bytes32 certificate = products[_batchID].certificate; \n        bytes memory signature = products[_batchID].signature; \n        // recovered issuer from the certificate and his signature \n        address issuer = recoverIssuer(certificate, signature); \n        if (verifyIssuer(issuer) == true) { return true; }\n        return false; \n    }\n\n    /**\n     * @notice verify that the certifying authority is ligitimate\n     *         and has been registrered with DOA registry contract,\n     *         and thus eligible to issue organic certificates\n     * @dev    other functions from this contract can call\n     * @param  _issuer unique batch ID to get the product \n     * @return bool true if the issuer registered with DOA,\n     *         otherwise false\n    **/\n    function verifyIssuer(address _issuer) internal view returns(bool) {\n        AuthorityRegistry registry = AuthorityRegistry(DOA);  \n        return registry.checkPublicKey(_issuer);\n    }\n\n    /**\n     * @notice functions recovers the signer of the certificate from the provided certificate \n               (message signed by authority) and signature \n     * @dev    called internally from placeBid function  \n     * @param  _hash the batch certificate signed by CA \n     * @param  _sig CA's bytes signature generated using web3.eth.sign()\n     * @return issuer address (authority who issued/signed the organic certificate to the product batch)\n    **/\n    // copyright: https://github.com/protofire/zeppelin-solidity/blob/master/contracts/ECRecovery.sol\n    function recoverIssuer(bytes32 _hash, bytes memory _sig) internal pure returns(address) {\n        bytes32 r; bytes32 s; uint8 v;\n        //Check the signature length\n        if (_sig.length != 65) { return (address(0)); }\n        assembly {\n            r := mload(add(_sig, 32))\n            s := mload(add(_sig, 64))\n            v := byte(0, mload(add(_sig, 96)))\n        }\n        if (v < 27) { v += 27; }\n\n        // If the version is correct return the signer address\n        if (v != 27 && v != 28) { return (address(0)); } \n        else { return ecrecover(_hash, v, r, s); }\n    }\n\n    /* UTILITIES FUNCTIONS -------------------------------------------------------------------- */\n\n    /**\n     * @notice deactivate contract \n     * @dev    only the contract owner / deployer can call\n    **/\n    function destroyContract() public onlyDeployer() {\n        selfdestruct(owner); \n    }\n\n    // following can only be executed by contract owner\n    function emergencyHalt() public halt(false) onlyDeployer() {\n        halted = true;\n    }\n\n    function restartContract() public halt(true) onlyDeployer() {\n        halted = false;\n    }\n\n}",
  "sourcePath": "/Users/dariaschumm/Library/Mobile Documents/com~apple~CloudDocs/6452/project_2/contracts/Product.sol",
  "compiler": {
    "name": "solc",
    "version": "0.8.15+commit.e14f2714.Emscripten.clang"
  },
  "schemaVersion": "3.4.8",
  "updatedAt": "2022-07-23T00:37:19.135Z",
  "networkType": "ethereum",
  "devdoc": {
    "kind": "dev",
    "methods": {
      "addCertificate(bytes32,bytes32,bytes)": {
        "details": "only the producer of the product can call ",
        "params": {
          "_batchID": "unique identifier of the batch ",
          "_certificate": "certificate certifying product batch",
          "_signature": "signature of the certificate issuer *"
        }
      },
      "addProducer(address)": {
        "details": "only contract owner can call ",
        "params": {
          "_producer": "batch producer address *"
        }
      },
      "addProduct(bytes32,uint256,string)": {
        "details": "only registered producer can call ",
        "params": {
          "_CID": "unique identifier of the off-chain storage*",
          "_data": "product data hash ",
          "_temperature": "stores required temperature"
        }
      },
      "destroyContract()": {
        "details": "only the contract owner / deployer can call*"
      },
      "getCertificate(bytes32)": {
        "details": "anyone can call function ",
        "params": {
          "_batchID": "unique batch ID to get the product "
        },
        "returns": {
          "_0": "bytes32 batch certificate on-chain",
          "_1": "bytes array of the issuer signature*"
        }
      },
      "getDatabase(bytes32)": {
        "details": "anyone can call function ",
        "params": {
          "_batchID": "unique batch ID to get the product "
        },
        "returns": {
          "_0": "string unique IPFS storage identifier (CID)*"
        }
      },
      "getProducer(address)": {
        "details": "anyone can call function ",
        "params": {
          "_producer": "batch producer address "
        },
        "returns": {
          "_0": "bool true if address is in mapping *"
        }
      },
      "getProduct(bytes32)": {
        "details": "anyone can call function ",
        "params": {
          "_batchID": "unique batch ID to get the product "
        },
        "returns": {
          "_0": "bytes32 product hash stored on-chain ",
          "_1": "address of the current owner of the batch *"
        }
      },
      "getStatus(bytes32)": {
        "details": "anyone can call function ",
        "params": {
          "_batchID": "unique batch ID to get the product "
        },
        "returns": {
          "_0": "bool reads batch status *"
        }
      },
      "updateOwner(bytes32,bytes32,address)": {
        "details": "only the current owner of the product can call ",
        "params": {
          "_batchID": "unique identifier of the batch ",
          "_newOwner": "address of a new batch owner *",
          "_productHash": "hash of the product to verify"
        }
      },
      "updateStatus(bytes32,bool)": {
        "details": "only batch current owner can call ",
        "params": {
          "_batchID": "unique identifier of the batch ",
          "_status": "new status of the batch *"
        }
      },
      "verifyCertificate(bytes32)": {
        "details": "anyone can call function ",
        "params": {
          "_batchID": "unique batch ID to get the product "
        },
        "returns": {
          "_0": "bool if the issuer is registered with DOA, then          certificate is valid, otherwise returns false *"
        }
      },
      "verifyProductHash(bytes32,bytes32)": {
        "details": "anyone can call ",
        "params": {
          "_batchID": "unique identifier of the batch ",
          "_offchainHash": "certificate certifying product batch"
        },
        "returns": {
          "_0": "bool if the hash stored on-chain is the same as newly computed hash,         then product infromation is correct and has not been modified *"
        }
      }
    },
    "version": 1
  },
  "userdoc": {
    "kind": "user",
    "methods": {
      "addCertificate(bytes32,bytes32,bytes)": {
        "notice": "producer adds a certificate obtained from the          CA from off-chain, the producer has to be the          current batch owner to add certificate "
      },
      "addProducer(address)": {
        "notice": "contract deployer adds authorised producer         to the mapping, which gives permissions to          add products and certificate "
      },
      "addProduct(bytes32,uint256,string)": {
        "notice": "add product infromation to the data hash         and conditions hash generated from off-chain"
      },
      "destroyContract()": {
        "notice": "deactivate contract "
      },
      "getCertificate(bytes32)": {
        "notice": "get the product certificate and signer signature"
      },
      "getDatabase(bytes32)": {
        "notice": "get the product off-chain storage location "
      },
      "getProducer(address)": {
        "notice": "checks whether the producer address is         authorised to add product and certificate"
      },
      "getProduct(bytes32)": {
        "notice": "get the product hash and owner by its unique ID"
      },
      "getStatus(bytes32)": {
        "notice": "get status of the batch "
      },
      "updateOwner(bytes32,bytes32,address)": {
        "notice": "transfer the ownership of the product batch, supported by          certificate verification and check of the product hash         that is stored on-chain and freshly computed one"
      },
      "updateStatus(bytes32,bool)": {
        "notice": "lets a product owner to update product status          based on physical off-chain investigation"
      },
      "verifyCertificate(bytes32)": {
        "notice": "based the product certificate and issuer signature         recovers the address of CA who signed the certificate         and verifies whether it is registered with DOA "
      },
      "verifyProductHash(bytes32,bytes32)": {
        "notice": "allows to verify data in the off-chain data store about product"
      }
    },
    "version": 1
  }
}