{
  "contractName": "Product",
  "abi": [
    {
      "inputs": [
        {
          "internalType": "address",
          "name": "_DOA",
          "type": "address"
        },
        {
          "internalType": "address",
          "name": "_owner",
          "type": "address"
        }
      ],
      "stateMutability": "nonpayable",
      "type": "constructor"
    },
    {
      "anonymous": false,
      "inputs": [
        {
          "indexed": false,
          "internalType": "bytes32",
          "name": "certificate",
          "type": "bytes32"
        },
        {
          "indexed": false,
          "internalType": "bytes",
          "name": "signature",
          "type": "bytes"
        }
      ],
      "name": "batchCertificate",
      "type": "event"
    },
    {
      "anonymous": false,
      "inputs": [
        {
          "indexed": false,
          "internalType": "bytes32",
          "name": "productID",
          "type": "bytes32"
        }
      ],
      "name": "batchIdentifier",
      "type": "event"
    },
    {
      "anonymous": false,
      "inputs": [
        {
          "indexed": false,
          "internalType": "bytes32",
          "name": "productHash",
          "type": "bytes32"
        }
      ],
      "name": "batchProduct",
      "type": "event"
    },
    {
      "inputs": [
        {
          "internalType": "bytes32",
          "name": "_data",
          "type": "bytes32"
        },
        {
          "internalType": "bytes32",
          "name": "_conditions",
          "type": "bytes32"
        }
      ],
      "name": "addProduct",
      "outputs": [],
      "stateMutability": "nonpayable",
      "type": "function"
    },
    {
      "inputs": [
        {
          "internalType": "bytes32",
          "name": "_batchID",
          "type": "bytes32"
        },
        {
          "internalType": "bytes32",
          "name": "_updatedData",
          "type": "bytes32"
        }
      ],
      "name": "updateProduct",
      "outputs": [],
      "stateMutability": "nonpayable",
      "type": "function"
    },
    {
      "inputs": [
        {
          "internalType": "bytes32",
          "name": "_batchID",
          "type": "bytes32"
        },
        {
          "internalType": "bytes32",
          "name": "_updatedConditions",
          "type": "bytes32"
        }
      ],
      "name": "updateConditions",
      "outputs": [],
      "stateMutability": "nonpayable",
      "type": "function"
    },
    {
      "inputs": [
        {
          "internalType": "bytes32",
          "name": "_batchID",
          "type": "bytes32"
        },
        {
          "internalType": "bytes32",
          "name": "_certificate",
          "type": "bytes32"
        },
        {
          "internalType": "bytes",
          "name": "_signature",
          "type": "bytes"
        }
      ],
      "name": "updateCertificate",
      "outputs": [],
      "stateMutability": "nonpayable",
      "type": "function"
    },
    {
      "inputs": [
        {
          "internalType": "bytes32",
          "name": "_batchID",
          "type": "bytes32"
        },
        {
          "internalType": "address",
          "name": "_newOwner",
          "type": "address"
        },
        {
          "internalType": "bytes32",
          "name": "_offchainConditions",
          "type": "bytes32"
        },
        {
          "internalType": "bytes32",
          "name": "_offchainProduct",
          "type": "bytes32"
        }
      ],
      "name": "updateOwner",
      "outputs": [],
      "stateMutability": "nonpayable",
      "type": "function"
    },
    {
      "inputs": [
        {
          "internalType": "bytes32",
          "name": "_batchID",
          "type": "bytes32"
        },
        {
          "internalType": "bytes32",
          "name": "_offchainHash",
          "type": "bytes32"
        }
      ],
      "name": "verifyProductHash",
      "outputs": [
        {
          "internalType": "bool",
          "name": "",
          "type": "bool"
        }
      ],
      "stateMutability": "view",
      "type": "function",
      "constant": true
    },
    {
      "inputs": [
        {
          "internalType": "bytes32",
          "name": "_batchID",
          "type": "bytes32"
        },
        {
          "internalType": "bytes32",
          "name": "_offchainHash",
          "type": "bytes32"
        }
      ],
      "name": "verifyConditionsHash",
      "outputs": [
        {
          "internalType": "bool",
          "name": "",
          "type": "bool"
        }
      ],
      "stateMutability": "view",
      "type": "function",
      "constant": true
    },
    {
      "inputs": [
        {
          "internalType": "bytes32",
          "name": "_batchID",
          "type": "bytes32"
        }
      ],
      "name": "getProduct",
      "outputs": [
        {
          "internalType": "bytes32",
          "name": "",
          "type": "bytes32"
        },
        {
          "internalType": "bytes32",
          "name": "",
          "type": "bytes32"
        },
        {
          "internalType": "address",
          "name": "",
          "type": "address"
        }
      ],
      "stateMutability": "view",
      "type": "function",
      "constant": true
    },
    {
      "inputs": [
        {
          "internalType": "bytes32",
          "name": "_batchID",
          "type": "bytes32"
        }
      ],
      "name": "verifyCertificate",
      "outputs": [
        {
          "internalType": "bool",
          "name": "",
          "type": "bool"
        }
      ],
      "stateMutability": "view",
      "type": "function",
      "constant": true
    }
  ],
  "bytecode": "0x60806040523480156200001157600080fd5b50604051620019dc380380620019dc83398181016040528101906200003791906200012b565b81600160006101000a81548173ffffffffffffffffffffffffffffffffffffffff021916908373ffffffffffffffffffffffffffffffffffffffff16021790555080600060016101000a81548173ffffffffffffffffffffffffffffffffffffffff021916908373ffffffffffffffffffffffffffffffffffffffff160217905550505062000172565b600080fd5b600073ffffffffffffffffffffffffffffffffffffffff82169050919050565b6000620000f382620000c6565b9050919050565b6200010581620000e6565b81146200011157600080fd5b50565b6000815190506200012581620000fa565b92915050565b60008060408385031215620001455762000144620000c1565b5b6000620001558582860162000114565b9250506020620001688582860162000114565b9150509250929050565b61185a80620001826000396000f3fe608060405234801561001057600080fd5b50600436106100935760003560e01c8063850c176811610066578063850c17681461011e578063a92138741461014e578063aee726bf1461017e578063b1146b57146101ae578063fc1a9840146101ca57610093565b80632fad3fc4146100985780633146610d146100b45780633a20e9df146100d05780635a5ef62614610102575b600080fd5b6100b260048036038101906100ad9190610caa565b6101e6565b005b6100ce60048036038101906100c99190610caa565b6102e2565b005b6100ea60048036038101906100e59190610cea565b61045a565b6040516100f993929190610d67565b60405180910390f35b61011c60048036038101906101179190610ee4565b6104d1565b005b61013860048036038101906101339190610cea565b6106ce565b6040516101459190610f6e565b60405180910390f35b61016860048036038101906101639190610caa565b6107c8565b6040516101759190610f6e565b60405180910390f35b61019860048036038101906101939190610caa565b6107fb565b6040516101a59190610f6e565b60405180910390f35b6101c860048036038101906101c39190610fb5565b61082e565b005b6101e460048036038101906101df9190610caa565b610a1e565b005b6002600083815260200190815260200160002060050160009054906101000a900473ffffffffffffffffffffffffffffffffffffffff168073ffffffffffffffffffffffffffffffffffffffff163373ffffffffffffffffffffffffffffffffffffffff161461028b576040517f08c379a00000000000000000000000000000000000000000000000000000000081526004016102829061109f565b60405180910390fd5b8160026000858152602001908152602001600020600101819055507fa0d0f9c984e25554b7bdac536f47af8ed2082e45e1678702228d3c554e315add826040516102d591906110bf565b60405180910390a1505050565b600082826040516020016102f79291906110fb565b604051602081830303815290604052805190602001209050826002600083815260200190815260200160002060010181905550816002600083815260200190815260200160002060020181905550336002600083815260200190815260200160002060050160006101000a81548173ffffffffffffffffffffffffffffffffffffffff021916908373ffffffffffffffffffffffffffffffffffffffff160217905550336002600083815260200190815260200160002060060160006101000a81548173ffffffffffffffffffffffffffffffffffffffff021916908373ffffffffffffffffffffffffffffffffffffffff16021790555060016002600083815260200190815260200160002060080160006101000a81548160ff0219169083151502179055507feb12ab352ec0628425cb2d83290a1d034ed2d60ba8d5caf7462e7526ce18d38e8160405161044d91906110bf565b60405180910390a1505050565b6000806000600260008581526020019081526020016000206001015460026000868152602001908152602001600020600201546002600087815260200190815260200160002060050160009054906101000a900473ffffffffffffffffffffffffffffffffffffffff169250925092509193909250565b6002600084815260200190815260200160002060060160009054906101000a900473ffffffffffffffffffffffffffffffffffffffff168073ffffffffffffffffffffffffffffffffffffffff163373ffffffffffffffffffffffffffffffffffffffff1614610576576040517f08c379a000000000000000000000000000000000000000000000000000000000815260040161056d9061109f565b60405180910390fd5b6002600085815260200190815260200160002060060160009054906101000a900473ffffffffffffffffffffffffffffffffffffffff1673ffffffffffffffffffffffffffffffffffffffff166002600086815260200190815260200160002060050160009054906101000a900473ffffffffffffffffffffffffffffffffffffffff1673ffffffffffffffffffffffffffffffffffffffff1614610650576040517f08c379a000000000000000000000000000000000000000000000000000000000815260040161064790611173565b60405180910390fd5b8260026000868152602001908152602001600020600301819055508160026000868152602001908152602001600020600401908161068e91906113b4565b507faeb1546c2c359892a79841d222bc322861f84b2134c2676cf01ebd20bc52a69783836040516106c0929190611503565b60405180910390a150505050565b60008060026000848152602001908152602001600020600301549050600060026000858152602001908152602001600020600401805461070d906111cd565b80601f0160208091040260200160405190810160405280929190818152602001828054610739906111cd565b80156107865780601f1061075b57610100808354040283529160200191610786565b820191906000526020600020905b81548152906001019060200180831161076957829003601f168201915b5050505050905060006107998383610ae3565b9050600115156107a882610bb6565b1515036107bb57600193505050506107c3565b600093505050505b919050565b6000816002600085815260200190815260200160002060010154036107f057600190506107f5565b600090505b92915050565b6000816002600085815260200190815260200160002060020154036108235760019050610828565b600090505b92915050565b6002600085815260200190815260200160002060050160009054906101000a900473ffffffffffffffffffffffffffffffffffffffff168073ffffffffffffffffffffffffffffffffffffffff163373ffffffffffffffffffffffffffffffffffffffff16146108d3576040517f08c379a00000000000000000000000000000000000000000000000000000000081526004016108ca9061109f565b60405180910390fd5b600115156108e0866106ce565b151514610922576040517f08c379a0000000000000000000000000000000000000000000000000000000008152600401610919906115a5565b60405180910390fd5b6001151561093086856107fb565b151514610972576040517f08c379a000000000000000000000000000000000000000000000000000000000815260040161096990611637565b60405180910390fd5b6001151561098086846107c8565b1515146109c2576040517f08c379a00000000000000000000000000000000000000000000000000000000081526004016109b9906116c9565b60405180910390fd5b836002600087815260200190815260200160002060050160006101000a81548173ffffffffffffffffffffffffffffffffffffffff021916908373ffffffffffffffffffffffffffffffffffffffff1602179055505050505050565b6002600083815260200190815260200160002060050160009054906101000a900473ffffffffffffffffffffffffffffffffffffffff168073ffffffffffffffffffffffffffffffffffffffff163373ffffffffffffffffffffffffffffffffffffffff1614610ac3576040517f08c379a0000000000000000000000000000000000000000000000000000000008152600401610aba9061109f565b60405180910390fd5b816002600085815260200190815260200160002060020181905550505050565b6000806000806041855114610afe5760009350505050610bb0565b6020850151925060408501519150606085015160001a9050601b8160ff161015610b3257601b81610b2f9190611725565b90505b601b8160ff1614158015610b4a5750601c8160ff1614155b15610b5b5760009350505050610bb0565b60018682858560405160008152602001604052604051610b7e949392919061176b565b6020604051602081039080840390855afa158015610ba0573d6000803e3d6000fd5b5050506020604051035193505050505b92915050565b600080600160009054906101000a900473ffffffffffffffffffffffffffffffffffffffff1690508073ffffffffffffffffffffffffffffffffffffffff16636af92956846040518263ffffffff1660e01b8152600401610c1791906117b0565b602060405180830381865afa158015610c34573d6000803e3d6000fd5b505050506040513d601f19601f82011682018060405250810190610c5891906117f7565b915050919050565b6000604051905090565b600080fd5b600080fd5b6000819050919050565b610c8781610c74565b8114610c9257600080fd5b50565b600081359050610ca481610c7e565b92915050565b60008060408385031215610cc157610cc0610c6a565b5b6000610ccf85828601610c95565b9250506020610ce085828601610c95565b9150509250929050565b600060208284031215610d0057610cff610c6a565b5b6000610d0e84828501610c95565b91505092915050565b610d2081610c74565b82525050565b600073ffffffffffffffffffffffffffffffffffffffff82169050919050565b6000610d5182610d26565b9050919050565b610d6181610d46565b82525050565b6000606082019050610d7c6000830186610d17565b610d896020830185610d17565b610d966040830184610d58565b949350505050565b600080fd5b600080fd5b6000601f19601f8301169050919050565b7f4e487b7100000000000000000000000000000000000000000000000000000000600052604160045260246000fd5b610df182610da8565b810181811067ffffffffffffffff82111715610e1057610e0f610db9565b5b80604052505050565b6000610e23610c60565b9050610e2f8282610de8565b919050565b600067ffffffffffffffff821115610e4f57610e4e610db9565b5b610e5882610da8565b9050602081019050919050565b82818337600083830152505050565b6000610e87610e8284610e34565b610e19565b905082815260208101848484011115610ea357610ea2610da3565b5b610eae848285610e65565b509392505050565b600082601f830112610ecb57610eca610d9e565b5b8135610edb848260208601610e74565b91505092915050565b600080600060608486031215610efd57610efc610c6a565b5b6000610f0b86828701610c95565b9350506020610f1c86828701610c95565b925050604084013567ffffffffffffffff811115610f3d57610f3c610c6f565b5b610f4986828701610eb6565b9150509250925092565b60008115159050919050565b610f6881610f53565b82525050565b6000602082019050610f836000830184610f5f565b92915050565b610f9281610d46565b8114610f9d57600080fd5b50565b600081359050610faf81610f89565b92915050565b60008060008060808587031215610fcf57610fce610c6a565b5b6000610fdd87828801610c95565b9450506020610fee87828801610fa0565b9350506040610fff87828801610c95565b925050606061101087828801610c95565b91505092959194509250565b600082825260208201905092915050565b7f4f6e6c7920617574686f726973656420616464726573732063616e2063616c6c60008201527f20746869732066756e6374696f6e000000000000000000000000000000000000602082015250565b6000611089602e8361101c565b91506110948261102d565b604082019050919050565b600060208201905081810360008301526110b88161107c565b9050919050565b60006020820190506110d46000830184610d17565b92915050565b6000819050919050565b6110f56110f082610c74565b6110da565b82525050565b600061110782856110e4565b60208201915061111782846110e4565b6020820191508190509392505050565b7f596f75206e6f206c6f6e676572206f776e207468697320626174636800000000600082015250565b600061115d601c8361101c565b915061116882611127565b602082019050919050565b6000602082019050818103600083015261118c81611150565b9050919050565b600081519050919050565b7f4e487b7100000000000000000000000000000000000000000000000000000000600052602260045260246000fd5b600060028204905060018216806111e557607f821691505b6020821081036111f8576111f761119e565b5b50919050565b60008190508160005260206000209050919050565b60006020601f8301049050919050565b600082821b905092915050565b6000600883026112607fffffffffffffffffffffffffffffffffffffffffffffffffffffffffffffffff82611223565b61126a8683611223565b95508019841693508086168417925050509392505050565b6000819050919050565b6000819050919050565b60006112b16112ac6112a784611282565b61128c565b611282565b9050919050565b6000819050919050565b6112cb83611296565b6112df6112d7826112b8565b848454611230565b825550505050565b600090565b6112f46112e7565b6112ff8184846112c2565b505050565b5b81811015611323576113186000826112ec565b600181019050611305565b5050565b601f82111561136857611339816111fe565b61134284611213565b81016020851015611351578190505b61136561135d85611213565b830182611304565b50505b505050565b600082821c905092915050565b600061138b6000198460080261136d565b1980831691505092915050565b60006113a4838361137a565b9150826002028217905092915050565b6113bd82611193565b67ffffffffffffffff8111156113d6576113d5610db9565b5b6113e082546111cd565b6113eb828285611327565b600060209050601f83116001811461141e576000841561140c578287015190505b6114168582611398565b86555061147e565b601f19841661142c866111fe565b60005b828110156114545784890151825560018201915060208501945060208101905061142f565b86831015611471578489015161146d601f89168261137a565b8355505b6001600288020188555050505b505050505050565b600082825260208201905092915050565b60005b838110156114b557808201518184015260208101905061149a565b838111156114c4576000848401525b50505050565b60006114d582611193565b6114df8185611486565b93506114ef818560208601611497565b6114f881610da8565b840191505092915050565b60006040820190506115186000830185610d17565b818103602083015261152a81846114ca565b90509392505050565b7f636572746966696361746520636f756c64206e6f74206265207665726966696560008201527f6400000000000000000000000000000000000000000000000000000000000000602082015250565b600061158f60218361101c565b915061159a82611533565b604082019050919050565b600060208201905081810360008301526115be81611582565b9050919050565b7f70726f6475637420636f6e646974696f6e7320636f756c64206e6f742062652060008201527f7665726966696564000000000000000000000000000000000000000000000000602082015250565b600061162160288361101c565b915061162c826115c5565b604082019050919050565b6000602082019050818103600083015261165081611614565b9050919050565b7f70726f64756374206461746120636f756c64206e6f742062652076657269666960008201527f6564000000000000000000000000000000000000000000000000000000000000602082015250565b60006116b360228361101c565b91506116be82611657565b604082019050919050565b600060208201905081810360008301526116e2816116a6565b9050919050565b600060ff82169050919050565b7f4e487b7100000000000000000000000000000000000000000000000000000000600052601160045260246000fd5b6000611730826116e9565b915061173b836116e9565b92508260ff03821115611751576117506116f6565b5b828201905092915050565b611765816116e9565b82525050565b60006080820190506117806000830187610d17565b61178d602083018661175c565b61179a6040830185610d17565b6117a76060830184610d17565b95945050505050565b60006020820190506117c56000830184610d58565b92915050565b6117d481610f53565b81146117df57600080fd5b50565b6000815190506117f1816117cb565b92915050565b60006020828403121561180d5761180c610c6a565b5b600061181b848285016117e2565b9150509291505056fea26469706673582212204ac40312b828323c375c239c68d9382b7c5e053563328a9c99115e312ebb0d4364736f6c634300080f0033",
  "immutableReferences": {},
  "source": "// SPDX-License-Identifier: MIT\npragma solidity ^0.8.0;\n\nimport \"./CARegistry.sol\"; \n\ncontract Product {\n\n    bool internal locked;                   // lock for payments (not sure if necessary yet)\n    address owner;\n    // address CA;\n    address DOA;                            // Department of Agriculture contract address \n\n    // another option to map multiple structs:\n    // https://ethereum.stackexchange.com/questions/82157/mapping-multiple-structs-to-a-struct-and-call-them\n    \n    // keeps the hash of product data and contions,\n    // certificate infromation and the current owner \n    struct Batch {\n        bytes32 bardoce;                // get this from oracle, physical batch barcode\n        bytes32 productHash; \n        bytes32 conditionsHash;\n\n        bytes32 certificate; \n        bytes signature;                // created with web3.eth.sign(), bytes \n\n        address owner;\n        address producer;\n\n        uint256 reqTemperature;         // required temp of the product as provided in required conitions\n        bool status;                    // the status of the product, true means ok - not sure if needed\n    }\n\n    // maps each product ID to a product data   \n    mapping (bytes32 => Batch) products; \n\n    // alternatively keep as array:\n    // Product[] products; \n\n    constructor(address _DOA, address _owner) {\n        DOA = _DOA; \n        owner = _owner; \n    }\n\n    modifier onlyThis(address _address) { require(msg.sender == _address, \"Only authorised address can call this function\"); _; }\n\n    \n    // lock against reentrancy \n    modifier lock() { \n        require(!locked); \n        locked = true; _; \n        locked = false;\n    }\n\n    // send generated product ID to off-chain \n    event batchIdentifier(bytes32 productID); \n\n    event batchCertificate(bytes32 certificate, bytes signature); \n\n    event batchProduct(bytes32 productHash);\n\n    /* PRODUCT FUNCTIONS ------------------------------------------------------------------ */\n\n    // adds product data hash and conditions hash \n    function addProduct(bytes32 _data, bytes32 _conditions) public {\n        bytes32 batchID = bytes32(keccak256(abi.encodePacked(_data, _conditions))); \n        products[batchID].productHash = _data; \n        products[batchID].conditionsHash = _conditions; \n        products[batchID].owner = msg.sender; \n        products[batchID].producer = msg.sender;\n        products[batchID].status = true;\n        emit batchIdentifier(batchID);\n    }\n\n    // the owner can update the product hash\n    function updateProduct(bytes32 _batchID, bytes32 _updatedData) public onlyThis(products[_batchID].owner) {\n        products[_batchID].productHash = _updatedData;\n        emit batchProduct(_updatedData);\n    }\n\n    // the owner can send a new product contions hash\n    function updateConditions(bytes32 _batchID, bytes32 _updatedConditions) public onlyThis(products[_batchID].owner) {\n        products[_batchID].conditionsHash = _updatedConditions;\n    }\n\n    // update certificate data in product - only authorised CA \n    function updateCertificate(bytes32 _batchID, bytes32 _certificate, bytes memory _signature) public onlyThis(products[_batchID].producer) {\n        require(products[_batchID].owner == products[_batchID].producer, \"You no longer own this batch\"); \n        products[_batchID].certificate = _certificate; \n        products[_batchID].signature = _signature; \n        emit batchCertificate(_certificate, _signature);\n    }\n\n    function updateOwner(bytes32 _batchID, address _newOwner, bytes32 _offchainConditions, bytes32 _offchainProduct) public onlyThis(products[_batchID].owner) {\n        require(verifyCertificate(_batchID) == true, \"certificate could not be verified\"); \n        require (verifyConditionsHash(_batchID, _offchainConditions) == true, \"product conditions could not be verified\");\n        require (verifyProductHash(_batchID, _offchainProduct) == true, \"product data could not be verified\");\n        products[_batchID].owner = _newOwner; \n    }\n\n    /* VERIFICATION FUNCTIONS ----------------------------------------------------------------- */\n\n    // allow anyone to verify data in the off chain data store about product\n    function verifyProductHash(bytes32 _batchID, bytes32 _offchainHash) public view returns (bool) {\n        if (products[_batchID].productHash == _offchainHash) { return true;}\n        return false;\n    }\n\n    // allow anyone to verify data in the off chain data store about conditions\n    function verifyConditionsHash(bytes32 _batchID, bytes32 _offchainHash) public view returns (bool){\n        if (products[_batchID].conditionsHash == _offchainHash) { return true;}\n        return false;\n    }\n\n    /* GETTER FUNCTIONS ----------------------------------------------------------------------- */\n\n    function getProduct(bytes32 _batchID) public view returns(bytes32, bytes32, address) {\n        return (products[_batchID].productHash, products[_batchID].conditionsHash, products[_batchID].owner);\n    }\n\n    /* TEMPERATURE FUNCTIONS ------------------------------------------------------------------ */\n\n    // requires oracle \n    // have restricted to private so anyone cannot call this \n    // is there a way to resctrict this to the oracle?\n    function compareTemperature(bytes32 _batchID, uint256 _temperature) private returns (bool) {\n        if (_temperature != products[_batchID].reqTemperature) {\n            products[_batchID].status = false;\n            return false;\n        }\n        return true;\n    }\n\n    /* CERTIFICATE FUNCTIONS ------------------------------------------------------------------ */\n\n    // anyone can send a product ID and verify its certificate\n    // should check if the certificate exists first, if not then false \n    function verifyCertificate(bytes32 _batchID) public view returns(bool) {\n        bytes32 certificate = products[_batchID].certificate; \n        bytes memory signature = products[_batchID].signature; \n        // recovered issuer from the certificate and his signature \n        address issuer = recoverIssuer(certificate, signature); \n        if (verifyIssuer(issuer) == true) { return true; }\n        return false; \n    }\n\n    // verify that the certifying authority is registered with DOA \n    // and eligible to issue organic certificates\n    function verifyIssuer(address _issuer) internal view returns(bool) {\n        AuthorityRegistry registry = AuthorityRegistry(DOA);  \n        return registry.checkPublicKey(_issuer);\n    }\n\n    /**\n     * @notice functions recovers the signer of the certificate from the provided certificate \n               (message signed by authority) and signature \n     * @dev    called internally from placeBid function  \n     * @param  _hash the batch certificate signed by CA \n     * @param  _sig CA's bytes signature generated using web3.eth.sign()\n     * @return issuer address (authority who issued/signed the organic certificate to the product batch)\n    **/\n    // copyright: https://github.com/protofire/zeppelin-solidity/blob/master/contracts/ECRecovery.sol\n    function recoverIssuer(bytes32 _hash, bytes memory _sig) internal pure returns(address) {\n        bytes32 r; bytes32 s; uint8 v;\n        //Check the signature length\n        if (_sig.length != 65) { return (address(0)); }\n        assembly {\n            r := mload(add(_sig, 32))\n            s := mload(add(_sig, 64))\n            v := byte(0, mload(add(_sig, 96)))\n        }\n        if (v < 27) { v += 27; }\n\n        // If the version is correct return the signer address\n        if (v != 27 && v != 28) { return (address(0)); } \n        else { return ecrecover(_hash, v, r, s); }\n    }\n\n}",
  "sourcePath": "/Users/dariaschumm/Library/Mobile Documents/com~apple~CloudDocs/6452/project_2/contracts/Product.sol",
  "compiler": {
    "name": "solc",
    "version": "0.8.15+commit.e14f2714.Emscripten.clang"
  },
  "schemaVersion": "3.4.8",
  "updatedAt": "2022-07-20T07:38:18.645Z",
  "networkType": "ethereum",
  "devdoc": {
    "kind": "dev",
    "methods": {},
    "version": 1
  },
  "userdoc": {
    "kind": "user",
    "methods": {},
    "version": 1
  }
}