{
  "contractName": "ProductContract",
  "abi": [
    {
      "inputs": [
        {
          "internalType": "address",
          "name": "_owner",
          "type": "address"
        }
      ],
      "stateMutability": "nonpayable",
      "type": "constructor"
    },
    {
      "anonymous": false,
      "inputs": [
        {
          "indexed": false,
          "internalType": "bytes32",
          "name": "productID",
          "type": "bytes32"
        }
      ],
      "name": "productIdentifier",
      "type": "event"
    },
    {
      "inputs": [
        {
          "internalType": "bytes32",
          "name": "_data",
          "type": "bytes32"
        },
        {
          "internalType": "bytes32",
          "name": "_conditions",
          "type": "bytes32"
        }
      ],
      "name": "addProduct",
      "outputs": [],
      "stateMutability": "nonpayable",
      "type": "function"
    },
    {
      "inputs": [
        {
          "internalType": "bytes32",
          "name": "_updatedData",
          "type": "bytes32"
        }
      ],
      "name": "updateProduct",
      "outputs": [],
      "stateMutability": "nonpayable",
      "type": "function"
    },
    {
      "inputs": [
        {
          "internalType": "bytes32",
          "name": "_updateConditions",
          "type": "bytes32"
        }
      ],
      "name": "updateConditions",
      "outputs": [],
      "stateMutability": "nonpayable",
      "type": "function"
    },
    {
      "inputs": [
        {
          "internalType": "uint256",
          "name": "_temperature",
          "type": "uint256"
        }
      ],
      "name": "updateTemperature",
      "outputs": [],
      "stateMutability": "nonpayable",
      "type": "function"
    },
    {
      "inputs": [
        {
          "internalType": "bytes32",
          "name": "_certificate",
          "type": "bytes32"
        },
        {
          "internalType": "uint256",
          "name": "_expiration",
          "type": "uint256"
        },
        {
          "internalType": "address",
          "name": "_issuer",
          "type": "address"
        }
      ],
      "name": "updateCertificate",
      "outputs": [],
      "stateMutability": "nonpayable",
      "type": "function"
    },
    {
      "inputs": [
        {
          "internalType": "bytes32",
          "name": "_productID",
          "type": "bytes32"
        }
      ],
      "name": "getProduct",
      "outputs": [
        {
          "internalType": "bytes32",
          "name": "",
          "type": "bytes32"
        },
        {
          "internalType": "bytes32",
          "name": "",
          "type": "bytes32"
        },
        {
          "internalType": "address",
          "name": "",
          "type": "address"
        }
      ],
      "stateMutability": "view",
      "type": "function",
      "constant": true
    },
    {
      "inputs": [
        {
          "internalType": "address",
          "name": "_issuer",
          "type": "address"
        }
      ],
      "name": "verifyCA",
      "outputs": [],
      "stateMutability": "nonpayable",
      "type": "function"
    },
    {
      "inputs": [],
      "name": "authoriseCA",
      "outputs": [],
      "stateMutability": "nonpayable",
      "type": "function"
    }
  ],
  "bytecode": "0x608060405234801561001057600080fd5b506040516106e33803806106e3833981810160405281019061003291906100dc565b80600060016101000a81548173ffffffffffffffffffffffffffffffffffffffff021916908373ffffffffffffffffffffffffffffffffffffffff16021790555050610109565b600080fd5b600073ffffffffffffffffffffffffffffffffffffffff82169050919050565b60006100a98261007e565b9050919050565b6100b98161009e565b81146100c457600080fd5b50565b6000815190506100d6816100b0565b92915050565b6000602082840312156100f2576100f1610079565b5b6000610100848285016100c7565b91505092915050565b6105cb806101186000396000f3fe608060405234801561001057600080fd5b50600436106100885760003560e01c8063b148d5ea1161005b578063b148d5ea14610101578063c089a3b91461011d578063c982fb4714610139578063f2f93f6b1461015557610088565b806329e761d31461008d5780633146610d146100975780633a20e9df146100b3578063a3bcb138146100e5575b600080fd5b610095610171565b005b6100b160048036038101906100ac919061032a565b610173565b005b6100cd60048036038101906100c8919061036a565b610267565b6040516100dc939291906103e7565b60405180910390f35b6100ff60048036038101906100fa9190610454565b6102de565b005b61011b600480360381019061011691906104ad565b6102e1565b005b6101376004803603810190610132919061036a565b6102e4565b005b610153600480360381019061014e91906104da565b6102e7565b005b61016f600480360381019061016a919061036a565b6102ec565b005b565b6000828260405160200161018892919061054e565b604051602081830303815290604052805190602001209050826002600083815260200190815260200160002060000181905550816002600083815260200190815260200160002060010181905550336002600083815260200190815260200160002060050160006101000a81548173ffffffffffffffffffffffffffffffffffffffff021916908373ffffffffffffffffffffffffffffffffffffffff1602179055507f890b8607066238009ca332654af56a2e781064b897254fd5fdb5577f168b8f318160405161025a919061057a565b60405180910390a1505050565b6000806000600260008581526020019081526020016000206000015460026000868152602001908152602001600020600101546002600087815260200190815260200160002060050160009054906101000a900473ffffffffffffffffffffffffffffffffffffffff169250925092509193909250565b50565b50565b50565b505050565b50565b600080fd5b6000819050919050565b610307816102f4565b811461031257600080fd5b50565b600081359050610324816102fe565b92915050565b60008060408385031215610341576103406102ef565b5b600061034f85828601610315565b925050602061036085828601610315565b9150509250929050565b6000602082840312156103805761037f6102ef565b5b600061038e84828501610315565b91505092915050565b6103a0816102f4565b82525050565b600073ffffffffffffffffffffffffffffffffffffffff82169050919050565b60006103d1826103a6565b9050919050565b6103e1816103c6565b82525050565b60006060820190506103fc6000830186610397565b6104096020830185610397565b61041660408301846103d8565b949350505050565b6000819050919050565b6104318161041e565b811461043c57600080fd5b50565b60008135905061044e81610428565b92915050565b60006020828403121561046a576104696102ef565b5b60006104788482850161043f565b91505092915050565b61048a816103c6565b811461049557600080fd5b50565b6000813590506104a781610481565b92915050565b6000602082840312156104c3576104c26102ef565b5b60006104d184828501610498565b91505092915050565b6000806000606084860312156104f3576104f26102ef565b5b600061050186828701610315565b93505060206105128682870161043f565b925050604061052386828701610498565b9150509250925092565b6000819050919050565b610548610543826102f4565b61052d565b82525050565b600061055a8285610537565b60208201915061056a8284610537565b6020820191508190509392505050565b600060208201905061058f6000830184610397565b9291505056fea264697066735822122059baaabca020c53d246d5baf00ee889446b87a755beb1485d6b7f80b8d0995e464736f6c634300080f0033",
  "immutableReferences": {},
  "source": "// SPDX-License-Identifier: MIT\npragma solidity ^0.8.0;\n\ncontract ProductContract {\n\n    bool internal locked;                   // lock for payments (not sure if necessary yet)\n    address owner;\n    address CA; \n\n    // another option to map multiple structs:\n    // https://ethereum.stackexchange.com/questions/82157/mapping-multiple-structs-to-a-struct-and-call-them\n    \n    // keeps the hash of product data and contions,\n    // certificate infromation and the current owner \n    struct Product {\n        bytes32 productHash; \n        bytes32 conditionsHash;\n        bytes32 certificate; \n        uint256 expiration; \n        address issuer;\n        address currentOwner;\n        uint256 temperature;            // keeping temperature of storage from oracle \n    }\n\n    // maps each product ID to a product data   \n    mapping (bytes32 => Product) products; \n\n    // alternatively keep as array:\n    // Product[] products; \n\n    constructor(address _owner) {\n        owner = _owner; \n    }\n\n    // only owner can call the function \n    modifier onlyOwner(address _owner) { require(msg.sender == _owner); _; }\n    // only after that time can call the function \n    modifier onlyAfter(uint256 _time) { require(block.timestamp > _time); _; }\n    // only before that time can call the function \n    modifier onlyBefore(uint256 _time) { require(block.timestamp < _time); _;}\n    // lock against reentrancy \n    modifier lock() { \n        require(!locked); \n        locked = true; _; \n        locked = false;\n    }\n\n    // send generated product ID to off-chain \n    event productIdentifier(bytes32 productID); \n\n\n    /* PRODUCT FUNCTIONS ------------------------------------------------------------------ */\n\n    // adds product data hash and conditions hash \n    function addProduct(bytes32 _data, bytes32 _conditions) public {\n        bytes32 productID = bytes32(keccak256(abi.encodePacked(_data, _conditions))); \n        // products[productID].push(Product(_data, _conditions, bytes32(0), 0, address(0), msg.sender, 0));\n        products[productID].productHash = _data; \n        products[productID].conditionsHash = _conditions; \n        products[productID].currentOwner = msg.sender; \n        emit productIdentifier(productID);\n        // return productID; \n    }\n\n    // only current owner \n    function updateProduct(bytes32 _updatedData) public {\n        \n    }\n\n    // \n    function updateConditions(bytes32 _updateConditions) public {\n\n    }\n\n    // requires oracle \n    function updateTemperature(uint256 _temperature) public {\n\n    }\n\n    // update certificate data in product - only authorised CA \n    function updateCertificate(bytes32 _certificate, uint256 _expiration, address _issuer) public {\n\n    }\n\n    // function getProduct(bytes32 _productID) public view returns(Product[] memory) {\n    //     return products[_productID];\n    // }\n\n    function getProduct(bytes32 _productID) public view returns(bytes32, bytes32, address) {\n        // return (products[_productID][0].productHash, products[_productID][0].conditionsHash); \n        return (products[_productID].productHash, products[_productID].conditionsHash, products[_productID].currentOwner);\n    }\n\n\n    /* CERTIFICATE FUNCTIONS ------------------------------------------------------------------ */\n    \n    // Daria's \n\n    function verifyCA(address _issuer) public {\n\n    }\n\n    function authoriseCA() public {\n\n    }\n\n}",
  "sourcePath": "/Users/dariaschumm/Library/Mobile Documents/com~apple~CloudDocs/6452/project_2/contracts/Product.sol",
  "compiler": {
    "name": "solc",
    "version": "0.8.15+commit.e14f2714.Emscripten.clang"
  },
  "schemaVersion": "3.4.7",
  "updatedAt": "2022-07-11T10:25:07.506Z",
  "networkType": "ethereum",
  "devdoc": {
    "kind": "dev",
    "methods": {},
    "version": 1
  },
  "userdoc": {
    "kind": "user",
    "methods": {},
    "version": 1
  }
}