{
  "contractName": "Product",
  "abi": [
    {
      "inputs": [
        {
          "internalType": "address",
          "name": "_DOA",
          "type": "address"
        },
        {
          "internalType": "address",
          "name": "_owner",
          "type": "address"
        }
      ],
      "stateMutability": "nonpayable",
      "type": "constructor"
    },
    {
      "anonymous": false,
      "inputs": [
        {
          "indexed": false,
          "internalType": "bytes32",
          "name": "certificate",
          "type": "bytes32"
        },
        {
          "indexed": false,
          "internalType": "bytes",
          "name": "signature",
          "type": "bytes"
        }
      ],
      "name": "batchCertificate",
      "type": "event"
    },
    {
      "anonymous": false,
      "inputs": [
        {
          "indexed": false,
          "internalType": "bytes32",
          "name": "productID",
          "type": "bytes32"
        }
      ],
      "name": "batchIdentifier",
      "type": "event"
    },
    {
      "inputs": [
        {
          "internalType": "bytes32",
          "name": "_data",
          "type": "bytes32"
        },
        {
          "internalType": "bytes32",
          "name": "_conditions",
          "type": "bytes32"
        }
      ],
      "name": "addProduct",
      "outputs": [],
      "stateMutability": "nonpayable",
      "type": "function"
    },
    {
      "inputs": [
        {
          "internalType": "bytes32",
          "name": "_updatedData",
          "type": "bytes32"
        }
      ],
      "name": "updateProduct",
      "outputs": [],
      "stateMutability": "nonpayable",
      "type": "function"
    },
    {
      "inputs": [
        {
          "internalType": "bytes32",
          "name": "_updateConditions",
          "type": "bytes32"
        }
      ],
      "name": "updateConditions",
      "outputs": [],
      "stateMutability": "nonpayable",
      "type": "function"
    },
    {
      "inputs": [
        {
          "internalType": "uint256",
          "name": "_temperature",
          "type": "uint256"
        }
      ],
      "name": "updateTemperature",
      "outputs": [],
      "stateMutability": "nonpayable",
      "type": "function"
    },
    {
      "inputs": [
        {
          "internalType": "bytes32",
          "name": "_batchID",
          "type": "bytes32"
        },
        {
          "internalType": "bytes32",
          "name": "_certificate",
          "type": "bytes32"
        },
        {
          "internalType": "bytes",
          "name": "_signature",
          "type": "bytes"
        }
      ],
      "name": "updateCertificate",
      "outputs": [],
      "stateMutability": "nonpayable",
      "type": "function"
    },
    {
      "inputs": [
        {
          "internalType": "bytes32",
          "name": "_batchID",
          "type": "bytes32"
        }
      ],
      "name": "getProduct",
      "outputs": [
        {
          "internalType": "bytes32",
          "name": "",
          "type": "bytes32"
        },
        {
          "internalType": "bytes32",
          "name": "",
          "type": "bytes32"
        },
        {
          "internalType": "address",
          "name": "",
          "type": "address"
        }
      ],
      "stateMutability": "view",
      "type": "function",
      "constant": true
    },
    {
      "inputs": [
        {
          "internalType": "bytes32",
          "name": "_batchID",
          "type": "bytes32"
        }
      ],
      "name": "verifyCertificate",
      "outputs": [
        {
          "internalType": "bool",
          "name": "",
          "type": "bool"
        }
      ],
      "stateMutability": "view",
      "type": "function",
      "constant": true
    }
  ],
  "bytecode": "0x60806040523480156200001157600080fd5b50604051620010553803806200105583398181016040528101906200003791906200012b565b81600160006101000a81548173ffffffffffffffffffffffffffffffffffffffff021916908373ffffffffffffffffffffffffffffffffffffffff16021790555080600060016101000a81548173ffffffffffffffffffffffffffffffffffffffff021916908373ffffffffffffffffffffffffffffffffffffffff160217905550505062000172565b600080fd5b600073ffffffffffffffffffffffffffffffffffffffff82169050919050565b6000620000f382620000c6565b9050919050565b6200010581620000e6565b81146200011157600080fd5b50565b6000815190506200012581620000fa565b92915050565b60008060408385031215620001455762000144620000c1565b5b6000620001558582860162000114565b9250506020620001688582860162000114565b9150509250929050565b610ed380620001826000396000f3fe608060405234801561001057600080fd5b506004361061007d5760003560e01c8063850c17681161005b578063850c1768146100ec578063a3bcb1381461011c578063c089a3b914610138578063f2f93f6b146101545761007d565b80633146610d146100825780633a20e9df1461009e5780635a5ef626146100d0575b600080fd5b61009c60048036038101906100979190610622565b610170565b005b6100b860048036038101906100b39190610662565b610264565b6040516100c7939291906106df565b60405180910390f35b6100ea60048036038101906100e5919061085c565b6102db565b005b61010660048036038101906101019190610662565b610358565b60405161011391906108e6565b60405180910390f35b61013660048036038101906101319190610937565b610452565b005b610152600480360381019061014d9190610662565b610455565b005b61016e60048036038101906101699190610662565b610458565b005b60008282604051602001610185929190610985565b604051602081830303815290604052805190602001209050826002600083815260200190815260200160002060000181905550816002600083815260200190815260200160002060010181905550336002600083815260200190815260200160002060040160006101000a81548173ffffffffffffffffffffffffffffffffffffffff021916908373ffffffffffffffffffffffffffffffffffffffff1602179055507feb12ab352ec0628425cb2d83290a1d034ed2d60ba8d5caf7462e7526ce18d38e8160405161025791906109b1565b60405180910390a1505050565b6000806000600260008581526020019081526020016000206000015460026000868152602001908152602001600020600101546002600087815260200190815260200160002060040160009054906101000a900473ffffffffffffffffffffffffffffffffffffffff169250925092509193909250565b816002600085815260200190815260200160002060020181905550806002600085815260200190815260200160002060030190816103199190610be3565b507faeb1546c2c359892a79841d222bc322861f84b2134c2676cf01ebd20bc52a697828260405161034b929190610d32565b60405180910390a1505050565b60008060026000848152602001908152602001600020600201549050600060026000858152602001908152602001600020600301805461039790610a06565b80601f01602080910402602001604051908101604052809291908181526020018280546103c390610a06565b80156104105780601f106103e557610100808354040283529160200191610410565b820191906000526020600020905b8154815290600101906020018083116103f357829003601f168201915b505050505090506000610423838361045b565b9050600115156104328261052e565b151503610445576001935050505061044d565b600093505050505b919050565b50565b50565b50565b60008060008060418551146104765760009350505050610528565b6020850151925060408501519150606085015160001a9050601b8160ff1610156104aa57601b816104a79190610d9e565b90505b601b8160ff16141580156104c25750601c8160ff1614155b156104d35760009350505050610528565b600186828585604051600081526020016040526040516104f69493929190610de4565b6020604051602081039080840390855afa158015610518573d6000803e3d6000fd5b5050506020604051035193505050505b92915050565b600080600160009054906101000a900473ffffffffffffffffffffffffffffffffffffffff1690508073ffffffffffffffffffffffffffffffffffffffff16636af92956846040518263ffffffff1660e01b815260040161058f9190610e29565b602060405180830381865afa1580156105ac573d6000803e3d6000fd5b505050506040513d601f19601f820116820180604052508101906105d09190610e70565b915050919050565b6000604051905090565b600080fd5b600080fd5b6000819050919050565b6105ff816105ec565b811461060a57600080fd5b50565b60008135905061061c816105f6565b92915050565b60008060408385031215610639576106386105e2565b5b60006106478582860161060d565b92505060206106588582860161060d565b9150509250929050565b600060208284031215610678576106776105e2565b5b60006106868482850161060d565b91505092915050565b610698816105ec565b82525050565b600073ffffffffffffffffffffffffffffffffffffffff82169050919050565b60006106c98261069e565b9050919050565b6106d9816106be565b82525050565b60006060820190506106f4600083018661068f565b610701602083018561068f565b61070e60408301846106d0565b949350505050565b600080fd5b600080fd5b6000601f19601f8301169050919050565b7f4e487b7100000000000000000000000000000000000000000000000000000000600052604160045260246000fd5b61076982610720565b810181811067ffffffffffffffff8211171561078857610787610731565b5b80604052505050565b600061079b6105d8565b90506107a78282610760565b919050565b600067ffffffffffffffff8211156107c7576107c6610731565b5b6107d082610720565b9050602081019050919050565b82818337600083830152505050565b60006107ff6107fa846107ac565b610791565b90508281526020810184848401111561081b5761081a61071b565b5b6108268482856107dd565b509392505050565b600082601f83011261084357610842610716565b5b81356108538482602086016107ec565b91505092915050565b600080600060608486031215610875576108746105e2565b5b60006108838682870161060d565b93505060206108948682870161060d565b925050604084013567ffffffffffffffff8111156108b5576108b46105e7565b5b6108c18682870161082e565b9150509250925092565b60008115159050919050565b6108e0816108cb565b82525050565b60006020820190506108fb60008301846108d7565b92915050565b6000819050919050565b61091481610901565b811461091f57600080fd5b50565b6000813590506109318161090b565b92915050565b60006020828403121561094d5761094c6105e2565b5b600061095b84828501610922565b91505092915050565b6000819050919050565b61097f61097a826105ec565b610964565b82525050565b6000610991828561096e565b6020820191506109a1828461096e565b6020820191508190509392505050565b60006020820190506109c6600083018461068f565b92915050565b600081519050919050565b7f4e487b7100000000000000000000000000000000000000000000000000000000600052602260045260246000fd5b60006002820490506001821680610a1e57607f821691505b602082108103610a3157610a306109d7565b5b50919050565b60008190508160005260206000209050919050565b60006020601f8301049050919050565b600082821b905092915050565b600060088302610a997fffffffffffffffffffffffffffffffffffffffffffffffffffffffffffffffff82610a5c565b610aa38683610a5c565b95508019841693508086168417925050509392505050565b6000819050919050565b6000610ae0610adb610ad684610901565b610abb565b610901565b9050919050565b6000819050919050565b610afa83610ac5565b610b0e610b0682610ae7565b848454610a69565b825550505050565b600090565b610b23610b16565b610b2e818484610af1565b505050565b5b81811015610b5257610b47600082610b1b565b600181019050610b34565b5050565b601f821115610b9757610b6881610a37565b610b7184610a4c565b81016020851015610b80578190505b610b94610b8c85610a4c565b830182610b33565b50505b505050565b600082821c905092915050565b6000610bba60001984600802610b9c565b1980831691505092915050565b6000610bd38383610ba9565b9150826002028217905092915050565b610bec826109cc565b67ffffffffffffffff811115610c0557610c04610731565b5b610c0f8254610a06565b610c1a828285610b56565b600060209050601f831160018114610c4d5760008415610c3b578287015190505b610c458582610bc7565b865550610cad565b601f198416610c5b86610a37565b60005b82811015610c8357848901518255600182019150602085019450602081019050610c5e565b86831015610ca05784890151610c9c601f891682610ba9565b8355505b6001600288020188555050505b505050505050565b600082825260208201905092915050565b60005b83811015610ce4578082015181840152602081019050610cc9565b83811115610cf3576000848401525b50505050565b6000610d04826109cc565b610d0e8185610cb5565b9350610d1e818560208601610cc6565b610d2781610720565b840191505092915050565b6000604082019050610d47600083018561068f565b8181036020830152610d598184610cf9565b90509392505050565b600060ff82169050919050565b7f4e487b7100000000000000000000000000000000000000000000000000000000600052601160045260246000fd5b6000610da982610d62565b9150610db483610d62565b92508260ff03821115610dca57610dc9610d6f565b5b828201905092915050565b610dde81610d62565b82525050565b6000608082019050610df9600083018761068f565b610e066020830186610dd5565b610e13604083018561068f565b610e20606083018461068f565b95945050505050565b6000602082019050610e3e60008301846106d0565b92915050565b610e4d816108cb565b8114610e5857600080fd5b50565b600081519050610e6a81610e44565b92915050565b600060208284031215610e8657610e856105e2565b5b6000610e9484828501610e5b565b9150509291505056fea2646970667358221220475449b94ea29c17552bc4d244e65c06b9619a58605e49eb099ca2039ce8ee3f64736f6c634300080f0033",
  "immutableReferences": {},
  "source": "// SPDX-License-Identifier: MIT\npragma solidity ^0.8.0;\n\nimport \"./CARegistry.sol\"; \n\ncontract Product {\n\n    bool internal locked;                   // lock for payments (not sure if necessary yet)\n    address owner;\n    // address CA;\n    address DOA;                            // Department of Agriculture contract address \n\n    // another option to map multiple structs:\n    // https://ethereum.stackexchange.com/questions/82157/mapping-multiple-structs-to-a-struct-and-call-them\n    \n    // keeps the hash of product data and contions,\n    // certificate infromation and the current owner \n    struct Batch {\n        bytes32 productHash; \n        bytes32 conditionsHash;\n\n        bytes32 certificate; \n        bytes signature;                // created with web3.eth.sign(), bytes \n\n        // uint256 expiration;          // not sure if we need it? \n        // address issuer;\n\n        address currentOwner;\n        uint256 temperature;            // keeping temperature of storage from oracle \n    }\n\n    // maps each product ID to a product data   \n    mapping (bytes32 => Batch) products; \n\n    // alternatively keep as array:\n    // Product[] products; \n\n    constructor(address _DOA, address _owner) {\n        DOA = _DOA; \n        owner = _owner; \n    }\n\n    // only owner can call the function \n    modifier onlyOwner(address _owner) { require(msg.sender == _owner); _; }\n    // only after that time can call the function \n    modifier onlyAfter(uint256 _time) { require(block.timestamp > _time); _; }\n    // only before that time can call the function \n    modifier onlyBefore(uint256 _time) { require(block.timestamp < _time); _;}\n    // lock against reentrancy \n    modifier lock() { \n        require(!locked); \n        locked = true; _; \n        locked = false;\n    }\n\n    // send generated product ID to off-chain \n    event batchIdentifier(bytes32 productID); \n\n    event batchCertificate(bytes32 certificate, bytes signature); \n\n\n    /* PRODUCT FUNCTIONS ------------------------------------------------------------------ */\n\n    // adds product data hash and conditions hash \n    function addProduct(bytes32 _data, bytes32 _conditions) public {\n        bytes32 batchID = bytes32(keccak256(abi.encodePacked(_data, _conditions))); \n        products[batchID].productHash = _data; \n        products[batchID].conditionsHash = _conditions; \n        products[batchID].currentOwner = msg.sender; \n        emit batchIdentifier(batchID);\n    }\n\n    // only current owner \n    function updateProduct(bytes32 _updatedData) public {\n        \n    }\n\n    // \n    function updateConditions(bytes32 _updateConditions) public {\n\n    }\n\n    // requires oracle \n    function updateTemperature(uint256 _temperature) public {\n\n    }\n\n    // update certificate data in product - only authorised CA \n    function updateCertificate(bytes32 _batchID, bytes32 _certificate, bytes memory _signature) public {\n        products[_batchID].certificate = _certificate; \n        products[_batchID].signature = _signature; \n        emit batchCertificate(_certificate, _signature);\n    }\n\n    function getProduct(bytes32 _batchID) public view returns(bytes32, bytes32, address) {\n        return (products[_batchID].productHash, products[_batchID].conditionsHash, products[_batchID].currentOwner);\n    }\n\n\n    /* CERTIFICATE FUNCTIONS ------------------------------------------------------------------ */\n    \n    // anyone can send a product ID and verify its certificate\n    // should check if the certificate exists first, if not then false \n    function verifyCertificate(bytes32 _batchID) external view returns(bool) {\n        bytes32 certificate = products[_batchID].certificate; \n        bytes memory signature = products[_batchID].signature; \n        // recovered issuer from the certificate and his signature \n        address issuer = recoverIssuer(certificate, signature); \n        if (verifyIssuer(issuer) == true) { return true; }\n        return false; \n    }\n\n    // verify that the certifying authority is registered with DOA \n    // and eligible to issue organic certificates\n    function verifyIssuer(address _issuer) internal view returns(bool) {\n        AuthorityRegistry registry = AuthorityRegistry(DOA);  \n        return registry.checkPublicKey(_issuer);\n    }\n\n    /**\n     * @notice functions recovers the signer of the certificate from the provided certificate \n               (message signed by authority) and signature \n     * @dev    called internally from placeBid function  \n     * @param  _hash the batch certificate signed by CA \n     * @param  _sig CA's bytes signature generated using web3.eth.sign()\n     * @return issuer address (authority who issued/signed the organic certificate to the product batch)\n    **/\n    // copyright: https://github.com/protofire/zeppelin-solidity/blob/master/contracts/ECRecovery.sol\n    function recoverIssuer(bytes32 _hash, bytes memory _sig) internal pure returns(address) {\n        bytes32 r; bytes32 s; uint8 v;\n        //Check the signature length\n        if (_sig.length != 65) { return (address(0)); }\n        assembly {\n            r := mload(add(_sig, 32))\n            s := mload(add(_sig, 64))\n            v := byte(0, mload(add(_sig, 96)))\n        }\n        if (v < 27) { v += 27; }\n\n        // If the version is correct return the signer address\n        if (v != 27 && v != 28) { return (address(0)); } \n        else { return ecrecover(_hash, v, r, s); }\n    }\n\n}",
  "sourcePath": "/Users/dariaschumm/Library/Mobile Documents/com~apple~CloudDocs/6452/project_2/contracts/Product.sol",
  "compiler": {
    "name": "solc",
    "version": "0.8.15+commit.e14f2714.Emscripten.clang"
  },
  "schemaVersion": "3.4.7",
  "updatedAt": "2022-07-15T11:36:23.218Z",
  "networkType": "ethereum",
  "devdoc": {
    "kind": "dev",
    "methods": {},
    "version": 1
  },
  "userdoc": {
    "kind": "user",
    "methods": {},
    "version": 1
  }
}