{
  "contractName": "Product",
  "abi": [
    {
      "inputs": [
        {
          "internalType": "address",
          "name": "oracleAddress",
          "type": "address"
        },
        {
          "internalType": "address",
          "name": "_DOA",
          "type": "address"
        },
        {
          "internalType": "address payable",
          "name": "_owner",
          "type": "address"
        }
      ],
      "stateMutability": "nonpayable",
      "type": "constructor"
    },
    {
      "anonymous": false,
      "inputs": [
        {
          "indexed": false,
          "internalType": "string",
          "name": "temperatureStatus",
          "type": "string"
        }
      ],
      "name": "badTemperature",
      "type": "event"
    },
    {
      "anonymous": false,
      "inputs": [
        {
          "indexed": false,
          "internalType": "bytes32",
          "name": "productID",
          "type": "bytes32"
        }
      ],
      "name": "batchIdentifier",
      "type": "event"
    },
    {
      "inputs": [
        {
          "internalType": "uint256",
          "name": "data",
          "type": "uint256"
        },
        {
          "internalType": "bytes32",
          "name": "batchId",
          "type": "bytes32"
        }
      ],
      "name": "receiveDataFromOracle",
      "outputs": [
        {
          "internalType": "bool",
          "name": "",
          "type": "bool"
        }
      ],
      "stateMutability": "nonpayable",
      "type": "function"
    },
    {
      "inputs": [],
      "name": "recvdTemp",
      "outputs": [
        {
          "internalType": "uint256",
          "name": "",
          "type": "uint256"
        }
      ],
      "stateMutability": "view",
      "type": "function",
      "constant": true
    },
    {
      "inputs": [
        {
          "internalType": "address",
          "name": "_producer",
          "type": "address"
        }
      ],
      "name": "addProducer",
      "outputs": [],
      "stateMutability": "nonpayable",
      "type": "function"
    },
    {
      "inputs": [
        {
          "internalType": "bytes32",
          "name": "_data",
          "type": "bytes32"
        },
        {
          "internalType": "uint256",
          "name": "_temperature",
          "type": "uint256"
        },
        {
          "internalType": "string",
          "name": "_CID",
          "type": "string"
        }
      ],
      "name": "addProduct",
      "outputs": [],
      "stateMutability": "nonpayable",
      "type": "function"
    },
    {
      "inputs": [
        {
          "internalType": "bytes32",
          "name": "_batchID",
          "type": "bytes32"
        },
        {
          "internalType": "bytes32",
          "name": "_certificate",
          "type": "bytes32"
        },
        {
          "internalType": "bytes",
          "name": "_signature",
          "type": "bytes"
        }
      ],
      "name": "addCertificate",
      "outputs": [],
      "stateMutability": "nonpayable",
      "type": "function"
    },
    {
      "inputs": [
        {
          "internalType": "bytes32",
          "name": "_batchID",
          "type": "bytes32"
        },
        {
          "internalType": "bytes32",
          "name": "_productHash",
          "type": "bytes32"
        },
        {
          "internalType": "address",
          "name": "_newOwner",
          "type": "address"
        }
      ],
      "name": "updateOwner",
      "outputs": [],
      "stateMutability": "nonpayable",
      "type": "function"
    },
    {
      "inputs": [
        {
          "internalType": "bytes32",
          "name": "_batchID",
          "type": "bytes32"
        },
        {
          "internalType": "bytes32",
          "name": "_offchainHash",
          "type": "bytes32"
        }
      ],
      "name": "verifyProductHash",
      "outputs": [
        {
          "internalType": "bool",
          "name": "",
          "type": "bool"
        }
      ],
      "stateMutability": "view",
      "type": "function",
      "constant": true
    },
    {
      "inputs": [
        {
          "internalType": "address",
          "name": "_producer",
          "type": "address"
        }
      ],
      "name": "getProducer",
      "outputs": [
        {
          "internalType": "bool",
          "name": "",
          "type": "bool"
        }
      ],
      "stateMutability": "view",
      "type": "function",
      "constant": true
    },
    {
      "inputs": [
        {
          "internalType": "bytes32",
          "name": "_batchID",
          "type": "bytes32"
        }
      ],
      "name": "getProduct",
      "outputs": [
        {
          "internalType": "bytes32",
          "name": "",
          "type": "bytes32"
        },
        {
          "internalType": "address",
          "name": "",
          "type": "address"
        }
      ],
      "stateMutability": "view",
      "type": "function",
      "constant": true
    },
    {
      "inputs": [
        {
          "internalType": "bytes32",
          "name": "_batchID",
          "type": "bytes32"
        }
      ],
      "name": "getCertificate",
      "outputs": [
        {
          "internalType": "bytes32",
          "name": "",
          "type": "bytes32"
        },
        {
          "internalType": "bytes",
          "name": "",
          "type": "bytes"
        }
      ],
      "stateMutability": "view",
      "type": "function",
      "constant": true
    },
    {
      "inputs": [
        {
          "internalType": "bytes32",
          "name": "_batchID",
          "type": "bytes32"
        }
      ],
      "name": "getDatabase",
      "outputs": [
        {
          "internalType": "string",
          "name": "",
          "type": "string"
        }
      ],
      "stateMutability": "view",
      "type": "function",
      "constant": true
    },
    {
      "inputs": [
        {
          "internalType": "bytes32",
          "name": "_batchID",
          "type": "bytes32"
        }
      ],
      "name": "getTemperature",
      "outputs": [
        {
          "internalType": "uint256",
          "name": "",
          "type": "uint256"
        }
      ],
      "stateMutability": "view",
      "type": "function",
      "constant": true
    },
    {
      "inputs": [
        {
          "internalType": "bytes32",
          "name": "_batchID",
          "type": "bytes32"
        }
      ],
      "name": "getStatus",
      "outputs": [
        {
          "internalType": "bool",
          "name": "",
          "type": "bool"
        }
      ],
      "stateMutability": "view",
      "type": "function",
      "constant": true
    },
    {
      "inputs": [
        {
          "internalType": "bytes32",
          "name": "_batchID",
          "type": "bytes32"
        }
      ],
      "name": "requestTemperature",
      "outputs": [],
      "stateMutability": "nonpayable",
      "type": "function"
    },
    {
      "inputs": [],
      "name": "checkTemp",
      "outputs": [
        {
          "internalType": "uint256",
          "name": "",
          "type": "uint256"
        }
      ],
      "stateMutability": "view",
      "type": "function",
      "constant": true
    },
    {
      "inputs": [
        {
          "internalType": "bytes32",
          "name": "_batchID",
          "type": "bytes32"
        },
        {
          "internalType": "uint256",
          "name": "_temperature",
          "type": "uint256"
        }
      ],
      "name": "updateStatus",
      "outputs": [],
      "stateMutability": "nonpayable",
      "type": "function"
    },
    {
      "inputs": [
        {
          "internalType": "bytes32",
          "name": "_batchID",
          "type": "bytes32"
        }
      ],
      "name": "verifyCertificate",
      "outputs": [
        {
          "internalType": "bool",
          "name": "",
          "type": "bool"
        }
      ],
      "stateMutability": "view",
      "type": "function",
      "constant": true
    },
    {
      "inputs": [],
      "name": "destroyContract",
      "outputs": [],
      "stateMutability": "nonpayable",
      "type": "function"
    },
    {
      "inputs": [],
      "name": "emergencyHalt",
      "outputs": [],
      "stateMutability": "nonpayable",
      "type": "function"
    },
    {
      "inputs": [],
      "name": "restartContract",
      "outputs": [],
      "stateMutability": "nonpayable",
      "type": "function"
    }
  ],
  "bytecode": "0x60806040523480156200001157600080fd5b5060405162002c7838038062002c788339818101604052810190620000379190620001b3565b82806000806101000a81548173ffffffffffffffffffffffffffffffffffffffff021916908373ffffffffffffffffffffffffffffffffffffffff1602179055505081600260006101000a81548173ffffffffffffffffffffffffffffffffffffffff021916908373ffffffffffffffffffffffffffffffffffffffff16021790555080600160006101000a81548173ffffffffffffffffffffffffffffffffffffffff021916908373ffffffffffffffffffffffffffffffffffffffff1602179055505050506200020f565b600080fd5b600073ffffffffffffffffffffffffffffffffffffffff82169050919050565b6000620001368262000109565b9050919050565b620001488162000129565b81146200015457600080fd5b50565b60008151905062000168816200013d565b92915050565b60006200017b8262000109565b9050919050565b6200018d816200016e565b81146200019957600080fd5b50565b600081519050620001ad8162000182565b92915050565b600080600060608486031215620001cf57620001ce62000104565b5b6000620001df8682870162000157565b9350506020620001f28682870162000157565b925050604062000205868287016200019c565b9150509250925092565b612a59806200021f6000396000f3fe608060405234801561001057600080fd5b506004361061012c5760003560e01c806373e6e96e116100ad578063b83ce91911610071578063b83ce9191461032e578063bfc9554e1461034a578063ddf801661461037a578063f333fe0814610396578063f3ec6185146103c75761012c565b806373e6e96e14610266578063850c1768146102825780638ec394d1146102b2578063a9213874146102ce578063aab147b2146102fe5761012c565b80633a20e9df116100f45780633a20e9df146101af57806351755334146101e05780635950c3fb146101ea5780635de28ae01461020657806362004e63146102365761012c565b8063092a5cce146101315780631364de641461013b57806324c45f68146101575780632afbb1cb1461018757806330a52d5b146101a5575b600080fd5b6101396103e5565b005b61015560048036038101906101509190611960565b6104b0565b005b610171600480360381019061016c91906119c3565b6104bc565b60405161017e9190611a1e565b60405180910390f35b61018f61055f565b60405161019c9190611a48565b60405180910390f35b6101ad610569565b005b6101c960048036038101906101c49190611960565b61066d565b6040516101d7929190611ab3565b60405180910390f35b6101e861071f565b005b61020460048036038101906101ff9190611c22565b610824565b005b610220600480360381019061021b9190611960565b610aa9565b60405161022d9190611a1e565b60405180910390f35b610250600480360381019061024b9190611960565b610ad6565b60405161025d9190611d19565b60405180910390f35b610280600480360381019061027b9190611d3b565b610bd3565b005b61029c60048036038101906102979190611960565b610ce2565b6040516102a99190611a1e565b60405180910390f35b6102cc60048036038101906102c79190611e1c565b610e34565b005b6102e860048036038101906102e39190611e8b565b611052565b6040516102f59190611a1e565b60405180910390f35b61031860048036038101906103139190611ef7565b6110dc565b6040516103259190611a1e565b60405180910390f35b61034860048036038101906103439190611f24565b611189565b005b610364600480360381019061035f9190611960565b611382565b6040516103719190611a48565b60405180910390f35b610394600480360381019061038f9190611ef7565b6113a2565b005b6103b060048036038101906103ab9190611960565b6114e5565b6040516103be929190611fcc565b60405180910390f35b6103cf611603565b6040516103dc9190611a48565b60405180910390f35b3373ffffffffffffffffffffffffffffffffffffffff16600160009054906101000a900473ffffffffffffffffffffffffffffffffffffffff1673ffffffffffffffffffffffffffffffffffffffff1614610475576040517f08c379a000000000000000000000000000000000000000000000000000000000815260040161046c9061206e565b60405180910390fd5b600160009054906101000a900473ffffffffffffffffffffffffffffffffffffffff1673ffffffffffffffffffffffffffffffffffffffff16ff5b6104b981611609565b50565b60008060009054906101000a900473ffffffffffffffffffffffffffffffffffffffff1673ffffffffffffffffffffffffffffffffffffffff163373ffffffffffffffffffffffffffffffffffffffff161461054d576040517f08c379a000000000000000000000000000000000000000000000000000000000815260040161054490612100565b60405180910390fd5b6105578284611697565b905092915050565b6000600354905090565b3373ffffffffffffffffffffffffffffffffffffffff16600160009054906101000a900473ffffffffffffffffffffffffffffffffffffffff1673ffffffffffffffffffffffffffffffffffffffff16146105f9576040517f08c379a00000000000000000000000000000000000000000000000000000000081526004016105f09061206e565b60405180910390fd5b6001801515600060149054906101000a900460ff16151514610650576040517f08c379a00000000000000000000000000000000000000000000000000000000081526004016106479061216c565b60405180910390fd5b60008060146101000a81548160ff02191690831515021790555050565b6000806000801515600060149054906101000a900460ff161515146106c7576040517f08c379a00000000000000000000000000000000000000000000000000000000081526004016106be9061216c565b60405180910390fd5b60046000858152602001908152602001600020600001546004600086815260200190815260200160002060030160009054906101000a900473ffffffffffffffffffffffffffffffffffffffff169250925050915091565b3373ffffffffffffffffffffffffffffffffffffffff16600160009054906101000a900473ffffffffffffffffffffffffffffffffffffffff1673ffffffffffffffffffffffffffffffffffffffff16146107af576040517f08c379a00000000000000000000000000000000000000000000000000000000081526004016107a69061206e565b60405180910390fd5b6000801515600060149054906101000a900460ff16151514610806576040517f08c379a00000000000000000000000000000000000000000000000000000000081526004016107fd9061216c565b60405180910390fd5b6001600060146101000a81548160ff02191690831515021790555050565b6000801515600060149054906101000a900460ff1615151461087b576040517f08c379a00000000000000000000000000000000000000000000000000000000081526004016108729061216c565b60405180910390fd5b3360011515600660008373ffffffffffffffffffffffffffffffffffffffff1673ffffffffffffffffffffffffffffffffffffffff16815260200190815260200160002060009054906101000a900460ff1615151461090f576040517f08c379a0000000000000000000000000000000000000000000000000000000008152600401610906906121fe565b60405180910390fd5b600085604051602001610922919061223f565b604051602081830303815290604052805190602001209050856004600083815260200190815260200160002060000181905550336004600083815260200190815260200160002060030160006101000a81548173ffffffffffffffffffffffffffffffffffffffff021916908373ffffffffffffffffffffffffffffffffffffffff160217905550336004600083815260200190815260200160002060040160006101000a81548173ffffffffffffffffffffffffffffffffffffffff021916908373ffffffffffffffffffffffffffffffffffffffff16021790555084600460008381526020019081526020016000206005018190555060016004600083815260200190815260200160002060060160006101000a81548160ff02191690831515021790555083600560008381526020019081526020016000209081610a699190612466565b507feb12ab352ec0628425cb2d83290a1d034ed2d60ba8d5caf7462e7526ce18d38e81604051610a999190612538565b60405180910390a1505050505050565b60006004600083815260200190815260200160002060060160009054906101000a900460ff169050919050565b60606000801515600060149054906101000a900460ff16151514610b2f576040517f08c379a0000000000000000000000000000000000000000000000000000000008152600401610b269061216c565b60405180910390fd5b600560008481526020019081526020016000208054610b4d90612289565b80601f0160208091040260200160405190810160405280929190818152602001828054610b7990612289565b8015610bc65780601f10610b9b57610100808354040283529160200191610bc6565b820191906000526020600020905b815481529060010190602001808311610ba957829003601f168201915b5050505050915050919050565b6000801515600060149054906101000a900460ff16151514610c2a576040517f08c379a0000000000000000000000000000000000000000000000000000000008152600401610c219061216c565b60405180910390fd5b33833373ffffffffffffffffffffffffffffffffffffffff166004600083815260200190815260200160002060030160009054906101000a900473ffffffffffffffffffffffffffffffffffffffff1673ffffffffffffffffffffffffffffffffffffffff1614610cd0576040517f08c379a0000000000000000000000000000000000000000000000000000000008152600401610cc7906125c5565b60405180910390fd5b610cda85856116aa565b505050505050565b600080801515600060149054906101000a900460ff16151514610d3a576040517f08c379a0000000000000000000000000000000000000000000000000000000008152600401610d319061216c565b60405180910390fd5b6000600460008581526020019081526020016000206001015490506000600460008681526020019081526020016000206002018054610d7890612289565b80601f0160208091040260200160405190810160405280929190818152602001828054610da490612289565b8015610df15780601f10610dc657610100808354040283529160200191610df1565b820191906000526020600020905b815481529060010190602001808311610dd457829003601f168201915b505050505090506000610e048383611799565b905060011515610e138261186c565b151503610e265760019450505050610e2e565b600094505050505b50919050565b6000801515600060149054906101000a900460ff16151514610e8b576040517f08c379a0000000000000000000000000000000000000000000000000000000008152600401610e829061216c565b60405180910390fd5b33843373ffffffffffffffffffffffffffffffffffffffff166004600083815260200190815260200160002060030160009054906101000a900473ffffffffffffffffffffffffffffffffffffffff1673ffffffffffffffffffffffffffffffffffffffff1614610f31576040517f08c379a0000000000000000000000000000000000000000000000000000000008152600401610f28906125c5565b60405180910390fd5b6004600087815260200190815260200160002060030160009054906101000a900473ffffffffffffffffffffffffffffffffffffffff1673ffffffffffffffffffffffffffffffffffffffff166004600088815260200190815260200160002060040160009054906101000a900473ffffffffffffffffffffffffffffffffffffffff1673ffffffffffffffffffffffffffffffffffffffff161461100b576040517f08c379a000000000000000000000000000000000000000000000000000000000815260040161100290612657565b60405180910390fd5b8460046000888152602001908152602001600020600101819055508360046000888152602001908152602001600020600201908161104991906126d2565b50505050505050565b600080801515600060149054906101000a900460ff161515146110aa576040517f08c379a00000000000000000000000000000000000000000000000000000000081526004016110a19061216c565b60405180910390fd5b826004600086815260200190815260200160002060000154036110d057600191506110d5565b600091505b5092915050565b600080801515600060149054906101000a900460ff16151514611134576040517f08c379a000000000000000000000000000000000000000000000000000000000815260040161112b9061216c565b60405180910390fd5b600660008473ffffffffffffffffffffffffffffffffffffffff1673ffffffffffffffffffffffffffffffffffffffff16815260200190815260200160002060009054906101000a900460ff16915050919050565b6000801515600060149054906101000a900460ff161515146111e0576040517f08c379a00000000000000000000000000000000000000000000000000000000081526004016111d79061216c565b60405180910390fd5b33843373ffffffffffffffffffffffffffffffffffffffff166004600083815260200190815260200160002060030160009054906101000a900473ffffffffffffffffffffffffffffffffffffffff1673ffffffffffffffffffffffffffffffffffffffff1614611286576040517f08c379a000000000000000000000000000000000000000000000000000000000815260040161127d906125c5565b60405180910390fd5b600115156112948787611052565b1515146112d6576040517f08c379a00000000000000000000000000000000000000000000000000000000081526004016112cd906127f0565b60405180910390fd5b600115156112e387610ce2565b151514611325576040517f08c379a000000000000000000000000000000000000000000000000000000000815260040161131c9061285c565b60405180910390fd5b836004600088815260200190815260200160002060030160006101000a81548173ffffffffffffffffffffffffffffffffffffffff021916908373ffffffffffffffffffffffffffffffffffffffff160217905550505050505050565b600060046000838152602001908152602001600020600501549050919050565b6000801515600060149054906101000a900460ff161515146113f9576040517f08c379a00000000000000000000000000000000000000000000000000000000081526004016113f09061216c565b60405180910390fd5b3373ffffffffffffffffffffffffffffffffffffffff16600160009054906101000a900473ffffffffffffffffffffffffffffffffffffffff1673ffffffffffffffffffffffffffffffffffffffff1614611489576040517f08c379a00000000000000000000000000000000000000000000000000000000081526004016114809061206e565b60405180910390fd5b6001600660008473ffffffffffffffffffffffffffffffffffffffff1673ffffffffffffffffffffffffffffffffffffffff16815260200190815260200160002060006101000a81548160ff0219169083151502179055505050565b600060606000801515600060149054906101000a900460ff16151514611540576040517f08c379a00000000000000000000000000000000000000000000000000000000081526004016115379061216c565b60405180910390fd5b60046000858152602001908152602001600020600101546004600086815260200190815260200160002060020180805461157990612289565b80601f01602080910402602001604051908101604052809291908181526020018280546115a590612289565b80156115f25780601f106115c7576101008083540402835291602001916115f2565b820191906000526020600020905b8154815290600101906020018083116115d557829003601f168201915b505050505090509250925050915091565b60035481565b60008054906101000a900473ffffffffffffffffffffffffffffffffffffffff1673ffffffffffffffffffffffffffffffffffffffff16633661346b826040518263ffffffff1660e01b81526004016116629190612538565b600060405180830381600087803b15801561167c57600080fd5b505af1158015611690573d6000803e3d6000fd5b5050505050565b6000816003819055506001905092915050565b600080801515600060149054906101000a900460ff16151514611702576040517f08c379a00000000000000000000000000000000000000000000000000000000081526004016116f99061216c565b60405180910390fd5b600460008581526020019081526020016000206005015483111561178d5760006004600086815260200190815260200160002060060160006101000a81548160ff0219169083151502179055507f0c4f92ed77d9fa902beaf243a115f2e4a124ac20d2cef5185a853af231f93bfc60405161177c906128c8565b60405180910390a160009150611792565b600191505b5092915050565b60008060008060418551146117b45760009350505050611866565b6020850151925060408501519150606085015160001a9050601b8160ff1610156117e857601b816117e59190612924565b90505b601b8160ff16141580156118005750601c8160ff1614155b156118115760009350505050611866565b60018682858560405160008152602001604052604051611834949392919061296a565b6020604051602081039080840390855afa158015611856573d6000803e3d6000fd5b5050506020604051035193505050505b92915050565b600080600260009054906101000a900473ffffffffffffffffffffffffffffffffffffffff1690508073ffffffffffffffffffffffffffffffffffffffff16636af92956846040518263ffffffff1660e01b81526004016118cd91906129af565b602060405180830381865afa1580156118ea573d6000803e3d6000fd5b505050506040513d601f19601f8201168201806040525081019061190e91906129f6565b915050919050565b6000604051905090565b600080fd5b600080fd5b6000819050919050565b61193d8161192a565b811461194857600080fd5b50565b60008135905061195a81611934565b92915050565b60006020828403121561197657611975611920565b5b60006119848482850161194b565b91505092915050565b6000819050919050565b6119a08161198d565b81146119ab57600080fd5b50565b6000813590506119bd81611997565b92915050565b600080604083850312156119da576119d9611920565b5b60006119e8858286016119ae565b92505060206119f98582860161194b565b9150509250929050565b60008115159050919050565b611a1881611a03565b82525050565b6000602082019050611a336000830184611a0f565b92915050565b611a428161198d565b82525050565b6000602082019050611a5d6000830184611a39565b92915050565b611a6c8161192a565b82525050565b600073ffffffffffffffffffffffffffffffffffffffff82169050919050565b6000611a9d82611a72565b9050919050565b611aad81611a92565b82525050565b6000604082019050611ac86000830185611a63565b611ad56020830184611aa4565b9392505050565b600080fd5b600080fd5b6000601f19601f8301169050919050565b7f4e487b7100000000000000000000000000000000000000000000000000000000600052604160045260246000fd5b611b2f82611ae6565b810181811067ffffffffffffffff82111715611b4e57611b4d611af7565b5b80604052505050565b6000611b61611916565b9050611b6d8282611b26565b919050565b600067ffffffffffffffff821115611b8d57611b8c611af7565b5b611b9682611ae6565b9050602081019050919050565b82818337600083830152505050565b6000611bc5611bc084611b72565b611b57565b905082815260208101848484011115611be157611be0611ae1565b5b611bec848285611ba3565b509392505050565b600082601f830112611c0957611c08611adc565b5b8135611c19848260208601611bb2565b91505092915050565b600080600060608486031215611c3b57611c3a611920565b5b6000611c498682870161194b565b9350506020611c5a868287016119ae565b925050604084013567ffffffffffffffff811115611c7b57611c7a611925565b5b611c8786828701611bf4565b9150509250925092565b600081519050919050565b600082825260208201905092915050565b60005b83811015611ccb578082015181840152602081019050611cb0565b83811115611cda576000848401525b50505050565b6000611ceb82611c91565b611cf58185611c9c565b9350611d05818560208601611cad565b611d0e81611ae6565b840191505092915050565b60006020820190508181036000830152611d338184611ce0565b905092915050565b60008060408385031215611d5257611d51611920565b5b6000611d608582860161194b565b9250506020611d71858286016119ae565b9150509250929050565b600067ffffffffffffffff821115611d9657611d95611af7565b5b611d9f82611ae6565b9050602081019050919050565b6000611dbf611dba84611d7b565b611b57565b905082815260208101848484011115611ddb57611dda611ae1565b5b611de6848285611ba3565b509392505050565b600082601f830112611e0357611e02611adc565b5b8135611e13848260208601611dac565b91505092915050565b600080600060608486031215611e3557611e34611920565b5b6000611e438682870161194b565b9350506020611e548682870161194b565b925050604084013567ffffffffffffffff811115611e7557611e74611925565b5b611e8186828701611dee565b9150509250925092565b60008060408385031215611ea257611ea1611920565b5b6000611eb08582860161194b565b9250506020611ec18582860161194b565b9150509250929050565b611ed481611a92565b8114611edf57600080fd5b50565b600081359050611ef181611ecb565b92915050565b600060208284031215611f0d57611f0c611920565b5b6000611f1b84828501611ee2565b91505092915050565b600080600060608486031215611f3d57611f3c611920565b5b6000611f4b8682870161194b565b9350506020611f5c8682870161194b565b9250506040611f6d86828701611ee2565b9150509250925092565b600081519050919050565b600082825260208201905092915050565b6000611f9e82611f77565b611fa88185611f82565b9350611fb8818560208601611cad565b611fc181611ae6565b840191505092915050565b6000604082019050611fe16000830185611a63565b8181036020830152611ff38184611f93565b90509392505050565b7f6f6e6c7920636f6e7472616374206f776e65722063616e2063616c6c2074686960008201527f732066756e6374696f6e00000000000000000000000000000000000000000000602082015250565b6000612058602a83611c9c565b915061206382611ffc565b604082019050919050565b600060208201905081810360008301526120878161204b565b9050919050565b7f64617461206d75737420636f6d652066726f6d20746865206f7261636c65206360008201527f6f6e747261637400000000000000000000000000000000000000000000000000602082015250565b60006120ea602783611c9c565b91506120f58261208e565b604082019050919050565b60006020820190508181036000830152612119816120dd565b9050919050565b7f636f6e74726163742068616c7400000000000000000000000000000000000000600082015250565b6000612156600d83611c9c565b915061216182612120565b602082019050919050565b6000602082019050818103600083015261218581612149565b9050919050565b7f6f6e6c7920617574686f72697365642070726f64756365722063616e2063616c60008201527f6c20746869732066756e6374696f6e0000000000000000000000000000000000602082015250565b60006121e8602f83611c9c565b91506121f38261218c565b604082019050919050565b60006020820190508181036000830152612217816121db565b9050919050565b6000819050919050565b6122396122348261192a565b61221e565b82525050565b600061224b8284612228565b60208201915081905092915050565b7f4e487b7100000000000000000000000000000000000000000000000000000000600052602260045260246000fd5b600060028204905060018216806122a157607f821691505b6020821081036122b4576122b361225a565b5b50919050565b60008190508160005260206000209050919050565b60006020601f8301049050919050565b600082821b905092915050565b60006008830261231c7fffffffffffffffffffffffffffffffffffffffffffffffffffffffffffffffff826122df565b61232686836122df565b95508019841693508086168417925050509392505050565b6000819050919050565b600061236361235e6123598461198d565b61233e565b61198d565b9050919050565b6000819050919050565b61237d83612348565b6123916123898261236a565b8484546122ec565b825550505050565b600090565b6123a6612399565b6123b1818484612374565b505050565b5b818110156123d5576123ca60008261239e565b6001810190506123b7565b5050565b601f82111561241a576123eb816122ba565b6123f4846122cf565b81016020851015612403578190505b61241761240f856122cf565b8301826123b6565b50505b505050565b600082821c905092915050565b600061243d6000198460080261241f565b1980831691505092915050565b6000612456838361242c565b9150826002028217905092915050565b61246f82611c91565b67ffffffffffffffff81111561248857612487611af7565b5b6124928254612289565b61249d8282856123d9565b600060209050601f8311600181146124d057600084156124be578287015190505b6124c8858261244a565b865550612530565b601f1984166124de866122ba565b60005b82811015612506578489015182556001820191506020850194506020810190506124e1565b86831015612523578489015161251f601f89168261242c565b8355505b6001600288020188555050505b505050505050565b600060208201905061254d6000830184611a63565b92915050565b7f6f6e6c79206f776e65722063616e2063616c6c20746869732066756e6374696f60008201527f6e00000000000000000000000000000000000000000000000000000000000000602082015250565b60006125af602183611c9c565b91506125ba82612553565b604082019050919050565b600060208201905081810360008301526125de816125a2565b9050919050565b7f70726f6475636572206f6620746865206261746368206973206e6f742074686560008201527f206f776e65720000000000000000000000000000000000000000000000000000602082015250565b6000612641602683611c9c565b915061264c826125e5565b604082019050919050565b6000602082019050818103600083015261267081612634565b9050919050565b60008190508160005260206000209050919050565b601f8211156126cd5761269e81612677565b6126a7846122cf565b810160208510156126b6578190505b6126ca6126c2856122cf565b8301826123b6565b50505b505050565b6126db82611f77565b67ffffffffffffffff8111156126f4576126f3611af7565b5b6126fe8254612289565b61270982828561268c565b600060209050601f83116001811461273c576000841561272a578287015190505b612734858261244a565b86555061279c565b601f19841661274a86612677565b60005b828110156127725784890151825560018201915060208501945060208101905061274d565b8683101561278f578489015161278b601f89168261242c565b8355505b6001600288020188555050505b505050505050565b7f70726f64756374206861736820766572696669636174696f6e206661696c6564600082015250565b60006127da602083611c9c565b91506127e5826127a4565b602082019050919050565b60006020820190508181036000830152612809816127cd565b9050919050565b7f636572746966696361746520766572696669636174696f6e206661696c656400600082015250565b6000612846601f83611c9c565b915061285182612810565b602082019050919050565b6000602082019050818103600083015261287581612839565b9050919050565b7f74656d7065726174757265206973206c6f770000000000000000000000000000600082015250565b60006128b2601283611c9c565b91506128bd8261287c565b602082019050919050565b600060208201905081810360008301526128e1816128a5565b9050919050565b600060ff82169050919050565b7f4e487b7100000000000000000000000000000000000000000000000000000000600052601160045260246000fd5b600061292f826128e8565b915061293a836128e8565b92508260ff038211156129505761294f6128f5565b5b828201905092915050565b612964816128e8565b82525050565b600060808201905061297f6000830187611a63565b61298c602083018661295b565b6129996040830185611a63565b6129a66060830184611a63565b95945050505050565b60006020820190506129c46000830184611aa4565b92915050565b6129d381611a03565b81146129de57600080fd5b50565b6000815190506129f0816129ca565b92915050565b600060208284031215612a0c57612a0b611920565b5b6000612a1a848285016129e1565b9150509291505056fea2646970667358221220a42d6b3a2874e42d5eebe5573d4506fd7a7199fd9ae00375c1e92fb4395962e064736f6c634300080f0033",
  "immutableReferences": {},
  "source": "// SPDX-License-Identifier: MIT\npragma solidity ^0.8.0;\n\nimport \"./CARegistry.sol\"; \nimport \"./OracleClient.sol\";\n\ncontract Product is TemperatureOracleClient {\n\n    bool internal halted;\n    bool internal locked;               // lock for payments (not sure if necessary yet)\n    address payable owner;              // owner of this contract (who deployed)\n    address DOA;                        // Department of Agriculture contract address \n    uint256 public recvdTemp;\n\n    struct Batch {                      // keeps the hash of product data and conditions \n        bytes32 productHash;            // hash of the data stored off-chain \n        bytes32 certificate;            // organic product certification \n        bytes signature;                // created with web3.eth.sign(), bytes by issuer \n        address owner;                  // current owner of the product batch \n        address producer;               // who produced the batch \n        uint256 temperature;            // required temp of the product as provided in required conitions\n        bool status;                    // the status of the product, true means ok - not sure if needed\n    }\n    \n    mapping (bytes32 => Batch) products;    // maps each product ID to a product data   \n    mapping (bytes32 => string) database;   // maps batchID to IPFS storage link \n    mapping (address => bool) producers;    // eligible producers to add products \n\n    constructor(address oracleAddress, address _DOA, address payable _owner) TemperatureOracleClient(oracleAddress) {\n        DOA = _DOA; \n        owner = _owner; \n    }\n\n    // check whether contract is active or not \n    modifier halt(bool _status) { require(halted == _status, \"contract halt\"); _; }    \n    // check if the caller the current owner of the batch\n    modifier onlyOwner(address _address, bytes32 _batchID) { require(products[_batchID].owner == msg.sender, \"only owner can call this function\"); _; }\n    // check if the producer authorised to add products\n    modifier onlyProducer(address _address) { require(producers[_address] == true, \"only authorised producer can call this function\"); _; }\n    // check if the caller is the contract owner \n    modifier onlyDeployer() { require(owner == msg.sender, \"only contract owner can call this function\"); _; }\n    \n    // lock against reentrancy \n    modifier lock() { \n        require(!locked); \n        locked = true; _; \n        locked = false;\n    }\n\n    // send generated product ID to off-chain \n    event batchIdentifier(bytes32 productID); \n\n    /* PRODUCT FUNCTIONS ------------------------------------------------------------------ */\n\n    /**\n     * @notice contract deployer adds authorised producer\n     *         to the mapping, which gives permissions to \n     *         add products and certificate \n     * @dev    only contract owner can call \n     * @param  _producer batch producer address \n    **/\n    function addProducer(address _producer) public halt(false) onlyDeployer() {\n        producers[_producer] = true; \n    }\n\n    /**\n     * @notice add product infromation to the data hash\n     *         and conditions hash generated from off-chain\n     * @dev    only registered producer can call \n     * @param  _data product data hash \n     * @param  _temperature stores required temperature\n     * @param  _CID unique identifier of the off-chain storage\n    **/\n    function addProduct(bytes32 _data, uint256 _temperature, string memory _CID) public halt(false) onlyProducer(msg.sender) {\n        bytes32 batchID = bytes32(keccak256(abi.encodePacked(_data))); \n        products[batchID].productHash = _data; \n        products[batchID].owner = msg.sender; \n        products[batchID].producer = msg.sender;\n        products[batchID].temperature = _temperature; \n        products[batchID].status = true;\n        database[batchID] = _CID; \n        emit batchIdentifier(batchID);\n    }\n\n    /**\n     * @notice producer adds a certificate obtained from the \n     *         CA from off-chain, the producer has to be the \n     *         current batch owner to add certificate \n     * @dev    only the producer of the product can call \n     * @param  _batchID unique identifier of the batch \n     * @param  _certificate certificate certifying product batch\n     * @param  _signature signature of the certificate issuer \n    **/\n    function addCertificate(bytes32 _batchID, bytes32 _certificate, bytes memory _signature) public halt(false) onlyOwner(msg.sender, _batchID) {\n        require(products[_batchID].producer == products[_batchID].owner, \"producer of the batch is not the owner\"); \n        products[_batchID].certificate = _certificate; \n        products[_batchID].signature = _signature; \n    }\n\n    /**\n     * @notice transfer the ownership of the product batch, supported by \n     *         certificate verification and check of the product hash\n     *         that is stored on-chain and freshly computed one\n     * @dev    only the current owner of the product can call \n     * @param  _batchID unique identifier of the batch \n     * @param  _productHash hash of the product to verify\n     * @param  _newOwner address of a new batch owner \n    **/\n    function updateOwner(bytes32 _batchID, bytes32 _productHash, address _newOwner) public halt(false) onlyOwner(msg.sender, _batchID) {\n        require(verifyProductHash(_batchID, _productHash) == true, \"product hash verification failed\"); \n        require(verifyCertificate(_batchID) == true, \"certificate verification failed\");\n        products[_batchID].owner = _newOwner; \n    }\n\n    /* VERIFICATION FUNCTIONS ----------------------------------------------------------------- */\n\n    /**\n     * @notice allows to verify data in the off-chain data store about product\n     * @dev    anyone can call \n     * @param  _batchID unique identifier of the batch \n     * @param  _offchainHash certificate certifying product batch\n     * @return bool if the hash stored on-chain is the same as newly computed hash,\n     *         then product infromation is correct and has not been modified \n    **/\n    function verifyProductHash(bytes32 _batchID, bytes32 _offchainHash) public halt(false) view returns (bool) {\n        if (products[_batchID].productHash == _offchainHash) { return true;}\n        return false;\n    }\n\n    /* GETTER FUNCTIONS ----------------------------------------------------------------------- */\n\n    /**\n     * @notice checks whether the producer address is\n     *         authorised to add product and certificate\n     * @dev    anyone can call function \n     * @param  _producer batch producer address \n     * @return bool true if address is in mapping \n    **/\n    function getProducer(address _producer) public view halt(false) returns(bool) {\n        return producers[_producer]; \n    }\n\n    /**\n     * @notice get the product hash and owner by its unique ID\n     * @dev    anyone can call function \n     * @param  _batchID unique batch ID to get the product \n     * @return bytes32 product hash stored on-chain \n     * @return address of the current owner of the batch \n    **/\n    function getProduct(bytes32 _batchID) public view halt(false) returns(bytes32, address) {\n        return (products[_batchID].productHash, products[_batchID].owner);\n    }\n\n    /**\n     * @notice get the product certificate and signer signature\n     * @dev    anyone can call function \n     * @param  _batchID unique batch ID to get the product \n     * @return bytes32 batch certificate on-chain\n     * @return bytes array of the issuer signature\n    **/\n    function getCertificate(bytes32 _batchID) public view halt(false) returns(bytes32, bytes memory) {\n        return (products[_batchID].certificate, products[_batchID].signature); \n    }\n\n    /**\n     * @notice get the product off-chain storage location \n     * @dev    anyone can call function \n     * @param  _batchID unique batch ID to get the product \n     * @return string unique IPFS storage identifier (CID)\n    **/\n    function getDatabase(bytes32 _batchID) public view halt(false) returns(string memory) {\n        return database[_batchID]; \n    }\n\n    function getTemperature(bytes32 _batchID) public view returns(uint256) {\n        return products[_batchID].temperature; \n    }\n\n    function getStatus(bytes32 _batchID) public view returns(bool) {\n        return products[_batchID].status;\n    }\n\n    /* ORACLE FUNCTIONS -------------------------------------------------------------------- */\n\n    // send a request to the oracle for the temperature\n    // remember what oracle requests are associated with what batches\n    function requestTemperature(bytes32 _batchID) public {\n        requestTemperatureFromOracle(_batchID);\n    }\n\n    event badTemperature(string temperatureStatus); \n\n    // receive the reply from the oracle\n    // this will check received temp against required temp in products \n    function receiveTemperatureFromOracle(bytes32 _batchID, uint256 _recvdTemp) internal override returns(bool) {\n        // return compareTemperature(_batchID, _recvdTemp);\n        recvdTemp = _recvdTemp; \n\n        // if (_recvdTemp > products[_batchID].temperature) {\n        //     products[_batchID].status = false;\n        //     emit badTemperature(\"temperature is low\");\n        //     return false; \n        // }\n        return true;\n    }\n\n    function checkTemp() public view returns(uint256) {\n        return recvdTemp; \n    }\n\n    /* TEMPERATURE FUNCTIONS ------------------------------------------------------------------ */\n\n    // requires oracle \n    // have restricted to private so anyone cannot call this \n    // is there a way to resctrict this to the oracle?\n    function compareTemperature(bytes32 _batchID, uint256 _temperature) private halt(false) returns(bool) {\n        if (_temperature > products[_batchID].temperature) {\n            products[_batchID].status = false;\n            emit badTemperature(\"temperature is low\");\n            return false;\n        }\n        return true;\n    }\n\n\n    // allow owner to reset product status in the event of oracle malfunction\n    // they must provide an alternative temperature reading\n    function updateStatus(bytes32 _batchID, uint256 _temperature) public halt(false) onlyOwner(msg.sender, _batchID) {\n        compareTemperature(_batchID, _temperature);\n    }\n\n    /* CERTIFICATE FUNCTIONS ------------------------------------------------------------------ */\n\n    /**\n     * @notice based the product certificate and issuer signature\n     *         recovers the address of CA who signed the certificate\n     *         and verifies whether it is registered with DOA \n     * @dev    anyone can call function \n     * @param  _batchID unique batch ID to get the product \n     * @return bool if the issuer is registered with DOA, then \n     *         certificate is valid, otherwise returns false \n    **/\n    function verifyCertificate(bytes32 _batchID) public view halt(false) returns(bool) {\n        bytes32 certificate = products[_batchID].certificate; \n        bytes memory signature = products[_batchID].signature; \n        // recovered issuer from the certificate and his signature \n        address issuer = recoverIssuer(certificate, signature); \n        if (verifyIssuer(issuer) == true) { return true; }\n        return false; \n    }\n\n    /**\n     * @notice verify that the certifying authority is ligitimate\n     *         and has been registrered with DOA registry contract,\n     *         and thus eligible to issue organic certificates\n     * @dev    other functions from this contract can call\n     * @param  _issuer unique batch ID to get the product \n     * @return bool true if the issuer registered with DOA,\n     *         otherwise false\n    **/\n    function verifyIssuer(address _issuer) internal view returns(bool) {\n        AuthorityRegistry registry = AuthorityRegistry(DOA);  \n        return registry.checkPublicKey(_issuer);\n    }\n\n    /**\n     * @notice functions recovers the signer of the certificate from the provided certificate \n               (message signed by authority) and signature \n     * @dev    called internally from placeBid function  \n     * @param  _hash the batch certificate signed by CA \n     * @param  _sig CA's bytes signature generated using web3.eth.sign()\n     * @return issuer address (authority who issued/signed the organic certificate to the product batch)\n    **/\n    // copyright: https://github.com/protofire/zeppelin-solidity/blob/master/contracts/ECRecovery.sol\n    function recoverIssuer(bytes32 _hash, bytes memory _sig) internal pure returns(address) {\n        bytes32 r; bytes32 s; uint8 v;\n        //Check the signature length\n        if (_sig.length != 65) { return (address(0)); }\n        assembly {\n            r := mload(add(_sig, 32))\n            s := mload(add(_sig, 64))\n            v := byte(0, mload(add(_sig, 96)))\n        }\n        if (v < 27) { v += 27; }\n\n        // If the version is correct return the signer address\n        if (v != 27 && v != 28) { return (address(0)); } \n        else { return ecrecover(_hash, v, r, s); }\n    }\n\n    /* UTILITIES FUNCTIONS -------------------------------------------------------------------- */\n\n    /**\n     * @notice permanently deactivate contract \n     * @dev    only the contract owner / deployer can call\n    **/\n    function destroyContract() public onlyDeployer() {\n        selfdestruct(owner); \n    }\n\n    /**\n     * @notice temporarily deactivate contract \n     * @dev    only the contract owner / deployer can call\n    **/\n    function emergencyHalt() public onlyDeployer() halt(false) {\n        halted = true;\n    }\n\n    /**\n     * @notice re-activate contract \n     * @dev    only the contract owner / deployer can call\n    **/\n    function restartContract() public onlyDeployer() halt(true) {\n        halted = false;\n    }\n\n}",
  "sourcePath": "/Users/dariaschumm/Library/Mobile Documents/com~apple~CloudDocs/6452/project_2/contracts/Product.sol",
  "compiler": {
    "name": "solc",
    "version": "0.8.15+commit.e14f2714.Emscripten.clang"
  },
  "schemaVersion": "3.4.8",
  "updatedAt": "2022-07-22T09:21:35.584Z",
  "networkType": "ethereum",
  "devdoc": {
    "kind": "dev",
    "methods": {
      "addCertificate(bytes32,bytes32,bytes)": {
        "details": "only the producer of the product can call ",
        "params": {
          "_batchID": "unique identifier of the batch ",
          "_certificate": "certificate certifying product batch",
          "_signature": "signature of the certificate issuer *"
        }
      },
      "addProducer(address)": {
        "details": "only contract owner can call ",
        "params": {
          "_producer": "batch producer address *"
        }
      },
      "addProduct(bytes32,uint256,string)": {
        "details": "only registered producer can call ",
        "params": {
          "_CID": "unique identifier of the off-chain storage*",
          "_data": "product data hash ",
          "_temperature": "stores required temperature"
        }
      },
      "destroyContract()": {
        "details": "only the contract owner / deployer can call*"
      },
      "emergencyHalt()": {
        "details": "only the contract owner / deployer can call*"
      },
      "getCertificate(bytes32)": {
        "details": "anyone can call function ",
        "params": {
          "_batchID": "unique batch ID to get the product "
        },
        "returns": {
          "_0": "bytes32 batch certificate on-chain",
          "_1": "bytes array of the issuer signature*"
        }
      },
      "getDatabase(bytes32)": {
        "details": "anyone can call function ",
        "params": {
          "_batchID": "unique batch ID to get the product "
        },
        "returns": {
          "_0": "string unique IPFS storage identifier (CID)*"
        }
      },
      "getProducer(address)": {
        "details": "anyone can call function ",
        "params": {
          "_producer": "batch producer address "
        },
        "returns": {
          "_0": "bool true if address is in mapping *"
        }
      },
      "getProduct(bytes32)": {
        "details": "anyone can call function ",
        "params": {
          "_batchID": "unique batch ID to get the product "
        },
        "returns": {
          "_0": "bytes32 product hash stored on-chain ",
          "_1": "address of the current owner of the batch *"
        }
      },
      "restartContract()": {
        "details": "only the contract owner / deployer can call*"
      },
      "updateOwner(bytes32,bytes32,address)": {
        "details": "only the current owner of the product can call ",
        "params": {
          "_batchID": "unique identifier of the batch ",
          "_newOwner": "address of a new batch owner *",
          "_productHash": "hash of the product to verify"
        }
      },
      "verifyCertificate(bytes32)": {
        "details": "anyone can call function ",
        "params": {
          "_batchID": "unique batch ID to get the product "
        },
        "returns": {
          "_0": "bool if the issuer is registered with DOA, then          certificate is valid, otherwise returns false *"
        }
      },
      "verifyProductHash(bytes32,bytes32)": {
        "details": "anyone can call ",
        "params": {
          "_batchID": "unique identifier of the batch ",
          "_offchainHash": "certificate certifying product batch"
        },
        "returns": {
          "_0": "bool if the hash stored on-chain is the same as newly computed hash,         then product infromation is correct and has not been modified *"
        }
      }
    },
    "version": 1
  },
  "userdoc": {
    "kind": "user",
    "methods": {
      "addCertificate(bytes32,bytes32,bytes)": {
        "notice": "producer adds a certificate obtained from the          CA from off-chain, the producer has to be the          current batch owner to add certificate "
      },
      "addProducer(address)": {
        "notice": "contract deployer adds authorised producer         to the mapping, which gives permissions to          add products and certificate "
      },
      "addProduct(bytes32,uint256,string)": {
        "notice": "add product infromation to the data hash         and conditions hash generated from off-chain"
      },
      "destroyContract()": {
        "notice": "permanently deactivate contract "
      },
      "emergencyHalt()": {
        "notice": "temporarily deactivate contract "
      },
      "getCertificate(bytes32)": {
        "notice": "get the product certificate and signer signature"
      },
      "getDatabase(bytes32)": {
        "notice": "get the product off-chain storage location "
      },
      "getProducer(address)": {
        "notice": "checks whether the producer address is         authorised to add product and certificate"
      },
      "getProduct(bytes32)": {
        "notice": "get the product hash and owner by its unique ID"
      },
      "restartContract()": {
        "notice": "re-activate contract "
      },
      "updateOwner(bytes32,bytes32,address)": {
        "notice": "transfer the ownership of the product batch, supported by          certificate verification and check of the product hash         that is stored on-chain and freshly computed one"
      },
      "verifyCertificate(bytes32)": {
        "notice": "based the product certificate and issuer signature         recovers the address of CA who signed the certificate         and verifies whether it is registered with DOA "
      },
      "verifyProductHash(bytes32,bytes32)": {
        "notice": "allows to verify data in the off-chain data store about product"
      }
    },
    "version": 1
  }
}