{
  "contractName": "TemperatureOracle",
  "abi": [
    {
      "inputs": [
        {
          "internalType": "address",
          "name": "serverAddr",
          "type": "address"
        }
      ],
      "stateMutability": "nonpayable",
      "type": "constructor"
    },
    {
      "anonymous": false,
      "inputs": [
        {
          "indexed": false,
          "internalType": "uint256",
          "name": "requestId",
          "type": "uint256"
        },
        {
          "indexed": false,
          "internalType": "address",
          "name": "caller",
          "type": "address"
        }
      ],
      "name": "request",
      "type": "event"
    },
    {
      "inputs": [
        {
          "internalType": "uint256",
          "name": "requestId",
          "type": "uint256"
        },
        {
          "internalType": "address",
          "name": "caller",
          "type": "address"
        },
        {
          "internalType": "bytes",
          "name": "data",
          "type": "bytes"
        }
      ],
      "name": "replyData",
      "outputs": [],
      "stateMutability": "nonpayable",
      "type": "function"
    },
    {
      "inputs": [
        {
          "internalType": "uint256",
          "name": "requestId",
          "type": "uint256"
        }
      ],
      "name": "requestData",
      "outputs": [],
      "stateMutability": "nonpayable",
      "type": "function"
    },
    {
      "inputs": [],
      "name": "trustedServer",
      "outputs": [
        {
          "internalType": "address",
          "name": "",
          "type": "address"
        }
      ],
      "stateMutability": "view",
      "type": "function"
    }
  ],
  "bytecode": "0x608060405234801561001057600080fd5b506040516106b93803806106b9833981810160405281019061003291906100dd565b80806000806101000a81548173ffffffffffffffffffffffffffffffffffffffff021916908373ffffffffffffffffffffffffffffffffffffffff160217905550505061010a565b600080fd5b600073ffffffffffffffffffffffffffffffffffffffff82169050919050565b60006100aa8261007f565b9050919050565b6100ba8161009f565b81146100c557600080fd5b50565b6000815190506100d7816100b1565b92915050565b6000602082840312156100f3576100f261007a565b5b6000610101848285016100c8565b91505092915050565b6105a0806101196000396000f3fe608060405234801561001057600080fd5b50600436106100415760003560e01c80632adb9e3c146100465780632be4e8bb146100625780635b7c569a1461007e575b600080fd5b610060600480360381019061005b9190610210565b61009c565b005b61007c600480360381019061007791906103e1565b6100d8565b005b6100866101a2565b604051610093919061045f565b60405180910390f35b7f9ad8a98020b6dad44acbf88ecd6cf7536823e301cab64c14479f81dc2980898e81336040516100cd929190610489565b60405180910390a150565b60008054906101000a900473ffffffffffffffffffffffffffffffffffffffff1673ffffffffffffffffffffffffffffffffffffffff163373ffffffffffffffffffffffffffffffffffffffff161461013057600080fd5b8173ffffffffffffffffffffffffffffffffffffffff16635dd4a9dc84836040518363ffffffff1660e01b815260040161016b92919061053a565b600060405180830381600087803b15801561018557600080fd5b505af1158015610199573d6000803e3d6000fd5b50505050505050565b60008054906101000a900473ffffffffffffffffffffffffffffffffffffffff1681565b6000604051905090565b600080fd5b600080fd5b6000819050919050565b6101ed816101da565b81146101f857600080fd5b50565b60008135905061020a816101e4565b92915050565b600060208284031215610226576102256101d0565b5b6000610234848285016101fb565b91505092915050565b600073ffffffffffffffffffffffffffffffffffffffff82169050919050565b60006102688261023d565b9050919050565b6102788161025d565b811461028357600080fd5b50565b6000813590506102958161026f565b92915050565b600080fd5b600080fd5b6000601f19601f8301169050919050565b7f4e487b7100000000000000000000000000000000000000000000000000000000600052604160045260246000fd5b6102ee826102a5565b810181811067ffffffffffffffff8211171561030d5761030c6102b6565b5b80604052505050565b60006103206101c6565b905061032c82826102e5565b919050565b600067ffffffffffffffff82111561034c5761034b6102b6565b5b610355826102a5565b9050602081019050919050565b82818337600083830152505050565b600061038461037f84610331565b610316565b9050828152602081018484840111156103a05761039f6102a0565b5b6103ab848285610362565b509392505050565b600082601f8301126103c8576103c761029b565b5b81356103d8848260208601610371565b91505092915050565b6000806000606084860312156103fa576103f96101d0565b5b6000610408868287016101fb565b935050602061041986828701610286565b925050604084013567ffffffffffffffff81111561043a576104396101d5565b5b610446868287016103b3565b9150509250925092565b6104598161025d565b82525050565b60006020820190506104746000830184610450565b92915050565b610483816101da565b82525050565b600060408201905061049e600083018561047a565b6104ab6020830184610450565b9392505050565b600081519050919050565b600082825260208201905092915050565b60005b838110156104ec5780820151818401526020810190506104d1565b838111156104fb576000848401525b50505050565b600061050c826104b2565b61051681856104bd565b93506105268185602086016104ce565b61052f816102a5565b840191505092915050565b600060408201905061054f600083018561047a565b81810360208301526105618184610501565b9050939250505056fea264697066735822122085a67c12c23dd41d1cdac540e4c1c17e9cfe63459b0e5d1d872299ef78082a7864736f6c634300080f0033",
  "immutableReferences": {},
  "source": "// SPDX-License-Identifier: GPL-3.0\n\npragma solidity >=0.7.0 <0.9.0;\n\ninterface OracleInterface {\n    function requestData(uint256 requestId) external;\n}\n\nabstract contract OracleClient {\n\n    address _oracleAddr;\n    uint256 _requestCounter = 0;\n\n    constructor(address oracleAd) {\n        _oracleAddr = oracleAd;\n    }\n\n    modifier oracleOnly() { require(msg.sender == _oracleAddr); _; }\n\n    function requestDataFromOracle() internal returns (uint256) {\n        OracleInterface(_oracleAddr).requestData(++_requestCounter);\n        return _requestCounter;\n    }\n\n    function receiveDataFromOracle(uint256 requestId, bytes memory data) public virtual;\n}\n\nabstract contract Oracle is OracleInterface {\n\n    event request(uint256 requestId, address caller);\n\n    address public trustedServer;\n\n    modifier trusted() { require(msg.sender == trustedServer); _; }\n\n    constructor(address serverAddr) {\n        trustedServer = serverAddr;\n    }\n\n    function requestData(uint256 requestId) public {\n        emit request(requestId, msg.sender);\n    }\n\n    function replyData(uint256 requestId, address caller, bytes memory data) public virtual trusted {\n        OracleClient(caller).receiveDataFromOracle(requestId, data);\n    }\n}\n\n\ncontract TemperatureOracle is Oracle {\n    constructor(address serverAddr) Oracle(serverAddr) {}\n}\n\n\nabstract contract TemperatureOracleClient is OracleClient {\n\n    constructor(address oracleAd) OracleClient(oracleAd) {}\n\n    function requestTemperatureFromOracle() internal returns (uint256) {\n        requestDataFromOracle();\n        return _requestCounter;\n    }\n\n    function receiveDataFromOracle(uint256 requestId, int256 temp1) public oracleOnly {\n        // (int256 temp1) = abi.decode(data, (int256));\n        receiveTemperatureFromOracle(requestId, temp1);\n    }\n\n    function receiveTemperatureFromOracle(uint256 requestId, int256 temperature1) internal virtual;\n}",
  "sourcePath": "/Users/dariaschumm/Library/Mobile Documents/com~apple~CloudDocs/6452/project_2/contracts/Oracle.sol",
  "compiler": {
    "name": "solc",
    "version": "0.8.15+commit.e14f2714.Emscripten.clang"
  },
  "schemaVersion": "3.4.8",
  "updatedAt": "2022-07-22T09:15:56.174Z",
  "devdoc": {
    "kind": "dev",
    "methods": {},
    "version": 1
  },
  "userdoc": {
    "kind": "user",
    "methods": {},
    "version": 1
  }
}